:100000000C94DB040C94F8040C94F8040C94922DDA
:100010000C94F8040C94692E0C941B150C94912EDE
:100020000C94F8040C94F8040C94F8040C94AD149B
:100030000C94F8040C94F8040C94B82D0C94F80467
:100040000C94F8040C94F8040C9488360C9438360C
:100050000C942E360C94F8040C94F8040C94F804C8
:100060000C94F8040C94F804661FB61FAE1F8D1F85
:100070007C1FCD1DC41F6F1FF91D041E0E1E281EE0
:10008000171ECD1D9E1E961E7E1ECD1D351ECD1D1E
:10009000CD1DE11ECA1EBA1E481F3B1F571F2F1F32
:1000A000737461636B20636F6C6C6973696F6E212D
:1000B000004552524F520A004F4B0A00574C4D20F8
:1000C00074696D656F7574003E3E3E206261636BBE
:1000D00020696E2072616E67652066726F6D2068A0
:1000E000696768203C3C3C003E3E3E206261636B99
:1000F00020696E2072616E67652066726F6D206C7C
:100100006F77203C3C3C003E3E3E206C6F77206C7D
:100110006576656C206E6F74696669636174696F7A
:100120006E203C3C3C003E3E3E2068696768206C87
:100130006576656C206E6F74696669636174696F5A
:100140006E203C3C3C005A0A003B53003B004900F7
:10015000756E7265636F676E697A656420636F6D33
:100160006D616E640065657772697465004545561A
:10017000616C004545416464720065657265616447
:10018000007265626F6F74006271687700736D73DF
:100190000068696768006C6F77006F6666006F6E55
:1001A000006E6F74696679004C6173745265626F9A
:1001B0006F7400757074696D650043757254696D74
:1001C000650074696D650054535F574B0054535F6D
:1001D000506F72740054535F416464720054535FF3
:1001E000456E007468696E67737065616B006C6F53
:1001F00067496E74657276616C006C6F67696E74C6
:10020000657276616C0073616D706C65496E7465C2
:100210007276616C0073616D706C65696E74657285
:1002200076616C0049505F506F72740049505F41B5
:100230006464720069707365727665720066756CCD
:100240006C00656D7074790064697374616E6365C8
:100250000041504E270061706E007265626F6F74CE
:10026000007265626F6F7400776C6D54696D656FB5
:10027000757400776C6D54696D656F75740062619B
:100280007463616C0062617443616C0077647463D1
:10029000616C0077647443616C007463616C00741A
:1002A00043616C4F6666736574006964006964003D
:1002B00050494E0050494E0067657400777269746A
:1002C000656B657900706F72740061646472657348
:1002D00073006F6666006F6E007468696E67737096
:1002E00065616B0066756C6C00656D707479006C8F
:1002F0006F67696E74657276616C0073616D706CA6
:1003000065696E74657276616C006970736572768A
:1003100065720061706E007265626F6F7400776C59
:100320006D54696D656F75740062617443616C0032
:1003300077647443616C007443616C4F66667365E7
:100340007400696400736574007473657400746F7D
:100350000073746174757300223A2200223A2200FD
:100360007B00223A002020002C713A002C723A00C7
:100370005F5F002C543A002C56633A002C56623AC8
:10038000002C553A002C002C73743A003733353367
:1003900000686F6C6F6772616D006170692E7468C0
:1003A000696E67737065616B2E636F6D00746F6E3D
:1003B000797A2E64796E646E732E6F7267000D0009
:1003C0000D0A003A003A003A007368757474696E59
:1003D0006720646F776E2E2E2E005461646A3A2077
:1003E000000102040810200052454320554E52459A
:1003F00041440052454320524541440053544F204C
:10040000554E53454E540053544F2053454E5400BF
:10041000414C4C00E703E803F303FC03070410041A
:10042000457865436D643A0041542B435245473F3C
:10043000005443504950207375627461736B20639C
:100440006F6D706C65746564006572726F72207395
:10045000656E64696E6720726573706F6E73650098
:1004600073656E7420726573706F6E73650073656B
:100470006E64696E67206D6573736167652074656E
:1004800078742026204374726C2D5A006D65737346
:100490006167652064656C657465640044656C65BE
:1004A00074696E67206D65737361676500476F746B
:1004B00020434D47522E005265676973746572651B
:1004C000642E0041542B434950484541443D31007E
:1004D00041542B4349505153454E443D3100415402
:1004E0002B434D47463D310050494E2072656164B3
:1004F000792E00436865636B696E672050494E0032
:10050000415445300043656C6C756C6172204D6FD1
:1005100064756C65205265616479003E3E3E3E2004
:1005200044697361626C696E672043656C6C756CBD
:100530006172204D6F64756C65203C3C3C3C00430F
:100540006865636B2074696D65003E3E3E3E2045E4
:100550006E61626C696E672043656C6C756C61726C
:10056000204D6F64756C65203C3C3C3C003E3E3E3B
:100570002054696D656F7574203C3C3C0041542BE0
:10058000434D47533D220041542B434D47523D00BC
:1005900041542B43434C4B3F0041542B434D474464
:1005A0003D0041542B4353510041542B43424300DF
:1005B0007175657565696E67206D73672000736579
:1005C0006E74204374726C2D5A006E6F2047505227
:1005D00053006E6F74207265676973746572656429
:1005E00000756E657870656374656420636F6E6E08
:1005F000656374696F6E2073746174757300636FE3
:100600006E6E656374696E67205443504950006490
:100610006973636F6E6E656374696E6720544350CF
:1006200049500073656E64696E672064617461008F
:1006300041542B43474154543F0041542B434950AC
:1006400053454E440041542B4349505348555400A0
:10065000756E6578706563746564204950207374A5
:1006600061746520696E20636F6E6E65637400410E
:10067000542B43494943520041542B43494653525A
:100680000041542B435354543D22002200222C227B
:100690000041542B43495053544152543D2254433A
:1006A00050222C2200756E65787065637465642035
:1006B000495020737461746520696E2073656E649F
:1006C000446174610041542B43495041434B0075D0
:1006D0006E65787065637465642049502073746139
:1006E000746520696E20646973636F6E6E656374F0
:1006F0000041542B434950434C4F53450041542B28
:10070000434950535441545553003E3E3E204469A2
:1007100073636F6E6E6563746564003E3E3E204495
:100720006973636F6E6E656374696E67003E3E3E0B
:100730002053656E64696E672044617461003E3EBB
:100740003E20436F6E6E6563746564003E3E3E20DE
:10075000436F6E6E656374696E6700434C4F53451B
:10076000204F4B00434C4F53454400434F4E4E45A2
:100770004354204641494C00434F4E4E454354207C
:100780004F4B0043616C6C205265616479004552A7
:10079000524F52004E4F524D414C20504F574552F0
:1007A00020444F574E004F4B005244590053454E82
:1007B00044204641494C0053454E44204F4B005382
:1007C000485554204F4B00534D5320526561647976
:1007D000005B0764076B07780783078E079407A6FB
:1007E00007A907AD07B707BF07C707434243004341
:1007F000434C4B004346554E00434741545400433D
:10080000495041434B00434D474C00434D47520034
:10081000434D475300434D5449004350494E004314
:10082000524547004353510050445000EB07EF0737
:10083000F407F907FF0706080B08100815081A083F
:100840001F0824082808434F4E4E454354204F4B61
:1008500000495020434F4E464947004950204750D9
:10086000525341435400495020494E495449414C48
:100870000049502053544152540049502053544190
:10088000545553005044502044454143540053456F
:1008900052564552204C495354454E494E470054F8
:1008A000435020434C4F5345440054435020434C45
:1008B0004F53494E470054435020434F4E4E4543FB
:1008C00054494E470055445020434C4F5345440033
:1008D00055445020434C4F53494E470055445020F7
:1008E000434F4E4E454354494E4700460851085B1E
:1008F00008660871087A0884088E089F08AA08B656
:1009000008C508D008DC082D2D2D204F6666202D47
:100910002D2D002D2D2D204F6E202D2D2D004441ED
:100920005441204143434550543A005354415445A7
:100930003A2000756E7265633A00444541435400A5
:10094000756E7265633A0052656164792100506F7B
:10095000776572656420446F776E21004661696C2B
:10096000656400436F6E6E656374696F6E20434CFF
:100970004F53454400436F6E6E6563742046414992
:100980004C00436F6E6E656374204F4B002B4950D3
:10099000442C00535354583100535354583000538F
:1009A00053525830005353525832000D0A005554D8
:1009B00058005552580011241FBECFEFD8E0DEBFBB
:1009C000CDBF11E0A0E0B1E0E8E8F9E702C0059092
:1009D0000D92A039B107D9F716E0A0E9B1E001C046
:1009E0001D92AE3EB107E1F70E94FA040C94C23C9E
:1009F0000C9400002F923F924F925F926F927F92E1
:100A00008F929F92AF92BF92CF92DF92EF92FF921E
:100A10000F931F93DF93CF9300D000D00F92CDB7E9
:100A2000DEB72DE088E190E00FB6F894A8958093AA
:100A300060000FBE209360000E949A110E9444162D
:100A40000E945E170E94E9190E94931A0E94611B7E
:100A50000E94252E0E94FF2E0E94C3120E943F1C5E
:100A60000E9421210E9478250E94E8050E941F3AD9
:100A700078942E010894411C511C98E1292E312CA8
:100A800018C00E94FD160E948F170E943B190E94F9
:100A9000051A0E94AD1A0E94E9260E94F7120E94D0
:100AA000A9240E94A71D0E94EA070E94FC05882332
:100AB00059F40E94233A882321F780EA90E00E94AB
:100AC000AF120E942515DDCF0E945E14882389F79E
:100AD0000E942E1480917A008F7780937A00809103
:100AE00064008F6E809364002FE320937E0083E088
:100AF00080937F0015B818B81BB80E9465107C0160
:100B0000C2010E94A21369807A808B809C80570169
:100B1000CC24DD24F694E79400E010E0E60CF71C0A
:100B2000081D191DC801B701A60195010E94393C95
:100B30002F5F3F4F4F4F5F4FCA01B901A60195018B
:100B40000E94F33B6619770988099909603020E013
:100B5000720721E0820720E092074CF18FEF9FEFB0
:100B60000E945815809164008071809364008DE02C
:100B70000FB6F894A895209260000FBE8093600095
:100B80000E945E170E94E9190E94931A0E94611B3D
:100B90000E94252E0E94FF2E0E94C3120E943F1C1D
:100BA0000E9421210E9478250E94060682CF97FD8F
:100BB00002C0CB01D5CF80E090E0D2CF882321F4D2
:100BC00082E080939201089581E0809392010895DC
:100BD0001092910110929001109200011092010167
:100BE0008FEF9FEF90939F0180939E0189E4809304
:100BF000A40110929801089590E0809191018A30AB
:100C000011F0892F089591E0892F089581E0809354
:100C100091010895809191010895FF920F931F9380
:100C2000CF93DF938C01DC0111962C91222309F4E0
:100C30003FC0C0E0D0E0FF24F3940EC010929801B2
:100C400065E071E00E94372FF80121812196822F03
:100C500090E0C817D90764F5D8011296ED91FC9180
:100C60001397EC0FFD1F80818D3011F08A3031F722
:100C700080910601882351F3F0929801813021F789
:100C8000E0910701F0910801E081EB35B9F0ED3515
:100C900031F41092900185E091E00E94302FD8014C
:100CA00011962C912196822F90E0C817D907A4F2B3
:100CB000DF91CF911F910F91FF900895F0929001D5
:100CC00085E091E00E94302FF8012181BFCF0E9482
:100CD000A51B1092980185E091E00E94302F8DE0D5
:100CE00096E00E94722480E00E949F2408950F9352
:100CF0001F93DF93CF9300D000D0CDB7DEB70E9413
:100D0000D9208F3F910509F010F590E060EA71E07D
:100D10008E010F5F1F4FA8010E941930C8010E9469
:100D2000D02040E02091A0013091A1018091A2014A
:100D30009091A3012817390769F0842F0F900F9025
:100D40000F900F90CF91DF911F910F9108958FEF2A
:100D500090E0DCCF41E0F1CFCF92DF92EF92FF92B3
:100D60000F931F93DF93CF93CDB7DEB7A8970FB63E
:100D7000F894DEBF0FBECDBF0E94D9204E9708F475
:100D80006AC0FE013A968FE1DF011D928A95E9F76C
:100D90008EE189831A82FC83EB8380919E0190917E
:100DA0009F01BFEF8F3F9B0709F457C060E071E0E0
:100DB0000E940D198C016E010894C11CD11CC60142
:100DC0000E94302F8CE491E0B6010E94A42FF8011C
:100DD00080819181892B09F0BEC087E5B6010E9410
:100DE000372FF8018281938161E040E096010E94F3
:100DF000223384E5B6010E94372FD80114968C91D6
:100E000090E061E040E096010E94223320919E0133
:100E100030919F012F5F3F4F30939F0120939E01A0
:100E20008091010190E0281739070CF078C010E09C
:100E3000C6010E94D320812FA8960FB6F894DEBF7A
:100E40000FBECDBFCF91DF911F910F91FF90EF901B
:100E5000DF90CF90089510E0EECF6E010894C11C92
:100E6000D11CC6010E94302F8EE491E0B6010E9491
:100E7000A42F0E94831061E040E096010E9422337B
:100E80008EE4B6010E94372F8E010B5F1F4FC80101
:100E90000E94A213C8010E94611490E061E040E04A
:100EA00096010E942233C8010E94761490E062E00D
:100EB00040E096010E942233C8010E948B1490E00A
:100EC00062E040E096010E9422338CE4B6010E9469
:100ED000372F8091A50190E061E040E096010E94EB
:100EE000223382E4B6010E94372F0E94AC1961E0E0
:100EF00040E096010E94223382E5B6010E94372F1E
:100F00000E94C31B90E061E040E096010E94223302
:100F100081E5B6010E94372F0E94D51B71CFCE010B
:100F200005960E94A213ED80FE800F8118858091A6
:100F3000990190919A01A0919B01B0919C01E81AAE
:100F4000F90A0A0B1B0BA1F486E491E0B6010E949A
:100F5000A42F11E06DCF83E5B6010E94372FD80191
:100F60008D919C9161E040E096010E94223335CF43
:100F700089E491E0B6010E94A42FC70161E040E03E
:100F800096010E942233E0CF80E00E9496240E94C6
:100F9000A91B8CE291E063E971E00E94C41388E030
:100FA00080939101089580919001813079F080E0E3
:100FB0000E9496240E94A91B8CE291E063E971E0F3
:100FC0000E94C41388E080939101089585E0809386
:100FD00091010895AF92BF92CF92DF92EF92FF926C
:100FE0000F931F93DF93CF93CDB7DEB72E970FB636
:100FF000F894DEBF0FBECDBF90919101892F825032
:10100000863008F443C0943009F44BC09530E8F0C2
:10101000973009F4EDC0983008F051C0953009F4CC
:1010200047C1963009F42DC12E960FB6F894DEBF55
:101030000FBECDBFCF91DF911F910F91FF90EF9029
:10104000DF90CF90BF90AF900895913009F4D9C050
:10105000913008F446C0923009F46DC0933021F706
:101060000E948024882301F3109292018FEF9FEF5A
:1010700090939F0180939E018CEA96E06EED75E05F
:101080000E94772484E080939101CECF83E991E0A0
:101090000E940814882399F590919101943009F0E9
:1010A000B5CF80919201813009F433C1823009F0CB
:1010B000BBCF1092900185E080939101B5CF98301D
:1010C00029F1993009F0B0CF83E991E00E9408142A
:1010D000882309F4A9CF399A41988AE08093910135
:1010E000A3CFCE010A960E94A2138A859B85AC8568
:1010F000BD850297A105B10580F781E0EFCF8CEBAC
:1011000090E00E94AF120E94C407C6CF0E94AC1BA1
:10111000882339F083E991E00E940814882309F4B8
:1011200083CF88EC90E063E971E00E94C41389E00A
:101130008093910179CF0E943019882309F474CFEC
:101140000E94FD19882309F46FCF0E94A51A8823F5
:1011500009F46ACF8E01065F1F4FC8010E94A213D7
:1011600080910101882309F010C11E821D82A9E926
:10117000B1E0F80185E001900D928150E1F70E9405
:10118000431A89870E94371B98878F83CE01059663
:1011900060E071E00E94DA188F8198856AE070E063
:1011A0000E94123C8B010E946F107C010E946A1009
:1011B0006C010E151F0508F4FBC01092A50180916B
:1011C000A401893409F41CC18C3409F405C18834A4
:1011D00009F48BC010E00E946F24882329F41123A6
:1011E00009F4F0C00E94670683E0809391011CCF50
:1011F000809192018150823008F016CF0E94D3076F
:1012000013CF399A419A0E9465105C010E946010C8
:101210007C0183E991E00E94A213B5017695679560
:1012200080E090E0209193013091940140919501EC
:1012300050919601620F731F841F951F00E010E00C
:10124000A80197010E94393CCC24DD246A157B0556
:101250008C059D0510F40E9467060E94741024E618
:1012600030E0AC01429FC001439F900D529F900D12
:10127000112463E971E00E94C41382E0809391011C
:10128000D3CE0E948024882309F4CECE10929201FE
:1012900089E091E060EA71E00E940D3187E796E015
:1012A0006EED75E00E94772487E080939101BCCEBB
:1012B00080919801882309F4B7CE1092980189E0B3
:1012C00091E00E94302F80910601882361F50E94F1
:1012D0005E14882309F050C080910A01882309F424
:1012E0008DCF86E0809391019FCE0091A50110E003
:1012F0000E943E1190E00597081719070CF06ACF7D
:1013000088EC90E00E94AF1289E48093A40110E081
:1013100062CF10920001109201011092900185E0BD
:101320008093910181CE85E091E08E010F5F1F4F88
:10133000B8010E940D31C80169E071E00E94D70B2D
:10134000182F85E091E00E94302F80910A018823B8
:10135000B1F480919001813009F0B9CF112379F572
:1013600001EB10E089E091E00E94302FC80169E0B4
:1013700071E00E94A42FABCF0E94C40755CE8AE033
:1013800069E071E00E94372FA2CF8A859B85AC85EA
:10139000BD852091990130919A0140919B01509116
:1013A0009C01821B930BA40BB50B9E838D83DFCE18
:1013B00080179107D8F184E68093A50100CF08EB50
:1013C00010E0D0CF82E390E063E971E00E94C413A3
:1013D00089E08093910128CE0091A50110E00E9440
:1013E000431190E00596801791070CF0F3CE88EE3C
:1013F00090E00E94AF1289E48093A40110E0EBCE4C
:101400000E943E119091A501981728F50E94431162
:101410009091A501891708F4DDCE87E091E00E9444
:10142000AF128CE48093A40111E0D5CEB701601B0C
:10143000710B80E090E024E630E040E050E00E9454
:10144000F33BEC18FD08970140E050E00E94393C66
:101450002093A501B4CE86E291E00E94AF1288E409
:101460008093A40111E0B7CECF92DF92EF92FF926A
:101470000F931F938C016B017A0182E2BA010E94E3
:10148000372FC801B7010E94A42F88E593E0B70168
:101490000E94A42FC701F601099582E2B7010E94BC
:1014A000372F1F910F91FF90EF90DF90CF9008950D
:1014B000CF92DF92EF92FF920F931F938C016B01FB
:1014C0007A0182E2BA010E94372FC801B7010E9457
:1014D000A42F8CE593E0B7010E94A42FC601B701A9
:1014E0000E94831682E2B7010E94372F1F910F914D
:1014F000FF90EF90DF90CF9008950F931F938C0192
:101500000E94302F80E693E0B8010E94A42F1F9123
:101510000F910895CF92DF92EF92FF920F931F9356
:101520008C016B017A0182E2BA010E94372FC80157
:10153000B7010E94A42F82E693E0B7010E94A42F76
:10154000C60161E040E097010E9422331F910F9194
:10155000FF90EF90DF90CF900895EF92FF920F935E
:101560001F93DF93CF9300D0CDB7DEB78C017B0103
:101570000E9400321A821982C801B701AE014F5F82
:101580005F4F98010E94A33489819A810F900F9038
:10159000CF91DF911F910F91FF90EF900895EF92FF
:1015A000FF920F931F93DF93CF9300D000D00F9241
:1015B000CDB7DEB77C010E94302F8E010F5F1F4F29
:1015C000C8010E94A213C801B7010E94831687E8D0
:1015D00093E0B7010E94A42F0E94D81B62E040E074
:1015E00097010E9422330E94D81B0E94DC1B882393
:1015F00009F072C085E893E0B7010E94A42F0E9411
:101600000A0690E061E040E097010E94223381E801
:1016100093E0B7010E94A42F0E94371B63E041E0D2
:1016200097010E9422338CE793E0B7010E94A42F18
:101630000E94AC1961E042E097010E94223387E7E3
:1016400093E0B7010E94A42F0E94E41B61E043E0F5
:1016500097010E94223383E793E0B7010E94A42FF1
:101660000E94FD19882381F580E793E0B7010E946D
:10167000A42F8CE693E0B7010E94A42F0E94C31B05
:1016800090E061E040E097010E94223388E693E019
:10169000B7010E94A42F0E94D51B90E062E040E0B9
:1016A00097010E94223385E693E0B7010E94A42FA0
:1016B0000F900F900F900F900F90CF91DF911F918F
:1016C0000F91FF90EF9008950E94431A61E040E06F
:1016D00097010E942233CDCF8EE2B7010E94372FAF
:1016E0000E94CC2062E040E097010E94223382CF2A
:1016F000CF92DF92EF92FF920F931F938C016B01B9
:101700007A01CA010E94302F80E693E0B7010E945F
:10171000A42F82E2B7010E94372FC801B7010E94AF
:10172000A42F88E593E0B7010E94A42FC701F6011A
:10173000099582E2B7010E94372F8DE7B7010E9419
:10174000372F1F910F91FF90EF90DF90CF9008956A
:10175000CF92DF92EF92FF920F931F938C016B0158
:101760007A01CA010E94302F80E693E0B7010E94FF
:10177000A42F82E2B7010E94372FC801B7010E944F
:10178000A42F82E693E0B7010E94A42FC60161E076
:1017900040E097010E9422338DE7B7010E94372F66
:1017A0001F910F91FF90EF90DF90CF900895CF920F
:1017B000DF92EF92FF920F931F93DF93CF93CDB7FA
:1017C000DEB76E970FB6F894DEBF0FBECDBFFC013B
:1017D0006B0181E0898380819181A281B3818A83B9
:1017E0009B83AC83BD8382E0E82EF12CEC0EFD1EC2
:1017F0008E010A5F1F4FC701B8010E946235C80100
:1018000061E573E00E94C830882381F11F861E863F
:10181000198A188AC701B8010E946235C8016EE4AE
:1018200073E00E94C830882309F070C0C6010E948E
:10183000CF0A2E853F85888999892817390709F4A9
:1018400071C0CE010E960E94E91B7981872F6E969A
:101850000FB6F894DEBF0FBECDBFCF91DF911F91C1
:101860000F91FF90EF90DF90CF900895C80169E449
:1018700073E00E94C830882339F1C7010E9400320A
:101880001E8A1F8A188E198EC701BE016F5F7F4F97
:10189000AE014A5E5F4F97010E9424342E893F8932
:1018A000488D598D2A873B874C875D8779817723BF
:1018B00069F2211531054105510541F2CE010A9623
:1018C0000E94E5157981C2CFC80165E473E00E94EA
:1018D000C830882349F1C701B8010E946235C801A8
:1018E00062E473E00E94C830882309F49BC0C701FA
:1018F000BE016F5F7F4F0E94AD0A7981772309F4A3
:10190000A5CF90E00E94C4107981A0CFC701BE018D
:10191000625F7F4F0E94623589CF198280E591E036
:101920000E94AF12798192CFC80168EB72E00E94E9
:10193000C830882309F494C0C701B8010E946235F9
:10194000C80164EB72E00E94C830882309F0FAC035
:10195000C8016DEA72E00E94C830882309F050C1C6
:10196000C8016FE972E00E94C830882309F057C1AE
:10197000C80163E972E00E94C830882309F094C16D
:10198000C80165E872E00E94C830882309F0B0C140
:10199000C80163E772E00E94C830882309F0EEC1F5
:1019A000C80161E672E00E94C830882309F00EC2C7
:1019B000C80166E572E00E94C830882309F033C28E
:1019C000C80168E472E00E94C830882309F042C26E
:1019D000C80164E372E00E94C830882309F06FC236
:1019E000C80165E172E00E94C830882309F05DC239
:1019F000C8016AEF71E00E94C830882309F00FC364
:101A0000C80163EE71E00E94C830882309F0D3C298
:101A1000C80162EC71E00E94C830882309F063C2FB
:101A200070E014CFC80167E373E00E94C8308823D8
:101A300009F07AC0C80160E373E00E94C8308823CF
:101A400009F4C9C0C701BE016F5F7F4F0E94AD0A94
:101A50007981772309F4FACE0E9488117981F6CE34
:101A6000C80161EA71E00E94C830882351F1C701C2
:101A7000B8010E946235C8016EE971E00E94C83069
:101A8000882309F0C7C0C8016AE971E00E94C83024
:101A9000882309F0E4C0C80166E971E00E94C830FB
:101AA000882309F4EBC0C701BE016F5F7F4F0E941E
:101AB000AD0A7981772309F4C9CE0E947C1179811E
:101AC000C5CEC8016DE871E00E94C830882309F4D2
:101AD00042C08E01025F1F4FC701B8010E946235EC
:101AE00088899E85891B863008F49ACFC8010E9498
:101AF00039308B3209F094CFC701BE016E5E7F4F43
:101B000040E050E00E94B3358A899B896C897D89C9
:101B10008617970709F406CFA6010E945B2FC8011C
:101B20000E94E91B798192CEC701BE016F5F7F4F92
:101B30000E94AD0A7981772309F488CE0E94B810FB
:101B4000798184CE80EB92E062EE70E1A6010E9482
:101B5000780B79817BCEC80168E871E00E94C830BB
:101B6000882309F081C0C80161E871E00E94C83093
:101B7000882309F0A4C0C8016AE771E00E94C83058
:101B8000882309F4C0C0C701BE016F5F7F4F0E9468
:101B9000AD0A8C017981772309F458CEC6010E94E1
:101BA0007D0A83E791E0B801A6010E948A0A8CE2CF
:101BB000B6010E94372FC8010E943138682F8DE688
:101BC00091E070E0A6010E948A0A8DE7B6010E94AA
:101BD000372F79813BCEC80169E273E00E94C8309B
:101BE000882339F1C701BE016F5F7F4F0E94AD0AA4
:101BF0007981772309F42ACE0E948211798126CE39
:101C00000E948310BC018AEA92E0A6010E94A80B00
:101C100079811CCE81E00E947011798117CE0E94DB
:101C20007910BC018AE992E0A6010E94A80B798193
:101C30000DCEC8016EE173E00E94C830882309F41C
:101C400042C0C701BE016F5F7F4F0E94AD0A79811C
:101C5000772309F4FBCD0E94B2107981F7CD80E0A3
:101C60000E9470117981F2CD0E94B12D0E948A2EBE
:101C70000E94BA2B0E9437377981E8CDC80161E90B
:101C800071E00E94C830882309F4CACEC701BE01A2
:101C90006F5F7F4F0E94AD0A7981772309F4D6CD1B
:101CA0000E9476117981D2CD0E944D11682F8CE867
:101CB00092E070E0A6010E94A80B7981C7CD0E9436
:101CC00025157981C3CDC80167E173E00E94C83052
:101CD0008823E1F1C701BE016F5F7F4F0E94AD0A0B
:101CE0007981772309F4B2CD0E94BE107981AECDFF
:101CF0000E944811682F8EE792E070E0A6010E94D2
:101D0000A80B7981A3CDC80165E671E00E94C830B7
:101D1000882309F402CEC7016E010894C11CD11CAE
:101D2000B6010E94AD0A8C017981772309F48ECD2A
:101D3000C701B6010E94AD0A682F7981772309F4A3
:101D400085CDC8010E942838798180CDC80163E122
:101D500073E00E94C8308823D9F0C701B8010E94FF
:101D600062352E813F81888599852817390709F4C6
:101D7000D9CDC8010E940011798168CD0E947410EC
:101D8000BC0188E692E0A6010E94A80B79815ECD95
:101D9000C8016AE073E00E94C830882309F1C701D6
:101DA000B8010E946235C701BE016F5F7F4F0E947C
:101DB000AD0A7C017981772309F448CDC8010E94DE
:101DC000E810C7010E948810798140CD0E947E10E2
:101DD000BC018AE592E0A6010E94A80B798136CD6C
:101DE000C8016BEF72E00E94C830882329F5C80152
:101DF0006FEE72E00E94C8308823F1F4C80169EEEA
:101E000072E00E94C8308823D1F1C701BE016F5F24
:101E10007F4F0E94AD0A7981772309F417CD0E9484
:101E2000AC10798113CD81E592E06CED70E1A601F3
:101E30000E94780B79810ACDC701BE016F5F7F4F89
:101E40000E94AD0A7981772309F400CD0E94A01089
:101E50007981FCCCC6010E947D0A0E946F10BC01F2
:101E600082E492E0A6010E948A0A8CE2B6010E94F6
:101E7000372F0E946A10BC018DE392E0A3CEC80107
:101E800064EE72E00E94C830882309F45FC0C70185
:101E9000BE016F5F7F4F0E94AD0A7981772309F4FD
:101EA000D5CC0E94A6107981D1CC0E946510BC01CE
:101EB00086E092E0A6010E94A80B7981C7CCC601FA
:101EC0000E947D0A8CE292E06AEC70E1A6010E9419
:101ED000340A8CE2B6010E94372F0E945110BC01D7
:101EE00084E292E06FCEC6010E947D0A8E01065EFA
:101EF0001F4FC8010E94A2138AEB91E0B801A6010E
:101F00000E94580A8CE2B6010E94372F0E94B61335
:101F10006A8F7B8F8C8F9D8F1E8E83EB91E0B80133
:101F2000A6010E94580A0E948E116A8F7B8F8C8FA7
:101F30009D8F1E8E88EA91E0B801A6010E94580A82
:101F40008DE7B6010E94372F798180CCC80169EDF9
:101F500072E00E94C830882309F462CDC701B8013D
:101F60000E946235C80166ED72E00E94C830882385
:101F700009F079C0C80162ED72E00E94C830882380
:101F800009F06CC0C8016AEC72E00E94C830882376
:101F900009F44FC0C701B8010E9462352E813F810C
:101FA000888599852817390709F4BCCCC8010E9497
:101FB000F81079814BCCC6010E947D0A0E94211144
:101FC000682F8DED91E070E0A6010E948A0A8CE2F4
:101FD000B6010E94372F85ED91E066ED70E1A60114
:101FE0000E94340A8CE2B6010E94372F0E945B10D7
:101FF000BC018DEC91E0A6010E948A0A8CE2B60138
:102000000E94372F87EC91E060ED70E1A6010E94FD
:10201000340A8DE7B6010E94372F798117CC0E94D0
:102020006010BC018EEE91E0A6010E94A80B7981A0
:102030000DCCC80165EC72E00E94C8308823C1F065
:10204000C701BE016F5F7F4F0E94AD0A7981772380
:1020500009F4FCCB0E9494107981F8CB80E00E94B7
:1020600064117981F3CB81E00E9464117981EECB18
:10207000C8016CEB72E00E94C830882309F4D0CC10
:10208000C701B8010E9462352E813F8188859985FC
:102090002817390709F446CCC8010E94F01079814D
:1020A000D5CB8FEA90E00E94393808958FE190E017
:1020B0000E943938089588E790E00E9439380895E1
:1020C0008AE190E00E943938089588E190E00E940A
:1020D0003938089583E290E00E943938089581E20A
:1020E00090E00E943938089585E190E00E943938E7
:1020F000089581E190E00E943938089587E090E0EA
:102100000E943938089581E090E00E94393808959E
:10211000BC018FEA90E00E94CE380895BC018FE1A7
:1021200090E00E94CE380895BC0188E790E00E94BC
:10213000CE380895BC018AE190E00E94CE3808951F
:10214000BC0188E190E00E94CE380895BC0183E292
:1021500090E00E94CE380895BC0181E290E00E9498
:10216000CE380895BC0185E190E00E94CE380895F4
:10217000BC0181E190E00E94CE380895BC0187E067
:1021800090E00E94CE380895BC0181E090E00E946A
:10219000CE380895BC018FE890E00E947138089510
:1021A000BC018AE790E00E9471380895BC0180E587
:1021B00090E00E9471380895BC0187E290E00E948F
:1021C00071380895BC0189E090E00E94713808954B
:1021D000AC018FE890E060E270E00E94A4380895BE
:1021E000AC018AE790E064E170E00E94A4380895B1
:1021F000AC0180E590E068E270E00E94A4380895A8
:10220000AC0187E290E068E270E00E94A438089593
:10221000AC0189E090E068E070E00E94A438089585
:102220008EE890E00E943138811181E008958EE1BE
:1022300090E00E94313808958DE190E00E9431389D
:1022400008958FE490E00E94313890E0813011F0E1
:10225000892F089591E0892F08958CE190E00E94E4
:102260003138089587E190E00E94313890E0813064
:1022700011F0892F089591E0892F089586E290E06A
:102280000E943138089585E290E00E943138089527
:1022900084E190E00E943138089583E190E00E944B
:1022A00031380895682F8EE890E00E94283808950C
:1022B000682F8EE190E00E9428380895682F8DE104
:1022C00090E00E9428380895682F8FE490E00E94E3
:1022D00028380895682F8CE190E00E9428380895EE
:1022E000682F87E190E00E9428380895682F86E2E1
:1022F00090E00E9428380895682F85E290E00E94BF
:1023000028380895682F84E190E00E9428380895C5
:10231000682F83E190E00E942838089583E090E0E0
:102320000E944F380895AB01BC0183E090E00E9409
:1023300089380895EF92FF920F931F93DF93CF9305
:10234000CDB7DEB7E1970FB6F894DEBF0FBECDBFB5
:1023500080E090E00E9431388F3F79F0882369F067
:10236000E1960FB6F894DEBF0FBECDBFCF91DF91DF
:102370001F910F91FF90EF900895FE01399689E229
:10238000DF011D928A95E9F788E289831A82FC832E
:10239000EB8381E090E062E070E00E94CE3883E061
:1023A00090E040E050E060E070E00E94893887E013
:1023B00090E060EA75E00E94CE388E010F5F1F4FFB
:1023C000C8010E94302F8CE893E0B8010E94A42F2E
:1023D00085E0E82EF12CEC0EFD1EC801B7010E942D
:1023E0000D3189E090E068E070E0A7010E94A43818
:1023F00081E190E067E471E00E94CE3883E190E0F3
:102400006DE50E94283884E190E064E60E94283857
:1024100085E190E06CE370E00E94CE3881E290E0CC
:1024200062E271E00E94CE3883E290E06EE170E0FB
:102430000E94CE3886E290E06AE50E94283885E264
:1024400090E06DE20E94283887E190E060E00E9411
:102450002838C8010E94302F81E993E0B8010E941A
:10246000A42FC801B7010E940D3187E290E068E215
:1024700070E0A7010E94A43888E190E068E572E06E
:102480000E94CE388AE190E068E077E00E94CE3882
:102490008FE490E060E00E942838C8010E94302F4D
:1024A0008AE993E0B8010E94A42FC801B7010E94F5
:1024B0000D3180E590E068E270E0A7010E94A43849
:1024C00088E790E060E570E00E94CE381E821D82B1
:1024D00018861F828AE790E064E170E0A7010E94FD
:1024E000A4388DE190E061E00E9428388EE190E010
:1024F00064EB0E9428388FE190E06FEF7FE30E9449
:10250000CE388EE890E060E00E942838C8010E9432
:10251000302F8DEA93E0B8010E94A42FC801B701C3
:102520000E940D318FE890E060E270E0A7010E9408
:10253000A4388FEA90E068EB7BE00E94CE3880E020
:1025400090E061E00E9428380BCFBC0181E00E943E
:10255000DC2B81E060EC73E00E94262C0895BC0126
:1025600081E00E94262C81E060EC73E00E94262C22
:102570000895BC0181E00E94062C81E060EC73E0CC
:102580000E94262C089581E061E043E00E945C2CCB
:1025900081E00E94632B81E060EC73E00E94262CB6
:1025A00080E090E06EED72E00E94C41308950F93F6
:1025B0001F93DF93CF9300D000D0CDB7DEB78E014D
:1025C0000F5F1F4FB8010E940D3181E0B8010E94DA
:1025D000DC2B81E060EC73E00E94262C0F900F90C2
:1025E0000F900F90CF91DF911F910F9108950F934E
:1025F0001F93DF93CF93CDB7DEB7C955D0400FB649
:10260000F894DEBF0FBECDBF0E948F2DFC018FB7A7
:10261000F8948FBF84819581892BE9F58EED92E046
:102620000E940814882361F4C75ADF4F0FB6F8944C
:10263000DEBF0FBECDBFCF91DF911F910F910895E7
:10264000FE01399681E5DF011D928A95E9F780E563
:102650008D831E82F887EF838E010B5F1F4FC801A9
:102660000E94CF0A81E06EEB73E00E94262C81E08D
:10267000B8010E94992C81E060EC73E00E94262C46
:1026800080910601882351F584E690E06EED72E0BA
:102690000E94C413C9CFCF010E947A318D3049F115
:1026A0008F37A1F065E071E00E94372F81E06EEB7B
:1026B00073E00E94262C81E065E071E00E94992C75
:1026C00081E06DE071E00E94062CA8CF80910601A8
:1026D000815065E071E00E944E2FE8CF81E065E017
:1026E00071E00E94992C81E06DE071E00E94062C5F
:1026F000CBCF81E060EC73E00E94262C85E091E076
:102700008E010F5F1F4FB8010E940D31C80169E0B3
:1027100071E00E94D70B80910A01882329F485E09B
:1027200091E00E94302FC2CF89E091E00E94D71241
:1027300089E091E00E94302FF2CF9093F4028093D1
:10274000F3020895FC012FB7F8948091E60290916E
:10275000E702A091E802B091E90280839183A2830D
:10276000B3838091EA0284832FBF08958FB7F894D2
:102770002091EB023091EC024091ED025091EE027B
:102780008FBFB901CA0108950F931F93CF93DF93B1
:10279000EC01FB018FB7F8940091E6021091E7027B
:1027A0002091E8023091E9024091EA028FBF008354
:1027B000118322833383CE0164E670E00E94263CBD
:1027C000480F4483443650F0445644830F5F1F4FF4
:1027D0002F4F3F4F0083118322833383CE0164E662
:1027E00070E00E94263C882777FD8095982F2081F5
:1027F000318142815381260F371F481F591F208383
:10280000318342835383DF91CF911F910F910895BC
:10281000FC018FB7F8942091E6023091E7024091D5
:10282000E8025091E9026091EA028FBF80819181B4
:10283000A281B38182179307A407B50760F08217BE
:102840009307A407B50719F020E0822F089520E030
:102850008481681708F021E0822F0895EF92FF929B
:102860000F931F938FB7F8942091E6023091E702FF
:102870004091E8025091E902E090EF02F090F002FE
:102880000091F1021091F2022E0D3F1D401F511FC9
:102890002093E6023093E7024093E8025093E90266
:1028A0001092EF021092F0021092F1021092F202D6
:1028B0008FBF1F910F91FF90EF9008958091E502D7
:1028C0000895FC01608171818281938120E831E566
:1028D00041E050E00E94393CCA01B90127E030E0F4
:1028E00040E050E00E94393C862F0895FC01608151
:1028F00071818281938120E13EE040E050E00E94BE
:10290000393CCA01B90128E130E040E050E00E94C2
:10291000393C862F0895FC01608171818281938109
:102920002CE330E040E050E00E94393CCA01B9019C
:102930002CE330E040E050E00E94393C862F0895BF
:10294000FC0160817181828193812CE330E040E061
:1029500050E00E94393C862F08951F920F920FB6C7
:102960000F9211242F933F934F935F936F937F9315
:102970008F939F93AF93BF93EF93FF938091E30265
:102980009091E40201969093E4028093E302809197
:10299000E3029091E402C19768F01092E402109271
:1029A000E3028091EA028F5F8093EA028091EA025B
:1029B0008436C0F4E091F302F091F402309709F00C
:1029C0000995FF91EF91BF91AF919F918F917F9169
:1029D0006F915F914F913F912F910F900FBE0F908C
:1029E0001F9018951092EA028091E6029091E702FA
:1029F000A091E802B091E9020196A11DB11D80935A
:102A0000E6029093E702A093E802B093E902809176
:102A1000EB029091EC02A091ED02B091EE020196D2
:102A2000A11DB11D8093EB029093EC02A093ED02E7
:102A3000B093EE02BFCF1F920F920FB60F921124E8
:102A40000F900FBE0F901F90189581E08093E502C4
:102A50002FB7F8946091E6027091E7028091E80246
:102A60009091E9023091EA022FBF685F7F4F8F4F4C
:102A70009F4F2091EF023091F0024091F10250916E
:102A8000F202620F731F841F951F0E94931189EC3D
:102A900093E00E94AF1229E288E190E00FB6F8942B
:102AA000A895809360000FBE20936000A8950895BC
:102AB000EF92FF920F931F937C0100E010E00E94C1
:102AC0004D1190E0A0E0B0E0BC01CD01A80197015C
:102AD0000E94F33B24E630E040E050E00E94393CA5
:102AE000A901232B09F433C068E170E04830510597
:102AF00008F05CC04430510508F45CC084E090E00C
:102B000028E2481B590B0FB6F894A8956093600013
:102B10000FBE20936000809160008064809360000D
:102B200083B7817F846083BFF89483B7816083BF5C
:102B300085B7806685BF8F7D85BF7894889583B77C
:102B40008E7F83BF78944115510509F0CFCFF8945B
:102B50008091E6029091E702A091E802B091E9022B
:102B60008E0D9F1DA01FB11F8093E6029093E70278
:102B7000A093E802B093E9028091EB029091EC02FD
:102B8000A091ED02B091EE02E80EF91E0A1F1B1F84
:102B9000E092EB02F092EC020093ED021093EE0251
:102BA00078941F910F91FF90EF90089588E090E046
:102BB00029E2A7CF4130510521F082E090E02FE0DB
:102BC000A0CF81E090E02EE09CCFEF92FF920F9398
:102BD0001F93DF93CF93CDB7DEB769970FB6F89405
:102BE000DEBF0FBECDBFFC016FB7F8942091E602A7
:102BF0003091E7024091E8025091E9028081918191
:102C0000A281B381821B930BA40BB50B8093EF02BF
:102C10009093F002A093F102B093F2026FBFFE0115
:102C2000359685E1DF011D928A95E9F784E1898374
:102C30001A82FC83EB837E010894E11CF11CC7011E
:102C40000E94302F8AED93E0B7010E94A42F60917B
:102C5000EF027091F0028091F1029091F20241E056
:102C600020E087010E947232C7010E94D712699644
:102C70000FB6F894DEBF0FBECDBFCF91DF911F918D
:102C80000F91FF90EF9008951092E4021092E302EA
:102C90000E948E116093E6027093E7028093E8022F
:102CA0009093E9021092EA021092EB021092EC0269
:102CB0001092ED021092EE021092EF021092F002CA
:102CC0001092F1021092F2021092F4021092F302AA
:102CD000E1E8F0E08081887F826080838081877E68
:102CE0008860808380ED90E09093890080938800D5
:102CF0001092850010928400B19AEFE6F0E0808196
:102D0000826080830895EF92FF920F931F937C015E
:102D10008B01FC01608171818281938120E831E522
:102D200041E050E00E94393CCA01B90127E030E09F
:102D300040E050E00E94393C862F90E061E040E0A6
:102D400098010E94223387EC93E0B8010E94A42FDF
:102D5000F701608171818281938120E13EE040E052
:102D600050E00E94393CCA01B90128E130E040E05E
:102D700050E00E94393C862F90E062E040E09801EC
:102D80000E94223385EC93E0B8010E94A42FF70142
:102D900060817181828193812CE330E040E050E0DA
:102DA0000E94393CCA01B9012CE330E040E050E018
:102DB0000E94393C862F90E062E040E098010E943A
:102DC000223383EC93E0B8010E94A42FF7016081C5
:102DD0007181828193812CE330E040E050E00E94D9
:102DE000393C862F90E062E040E098010E94223357
:102DF0001F910F91FF90EF900895EF92FF920F9324
:102E00001F938091E502882329F01F910F91FF9075
:102E1000EF900895A8958FB7F894E090EB02F090AA
:102E2000EC020091ED021091EE028FBF0E947E1025
:102E3000A0E0B0E0BC01CD012CE330E040E050E088
:102E40000E94F33B6E157F0580079107F0F681E045
:102E50008093E5022FB7F8946091E6027091E70243
:102E60008091E8029091E9023091EA022FBF685FF9
:102E70007F4F8F4F9F4F2091EF023091F002409192
:102E8000F1025091F202620F731F841F951F0E947E
:102E9000931189EC93E00E94AF1229E288E190E05F
:102EA0000FB6F894A895809360000FBE2093600041
:102EB000A8951F910F91FF90EF900895EAE7F0E039
:102EC0008081887F84608083808180688083109285
:102ED000F5020895582F863088F0282F30E062954B
:102EE000660F660F607C652B41116062F901EE0F81
:102EF000FF1FE850FD4F418360830895282F30E085
:102F0000F901EF51FC4FE49197B18E2F8095892301
:102F100087B980917E00E82BE0937E00E0CF80911E
:102F2000F502813059F0823009F0089580917A00DD
:102F300084FFFBCF83E08093F502089580917A00AF
:102F400084FFF3CF8091F60280937C008091F7029A
:102F5000882371F080917B00806280937B00809158
:102F60007A00806480937A0082E08093F50208956D
:102F700080917B008F7D80937B00F1CFE82F809143
:102F8000F502882319F5F0E0EE0FFF1FE850FD4F22
:102F9000918180819093F7028093F60280937C0068
:102FA000992371F480917B008F7D80937B008091C9
:102FB0007A00806480937A0081E08093F50208951E
:102FC00080917B00806280937B00F1CF80E0089548
:102FD000FC018091F502833011F080E0089580912A
:102FE0007A00806180937A008091F702882351F4FF
:102FF0008091780090917900918380831092F502FE
:1030000081E008958091790090E09183808310920F
:10301000F50281E00895DB012C9130E0220F331F8F
:103020001396ED91FC911497E20FF31F9183808327
:103030004C91242F30E012965C911297852F90E0EE
:1030400001972817390754F01C9211968C9111970B
:10305000851718F48F5F11968C9308954F5F4C93EA
:10306000F4CFFC0181818823A1F08081882371F055
:10307000815090E0880F991F0380F481E02DE80FC4
:10308000F91F0190F081E02DCF01089582818150D8
:10309000F0CFE0E0F0E0CF0108955F926F927F9271
:1030A0008F929F92AF92BF92CF92DF92EF92FF9258
:1030B0000F931F93CF93DF936C01562EBA01E90152
:1030C00038018FEF9FEFDA018D939C93198218825C
:1030D000F80111821082D60111968C9111978823E4
:1030E00009F450C0EC91EE2309F45CC04E2F41501E
:1030F000852C99248114910409F458C0EE24FF24EE
:10310000870120E030E0F601A380B48008C0F6011A
:10311000428141502F5F3F4F2815390544F5E42F78
:10312000F0E0EE0FFF1FEA0DFB1D0190F081E02D96
:10313000DB018D919C911197E817F90710F4ED933D
:10314000FC93888199818E179F0710F4F983E88397
:10315000CF01A0E0B0E0E80EF91E0A1F1B1F4423B8
:10316000B1F241502F5F3F4F28153905C4F2252D8C
:1031700030E040E050E0C801B7010E94393CD30183
:103180002D933C93DF91CF911F910F91FF90EF9082
:10319000DF90CF90BF90AF909F908F907F906F9077
:1031A0005F90089512964C914150A2CFEE24FF24D7
:1031B0008701DDCFCF93DF93DB012C9130E0A901B4
:1031C000440F551F440F551F420F531F1396ED9187
:1031D000FC911497E40FF51FEC0185E00990019232
:1031E0008150E1F74C91242F30E012965C911297B8
:1031F000852F90E00197281739076CF44F5F4C93A7
:1032000011968C911197851718F48F5F11968C93F6
:10321000DF91CF9108951C92F3CF482FFB0191814C
:103220008917B0F48081282F30E0291B3109240F41
:10323000311D37FD11C0C901880F991F880F991FD3
:10324000820F931F63817481680F791FCB010895EA
:1032500060E070E0CB0108958281280F311DEBCF33
:1032600090E0809112018A3008F091E0892F089552
:1032700080911F030895FF920F931F93DF93CF93C5
:10328000CDB7DEB728970FB6F894DEBF0FBECDBF1F
:10329000F0901E0321E0F21609F1F21678F082E0B8
:1032A000F81629F128960FB6F894DEBF0FBECDBFF1
:1032B000CF91DF911F910F91FF90089580E293E0ED
:1032C0000E940814882371F38AE090E060E273E0C2
:1032D0000E94C41381E080931E03E4CF80E00E942B
:1032E000BE178823F9F282E080931E03DBCFCE0164
:1032F00001960E94E8178823A9F289819A8161E1E9
:1033000071E00E940B18809112018A3018F410921B
:103310001E03C8CF81E191E06AE0AE014D5F5F4FCF
:103320009E012B5F3F4F8E01095F1F4F0E944D187A
:103330008D819E8121E08934920720F481E0809381
:103340001F03E5CF875A914018F4F0921F03DFCF97
:1033500083E080931F03DBCF0F931F93DF93CF9303
:1033600000D000D000D0CDB7DEB71A82198280918C
:1033700012018A3070F081E191E06AE0AE014D5FA8
:103380005F4F9E012B5F3F4F8E010F5F1F4F0E94CB
:103390004D1869817A8180E090E00E94043B28E822
:1033A00033EF44E854E40E94903B20E030E04AE7E9
:1033B00054E40E94693A0E94D13ACB0126960FB696
:1033C000F894DEBF0FBECDBFCF91DF911F910F915B
:1033D000089510921E0310921F0382E090E060E2B5
:1033E00073E00E94C413109211011092120180E048
:1033F00061E040E00E946A17089590E08091170113
:103400008A3008F091E0892F0895DF93CF9300D0A0
:10341000CDB7DEB7809139038130C9F0813038F003
:10342000823011F10F900F90CF91DF9108958AE3D0
:1034300093E00E9408148823A9F38AE090E06AE3ED
:1034400073E00E94C41381E080933903EBCF88E0DE
:103450000E94BE17882331F382E0809339030F90D6
:103460000F90CF91DF910895CE0101960E94E81749
:103470008823C1F289819A8166E171E00E940B186C
:1034800010923903CFCFEF92FF920F931F93DF93E8
:10349000CF9300D000D000D0CDB7DEB78091170118
:1034A0008A3080F460E070E0CB0126960FB6F89485
:1034B000DEBF0FBECDBFCF91DF911F910F91FF9067
:1034C000EF9008951A82198286E191E06AE0AE01D8
:1034D0004D5F5F4F9E012B5F3F4F8E010F5F1F4F70
:1034E0000E944D18E980FA8000E010E00E947910F7
:1034F000AA2797FDA095BA2FE81AF90A0A0B1B0B09
:10350000C801B7010E94043B2EE83AEF44E854E4B6
:103510000E94903B20E030E04AE754E40E94693A80
:103520000E94D13AC1CF1092390382E090E06AE361
:1035300073E00E94C413109216011092170188E0E4
:1035400063E040E00E946A17089590E080912001B6
:10355000853008F091E0892F08956F927F928F92C5
:103560009F92AF92BF92CF92DF92EF92FF920F9312
:103570001F93DF93CF93CDB7DEB729970FB6F8949B
:10358000DEBF0FBECDBF7E010894E11CF11C36E00A
:10359000C32ED12CCC0EDD1E22E0822E912C8C0E5F
:1035A0009D1E94E0692E712C6C0E7D1E83E0A82E6A
:1035B000B12CAC0EBD1EC7010E946F36882381F06E
:1035C00089818D3011F580911C01853019F18BE1D5
:1035D00091E00E94302FC7010E946F36882381F747
:1035E00029960FB6F894DEBF0FBECDBFCF91DF9105
:1035F0001F910F91FF90EF90DF90CF90BF90AF9011
:103600009F908F907F906F9008956BE171E00E9482
:10361000372FD1CFE0911D01F0911E0180818235BD
:10362000B1F68BE191E061E070E0A6010E94F0301C
:103630001A821D821C821B82C601B401A30195015E
:1036400000E010E00E9499338A81882309F4BFCFFB
:1036500080915A03882321F0815080935A03B7CF79
:103660008C819D816FE171E00E940B18B0CF0F93A8
:103670001F93DF93CF9300D000D000D0CDB7DEB73B
:103680001A82198280912001853070F08FE191E0DB
:1036900065E0AE014D5F5F4F9E012B5F3F4F8E0196
:1036A0000F5F1F4F0E944D1889819A8126960FB691
:1036B000F894DEBF0FBECDBFCF91DF911F910F9168
:1036C000089581E00E94C33780E895E20E940F369A
:1036D00010921F011092200185E080935A030895F3
:1036E000E82FF0E0EE0FFF1FEC5EFB4F25913491C9
:1036F000C901089591E090935A0480935B04089562
:1037000091E09093650480936604089591E090930E
:10371000630480936404089521E020935C04ADE584
:10372000B4E0FC0186E001900D928150E1F708952C
:10373000809368046093690450936B0440936A0417
:10374000089581E080936D04089581E080932C04B6
:10375000089510922C04089590E080912A048230FC
:1037600009F091E0892F089580916304882319F46A
:1037700090E0892F089590E080916C048730C9F71C
:1037800091E0892F089580916404089590916404D4
:10379000913031F080E0953009F0089581E008958E
:1037A00081E008958DE594E0089580916604089580
:1037B00080912A0490E0089520E04B9711F0822F29
:1037C000089521E0822F089580916A0490916B04FE
:1037D0000895FC0162817381808191814CE251E006
:1037E0000E945B2F0895FC0181E080936704628151
:1037F00073818081918144E351E00E945B2F0895A1
:103800000F931F938C0180E19CE10E94B2258EE012
:1038100080936C04C8010E947B261F910F9108952C
:1038200080936C04813009F008950E9493210895DB
:1038300080912A048250823018F090E0892F0895F8
:1038400080912D018823C9F78FE394E00E94E1372E
:10385000882399F30E94BF2091E09827EFCF0F9320
:103860001F938C0180E19CE10E94B2258EE0809341
:103870006C04C8010E9463261F910F9108950E9455
:10388000092B85E080933D048AE79BE10E94DF25B8
:1038900080E89BE10E94E4258DE89CE10E94EE25F2
:1038A00083EF9BE10E94F3258CE89BE10E94F825C1
:1038B00088E99BE10E94FD250E9421218FE394E08D
:1038C0000E94DC378CE291E00E94302F80E391E08F
:1038D0000E94302F10922C0410925A0410925B0414
:1038E00010925C04109264041092650410926604B5
:1038F00010922A0480EE9EE26DE274E00E94C413EE
:103900001092630410926704109268041092690484
:1039100010926B0410926A040895EF92FF920F9335
:103920001F93DF93CF93CDB7DEB769970FB6F894A7
:10393000DEBF0FBECDBF7C018FE394E00E94E9376C
:10394000882329F5FE01359685E1DF011D928A95D0
:10395000E9F784E189831A82FC83EB838E010F5F90
:103960001F4FC8010E94302F80EB95E0B8010E94E4
:10397000A42FC70161E040E098010E942233C801F2
:103980000E94D712C7016FE374E00E94F337699673
:103990000FB6F894DEBF0FBECDBFCF91DF911F9160
:1039A0000F91FF90EF9008950F931F93DF93CF93A4
:1039B00000D000D0CDB7DEB78E010F5F1F4FB8012A
:1039C0000E940D31EEE1F4E065917491C8010E940E
:1039D000C830882369F5ECE1F4E065917491C80181
:1039E0000E94C830882331F5EAE1F4E065917491D2
:1039F000C8010E94C8308823F9F4E8E1F4E0659139
:103A00007491C8010E94C8308823C1F4E6E1F4E053
:103A100065917491C8010E94C830882389F40F9081
:103A20000F900F900F90CF91DF911F910F910895FC
:103A300085E0F5CF84E0F3CF83E0F1CF82E0EFCFF4
:103A400081E0EDCFCF92DF92EF92FF920F931F9321
:103A5000DF93CF9300D000D0CDB7DEB7CB017A0192
:103A6000690121E0209354048E010F5F1F4FB801BC
:103A70000E940D31EEE1F4E065917491C8010E945D
:103A8000C830882309F047C0ECE1F4E065917491F7
:103A9000C8010E94C830882309F03FC0EAE1F4E081
:103AA00065917491C8010E94C830882309F037C01D
:103AB000E8E1F4E065917491C8010E94C830882360
:103AC00081F5E6E1F4E065917491C8010E94C83087
:103AD000882349F580933E0484E291E00E94302FD0
:103AE000C70164E271E00E94822F88E291E00E94A7
:103AF000302FC60168E271E00E94822F0F900F9074
:103B00000F900F90CF91DF911F910F91FF90EF9049
:103B1000DF90CF90089585E0DDCF84E0DBCF83E0B8
:103B2000D9CF82E0D7CF81E0D5CF86E89BE10E9454
:103B3000E9251092630480E19CE10E94B2258EE0A9
:103B400080936C0488E294E00E947B260895EF92B3
:103B5000FF920F931F93DF93CF93CDB7DEB7C65479
:103B6000D0400FB6F894DEBF0FBECDBF90912A04AF
:103B700080912B04981711F4923039F580EE9EE273
:103B80006DE274E00E94C41380912A0480932B0498
:103B9000E82FF0E0EC31F10580F00E942515CA5BBA
:103BA000DF4F0FB6F894DEBF0FBECDBFCF91DF91D0
:103BB0001F910F91FF90EF900895EC5CFF4FEE0F77
:103BC000FF1F0590F491E02D09948DE294E00E948E
:103BD0000814882319F480912A04DACF8DE695E041
:103BE0000E94AF1280912A040E946A110E9425153A
:103BF000F2CF80916C04873091F689EA95E00E94BB
:103C0000001C89E080932A0480916C04873039F687
:103C10000E94951D8EE080932A04C1CF80916C0490
:103C2000873009F0BCCF83E080932A04B8CF80911D
:103C30006704882309F4B3CF88EE94E00E94AF12A2
:103C40008EED94E00E94001C87E080932A04A7CFA9
:103C500080916C04873009F0A2CF83EC94E00E943D
:103C6000001C88E080932A049ACF80916C048730EE
:103C700009F095CF8DEA94E00E94AF1284E291E0C2
:103C80000E94D71280913E04E82FF0E0EE0FFF1F54
:103C9000EC5EFB4F859194910E94AF1288E291E017
:103CA0000E94D7128CE994E00E94AF12E090520477
:103CB000F0905304FE0139968BE0DF011D928A9546
:103CC000E9F78AE08D831E82F887EF838E010B5F10
:103CD0001F4FC8010E94302F89E995E0B8010E946A
:103CE000A42FC70161E040E098010E942233C8017F
:103CF0000E942F1C85E180932A0451CF80916C048F
:103D0000873009F04CCF8FE394E00E94E13788239D
:103D100019F081E080933D0488EC90E068E374E062
:103D20000E94C41383E080932A0439CF82E394E095
:103D30000E940814882309F432CF6ACF809163046B
:103D4000882309F42CCF80916C04873009F027CFA9
:103D500080916404813009F473C1853009F470C125
:103D60008FE080932A0488EC90E062E374E00E9484
:103D7000C41315CF80916C04873009F47BC1853062
:103D800009F00DCF89E494E00E94AF1283E08093A4
:103D90002A0405CF80916D04882309F400CF8EE6B4
:103DA00094E00E94AF1280E391E00E946C2680E3D1
:103DB00091E00E94302F0E94072687E180932A0419
:103DC000EECE80916C04873009F0E9CE8CE894E067
:103DD0000E94AF1280913E048150823008F023CFC0
:103DE00000912A0110912B01C80160E274E00E9449
:103DF000993C0817190709F016CF80E391E00E945B
:103E0000302F8CE291E00E94302F80E294E00E94FB
:103E10005B3CBC0188E291E08E010F5F1F4FA8015F
:103E20000E94F030C80160E371E00E94D70B882344
:103E300009F4F9CE80913101882309F4F4CE809100
:103E40002D01882309F0EFCE8CE291E00E94302F03
:103E500084E291E06CE271E00E94822FE4CE0E9445
:103E6000B7210E94BF20882309F099CE81E394E016
:103E70000E94AF12D8CE80916C04873009F08FCEAB
:103E800089EA95E00E94001C8AE180932A0487CE8B
:103E900080916C04873009F082CE1092650482EA2A
:103EA00095E00E94001C89E180932A0478CE8091DD
:103EB0006C04873009F073CE80E797E165E574E024
:103EC0000E94C41383E080932A0469CE80912C045D
:103ED000882309F06AC082E080932A0460CE809132
:103EE0006C04873009F05BCE80ED94E00E94001CEA
:103EF0008BE080932A0453CE0E949825823009F0EB
:103F00004ECE85E095E00E94AF1280E095E00E94E1
:103F1000001C86E080932A0442CE80912C048823E2
:103F200009F452C080916404813019F0853009F0A1
:103F30006FCE80912D01882309F051C08FE394E06A
:103F40000E94E137882309F49DC00E94BF20882386
:103F500009F4CFC08BE180932A0421CE80912C04F8
:103F6000882309F41CCE10922A0419CE0E94B7218E
:103F70000E94AA20843009F012CE0E94952510924A
:103F8000640410926604A7CF80916C04873009F016
:103F900006CE83EF94E00E94AF12109267048CE08B
:103FA00080932A0410923704FACD0E949825882322
:103FB00009F039CE8AE495E00E94AF120E94912563
:103FC00084E080932A04EBCD80E00E94962481E077
:103FD00080932A048BE195E00E94AF12E0CD10920D
:103FE0006D0481EA9BE10E940226FE01749683E340
:103FF000DF011D928A95E9F782E38D831E82F8879F
:10400000EF838E010B5F1F4FC8010E94302F8DE799
:1040100095E0B8010E94A42F8CE291E0B8010E94C3
:10402000822F82E2B8010E94372FC8010E942F1C04
:104030008CE291E00E94302F86E180932A04AFCD7C
:1040400087EB94E00E94AF1284EF91E068E374E0A4
:104050000E94C41388EE93E065E574E00E94C413E7
:104060001092650482EA95E00E94001C8AE0809329
:104070002A0495CD80E694E00E94AF1283E08093FD
:104080002A048DCD8FE394E00E9410387C01909338
:104090005304809352041092540488E291E00E94E9
:1040A000302F82E29DE10E94DA25FE0139968BE0F5
:1040B000DF011D928A95E9F78AE08D831E82F887D9
:1040C000EF838E010B5F1F4FC8010E94302F87E8DE
:1040D00095E0B8010E94A42FC70161E040E098017B
:1040E0000E942233C8010E942F1C82E180932A047F
:1040F00056CD85E594E00E940814882309F44FCD3D
:104100008FE395E00E94AF1210925C0480E995E085
:104110000E94001C88E180932A0441CD8093A20470
:10412000E091A304F091A404309709F00995089553
:104130008093A604089581E08093A7040895809356
:10414000A504089581E08093A804089581E08093F8
:10415000A90408958091A2040895009759F09093BE
:1041600098048093970470939A046093990482E072
:104170008093A104089583E08093A1040895809121
:104180008F04882339F48091A104882309F40895C9
:1041900081E0089581E0089580918F0490E0089572
:1041A0000E94712608950E946C2608950E9476262A
:1041B00008950E9484260895FF920F931F938C0107
:1041C000F62E86E891E20E94B2258EE08093A0044C
:1041D000F0928F04C8010E947B261F910F91FF90DF
:1041E00008958F929F92AF92BF92CF92DF92EF92FB
:1041F000FF920F931F937C016B015A01490108E361
:1042000011E0C8010E94302FC701B8010E94822F1F
:10421000D0929604C0929504C5010E94C125909247
:10422000A4048092A30481E08093A1041F910F91C4
:10423000FF90EF90DF90CF90BF90AF909F908F90C6
:10424000089588E391E00E94302F10929604109216
:104250009504109298041092970410929A04109268
:1042600099049EE09093A00484E08093A2041092AD
:10427000A4041092A3049093A5041092A604109293
:10428000A70410928F041092A10483E991E20E9486
:10429000D02508951F93182F8091A1048230B1F08A
:1042A0001093A204E091A304F091A404309711F0BC
:1042B000812F0995143021F41092A4041092A304C4
:1042C00010928F041092A1041F910895E091990417
:1042D000F0919A04309721F380E00995E1CF1F9384
:1042E0008FE990E20E94B7251EE01093A50486E8AE
:1042F00091E20E94B2251093A0048DE080938F0478
:104300008DEF96E00E947B261F9108958093A00474
:10431000813009F0089580918F048823D9F784E0D3
:104320000E944A21089580918F04811108958091FF
:10433000A104823099F084E08093A204E091A30468
:10434000F091A404309709F009951092A4041092FA
:10435000A30410928F041092A1040895E09199048F
:10436000F0919A04309739F380E00995E4CFEF9209
:10437000FF920F931F93DF93CF93CDB7DEB7CB544C
:10438000D0400FB6F894DEBF0FBECDBFFE0135960C
:1043900087E4DF011D928A95E9F786E489831A8212
:1043A000FC83EB8380918F04873009F49FC08830B1
:1043B00088F08B3009F4A8C08C3060F18D3009F49E
:1043C000C0C08D3008F489C08E3009F439C10E9414
:1043D000251512C0833041F08430E0F1853009F4B6
:1043E000E7C0863008F04BC08091A004873009F404
:1043F0007AC0853009F453C0C55BDF4F0FB6F8941F
:10440000DEBF0FBECDBFCF91DF911F910F91FF9007
:10441000EF900895893009F47CC08A3008F450C0C8
:104420009091A0049A3029F08091A904882309F47E
:10443000E6C011E0E0919904F0919A04309731F0D0
:10444000812F099510929A0410929904112339F141
:1044500081E026C0813009F4B3C0823020F1809120
:10446000A004873031F68091A6048823E1F58AEC18
:1044700095E00E94AF1284E00E944A21BDCF8BE9F3
:1044800094E00E940814882351F48091A0048330A2
:1044900009F4F5C0853019F0823009F0ADCF84E021
:1044A0000E944A21A9CF8091A204813009F4B6C0AC
:1044B000843009F4CDC081EE95E00E94AF129CCF0C
:1044C0008091A804882309F096C08091A0048530CB
:1044D00031F3813009F090CFE2CF8091A004853094
:1044E00079F08B3051F40E946F2186CF8091A00427
:1044F000873009F4D9C0853019F0813009F07CCFBC
:1045000084E00E944A2178CF8091A004882399F703
:10451000F7CFE0919704F09198040995882309F466
:104520006BCF0E9407268EEB95E00E94AF128CEDB8
:1045300095E06BE974E00E94C4138AE080938F04D5
:104540005BCF0091A5040E3009F4BFCF0A3009F407
:10455000A1C00B3008F097C0063009F4C3C0093081
:1045600009F498C08091A104823009F4E9C0833035
:1045700009F4F1C0813009F03FCF043009F459C18A
:10458000053008F015C1013009F484C0013008F489
:1045900093C1023009F47BC1033009F458C180E5AE
:1045A00096E00E94AF1210928F041092A10424CFC3
:1045B0008091A704882309F096CF8091A00419CF99
:1045C0008BE994E00E940814882309F068CF0E94C8
:1045D000B41B882309F410CF0E94C61B882309F45A
:1045E00075C088E990E20E94D52580E396E062E0FC
:1045F0000E94DC2001CF89E080938F04FDCE9930AA
:1046000059F0953049F0913039F08BE994E00E94EF
:104610000814882309F4F0CE10E00CCF8091A10497
:10462000823009F483C0833009F0E6CE8FE096E053
:104630000E94AF1283E00E948E200E946F21DCCE88
:1046400080E994E00E940814882309F4D5CE4BCF6A
:104650001091A104113009F0CFCE8EEF95E00E94A9
:10466000AF1280E00E948E200E94951D84EF91E0A1
:104670006BE974E00E94C41310938F04BDCE81E0F7
:104680000E944A21B9CE0D3029F00E30D1F10C3004
:1046900009F068CF84E690E060E974E00E94C413FA
:1046A0008EE080938F04A8CE1092A80482EA90E254
:1046B0000E9402261092A90486EA90E20E94CB256D
:1046C0008AE396E068E00E94DC2096CE82ED95E0D9
:1046D0000E94AF1288E391E00E94302F84E00E9494
:1046E0004A218ACE86E891E20E94B2258EE080932C
:1046F000A0048CE080938F0485E496E00E947B26E2
:104700007BCE8FE990E20E94B7251EE01093A504AE
:1047100086E891E20E94B2251093A0048DE0809378
:104720008F048DEF96E00E947B2666CE83E296E0B2
:104730000E94AF1282E00E948E200E946F215CCE08
:104740000630A0F4013008F0AACE85EC96E067E0D0
:104750000E94DC2051CE0630D0F4013008F09FCE0C
:1047600081EF96E06BE00E94DC2046CE083009F431
:1047700096CE0B3009F493CE073039F385EA96E0F4
:104780000E94AF1210928F041092A10435CE08300F
:1047900009F485CE0B3009F482CE073009F38FEC93
:1047A00096E00E94AF1210928F041092A10424CEC2
:1047B000073009F481C0083008F08AC0053009F0DC
:1047C000EECE7E010894E11CF11CC7010E94302F3F
:1047D00081E996E0B7010E94A42F88E391E0B70138
:1047E0000E94822F8DE896E0B7010E94A42F80914D
:1047F00095049091960461E040E097010E94223375
:104800008BE896E0B7010E94A42F8CED95E06BE950
:1048100074E00E94C41386E891E20E94B2258EE003
:104820008093A00486E080938F04C7010E946326D2
:10483000E3CD86E891E20E94B2258EE08093A00449
:1048400000938F048FE696E00E947B26D5CD7E01F3
:104850000894E11CF11CC7010E94302F81E896E00A
:10486000B7010E94A42FC7010E94DC1082E2B701A9
:104870000E94372F86E891E20E94B2258EE0809355
:10488000A00400938F04C7010E946326B5CD8BE975
:1048900090E20E94BC251092A70486E891E20E9453
:1048A000B2258EE08093A00485E080938F0488E792
:1048B00096E00E947B26A0CD81E08093A204E09147
:1048C000A304F091A404309709F46DCF09956BCF40
:1048D000083009F476CF0B3009F061CE72CF8091A9
:1048E000AA0408959093AC048093AB040895909328
:1048F000AE048093AD047093B0046093AF04089548
:104900000E94AA20813019F020E0822F089520E033
:104910008091AD049091AE04892BB9F721E0822FEC
:1049200008950E9410118093AA0408951092AA0479
:10493000882309F4089580E00E945211089591E0BF
:104940009093AA04882309F4089581E00E945211EB
:1049500008950F931F93DF93CF93CDB7DEB7AD9735
:104960000FB6F894DEBF0FBECDBF8091B104823088
:1049700009F45BC0833070F0843009F46DC084307A
:1049800008F04AC00E94AA208230D9F584E08093C2
:10499000B10437C0882399F50E94AA20813009F418
:1049A00066C0843071F58091AA04882351F182EBAE
:1049B00094E00E940814882321F1FE01359689E2D3
:1049C000DF011D928A95E9F788E289831A82FC83C8
:1049D000EB838E010F5F1F4FC8010E94CA100E9417
:1049E0005110BC014091AB045091AC04C80122E5C8
:1049F00035E20E94F12081E08093B10402C0813051
:104A000019F1AD960FB6F894DEBF0FBECDBFCF91B2
:104A1000DF911F910F910895853099F70E94AA2088
:104A2000843079F71092B104ECCF0E94AA20813033
:104A3000C9F3843031F788EC90E062EB74E00E94B7
:104A4000C4131092B104DDCF0E94AA208823C9F6B6
:104A500082E08093B104D5CF0E94AA20823089F2EF
:104A60001092AE041092AD041092B104CACF80919E
:104A7000AA04882389F08091AD049091AE04009738
:104A800009F4BFCF6091AF047091B0040E94AD20D3
:104A900083E08093B104B5CF0E94BB2085E0809372
:104AA000B104AFCF8230D1F0833028F08330D9F019
:104AB000843079F00895882339F08130D9F78EE376
:104AC00097E00E94AF1208958CE497E00E94AF1225
:104AD00008958AE097E00E94AF1208958DE297E072
:104AE0000E94AF1208958BE197E00E94AF120895E3
:104AF0000E9410118093AA041092AC041092AB048F
:104B00001092AE041092AD041092B0041092AF0453
:104B10001092B10488EE93E062EB74E00E94C4133B
:104B2000089581E08093A00508951092A00508954E
:104B30008091A105823091F0833050F0833061F094
:104B4000843041F48091A005882351F484E00895D5
:104B50008130C1F380E0089583E0089582E00895F4
:104B600081E008959093AF058093AE0508959093EA
:104B7000B1058093B00508959093B3058093B20575
:104B800008959093B5058093B40508959093B70563
:104B90008093B60508959093B9058093B80508955C
:104BA0009093BB058093BA0508959093BD058093BB
:104BB000BC0508959093BF058093BE05089590931A
:104BC000C1058093C00508959093C3058093C205E5
:104BD00008959093C5058093C40508959093C705E3
:104BE0008093C60508959093C9058093C8050895DC
:104BF0009093CB058093CA0508959093CD0580933B
:104C0000CC0508959093CF058093CE05089580E05C
:104C10006AE10E94CB2B08951F93CF93DF93FC0191
:104C200014911123B9F0EC012196612F62956F70F8
:104C30006A30B0F0695C80E00E94CB2B612F6F700E
:104C40006A3060F0695C80E00E94CB2BFE01149119
:104C5000112351F7DF91CF911F910895605DF3CF3C
:104C6000605DE9CF1F93CF93DF93FC011081112387
:104C700031F1EC010FC0695C80E00E94CB2B612F09
:104C80006F706A30A8F0695C80E00E94CB2B1881BD
:104C90001123A9F02196612F62956F706A3058F741
:104CA000605D80E00E94CB2B612F6F706A3058F7F7
:104CB000605D80E00E94CB2B1881112359F7DF91B2
:104CC000CF911F910895BC0180E00E94992C80E053
:104CD0006DE00E94CB2B0895BC0180E00E94992CCE
:104CE0000895BC0180E00E94DC2B0895BC0180E0A7
:104CF0000E94262C0895BC0180E00E94262C80E0B2
:104D00006DE00E94CB2B089580E00E94A02B0895B7
:104D1000EF92FF920F931F93DF93CF9300D00F92E8
:104D2000CDB7DEB78C017B01BE016F5F7F4FAE0157
:104D30004E5F5F4F98010E94A3348981882361F4FC
:104D4000F70110820F900F900F90CF91DF911F917C
:104D50000F91FF90EF9008958A81F7018083C80139
:104D60000E944B30EFCFEF92FF920F931F93DF9390
:104D7000CF9300D000D0CDB7DEB78C017E01089470
:104D8000E11CF11CB701A8010E94B3356B817C8145
:104D900089819A8140E451E00E945B2FC801B701EC
:104DA000A8010E94B3356B817C8189819A8144E49A
:104DB00051E00E945B2F82E08093A8050F900F9036
:104DC0000F900F90CF91DF911F910F91FF90EF9077
:104DD00008952F923F924F925F926F927F928F929F
:104DE0009F92AF92BF92DF92EF92FF920F931F9329
:104DF000DF93CF93CDB7DEB7A5970FB6F894DEBF9C
:104E00000FBECDBF0E94662E5C018FB7F8948FBF96
:104E1000D5011496DC90DD2009F44FC028E0822EE5
:104E2000912C8C0E9D1E3E010894611C711C96E015
:104E3000492E512C4C0E5D1E80E1282E312C2C0E5B
:104E40003D1E29C09D3009F4BAC09A3029F48091E2
:104E5000A7058D3009F487C0192F892F6CE371E005
:104E60000E94372F80913D01E82FF0E0E230F105FC
:104E700074F0E0903E01F0903F01D7018C911196C3
:104E80009C918E3309F4BCC08B3209F4C8C01093D6
:104E9000A705DA9491F0C5010E947A31982F80918C
:104EA000A805813081F1813068F2823009F44CC06C
:104EB000192F1093A705DA9471F78091A10581301D
:104EC00009F4F9C0813008F45EC0823009F408C1E9
:104ED000843009F465C0A5960FB6F894DEBF0FBE06
:104EE000CDBFCF91DF911F910F91FF90EF90DF9099
:104EF000BF90AF909F908F907F906F905F904F90FA
:104F00003F902F900895192F892F6CE371E00E9434
:104F1000372F80913D0190E02091A9053091AA059D
:104F20008217930708F4B3CFE091B405F091B5056B
:104F3000309719F08CE391E009958CE391E00E94A1
:104F4000302F1092A805A3CF9D3079F09A3021F42C
:104F50008091A7058D3039F0192F892F6CE371E00E
:104F60000E94372F94CF1AE092CF8091AB058550E5
:104F7000823008F48DC08CE391E00E94302F1092B3
:104F8000A8051DE084CF8091A005882309F4A3CF54
:104F90008EE08093ED06559A81E08093A1059BCF2A
:104FA00082EA95E00E940814882309F494CF8EE0E9
:104FB0008093ED06559A81E08093A1058CCF809176
:104FC0003D018823B9F000913E0110913F01F801A5
:104FD00090819B3209F4DCC0892F80538A3008F01D
:104FE0008CC0E091B205F091B305309719F08CE3D5
:104FF00091E009958CE391E00E94302F1DE047CFAE
:10500000903209F044CFE091CE05F091CF05309772
:1050100009F009958CE391E00E94302F38CF993444
:1050200009F035CFEE0DFF1D319780818A3309F0ED
:105030002ECFC7016DE879E00E94993CE816F90689
:1050400009F025CF8CE391E065E070E0A4010E94B7
:10505000F03019821B821A82C401B301AE014E5F87
:105060005F4F94010E94A3348981882309F40FCFF4
:10507000C4010E9439308A3309F009CF8A819B81AB
:105080009093AA058093A90581E08093A805C2CFDB
:10509000E091BE05F091BF05309709F46CCF809187
:1050A000AC059091AD0560E471E044E451E02CE37F
:1050B00031E0099560CF8091ED06883009F45AC03F
:1050C000863009F008CF559887E099E00E94AF122A
:1050D0008091A005882309F0CEC01092A105FBCED7
:1050E0008091A005882309F0F6CE8EE08093ED062E
:1050F000559A81E08093A105EECE933509F4C5C0A1
:10510000943409F4A4C08CE391E0B4010E940D3101
:10511000C40161ED77E04DE050E00E9420328093C1
:10512000ED06853009F4FEC08630B8F4823009F40B
:1051300003C1833009F4FBC0813021F483E699E098
:105140000E94AF12E091AE05F091AF05309709F4DF
:1051500051CF8091ED0609954DCF883009F4DDC01F
:10516000893008F0B2C0863069F78EE499E00E9479
:10517000AF12E8CF559883E199E00E94AF12809179
:10518000A005882309F477C082E08093A105A3CE0F
:105190008CE391E0B4010E940D318BE26AE3A4013B
:1051A0009E01245F3F4F84010E940635CE010C967C
:1051B0006CE278E04DE050E00E9420328093AB0535
:1051C000863009F492C1873008F08CC0823009F42F
:1051D00076C1833008F0B5C0882309F42BC1813033
:1051E00009F008CFC401B10140E050E00E94B3359E
:1051F0008E010C5E1F4FC101B8010E948826C101BB
:10520000BE016B5E7F4F0E948826C101BE016A5EAF
:105210007F4F0E948826C101BE01695E7F4F0E94B8
:105220008826C101BE01685E7F4F0E948826C101A9
:10523000BE01675E7F4F0E948826E091CA05F0910B
:10524000CB05309709F4D6CEC8010995D3CEC80155
:105250006EE179E00E94993C0817190709F053CFD5
:10526000E091B805F091B905309709F4C3CE80E01C
:1052700090E00995BFCE88EC90E062EA75E00E946C
:10528000C41384E08093A10526CEC8016BE279E0C7
:105290000E94993C0817190709F035CF8CE391E07B
:1052A00067E070E0A4010E94F030C4016BEE78E08A
:1052B0004EE050E00E942032E091B005F091B1053F
:1052C000309709F497CE099595CE893059F18D30F4
:1052D00009F038CF80E499E00E94AF12C4010E9427
:1052E000A51230CF8A3009F450C08B30F0F58830E9
:1052F00009F403C1893009F07DCEC401B10140E059
:1053000050E00E94B335E091C805F091C90530978F
:1053100009F470CEC10109956DCE87E499E00E9431
:10532000AF1210CF8CE599E00E94AF120BCF82E84C
:1053300099E00E94AF1206CF85E799E00E94AF1274
:1053400001CF843009F418C1853008F4F7C0C401D6
:105350000E940032C401B3014CEA55E094010E945E
:10536000A334C4010E94B32645CE8C3009F44EC04C
:105370008C30B8F18D3009F03DCE83E399E00E9486
:10538000AF12C4010E94A51235CEC4010E940032A2
:10539000C401B301A20194010E94A334898188232E
:1053A00009F428CEC4010E9439308C3209F022CE93
:1053B000C4010E944B30C401B301A20120E030E0DF
:1053C0000E94A3348981882309F414CEE091C40596
:1053D000F091C505309709F40DCE8E819F81099516
:1053E00009CEC4010E940032C401B301A20120E031
:1053F00030E00E94A3348981882309F4FBCDE09139
:10540000C205F091C305309741F7F4CDC4010E9465
:105410000032C4016AE379E00E94A030882309F4D5
:10542000E9CDE091BA05F091BB05309709F4E2CDE2
:105430000995E0CDC4010E940032C401B301AE0160
:105440004E5F5F4F94010E94A3348981882309F441
:10545000D1CDC4010E9439308C3209F0CBCDC401CA
:105460000E944B30C401B301AE014C5F5F4F940109
:105470000E94A3348981882309F4BCCDC4010E9411
:1054800039308C3209F0B6CDC4010E944B30C401D2
:10549000B301A20120E030E00E94A3348981882377
:1054A00009F4A8CDE091CC05F091CD05309709F431
:1054B000A1CD4E815F818A816C8109959BCDC4010C
:1054C0000E940032C401B301A20120E030E00E943A
:1054D000A3348981882309F48DCDE091C005F09132
:1054E000C105309709F079CF85CD1092AD051092A6
:1054F000AC05C4010E94B3267DCDC401B101A40155
:105500000E94B335C4010E9439308C3209F072CD4B
:10551000C4010E944B30C401B301A20120E030E07D
:105520000E94A3348981882309F464CDE091C605E3
:10553000F091C705309709F050CF5CCDC4010E94AF
:105540000032C401B301A20120E030E00E94A33484
:105550008981882309F44ECDE091BC05F091BD0509
:10556000309709F447CD20E08E819F81892B09F087
:1055700021E0822F09953ECDC4010E940032C40172
:10558000B301AE01465E5F4F94010E9424348981CD
:10559000882309F42FCDC4010E9439308C3211F0D8
:1055A000198228CDC4010E944B308981882309F4D7
:1055B00021CDC401B301AE01425E5F4F94010E9450
:1055C00024348981882309F415CDC4010E9439301F
:1055D0008C3231F7C4010E944B308981882309F451
:1055E00009CDC401B301AE014E5D5F4F20E030E054
:1055F0000E9424348981882309F4FCCCE091B6050B
:10560000F091B705309709F4F5CCCE014A9609958B
:10561000F1CC55985D981092A0051092A1058EE0EE
:105620008093ED061092A7051092A8051092AF0581
:105630001092AE051092B1051092B0051092B3050C
:105640001092B2051092B5051092B4051092B705EC
:105650001092B6051092B9051092B8051092BB05CC
:105660001092BA051092BD051092BC051092BF05AC
:105670001092BE051092C1051092C0051092C3058C
:105680001092C2051092C5051092C4051092C7056C
:105690001092C6051092C9051092C8051092CB054C
:1056A0001092CA051092CD051092CC051092CF052C
:1056B0001092CE0580E063E044E00E945C2C80E024
:1056C0000E94632B0895282F30E0F901EE0FFF1F91
:1056D000EE0FFF1FEE0FFF1F220F331FE20FF31F0E
:1056E000E053FA4F81E080830895282F30E0F901DC
:1056F000EE0FFF1FEE0FFF1FEE0FFF1F220F331FD6
:10570000E20FF31FE053FA4F108208959AE0899F49
:10571000F0011124E053FA4F8181882319F020E031
:10572000822F08958FB7F8948FBF20E00084F18511
:10573000E02D84819581892B99F721E0822F0895AE
:10574000282F30E0F901EE0FFF1FEE0FFF1FEE0FC5
:10575000FF1F220F331FE20FF31FE053FA4F0084A5
:10576000F185E02D2681378184819581281B390BB5
:10577000C90108956091D8057091D90589E999E02A
:105780000E94AC316091E2057091E30583E999E0F4
:105790000E94AC310895262F9AE0899FF0011124D0
:1057A000E053FA4F8081882309F40895608571855C
:1057B000822F0E942E310895EF92FF920F931F9334
:1057C000CF93DF93DB019AE0899FF0011124E0532E
:1057D000FA4F8081882399F0E084F184CD91DC91A7
:1057E000119712960D911C911397C017D10739F09C
:1057F0008991B7010E942E31C017D107C9F7DF91F7
:10580000CF911F910F91FF90EF9008950F931F93E9
:10581000CF93DF93DB019AE0899FF0011124E053DD
:10582000FA4F8081882369F0008511858C91882347
:1058300041F0EB01B8010E942E3189812196882325
:10584000C9F7DF91CF911F910F9108950F931F9387
:10585000CF93DF93EB019AE0899FF0011124E0538D
:10586000FA4F8081882311F480E017C000851185EC
:10587000CB010E945B3C2FB7F8942FBFF801268123
:10588000378144815581241B350B2817390760F374
:10589000FE018491882331F481E0DF91CF911F9143
:1058A0000F9108952196B8010E942E31FE01849136
:1058B0002196882389F3F7CFDF92EF92FF920F931F
:1058C0001F93CF93DF93D82E862F9AE0D99EE001C5
:1058D0001124C053DA4FE4E0EE2EF12CEC0EFD1E45
:1058E000642F41E021E087010E94E038C7010E9457
:1058F000673918821982DD20A1F488E491E0998744
:105900008887888599850E94233184ED9CE20E94D6
:105910009D13DF91CF911F910F91FF90EF90DF903A
:10592000089581E0D81669F784E591E09987888722
:10593000E8CFCF92DF92EF92FF920F931F93DF9306
:10594000CF9300D000D0CDB7DEB7182FCB01BE016A
:105950006F5F7F4F0E940D318AE0189FF001112484
:10596000E053FA4F8081882391F0C084D18409816B
:105970001A81EB80FC800E151F0549F0F80181911A
:105980008F01B6010E942E31E016F106B9F70F9093
:105990000F900F900F90CF91DF911F910F91FF907B
:1059A000EF90DF90CF9008958091D105813009F478
:1059B00044C08130E0F0823031F484ED95E00E9403
:1059C00067391092D1058091DB05813009F44EC012
:1059D000813050F58FB7F8948FBFE091E205F091D8
:1059E000E30584819581892B09F05FC008958FB705
:1059F000F8948FBFE091D805F091D9058481958105
:105A0000892B09F384ED95E00E947F398091D805B8
:105A10009091D9050E947A318093D20581E08093DC
:105A2000D3058093D105CFCF823001F78EED95E07D
:105A30000E9467391092DB0508958091D20580FDA0
:105A40002FC084ED95E00E947F398091D305883086
:105A5000F1F18F5F8093D3058091D2058695809375
:105A6000D2058091DB05813009F0B2CF8091DC0551
:105A700080FD11C08EED95E00E947F398091DD059B
:105A8000883049F18F5F8093DD058091DC05869534
:105A90008093DC0508958EED95E00E946739EECF86
:105AA00084ED95E00E946739D0CF8EED95E00E949D
:105AB0007F398091E2059091E3050E947A318093CD
:105AC000DC0581E08093DD058093DB05089582E0AD
:105AD0008093D10578CF82E08093DB050895809193
