:100000000C9477040C9494040C9494040C9494042D
:100010000C9494040C9401220C9494040C942222C9
:100020000C9494040C9494040C9494040C94610522
:100030000C9494040C9494040C9494040C949404E0
:100040000C9494040C9494040C94F2260C94A22620
:100050000C9498260C9494040C9494040C9494049A
:100060000C9494040C949404831137118C119F11F7
:100070002111B011C111CE11D411E0112111F111D2
:100080000D12151221112B1221112111721285123C
:100090009F12D712BE12AF12CB123A003A000102E1
:1000A00004081020756E7265636F676E697A656407
:1000B00020636F6D6D616E6400656577726974654C
:1000C000003A00656572656164007265626F6F7405
:1000D00000736C656570006F6666006F6E0070700F
:1000E0000073656E640064697361626C6500656EBF
:1000F00061626C65006970636F6E736F6C6500643C
:10010000697361626C6500656E61626C6500636550
:100110006C6C00736D730068696768006C6F7700C2
:100120006F6666006F6E006E6F74696679002700F7
:100130002C2077726974656B65793A2700272C202B
:10014000706F72743A002C20616464723A27005414
:1001500068696E67537065616B20456E61626C659E
:10016000643A007468696E67737065616B004C6F08
:100170006767696E6720496E74657276616C3A00D4
:100180006C6F67696E74657276616C002700415010
:100190004E3A270061706E0050494E3A2000504997
:1001A0004E006765740077726974656B65790070DD
:1001B0006F72740061646472657373006F666600C9
:1001C0006F6E007468696E67737065616B006C6F49
:1001D00067696E74657276616C0061706E0073653C
:1001E00074006C656400746F0073746174757300DF
:1001F0002D2D2D2D2D3E2053454E44204641494C5A
:100200004544002D2D2D2D2D3E2073656E642073E9
:1002100075636365737366756C00646174612073E4
:10022000656E7420746F20686F7374002020002C3A
:10023000207265673A0056002C2056623A002C2046
:100240006373713A002C2073743A002C2075703A55
:10025000003A0072652D696E697469616C697A692A
:100260006E6720454550524F4D000D0A0000524523
:100270004320554E5245414400524543205245418A
:10028000440053544F20554E53454E540053544F41
:100290002053454E5400414C4C006D026E027902D1
:1002A00082028D02960241542B435245473F00542F
:1002B00043504950207375627461736B20636F6D96
:1002C000706C65746564006572726F722073656E20
:1002D00064696E6720726573706F6E736500736515
:1002E0006E7420726573706F6E73650073656E64F3
:1002F000696E67206D6573736167652074657874D6
:100300002026204374726C2D5A006D6573736167EB
:10031000652064656C657465640044656C6574692A
:100320006E67206D65737361676500476F74204366
:100330004D47522E00526567697374657265642E6D
:100340000041542B434950484541443D31004154FC
:100350002B4349505153454E443D310041542B43AA
:100360004D47463D310050494E2072656164792EFB
:1003700000436865636B696E672050494E004154C5
:1003800045300043656C6C756C6172204D6F64750F
:100390006C65205265616479003E3E3E3E204469B2
:1003A0007361626C696E672043656C6C756C617219
:1003B000204D6F64756C65203C3C3C3C0043686597
:1003C000636B2074696D650070726F636573736928
:1003D0006E67206D65737361676520494420005323
:1003E0004D532073656E6420220073656E64696EE0
:1003F00067206F7574676F696E67206D7367003E65
:100400003E3E3E20456E61626C696E672043656CBE
:100410006C756C6172204D6F64756C65203C3C3C62
:100420003C0074696D656F75742074696D653A0080
:100430005265626F6F74696E672064756520746FB2
:100440002074696D656F757420696E2073746174B2
:10045000653A0041542B434D47533D220041542BF4
:10046000434D47523D0041542B43434C4B3F0041C9
:10047000542B434D47443D0041542B4353510041BD
:10048000542B434243007175657565696E67206D35
:10049000657373616765200073656E7420437472C1
:1004A0006C2D5A006E6F2047505253006E6F7420AF
:1004B0007265676973746572656400756E657870DE
:1004C000656374656420636F6E6E656374696F6ED7
:1004D0002073746174757300636F6E6E6563746905
:1004E0006E6720544350495000646973636F6E6EA9
:1004F000656374696E672054435049500073656E9C
:1005000064696E6720646174610041542B43474104
:1005100054543F0041542B43495053454E440041ED
:10052000542B4349505348555400756E6578706597
:100530006374656420495020737461746520696E2A
:1005400020636F6E6E6563740041542B43494943C9
:10055000520041542B43494653520041542B4353BC
:1005600054543D22002200222C220041542B4349A6
:100570005053544152543D22544350222C22007572
:100580006E6578706563746564204950207374618A
:10059000746520696E2073656E6444617461004106
:1005A000542B43495041434B00756E657870656329
:1005B00074656420495020737461746520696E20ED
:1005C000646973636F6E6E6563740041542B4349B5
:1005D00050434C4F53450041542B434950535441D1
:1005E000545553003E3E3E20446973636F6E6E6502
:1005F00063746564003E3E3E20446973636F6E6EB3
:10060000656374696E67003E3E3E2053656E6469A3
:100610006E672044617461003E3E3E20436F6E6E03
:100620006563746564003E3E3E20436F6E6E656395
:1006300074696E6700434C4F5345204F4B00434C49
:100640004F53454400434F4E4E4543542046414985
:100650004C00434F4E4E454354204F4B0043616C7A
:100660006C205265616479004552524F52004E4FE2
:10067000524D414C20504F57455220444F574E0049
:100680004F4B005244590053454E44204641494C7B
:100690000053454E44204F4B0053485554204F4B78
:1006A00000534D532052656164790035063E06457E
:1006B0000652065D0668066E06800683068706916A
:1006C000069906A1064342430043434C4B00434670
:1006D000554E0043474154540043495041434B0059
:1006E000434D474C00434D475200434D4753004351
:1006F0004D5449004350494E00435245470043532F
:10070000510050445000C506C906CE06D306D9068E
:10071000E006E506EA06EF06F406F906FE0602071D
:10072000434F4E4E454354204F4B00495020434FBA
:100730004E464947004950204750525341435400C8
:10074000495020494E495449414C00495020535486
:100750004152540049502053544154555300504481
:100760005020444541435400534552564552204C75
:10077000495354454E494E470054435020434C4F33
:100780005345440054435020434C4F53494E470077
:1007900054435020434F4E4E454354494E47005515
:1007A000445020434C4F5345440055445020434C43
:1007B0004F53494E470055445020434F4E4E4543FA
:1007C00054494E470020072B07350740074B075475
:1007D000075E0768077907840790079F07AA07B68F
:1007E000072D2D2D204F6666202D2D2D002D2D2D12
:1007F000204F6E202D2D2D0029202700476F7420BB
:100800004950206461746120280053494D383030CC
:100810003A20270044415441204143434550543A33
:100820000053544154453A2000476F7420544350BC
:100830002F495020616464726573733A2000756EAD
:100840007265633A0046756E636C6576656C3A2036
:100850000043474154543A20002C002C0043495097
:1008600041434B3A2000534D532069643A200052D3
:1008700065673A20005369673A2000444541435474
:1008800000756E7265633A005265616479210050AB
:100890006F776572656420446F776E2100466169E9
:1008A0006C6564005375636365737366756C0043B0
:1008B0006F6E6E656374696F6E20434C4F53454491
:1008C00000436F6E6E656374204641494C00436F70
:1008D0006E6E656374204F4B002B4950442C0047CB
:1008E0006F742070726F6D7074000D0A0000112417
:1008F0001FBECFEFD8E0DEBFCDBF11E0A0E0B1E07A
:10090000E0E6F4E502C005900D92AE39B107D9F7E3
:1009100016E0AEE9B1E001C01D92A73AB107E1F7D8
:100920000E9496040C942E2A0C9400002DE088E17D
:1009300090E00FB6F894A895809360000FBE2093C6
:1009400060000E94CD040E94D90C0E940D060E94F6
:10095000A90E0E949A210E9490220E94F10D0E94ED
:10096000E30F0E94A9140E9401190E949B28789409
:100970000E945B050E943E060E94F70D0E94A51F83
:100980000E947E0D0E9436180E94F9100E949F2836
:10099000882371F70E944905EBCF10929F011092B6
:1009A0009E011092A0011092A1011092A20110923A
:1009B000A3011092A6011092A501E1E8F0E0808168
:1009C000887F826080838081877E8860808380EDDD
:1009D00090E0909389008093880010928500109297
:1009E0008400B19AEFE6F0E0808182608083089510
:1009F0009093A6018093A50108958FB7F894209154
:100A00009E0130919F018FBFC9010895FC012FB74E
:100A1000F8948091A0019091A101A091A201B091C0
:100A2000A30180839183A283B3832FBF0895FB0129
:100A30006FB7F8942091A0013091A1014091A201DB
:100A40005091A3016FBFAA2797FDA095BA2F820FDF
:100A5000931FA41FB51F80839183A283B38308953E
:100A6000FC018FB7F8942091A0013091A101409131
:100A7000A2015091A3018FBF60E080819181A2818A
:100A8000B381281739074A075B0708F061E0862F12
:100A9000089581E08093A40129E288E190E00FB6F7
:100AA000F894A895809360000FBE2093600008958D
:100AB0008091A40108958091A401882309F4A89548
:100AC00008951F920F920FB60F9211242F933F9308
:100AD0004F935F936F937F938F939F93AF93BF9346
:100AE000EF93FF9380919E0190919F0101969093C7
:100AF0009F0180939E0180919E0190919F01805C57
:100B00009241B8F010929F0110929E018091A00135
:100B10009091A101A091A201B091A3010196A11D04
:100B2000B11D8093A0019093A101A093A201B09365
:100B3000A301E091A501F091A601309709F0099574
:100B4000FF91EF91BF91AF919F918F917F916F91A5
:100B50005F914F913F912F910F900FBE0F901F907B
:100B60001895CF92DF92EF92FF920F931F936C0133
:100B70008FB7F894E090A001F090A1010091A2013C
:100B80001091A3018FBFC801B70120E13EE040E012
:100B900050E00E94DD28822F90E062E040E0960164
:100BA0000E9469258CE990E0B6010E94D522C80117
:100BB000B70120E13EE040E050E00E94DD28162F22
:100BC000072FF82EE92E2CE330E040E050E00E94A1
:100BD000DD28822F90E062E040E096010E946925C6
:100BE0008AE990E0B6010E94D522612F702F8F2DE7
:100BF0009E2D2CE330E040E050E00E94DD28862F5F
:100C000090E062E040E096010E9469251F910F91FB
:100C1000FF90EF90DF90CF900895EAE7F0E08081B9
:100C2000887F846080838081806880831092A701A0
:100C30000895582F863088F0282F30E06295660F8F
:100C4000660F607C652B41116062F901EE0FFF1F9A
:100C5000E655FE4F418360830895282F30E0F90167
:100C6000E256FF4FE49197B18E2F8095892387B983
:100C700080917E00E82BE0937E00E0CF8091A70179
:100C8000813059F0823009F0089580917A0084FF14
:100C9000FBCF83E08093A701089580917A0084FFC1
:100CA000F3CF8091A80180937C008091A9018823D3
:100CB00071F080917B00806280937B0080917A004C
:100CC000806480937A0082E08093A70108958091E8
:100CD0007B008F7D80937B00F1CFE82F8091A7016F
:100CE000882319F5F0E0EE0FFF1FE655FE4F9181C6
:100CF00080819093A9018093A80180937C0099231F
:100D000071F480917B008F7D80937B0080917A00CD
:100D1000806480937A0081E08093A7010895809198
:100D20007B00806280937B00F1CF80E00895FC011E
:100D30008091A701833011F080E0089580917A00BE
:100D4000806180937A008091A901882351F4809179
:100D5000780090917900918380831092A70181E0BF
:100D600008958091790090E0918380831092A7018B
:100D700081E00895DB012C9130E0220F331F1396A0
:100D8000ED91FC911497E20FF31F918380834C91B6
:100D9000242F30E012965C911297852F90E00197F6
:100DA0002817390754F01C9211968C9111978517CA
:100DB00018F48F5F11968C9308954F5F4C93F4CF86
:100DC000FC0181818823A1F08081882371F081500A
:100DD00090E0880F991F0380F481E02DE80FF91F40
:100DE0000190F081E02DCF01089582818150F0CFF4
:100DF000E0E0F0E0CF0108955F926F927F928F92D2
:100E00009F92AF92BF92CF92DF92EF92FF920F9399
:100E10001F93CF93DF936C01562EBA01E90138017D
:100E20008FEF9FEFDA018D939C9319821882F8015E
:100E300011821082D60111968C911197882309F4A2
:100E400050C0EC91EE2309F45CC04E2F4150852C2C
:100E500099248114910409F458C0EE24FF248701D9
:100E600020E030E0F601A380B48008C0F6014281A2
:100E700041502F5F3F4F2815390544F5E42FF0E02E
:100E8000EE0FFF1FEA0DFB1D0190F081E02DDB014D
:100E90008D919C911197E817F90710F4ED93FC934D
:100EA000888199818E179F0710F4F983E883CF0119
:100EB000A0E0B0E0E80EF91E0A1F1B1F4423B1F2A8
:100EC00041502F5F3F4F28153905C4F2252D30E0E2
:100ED00040E050E0C801B7010E94DD28D3012D9306
:100EE0003C93DF91CF911F910F91FF90EF90DF9096
:100EF000CF90BF90AF909F908F907F906F905F90BA
:100F0000089512964C914150A2CFEE24FF24870100
:100F1000DDCF882329F480EF91E00E94700D0895C1
:100F200083E092E00E94700D0895FC018081882387
:100F300029F489E591E00E94690D0895CF010E948E
:100F4000360F08958AE192E00E9465140895CF93C8
:100F5000DF93EC011982EA81FB8110820E941F0F4E
:100F6000FC01838190E062E040E09E010E946925DF
:100F700081E592E0BE010E94D5220E941F0FFC0174
:100F8000848190E062E040E09E010E9469258BE44C
:100F900092E0BE010E94D522CE010E94B10585E4F7
:100FA00092E0BE010E94D5220E94250F62E040E03F
:100FB0009E010E9469250E94250F0E94290F882307
:100FC00059F08EE2BE010E94B1220E945E1462E0DE
:100FD00040E09E010E9469258EE392E0BE010E94DE
:100FE000D5220E94220F90E062E040E09E010E9424
:100FF000692588E392E0BE010E94D5220E94310F4C
:1010000061E043E09E010E94692586E392E0BE0113
:101010000E94D5228FE292E0BE010E94D5220E945A
:10102000100F90E061E040E09E010E9469258CE293
:1010300092E0BE010E94D522DF91CF910895AF9238
:10104000BF92CF92DF92EF92FF920F931F93DF93A5
:10105000CF93CDB7DEB7CB5ED0400FB6F894DEBFEE
:101060000FBECDBF6C01B62EA72E9CE9E92EF12C48
:10107000EC0EFD1EC701B6014FE450E00E948B2923
:10108000FE01E551FF4F1082C70160E071E00E9450
:1010900086298C01009731F169EE71E00E943829B0
:1010A000892B91F580E090E060E071E00E94862954
:1010B000009739F066EE71E00E943829892B09F417
:1010C0005EC08B2D9A2D9C01890189E591E00E94DB
:1010D000A707D8018C91882309F05CC089E591E0CD
:1010E0000E94690DC551DF4F0FB6F894DEBF0FBEE9
:1010F000CDBFCF91DF911F910F91FF90EF90DF90C7
:10110000CF90BF90AF900895C80162EE71E00E9449
:101110003829892B69F1C8016EED71E00E943829E8
:10112000892BE1F580E090E060E071E00E94862983
:101130008C010097B9F26AED71E00E943829892B81
:1011400009F4EAC0C8016EEC71E00E943829892BCD
:1011500009F04FC180E090E060E071E00E948629D4
:10116000009709F4BFCF0E941A290E940F0CBACF32
:1011700080E090E060E071E00E948629B3CF80E0DB
:1011800090E060E071E00E9486299C01009709F0E0
:101190009BCF97CFC8010E94360FA4CFC80162EA47
:1011A00071E00E943829892B09F43FC0C80167E229
:1011B00071E00E943829892B09F0BAC080E090E0E4
:1011C00060E071E00E9486298C01009709F48ACFC3
:1011D00064E271E00E943829892B09F49AC1C801A0
:1011E00060E271E00E943829892B09F4D4C1C8015A
:1011F0006CE171E00E943829892B09F4F2C1C80121
:1012000067E171E00E943829892B09F06BCF80E0FB
:1012100090E060E071E00E948629009709F462CFB7
:101220000E941A290E94CD0C5DCF80E090E060E022
:1012300071E00E9486298C01009709F453CF6EE972
:1012400071E00E943829892B09F408C1C80164E9BA
:1012500071E00E943829892B09F440C1C80160E877
:1012600071E00E943829892B09F47BC1C80163E62B
:1012700071E00E943829892B09F034CF10925A016D
:10128000E0915B01F0915C0110828FE491E069E5EF
:1012900071E00E94D5220E94820C90E061E040E063
:1012A00029E531E00E94692586E491E069E571E075
:1012B0000E94D5228E01045A1F4FC8010E94310C92
:1012C000C80169E571E00E94FB228DE391E069E5C8
:1012D00071E00E94D5220E94E90B61E040E029E51F
:1012E00031E00E94692580E391E069E571E00E94A8
:1012F000D522C8010E94290CC80169E571E00E944D
:10130000FB228EE291E069E571E00E94D5228B2DEF
:101310009A2D0E949507E6CE80E090E060E071E0B3
:101320000E948629009709F4DDCE0E94610CDACE76
:10133000C80163E171E00E943829892B09F0ABC034
:1013400080E090E060E071E00E9486298C010097C7
:1013500009F4C8CEFC0180818B3209F0C3CEF801BC
:1013600001900020E9F73197E01BF10B369708F464
:10137000B9CE85E1A82EB12CAC0EBD1EC501B801B9
:1013800043E150E00E948B2918A6F801019000204B
:10139000E9F73197E01BF10B0E0F1F1F0E191F0904
:1013A000FE01B99683E3DF011D928A95E9F782E396
:1013B00089831A82FC83EB83C601800F911F8E0103
:1013C0000F5F1F4FB8010E942E268A81882309F4DF
:1013D00089CE10925A01E0915B01F0915C0110827C
:1013E000C80169E571E00E944A23C5010E94950782
:1013F00079CEC80163EC71E00E943829892B09F08D
:1014000071CE80E090E060E071E00E9486298C015E
:10141000009709F467CE60EC71E00E943829892BAF
:1014200009F4EAC0C8016CEB71E00E943829892BED
:1014300009F4F0C0C80164EB71E00E943829892BDF
:1014400009F028C180E090E060E071E00E94862908
:10145000009709F447CE0E94590C44CE8E010B5FD1
:101460001F4FC8010E94410C10925A01E0915B018C
:10147000F0915C01108288E991E069E571E00E94D9
:10148000D522C80169E571E00E94FB228B2D9A2DBF
:101490000E94950727CEC8016EE071E00E943829AE
:1014A000892BD9F580E090E060E071E00E94862908
:1014B0008C01009709F416CE67E071E00E9438298C
:1014C000892B09F49DC0C8016FEF70E00E94382994
:1014D000892B09F007CE0E94F60E04CE8E01045A25
:1014E0001F4FC8010E94390C10925A01E0915B0114
:1014F000F0915C0110828EE891E069E571E00E9454
:10150000D522C80169E571E00E94FB228CE891E0D8
:10151000FACE81E00E94C70CE5CDC80165EF70E00E
:101520000E943829892BD9F580E090E060E071E0D5
:101530000E9486298C01009709F4D4CD6EEE70E0EC
:101540000E943829892B09F469C0C80166EE70E051
:101550000E943829892B09F0C5CD81E00E9423180B
:10156000C1CD10925A01E0915B01F0915C011082B3
:101570008EE691E069E571E00E94D5220E94EE0BB3
:1015800061E040E029E531E00E9469258B2D9A2D2C
:101590000E949507A7CD80E00E94C70CA3CDC8018B
:1015A00061EE70E00E943829892B69F1C8016EED67
:1015B00070E00E943829892BA9F580E090E060E076
:1015C00071E00E9486298C01009709F48BCD6BEDA8
:1015D00070E00E943829892B09F0BCC03D9A4598DB
:1015E00081CD80E090E060E071E00E9486290E9459
:1015F0001A290E94D30C76CD81E00E94BB0C72CDDB
:101600000E94F20E6FCD82EA97E069E877E00E94CF
:10161000411468CD80E00E94BB0C64CD81E00E9443
:101620002C1860CDC80161ED70E00E943829892B2B
:1016300009F046C080917A008F7780937A0029E282
:1016400088E190E00FB6F894A895809360000FBEF3
:101650002093600083B7817F846083BFF89483B751
:10166000816083BF85B7806685BF8F7D85BF809190
:1016700064008F6E809364008FE380937E0083E02C
:1016800080937F001BB87894889583B78E7F83BF43
:10169000789428CDC8016FEA71E00E943829892B1F
:1016A00009F044C080E090E060E071E00E9486298B
:1016B000009709F417CD0E941A290E94090C12CD37
:1016C000C8016AEC70E00E943829892B09F46FC0C8
:1016D000C80163EC70E00E943829892B09F044C0EE
:1016E00080E090E060E071E00E948629009709F4B4
:1016F000F9CC0E941A298C010E943D28F82E1092E4
:101700005A01E0915B01F0915C011082C80161E037
:1017100040E029E531E00E94692581EC90E069E52F
:1017200071E00E94D5228F2D90E02ACFC80166EA91
:1017300071E00E943829892B09F0D4CC80E090E038
:1017400060E071E00E948629009709F4CBCC0E94EA
:10175000510CC8CCC80167ED70E00E943829892B74
:1017600009F0C0CC3D98BECCC80169EB70E00E9486
:101770003829892BF9F480E090E060E071E00E9464
:101780008629009709F4AECC0E941A298C0180E0CA
:1017900090E060E071E00E948629009709F4A2CCF5
:1017A0000E941A29682FC8010E9434289BCC0E94ED
:1017B000490598CC84EA90E00E94700D93CC8FE8A4
:1017C00090E00E945C2808958FE090E00E945C28E1
:1017D000089588E590E00E945C2808958AE090E0F2
:1017E0000E945C28089583E190E00E945C2808959F
:1017F00081E190E00E945C280895BC018FE890E0B0
:101800000E9489280895BC018FE090E00E948928F9
:101810000895BC0188E590E00E9489280895BC01E4
:101820008AE090E00E9489280895BC0183E190E05D
:101830000E9489280895BC0181E190E00E948928D6
:101840000895AC018FE690E060E270E00E944528C8
:101850000895AC018AE590E064E170E00E944528BB
:101860000895AC0188E390E060E270E00E944528B2
:101870000895AC0187E190E060E270E00E944528A5
:101880000895AC0181E090E068E070E00E94452896
:101890000895AC018FE690E060E270E00E9472284B
:1018A0000895AC018AE590E064E170E00E9472283E
:1018B0000895AC0188E390E060E270E00E94722835
:1018C0000895AC0187E190E060E270E00E94722828
:1018D0000895AC0181E090E068E070E00E94722819
:1018E00008958EE690E00E943D28811181E00895E0
:1018F0008EE090E00E943D2808958DE090E00E94E7
:101900003D28089587E390E00E943D2890E08130D3
:1019100011F0892F089591E0892F08958CE090E0CF
:101920000E943D28089589E090E00E943D2890E0C3
:10193000813011F0892F089591E0892F089586E173
:1019400090E00E943D28089585E190E00E943D28A6
:101950000895682F8EE690E00E9434280895682F3D
:101960008EE090E00E9434280895682F8DE090E08A
:101970000E9434280895682F87E390E00E9434285D
:101980000895682F8CE090E00E9434280895682F15
:1019900089E090E00E9434280895682F86E190E065
:1019A0000E9434280895682F85E190E00E94342831
:1019B0000895DF93CF930F92CDB7DEB7CE01019696
:1019C0000E943D288F3F31F0882321F00F90CF9166
:1019D000DF910895898383E592E00E94700D409124
:1019E000390150913A0181E090E068E070E00E9496
:1019F000722881E190E062E271E00E94892883E12F
:101A000090E06EE170E00E94892886E190E06AE54E
:101A10000E94342885E190E061E20E94342889E048
:101A200090E060E00E94342887E190E060E270E09E
:101A300044E051E00E9472288AE090E068E572E09C
:101A40000E94892887E390E060E00E94342888E3C0
:101A500090E060E270E04FE051E00E94722888E57B
:101A600090E060E570E00E9489288AE590E064E1FA
:101A700070E042E251E00E9472288DE090E061E067
:101A80000E9434288EE090E064EB0E9434288FE0BE
:101A900090E06FEF7FE30E9489288EE690E060E09F
:101AA0000E9434288FE690E060E270E043E251E06B
:101AB0000E9472288FE890E068EB7BE00E94892802
:101AC00080E090E061E00E9434280F90CF91DF9198
:101AD00008950E944E278AE692E00E94A127089569
:101AE0000E94A1278AE692E00E94A12708950E9401
:101AF000D2278AE692E00E94A12708950F931F93B0
:101B0000DF93CF93CDB7DEB7CE57D0400FB6F89462
:101B1000DEBF0FBECDBFCE0101960E94D92688231D
:101B200071F089818D30E1F18F3709F452C060E4A2
:101B300071E00E94B12280E491E00E944E2785EE80
:101B400091E00E9430058823F9F0FE01369689E77E
:101B5000DF011D928A95E9F788E78A831B82FD835E
:101B6000EC838E010E5F1F4FC8010E94A707C801BA
:101B70000E944E278AE692E00E94A12781E090E031
:101B800065EE71E00E941705C258DF4F0FB6F8945A
:101B9000DEBF0FBECDBFCF91DF911F910F91089592
:101BA00080914201909143016BE371E0AB010E948F
:101BB0001F0880E491E00E944E278CE391E00E9490
:101BC000D22710924101E0914201F091430110822D
:101BD000B2CF80914101815060E471E00E94C8223F
:101BE000AACF0E94202808958091F0010895FF92C5
:101BF0000F931F93DF93CF93CDB7DEB728970FB620
:101C0000F894DEBF0FBECDBFF090EF0121E0F216D9
:101C100009F1F21678F082E0F81629F128960FB64D
:101C2000F894DEBF0FBECDBFCF91DF911F910F9112
:101C3000FF90089581EF91E00E943005882371F3B1
:101C400080EB94E061EF71E00E94170581E08093E2
:101C5000EF01E4CF80E00E946D068823F9F282E074
:101C60008093EF01DBCFCE0101960E949706882377
:101C7000A9F289819A8164E471E00E94BA06809198
:101C80004501833018F41092EF01C8CF84E491E04D
:101C900063E0AE014D5F5F4F9E012B5F3F4F8E01B2
:101CA000095F1F4F0E94FC068D819E8122E0823CCD
:101CB000920720F481E08093F001E5CF23E08930A2
:101CC000920718F4F092F001DECF8A54934020F48A
:101CD00083E08093F001D7CF84E08093F001D3CFED
:101CE0000F931F93DF93CF9300D000D000D0CDB7D8
:101CF000DEB71A82198280914501833070F084E446
:101D000091E063E0AE014D5F5F4F9E012B5F3F4F5F
:101D10008E010F5F1F4F0E94FC0669817A8180E06F
:101D200090E02AE930E040E050E00E94AA2824E652
:101D300030E040E050E00E94FF28C90126960FB62F
:101D4000F894DEBF0FBECDBFCF91DF911F910F91F1
:101D500008951092EF011092F00180EB94E061EF92
:101D600071E00E941705109244011092450180E035
:101D700061E040E00E9419060895E82FF0E0EE0FC0
:101D8000FF1FE656FD4F25913491C901089591E05A
:101D90009093AD038093AE03089591E09093B803C0
:101DA0008093B903089591E09093B6038093B703AD
:101DB000089521E02093AF03A0EBB3E0FC0186E09F
:101DC00001900D928150E1F708958093BB036093D9
:101DD000BC035093BE034093BD03089581E08093FC
:101DE000C003089581E080938703089510928703CC
:101DF000089590E080918503813009F091E0892F6A
:101E000008958091B603882319F490E0892F0895EE
:101E100090E08091BF038730C9F791E0892F089542
:101E20008091B70308959091B703913031F080E02D
:101E3000953009F0089581E0089581E0089580EBE0
:101E400093E008958091B90308958091850390E00F
:101E5000089520E0489711F0822F089521E0822F05
:101E600008958091BD039091BE030895109256018C
:101E7000E0915701F0915801108265E571E00E94F0
:101E8000FB2208950F931F938C0182E59FE00E942F
:101E90003D198EE08093BF03C8010E947D201F91F1
:101EA0000F9108958093BF03813009F008950E9437
:101EB00011150895809185038150823018F090E0CB
:101EC000892F0895809156018823C9F78091950341
:101ED0008823A9F70E94511491E09827F1CF21E0BF
:101EE0002093BA0310925E01E0915F01F0916001CE
:101EF00010826DE571E00E944A2308950F931F93AD
:101F00008C0182E59FE00E943D198EE08093BF0323
:101F1000C8010E949A201F910F910895EF92FF929D
:101F20000F931F93DF93CF93CDB7DEB7AD970FB667
:101F3000F894DEBF0FBECDBF7C0180919503883041
:101F400091F1FE01359689E2DF011D928A95E9F74C
:101F500088E28983FC83EB831A821D8286E894E001
:101F60008E010F5F1F4FB8010E94D522C70161E0AB
:101F700040E098010E946925C8010E94690D909176
:101F80009403E92FF0E0EE0FFF1FED56FC4FF482B3
:101F9000E3829F5F90939403809195038F5F80937A
:101FA0009503983069F0AD960FB6F894DEBF0FBE7A
:101FB000CDBFCF91DF911F910F91FF90EF900895CA
:101FC00010929403F0CF5C9A0E94012085E08093E8
:101FD000910387EC9EE00E946A198DEC9EE00E94BE
:101FE0006F198EE89FE00E9479198FE69FE00E94AA
:101FF0007E1989ED9EE00E94831985EE9EE00E9485
:1020000088190E94A91410929303109294031092BD
:10201000950310925601E0915701F09158011082FA
:1020200010925A01E0915B01F0915C0110821092D4
:1020300087031092AD031092AE031092AF0310927B
:10204000B7031092B8031092B9031092850380EF82
:1020500090E0A0E0B0E08093610190936201A093D2
:102060006301B09364011092B6031092BA03109208
:10207000BB031092BC031092BE031092BD030895DF
:10208000CF93DF93EC01E4EAF2E0659174910E9452
:102090003829892B41F1E2EAF2E065917491CE0191
:1020A0000E943829892B09F1E0EAF2E065917491E8
:1020B000CE010E943829892BD1F0EEE9F2E065913A
:1020C0007491CE010E943829892B99F0ECE9F2E055
:1020D00065917491CE010E943829892B61F080E0CE
:1020E000DF91CF91089585E0FBCF84E0F9CF83E0C5
:1020F000F7CF82E0F5CF81E0F3CFEF92FF920F931D
:102100001F93CF93DF93FB018A01790181E08093D4
:10211000A803C281D381E4EAF2E065917491CE0113
:102120000E943829892B09F448C0E2EAF2E065915F
:102130007491CE010E943829892B09F440C0E0EA4D
:10214000F2E065917491CE010E943829892B09F43F
:1021500038C0EEE9F2E065917491CE010E94382911
:10216000892B89F1ECE9F2E065917491CE010E942E
:102170003829892B51F180E08093920310924A0113
:10218000E0914B01F0914C011082C80169E471E0CB
:102190000E944A2310925201E0915301F0915401A0
:1021A0001082C70161E571E00E944A23DF91CF915F
:1021B0001F910F91FF90EF90089585E0DDCF84E0AF
:1021C000DBCF83E0D9CF82E0D7CF81E0D5CF83EDDD
:1021D0009EE00E9474191092B60382E59FE00E946F
:1021E0003D198EE08093BF0386EA92E00E947D2035
:1021F0000895EF92FF920F931F93DF93CF93CDB784
:10220000DEB7C15AD0400FB6F894DEBF0FBECDBFC7
:102210000E9458058823B1F590918503809186032B
:102220009817D1F080EF90E061E671E00E94170509
:102230008091850380938603E82FF0E0E931F10572
:1022400018F00E94490524C0EC5CFF4FEE0FFF1F01
:102250000590F491E02D0994913021F381E691E00D
:102260000E943005882311F580918503E5CF809188
:102270008703882309F0AAC10E9435150E943E14E5
:10228000843031F40E9420191092B7031092B903E0
:10229000CF55DF4F0FB6F894DEBF0FBECDBFCF9145
:1022A000DF911F910F91FF90EF9008958E01075FCE
:1022B0001F4F8091850390E0B8014AE050E00E94F2
:1022C000C12980E394E00E94700DC8010E94770D3F
:1022D00082E294E00E94700D609161017091620150
:1022E0008091630190916401A8012AE030E00E948E
:1022F000E229C8010E94770D809185030E94C10CDC
:102300000E944905B1CF80918703882309F063C1FA
:1023100081E080938503BCCF80918703882309F4F3
:1023200069C18091B703813009F46FC1853009F428
:102330006CC10E94E7108BE080938503A9CF0E94B7
:102340002319823009F0A4CF83E893E00E94700D36
:102350008EE793E00E94420F85E08093850398CF3B
:102360008091BF03873009F093CF81E793E00E940B
:10237000700D1092BA0389E08093850310928C034C
:1023800087CF8091BF03873009F082CF8EE493E03E
:102390000E94420F88E0809385037ACF8091BF032B
:1023A000873009F075CFC5CF1091BF03173009F002
:1023B0006FCF81E493E00E94420F1093850368CFB2
:1023C0008091BA03882309F463CF86E693E00E94E4
:1023D000700D8CE593E00E94420F86E080938503A8
:1023E00057CF8091B603882309F452CF8091BF0361
:1023F000873009F04DCF8091B703813009F47FC158
:10240000853009F47CC18CE08093850382E090E004
:1024100068E873E00E9417053BCF88E893E00E94CC
:102420003005882309F434CF84CF8091BF038730EF
:1024300009F02ECF80919503882319F481E08093D1
:10244000910382E090E06DE873E00E94170582E05E
:10245000809385031DCF8091BF03873009F018CF8B
:102460008BE293E00E94700D89E491E00E94690D77
:1024700080919203E82FF0E0EE0FFF1FE656FD4F2C
:10248000859194910E94700D81E591E00E94690D03
:102490008AE193E00E94700DE090A603F090A703FC
:1024A000FE0173968BE0DF011D928A95E9F78AE0C1
:1024B0008D83F887EF831E821B8A8E010B5F1F4F6F
:1024C0008FE694E0B8010E94D522C70161E040E0A8
:1024D00098010E946925C8010E947E0F82E18093C5
:1024E0008503D6CE8091BF03873009F0D1CE8AE034
:1024F00093E00E94700D809192038150823008F425
:102500008FC182E080938503C3CE8091C00388236E
:1025100009F4BECE8CEE92E00E94700D89E591E048
:102520000E94692010925A01E0915B01F0915C01D8
:1025300010820E94921984E180938503A9CE809134
:10254000BF03873009F4ECC0853009F0A1CE87ECD9
:1025500092E00E94700D82E08093850399CE809175
:10256000BF03873009F094CE8CE390E069EA73E012
:102570000E94170582E0809385038ACE8091BF0375
:10258000873009F085CE8FE794E00E94420F87E103
:10259000809385037DCE0E9435150E9451148823B7
:1025A00009F076CE8FEA92E00E94700DAACF80915A
:1025B000BF03873009F06CCE1092B80388E794E02F
:1025C0000E94420F86E18093850362CE0E941E180E
:1025D000109285035DCE0E942319882309F091CFC4
:1025E0008FEF93E00E94700D0E941C1983E080938E
:1025F00085034ECE80E00E94231881E080938503FE
:1026000089E993E00E94700D43CE809156018823A2
:1026100009F08EC090919503992309F4E4C080914C
:102620009303E82FF0E0EE0FFF1FED56FC4F2381E0
:1026300034818F5F809393039150909395038830FA
:1026400011F4109293033093A7032093A603FE0185
:10265000EF5AFF4F81E5DF011D928A95E9F780E58A
:102660008983FC83EB831A82108288EC93E07E01DD
:102670000894E11CF11CB7010E94D5226091A603C9
:102680007091A70380E090E041E020E087010E9484
:10269000B924C7010E94690DE090A603F090A7033A
:1026A0001092A80310925201E0915301F09154014D
:1026B00010828DE790E10E946519FE0173968BE010
:1026C000DF011D928A95E9F78AE08D83F887EF8311
:1026D0001E821B8A8E010B5F1F4F8DE594E0B801AF
:1026E0000E94D522C70161E040E098010E9469255F
:1026F000C8010E947E0F8FE080938503C9CD85E3DA
:1027000093E00E94700D85E090E06DE873E00E9418
:1027100017058AE090E069EA73E00E941705F1CEA0
:102720008EED92E00E94700D82E080938503B0CD23
:10273000FE01EF5AFF4F81E5DF011D928A95E9F70F
:1027400080E589831A82FC83EB838AEE93E00E9402
:10275000700D1A82EB81FC8110828FED93E08E0167
:102760000F5F1F4FB8010E94D52285E591E0B801A7
:102770000E944A2382E2B8010E94B122C8010E944D
:10278000690D1092C0038EEE9EE00E948D19FE012D
:102790007E9683E3DF011D928A95E9F782E38D83BC
:1027A000F887EF831E821E8E8E010B5F1F4F83E51D
:1027B00094E0B8010E94D52285E591E0B8010E941D
:1027C0004A2382E2B8010E94B122C8010E947E0F12
:1027D00010925601E0915701F0915801108283E167
:1027E0008093850355CD0E945114882321F088E100
:1027F000809385034DCD89EA93E00E9430058823BC
:1028000009F446CD8DEB93E00E94700D1092AF035A
:1028100086E694E00E94420F85E18093850338CDDF
:1028200060914B0170914C0140914F0150915001CA
:1028300080915301909154010E941F0862CE8093B1
:10284000F10308958093F303E091F403F091F5030D
:10285000309709F0099508958093F703089581E072
:102860008093F80308958093F603089581E08093A0
:10287000F903089581E08093FA0308958091F303AA
:1028800008959093EA038093E9037093EC036093B7
:10289000EB0382E08093F203089583E08093F203D8
:1028A00008958091E203882339F48091F20388230C
:1028B00009F4089581E0089581E008958091E2038C
:1028C00090E008950E94692008950E94E7190895F4
:1028D0000E94FE190895FF920F931F938C01F62E0C
:1028E0008FE194E10E943D198EE08093F103F09214
:1028F000E203C8010E947D201F910F91FF9008956F
:10290000CF92DF92EF92FF920F931F938B017A0188
:10291000690110926601E0916701F09168011082EF
:1029200065E671E00E94FB221093E8030093E70341
:10293000C7010E944C19D092F503C092F40381E0C4
:102940008093F2031F910F91FF90EF90DF90CF9053
:10295000089510926601E0916701F091680110827C
:102960001092E8031092E7031092EA031092E90331
:102970001092EC031092EB039EE09093F10384E03D
:102980008093F3031092F5031092F4039093F603EF
:102990001092F7031092F8031092E2031092F203E0
:1029A00081E195E10E945B1908951F93182F809192
:1029B000F2038230B1F01093F303E091F403F0914D
:1029C000F503309711F0812F0995143021F41092FE
:1029D000F5031092F4031092E2031092F2031F9198
:1029E0000895E091EB03F091EC03309721F380E040
:1029F0000995E1CF1F9383E394E10E9442191EE001
:102A00001093F6038FE194E10E943D191093F103B6
:102A10008CE08093E20387ED95E00E947D201F917A
:102A200008958091E203811108958091F20382302C
:102A300099F084E08093F303E091F403F091F503BF
:102A4000309709F009951092F5031092F403109253
:102A5000E2031092F2030895E091EB03F091EC038E
:102A6000309739F380E00995E4CFCF92DF92EF926F
:102A7000FF920F931F93DF93CF93CDB7DEB7C95665
:102A8000D0400FB6F894DEBF0FBECDBF8091E203F9
:102A9000863009F4DEC08730B0F08A3009F491C086
:102AA0008B3080F18C3009F4BBC08C3008F44EC000
:102AB0008D30E9F583EE93E00E943005882391F094
:102AC0000E94FA140FC0823009F4B1C0833050F173
:102AD000843011F0853070F58091F103873081F3F7
:102AE000853081F1C759DF4F0FB6F894DEBF0FBEB6
:102AF000CDBFCF91DF911F910F91FF90EF90DF90AD
:102B0000CF900895883009F46FC0893030F58091F6
:102B1000F103873009F438C1853021F784E00E9441
:102B2000D514E0CF882309F452C0813081F10E948E
:102B30004905D8CF8091F803882311F68091F103DD
:102B4000853081F684E00E94D514CCCF8091F103CA
:102B5000853021F38B3031F6B3CF9091F1039A3069
:102B600029F08091FA03882309F4C1C011E0E091B3
:102B7000EB03F091EC03309731F0812F099510921F
:102B8000EC031092EB031123E9F281E0DCCF8DEE30
:102B900093E00E9430058823A9F60E94010F882344
:102BA00009F4A0CF0E94130F882309F4FFC08CE220
:102BB00094E10E9460198AE095E062E00E946B1443
:102BC00091CF8091F103882309F0A6CFA7CF809100
:102BD000F303813009F49AC0843009F4A9C08BEB67
:102BE00094E00E94700D7ECF8091F903882309F450
:102BF00043C0E091E903F091EA03309709F00995A9
:102C00000E94921988E994E00E94700D8FE090E094
:102C10006DEE73E00E94170589E08093E20362CFB6
:102C20000091F6030E3089F58091F10359CF809120
:102C3000F103873009F054CF8091F703882309F01E
:102C40003FCF84EA94E00E94700D84E00E94D51486
:102C500049CF8DEE93E00E943005882309F072CFB2
:102C60008091F103833009F47AC0853009F46ACF8A
:102C7000823009F037CF66CF8091F103853009F4B7
:102C800061CF813009F02ECF5DCF0A3009F472C0D8
:102C90000B3008F068C0063009F497C0093009F419
:102CA00069C08091F203823009F4BDC0833009F419
:102CB000C5C0813009F016CF043009F437C10530A2
:102CC00008F0E9C0013009F455C0013008F484C1AE
:102CD000023009F46CC1033009F436C18AE295E090
:102CE0000E94700D1092E2031092F203FBCE993015
:102CF00059F0953049F0913039F08DEE93E00E9413
:102D00003005882309F4EECE10E031CF8091F20334
:102D1000823009F47EC0833009F0E4CE89EE94E07D
:102D20000E94700D83E00E9422140E94FA14DACEF1
:102D30001091F203113009F0D5CE88ED94E00E9495
:102D4000700D80E00E9422140E94E71085E090E060
:102D50006DEE73E00E9417051093E203C3CE81E08D
:102D60000E94D514BFCE0D3029F00E30E9F10C30A1
:102D700009F097CF81E090E063EE73E00E941705C1
:102D80008DE08093E203AECE1092F90386E394E1E6
:102D90000E948D191092FA038AE394E10E94561959
:102DA00084E195E068E00E946B149CCE8CEA94E08C
:102DB0000E94700D10926601E0916701F091680128
:102DC000108284E00E94D5148DCE8FE194E10E94A0
:102DD0003D198EE08093F1038BE08093E2038FE155
:102DE00095E00E947D207ECE83E394E10E9442190B
:102DF0001EE01093F6038FE194E10E943D191093B9
:102E0000F1038CE08093E20387ED95E00E947D2042
:102E100069CE8DEF94E00E94700D82E00E94221432
:102E20000E94FA145FCE0630A0F4013008F08ACE7A
:102E30008FE995E067E00E946B1454CE0630D0F421
:102E4000013008F07FCE8BEC95E06AE00E946B14B5
:102E500049CE083009F476CE0B3009F473CE073032
:102E600039F38FE795E00E94700D1092E203109203
:102E7000F20338CE083009F465CE0B3009F462CE87
:102E8000073009F389EA95E00E94700D1092E20381
:102E90001092F20327CE073009F49EC0083008F0E4
:102EA000A7C0053009F01ACFFE01BD968DE3DF0102
:102EB0001D928A95E9F78CE38983FC83EB831A8260
:102EC0001DA68BE695E06E010894C11CD11CB601CD
:102ED0000E94D52285E691E0B6010E944A2387E64A
:102EE00095E0B6010E94D5228091E7039091E80316
:102EF00061E040E096010E94692585E695E0B60113
:102F00000E94D5228FE090E06DEE73E00E941705DD
:102F10008FE194E10E943D198EE08093F10386E0F9
:102F20008093E203C6010E949A20DCCD8FE194E1F8
:102F30000E943D198EE08093F1030093E20389E43F
:102F400095E00E947D20CECDFE01BD968DE3DF0190
:102F50001D928A95E9F78CE38983FC83EB831A82BF
:102F60001DA68BE595E07E010894E11CF11CB701DC
:102F70000E94D52285E0C82ED12CCC0EDD1EC601C4
:102F80000E94390CC601B7010E94FB2282E2B70100
:102F90000E94B1228FE194E10E943D198EE080935E
:102FA000F1030093E203C7010E949A209BCD8FE2B8
:102FB00094E10E9447191092F8038FE194E10E9476
:102FC0003D198EE08093F10385E08093E20382E572
:102FD00095E00E947D2086CD81E08093F303E0910F
:102FE000F403F091F503309709F450CF09954ECFD3
:102FF000083009F459CF0B3009F070CE55CF9093BB
:10300000FD038093FC0308959093FF038093FE03D8
:10301000709301046093000408950E943E1481306F
:1030200019F020E0822F089520E08091FE03909116
:10303000FF03892BB9F721E0822F08950E94710CBC
:103040008093FB0308951092FB03882309F40895ED
:1030500080E00E94A90C089591E09093FB038823DF
:1030600009F4089581E00E94A90C08950F931F931D
:10307000DF93CF93CDB7DEB7A1970FB6F894DEBF3D
:103080000FBECDBF80910204823009F44EC0833060
:1030900068F0843009F460C08430F0F50E943E147A
:1030A000823079F584E0809302042BC0882339F5BF
:1030B0000E943E14813009F45AC0843011F5809189
:1030C000FB038823F1F083E094E00E94300588231D
:1030D000C1F08E010F5F1F4FC8010E94210C0E949A
:1030E000DF0BBC014091FC035091FD03C80122EDB0
:1030F00038E10E94801481E08093020402C0813094
:1031000019F1A1960FB6F894DEBF0FBECDBFCF91D7
:10311000DF911F910F910895853099F70E943E1419
:10312000843079F710920204ECCF0E943E14813073
:10313000C9F3843031F782E090E063E074E00E94EC
:10314000170510920204DDCF0E943E148823C9F6B1
:1031500082E080930204D5CF0E943E14823089F22F
:103160001092FF031092FE0310920204CACF8091C6
:10317000FB03882389F08091FE039091FF03009761
:1031800009F4BFCF60910004709101040E944114C2
:1031900083E080930204B5CF0E944D1485E08093B4
:1031A0000204AFCF8230D1F0833028F08330D9F0E1
:1031B000843079F00895882339F08130D9F788E197
:1031C00096E00E94700D089586E296E00E94700DD0
:1031D000089584EE95E00E94700D089587E096E0D2
:1031E0000E94700D089585EF95E00E94700D08957E
:1031F00049E651E0FC0182819381BA010E941F08D7
:1032000008950E94710C8093FB0388EF98E19093DE
:10321000FD038093FC031092FF031092FE031092B3
:10322000010410920004109202048AE090E063E02E
:1032300074E00E941705089581E08093F0040895DA
:103240001092F00408958091F104823091F083305F
:1032500050F0833061F0843041F48091F004882391
:1032600051F484E008958130C1F380E0089583E053
:10327000089582E0089581E008959093FE0480937C
:10328000FD040895909300058093FF0408959093A2
:10329000020580930105089590930405809303052A
:1032A0000895909306058093050508959093080569
:1032B00080930705089590930A0580930905089562
:1032C00090930C0580930B05089590930E058093C1
:1032D0000D0508959093100580930F050895909320
:1032E000120580931105089590931405809313059A
:1032F00008959093160580931505089590931805E9
:1033000080931705089590931A05809319050895E1
:1033100090931C0580931B05089590931E05809340
:103320001D0508958AE10E94492108951F93CF93B6
:10333000DF93FC0114911123A9F0EC012196812F58
:1033400082958F708A30A0F0895C0E944921812F7C
:103350008F708A3058F0895C0E944921FE011491D7
:10336000112361F7DF91CF911F910895805DF4CF14
:10337000805DEBCF1F93CF93DF93FC01108111236E
:1033800011F1EC010DC0895C0E944921812F8F70E1
:103390008A3098F0895C0E9449211881112399F0A4
:1033A0002196812F82958F708A3068F7805D0E9408
:1033B0004921812F8F708A3068F7805D0E944921F2
:1033C0001881112369F7DF91CF911F910895CF9351
:1033D000DF93EC010E94700DFE018491882319F4A3
:1033E000DF91CF91089521960E944921FE01849199
:1033F00021968823C9F7DF91CF910895CF93DF936A
:10340000EC010E94770D8881882331F021960E947B
:10341000492188818823D1F7DF91CF9108952F9298
:103420003F924F925F926F927F928F929F92AF9254
:10343000BF92CF92DF92EF92FF920F931F93DF9391
:10344000CF93CDB7DEB7C852D1400FB6F894DEBFE8
:103450000FBECDBF0E94FE215C018FB7F8948FBFD5
:10346000D5011496DC90DD2009F46CC058E9452E96
:10347000512C4C0E5D1E48E0842E912C8C0E9D1E0E
:10348000FE01E55BFF4FC95DDE4FF983E883C7525C
:10349000D1403FE3232E312C2C0E3D1EC10104965A
:1034A000CF5DDE4F99838883C152D140DE01A7589A
:1034B000BF4FCB5DDE4FB983A883C552D140FE011B
:1034C000E05AFF4FCD5DDE4FF983E883C352D14010
:1034D0002AED622E712C6C0E7D1EC5010E94FC200F
:1034E000982F8091F704813009F450C0813008F0A2
:1034F00043C09D3009F408C19A3029F48091F60444
:103500008D3009F4AAC0192F892F6AE671E00E9454
:10351000B12280916B01E82FF0E0E230F10574F008
:10352000E0906C01F0906D01D7018C9111969C9107
:103530008E3309F454C18B3209F4ACC01093F604F5
:10354000DA9459F6C85DDE4F0FB6F894DEBF0FBEB1
:10355000CDBFCF91DF911F910F91FF90EF90DF9042
:10356000CF90BF90AF909F908F907F906F905F9023
:103570004F903F902F900895823009F45AC0192F30
:103580001093F604DA9409F0A8CFDCCF192F892F15
:103590006AE671E00E94B12280916B0190E0209177
:1035A000F8043091F9048217930740F287E4F3019D
:1035B00011928A95E9F786E488877B866A86198660
:1035C000D3011C928CEF97E0B4010E94D522809128
:1035D000F8049091F90460E040E094010E946925AC
:1035E00088EF97E0B4010E94D5228AE691E0B40109
:1035F0000E944A2387E2B4010E94B122C4010E94C2
:10360000690DE0910305F0910405309719F08AE601
:1036100091E0099510926B01E0916C01F0916D01C0
:1036200010821092F7041093F604DA9409F055CF43
:1036300089CF9D30C9F09A3021F48091F6048D3005
:1036400061F0192F892F6AE671E00E94B122109370
:10365000F604DA9409F041CF75CF1AE01093F6041E
:10366000DA9409F03ACF6ECF8091FA048550823017
:1036700008F4C5C010926B01E0916C01F0916D01EE
:1036800010821092F7041DE01093F604DA9409F00A
:1036900024CF58CF993409F051CFEE0DFF1D31974B
:1036A00080818A3309F04ACFC70169ED78E00E9432
:1036B0006C29E816F90609F041CF19821B821A829B
:1036C000C7010596BE016F5F7F4FAE014E5F5F4F32
:1036D0000E948323FC018981882309F42FCF8081F4
:1036E0008A3309F02BCF8A819B819093F9048093D0
:1036F000F80481E08093F70410926B01E0916C0173
:10370000F0916D0110821ACF82E4D2011D928A9548
:10371000E9F781E488875B864A861986F201108280
:103720008AE098E0B4010E94D5228AE691E0B401D3
:103730000E944A2387E2B4010E94B122C4010E9480
:10374000690D80916B018823E1F1E0906C01F090AC
:103750006D01D7019C919B3209F490C0892F805351
:103760008A3008F467C0933509F411C1943409F420
:10377000FAC08AE691E06BEA76E04DE050E00E9404
:1037800065248093A606863009F45AC1873008F074
:1037900064C0823009F459C1833008F03DC18823E8
:1037A00009F449C1813021F48FEA98E00E94700D3C
:1037B000E091FD04F091FE04309719F08091A60687
:1037C000099510926B01E0916C01F0916D011082EE
:1037D0001DE01093F604DA9409F07FCEB3CE903258
:1037E00009F0ACCE8FED98E00E94700DE0911D05C0
:1037F000F0911E05309709F47FCF09957DCF82E7C0
:1038000091E00E94690D8AE691E00E94690DE091C5
:103810000D05F0910E05309709F42CCF8091FB0433
:103820009091FC046EE671E042E751E02AE631E057
:10383000099520CF89E298E00E94700D8AE691E018
:103840000E94690DE0910105F0910205309709F49D
:10385000B8CF8AE691E00995B4CF893009F4E1C088
:103860008A3008F0CBC0873009F4E5C0883009F011
:103870009FCF88E898E00E94700D9ACFFE017E9657
:10388000DF018BE01D928A95E9F79AE0C92ECC867C
:103890001D86FF87EE878E01045F1F4F8BE26AE370
:1038A000A70198010E94E0257C01C80166E077E04D
:1038B0004DE050E00E9465248093FA04863009F4BC
:1038C000F5C1873008F0C6C0823009F4F5C18330F5
:1038D00008F0E9C0882309F4A7C1813009F071CF4D
:1038E00089E1CD5DDE4FA881B981C352D1401D92DF
:1038F0008A95E9F788E1888B198AE0E6F0E0EC0F19
:10390000FD1FFB8BEA8BC701BE01605F7F4F0E94EA
:103910002E260A891B89C8010E941A29888FC8018E
:1039200003960E941A29898FC80106960E941A29B7
:103930008A8FC80109960E941A298B8FC8010C969C
:103940000E941A298C8FC8010F960E941A298D8F08
:10395000E0911905F0911A05309709F432CFCE01A4
:10396000489609952ECFC70164E178E00E946C2942
:10397000E816F90609F0FDCEE0910705F09108057B
:10398000309709F41ECF80E090E009951ACFC70167
:1039900061E278E00E946C29E816F90609F0E9CEA8
:1039A00085E1C95DDE4FE881F981C752D1401192AE
:1039B0008A95E9F784E18C878BE490E08C0F9D1F5A
:1039C0009F878E871D862C961FAE2C978E01045FD5
:1039D0001F4FC7010796B8010E94FB22C80165EC82
:1039E00077E04EE050E00E946524E091FF04F09102
:1039F0000005309709F4E5CE0995E3CE8C30D8F078
:103A00008D3009F0D5CE81E898E00E94700D8AE6ED
:103A100091E00E94690DCCCE833041F0853009F0F1
:103A2000C7CE8DE998E00E94700DC2CE8EEC98E072
:103A30000E94700DBDCE84EA98E00E94700DB8CE51
:103A40008FE898E00E94700DB3CE81EC98E00E9460
:103A5000700DAECE8A3009F454C08B3008F03FC0F0
:103A6000883009F45EC1893009F0ABCEFE01F496CE
:103A70008BE0DF011D928A95E9F78AE08C8B1D8A25
:103A8000FF8BEE8B8E010C5E1F4FC701B8010E94A9
:103A90002E26E0911705F0911805309709F491CE84
:103AA000C80109958ECE843009F4C4C1853008F46C
:103AB00083C1C7010E947323BE016F5F7F4F4BEF2D
:103AC00054E00E9483236EE671E00E942E2662E796
:103AD00071E00E942E2682E08093F70472CE8C3033
:103AE00009F48FC08C3008F457C08D3009F069CECE
:103AF0008EE398E00E94700D8AE691E00E94690DC5
:103B000060CEC7010E9473238E010A5F1F4FBE0162
:103B10006F5F7F4FA8010E948323FC018981882366
:103B200009F44FCE80818C3209F04BCECF01019643
:103B3000BE016F5F7F4FA8010E9483238981882384
:103B400009F43FCEFE01F4968BE0DF011D928A95C9
:103B5000E9F78AE08C8BFF8BEE8B1D8A1CAA8E0105
:103B60000C5E1F4F8FE698E0B8010E94D5228E812F
:103B70009F8161E040E098010E946925C8010E9490
:103B8000690DE0911305F0911405309709F419CEF1
:103B90008E819F81099515CEC7010E947323BE01B6
:103BA0006F5F7F4FAE014A5F5F4F0E948323898121
:103BB000882309F406CEFE01F4968BE0DF011D9206
:103BC0008A95E9F78AE08C8BFF8BEE8B1D8A1CAA05
:103BD0008E010C5E1F4F85E798E0B8010E94D52248
:103BE0008E819F8161E040E098010E946925C801B3
:103BF0000E94690DE0911105F0911205309741F690
:103C0000E0CDC7010E9473236BE778E00E9438295A
:103C1000892B09F0D6CDE0910905F0910A0530977E
:103C200009F4CFCD0995CDCDC7010E947323BE0104
:103C30006F5F7F4FAE014E5F5F4F0E948323FC0199
:103C40008981882309F4BDCD80818C3209F0B9CDFA
:103C5000CF010196BE016F5F7F4FAE014C5F5F4F9A
:103C60000E948323FC018981882309F4AACD8081E5
:103C70008C3209F0A6CDCF010196BE016F5F7F4F58
:103C8000AE014A5F5F4F0E9483238981882309F434
:103C900098CDE0911B05F0911C05309709F491CD6A
:103CA0004E815F818A816C8109958BCD1092FC04D5
:103CB0001092FB04C70107CFC7010E947323BE0106
:103CC0006F5F7F4FAE014A5F5F4F0E948323898100
:103CD000882309F476CDFE01B996DF018BE01D92B1
:103CE0008A95E9F7C88AFB8BEA8B198A19A68E0197
:103CF000005F1F4F85E498E0B8010E94D5228E81B5
:103D00009F8161E040E098010E946925C8010E94FE
:103D1000690DE0910F05F0911005309709F038CF4B
:103D200050CD1BE0FE01B996DF01812F1D928A95CF
:103D3000E9F70AE0088B198AFB8BEA8BC701BE0101
:103D4000605F7F4F0E942E26FC0180818C3209F03B
:103D500038CDCF010196BE016F5F7F4FAE014A5F44
:103D60005F4F0E9483238981882309F42ACDFE01B5
:103D7000F496DF011D921A95E9F70C8BFF8BEE8B01
:103D80001D8A1CAA8E010C5E1F4F86E698E0B801C2
:103D90000E94D5228E819F8161E040E098010E94BF
:103DA0006925C8010E94690DE0911505F09116057D
:103DB000309709F0EDCE05CDC7010E947323BE01F7
:103DC0006F5F7F4FAE014A5F5F4F0E9483238981FF
:103DD000882309F4F6CCFE01B9968BE0DF011D9231
:103DE0008A95E9F78AE0888BFB8BEA8B198A19A6FA
:103DF0008E01005F1F4F81E598E0B8010E94D52237
:103E00008E819F8161E040E098010E946925C80190
:103E10000E94690DE0910B05F0910C05309709F4B3
:103E2000D0CC20E08E819F81892B09F021E0822F68
:103E30000995C7CCC7010E947323BE016F5F7F4FF6
:103E4000A1010E94B623FC018981882309F4B9CC21
:103E500080818C3211F01982B4CCCF010196BE0161
:103E60006F5F7F4FCF5DDE4F48815981C152D14096
:103E70000E94B623FC018981882309F4A2CC8081A9
:103E80008C3249F7A101485F5F4FCF010196BE0117
:103E90006F5F7F4F0E94B6238981882309F491CCFC
:103EA0008FE1CB5DDE4FE881F981C552D14011929F
:103EB0008A95E9F78EE1888B89E790E08C0F9D1F4A
:103EC0009B8B8A8B198AEA961FAEEA9780E1E82ECF
:103ED000F12CEC0EFD1E8DE598E0B7010E94D52275
:103EE000D1016D917D918D919C9141E020E0870100
:103EF0000E94B9248BE598E0B7010E94D52227964D
:103F00006CAD7DAD8EAD9FAD279741E020E00E9466
:103F1000B92489E598E0B7010E94D5222B966CADB3
:103F20007DAD8EAD9FAD2B9741E020E00E94B9247E
:103F3000C7010E94690DE0910505F09106053097D3
:103F400009F43FCCC10109953CCC0E940F1A809125
:103F5000F104813009F1813028F0823079F1843028
:103F600069F008958091F0048823D9F38EE080935E
:103F7000A606549A81E08093F104089582EF94E0BC
:103F80000E943005882369F38EE08093A606549A38
:103F900081E08093F10408958091A6068830D1F0E5
:103FA0008630F9F6549881EE97E00E94700D80916A
:103FB000F0048823E1F41092F10408958091F00454
:103FC000882379F68EE08093A606549A81E0809348
:103FD000F104089554988DEE97E00E94700D809141
:103FE000F004882321F082E08093F104089582E0B8
:103FF00090E062EF74E00E94170584E08093F10482
:10400000089554985C981092F0041092F1048EE098
:104010008093A6061092F6041092F7041092FE0404
:104020001092FD04109200051092FF0410920205F8
:1040300010920105109204051092030510920605D6
:1040400010920505109208051092070510920A05B6
:104050001092090510920C0510920B0510920E0596
:1040600010920D051092100510920F051092120576
:104070001092110510921405109213051092160556
:1040800010921505109218051092170510921A0536
:104090001092190510921C0510921B0510921E0516
:1040A00010921D050E942E210895CF93DF93EC01FD
:1040B0000E94770D8881882331F021960E94492142
:1040C00088818823D1F78DE00E944921DF91CF912B
:1040D0000895CF93DF93FC01C281D381CE010E946A
:1040E000770D8881882331F021960E9449218881AB
:1040F0008823D1F7DF91CF910895CF93DF93EC011F
:104100000E94700DFE018491882331F48DE00E949D
:104110004921DF91CF91089521960E944921FE0106
:10412000849121968823C9F78DE00E944921DF916F
:10413000CF910895CF93DF93FC01C281D381CE014B
:104140000E94770D8881882331F021960E944921B1
:1041500088818823D1F78DE00E944921DF91CF919A
:104160000895FC018FB7F894118210821382128295
:10417000158214828FBF0895482FDB015FB7F89432
:1041800014962D913C91159716968D919C911797A9
:104190002817390770F51896ED91FC91199712962A
:1041A0008D919C911397E80FF91F408312962D91E2
:1041B0003C91139716968D919C911797019728170C
:1041C000390780F013961C921E92129714968D91C7
:1041D0009C911597019615969C938E93149781E068
:1041E0005FBF08952F5F3F4F13963C932E93129716
:1041F000EDCF80E05FBF0895DC016FB7F8941496AF
:104200004D915C9115974115510521F12D913C91EE
:1042100011971896ED91FC911997E20FF31FE08129
:1042200016968D919C91179701972817390760F082
:1042300011961C921E924150504015965C934E93DD
:1042400014976FBF8E2F08952F5F3F4F11963C93A9
:104250002E93F1CFE0E06FBF8E2F089581E0809321
:10426000840508951092840508958091830588231C
:1042700019F020E0822F08958FB7F8948FBF20E0C7
:1042800080917A0190917B01892BA1F721E0822F07
:104290000895982F80918405882309F40895892F23
:1042A00066E771E00E94BC200895CF93DF93FC0184
:1042B00080918405882361F08081882349F0EF0193
:1042C00066E771E00E94BC20898121968823C1F7AE
:1042D000DF91CF910895CF93DF93EC018091840516
:1042E000882311F480E018C0CE010E9454292FB712
:1042F000F8942FBF20917C0130917D0140917A018B
:1043000050917B01241B350B2817390758F3FE0108
:104310008491882321F481E0DF91CF910895219643
:1043200066E771E00E94BC20FE01849121968823FB
:1043300091F3F6CF539A5B9A1092840510928305FD
:1043400085EA91E20E94F804089580918305813006
:1043500091F0813050F48FB7F8948FBF80917A013B
:1043600090917B01892BC9F408958230E9F75B9A1B
:104370001092830508959091850590FD0CC05B987F
:10438000809186058830B1F08F5F80938605969581
:104390009093850508955B9AF3CF5B9886E791E04B
:1043A0000E94FC208093850581E0809386058093A0
:1043B0008305089582E08093830508958091D70551
:1043C000882351F41092D80580916D008460809309
:1043D0006D0081E08093D70508958091D7058823EB
:1043E00061F0809170008D7F8093700080916D00EE
:1043F0008B7F80936D001092D705089580E891E03F
:1044000008951F920F920FB60F9211248F934A991D
:1044100013C0B99A809170008260809370001092EE
:10442000B20088E68093B30080916D008B7F80930B
:104430006D0081E08093D8058F910F900FBE0F9093
:104440001F9018951F920F920FB60F9211242F9361
:104450003F934F935F936F937F938F939F93AF930C
:10446000BF93EF93FF938091D805823089F1833019
:1044700001F1813089F0FF91EF91BF91AF919F9150
:104480008F917F916F915F914F913F912F910F90FD
:104490000FBE0F901F9018954A992CC01092D90505
:1044A0008093DA0580ED8093B30082E08093D80595
:1044B000E2CF4A992AC0809170008D7F809370006E
:1044C0001092D80580916D00846080936D00D3CFE9
:1044D0004A9908C09091DA059038F1F0990F9093BD
:1044E000DA05C9CF8091D9059091DA05892B80939F
:1044F000D905F2CF809170008D7F809370008091FC
:104500006D00846080936D00B6CF8091D90560E81E
:1045100071E00E94BC20CFCF83E08093D805ABCF61
:1045200052985A9A82E08093B0008093B10080ED57
:104530008093B3001092B200B99A809168008460B1
:10454000809368008091D705882351F41092D80594
:1045500080916D00846080936D0081E08093D70529
:104560000895282FDB0111969C9111978C91981733
:1045700070F41296ED91FC911397E90FF11D2083D1
:10458000118211968C9111978F5F11968C930895DB
:10459000982FFB018181981738F491830280F38171
:1045A000E02DE90FF11D10820895EF92FF921F9305
:1045B000CF93DF937C01EB010E945429298118815C
:1045C000121B811708F4182F8A819B81820F911D7D
:1045D000B701412F50E00E945D298981810F8983B5
:1045E000EA81FB81E80FF11D1082DF91CF911F91CD
:1045F000FF90EF9008951F93CF93DF93382F492FAB
:10460000EB01E82FF92FDF010D900020E9F711975A
:10461000AE1BBF0B29811881121BA11708F41A2F9A
:104620008A819B81820F911D632F742F412F50E04F
:104630000E948B298981810F8983EA81FB81E80FA0
:10464000F11D1082DF91CF911F9108951F93CF9399
:10465000DF93EC018AEE98E00E94542929811881A9
:10466000121B811708F4182F8A819B81820F911DDC
:104670006AEE78E0412F50E00E945D298981810F28
:104680008983EA81FB81E80FF11D1082DF91CF91D0
:104690001F9108951F93CF93DF93FC01EB0162817B
:1046A0007381FB01DF010D900020E9F71197AE1B2C
:1046B000BF0B29811881121BA11708F41A2F8A81B8
:1046C0009B81820F911D412F50E00E948B2989818F
:1046D000810F8983EA81FB81E80FF11D1082DF9150
:1046E000CF911F910895FC018081882351F0803281
:1046F00021F0893011F08A3021F4319680818823AD
:10470000B1F7CF010895CF93DF93FC01DB01EA01FC
:104710001C924081442331F1403324F14A3314F593
:1047200020E030E004C04033CCF04A33BCF4C9018F
:10473000880F991F880F991F880F991F220F331F09
:10474000280F391F842F992787FD9095280F391F2F
:104750002053304031964081442329F781E08C93E7
:1047600039832883CF01DF91CF9108958F929F9253
:10477000AF92BF92DF92EF92FF920F931F93CF936E
:10478000DF93FC015B014A01DB011C92D080DD203C
:10479000B1F1BFE2BD159CF589E38D1584F1EF0100
:1047A000EE24FF24870106C0AFE2AD15F4F4B9E3AF
:1047B000BD15DCF0C801B7012AE030E040E050E070
:1047C0000E94AA282D2D332727FD309520533040F5
:1047D00079010027F7FC0095102FE60EF71E081F41
:1047E000191F2196D880DD20F9F681E0F50180833C
:1047F000D401ED92FD920D931C93139701C0EF012C
:10480000CE01DF91CF911F910F91FF90EF90DF903C
:10481000BF90AF909F908F900895EF92FF920F936B
:104820001F93CF93DF93EC01DB018A01790181E0D3
:104830008C9348814D3209F443C0FE0170E020E0C2
:1048400030E060E050E081E018C0C901880F991F96
:10485000880F991F880F991F220F331F280F391FA8
:10486000842F992787FD9095280F391F20533040BA
:1048700051116F5F319640818C91442371F08823F0
:10488000C1F0842F80538A3000F34E3211F01C9215
:10489000F1CF5523E1F751E0EDCF882351F0772395
:1048A00019F0309521953F4FF80131832083F701AE
:1048B0006083DF91CF911F910F91FF90EF9008954A
:1048C000FE013196498171E0BACF6F927F928F924B
:1048D0009F92AF92BF92CF92DF92EF92FF920F938F
:1048E0001F93CF93DF93FC014B013A017A010894A7
:1048F000E108F108F7FC2AC0A280B38000E010E0D4
:1049000006C08E010F5F1F4FE016F106FCF0C701D5
:10491000800F911F97FD2BC0EC01D595C7956E01B7
:10492000FE01EE0FFF1FE80DF91D65917491C501A1
:104930000E944B29009759F01816190614F37E01AE
:104940000894E108F108E016F1060CF76301C601CE
:10495000DF91CF911F910F91FF90EF90DF90CF905B
:10496000BF90AF909F908F907F906F900895019629
:10497000D3CF2F923F924F925F926F927F928F92FE
:104980009F92AF92BF92CF92DF92EF92FF920F93DE
:104990001F93DF93CF93CDB7DEB760970FB6F89430
:1049A000DEBF0FBECDBF2B013C01942E1801188A2B
:1049B0007B018C0197FD85C0222309F055C04FE093
:1049C000C42ED12CCC0EDD1E892C9924AA24BB2404
:1049D0001DC0C801B7012AE030E040E050E00E946D
:1049E000DD28605DF60160830894C108D108C80124
:1049F000B7012AE030E040E050E00E94DD28C90124
:104A0000DA017C018D010894A11CB11CA814B90421
:104A100004F3E114F10401051105D9F677FE06C08F
:104A20008DE2F60180830894C108D108C601019681
:104A3000B1010E94FB2260960FB6F894DEBF0FBE54
:104A4000CDBFCF91DF911F910F91FF90EF90DF903D
:104A5000CF90BF90AF909F908F907F906F905F901E
:104A60004F903F902F9008953FE0A32EB12CAC0EB5
:104A7000BD1E6501C21AD108C801B7012AE030E0A5
:104A800040E050E00E94DD28605DF50160830894FD
:104A9000A108B108C801B7012AE030E040E050E0C9
:104AA0000E94DD28C901DA017C018D01AC14BD042E
:104AB00019F765010894C108D1088EE2F5018083D9
:104AC00083CFEE24FF248701E61AF70A080B190B9F
:104AD00073CFAF92BF92CF92DF92EF92FF920F937C
:104AE0001F93DF93CF93CDB7DEB760970FB6F894DF
:104AF000DEBF0FBECDBF6C01F62E5901188A9C0196
:104B000097FD59C04423C1F5FE013F96EF2CFF24C9
:104B100000E010E010C0C9016AE070E00E94C928FE
:104B2000805D80833197C9016AE070E00E94C928E6
:104B30009B010F5F1F4F0E151F056CF321153105EB
:104B400051F7D7FE03C08DE280833197CF010196E4
:104B5000B5010E94FB2260960FB6F894DEBF0FBE2F
:104B6000CDBFCF91DF911F910F91FF90EF90DF901C
:104B7000CF90BF90AF9008958E01015F1F4FF80155
:104B8000E41BF109C9016AE070E00E94C928805D58
:104B9000D8018C9301501040C9016AE070E00E9476
:104BA000C9289B010E171F0769F7F80131978EE29C
:104BB000D8018C93ABCF22273327281B390BA2CFE8
:104BC000DF92EF92FF920F931F93CF93DF93D62E36
:104BD0007A018901D90111961C9211971296ED91D3
:104BE000FC9113971082FA0190819923A9F19817EB
:104BF00019F41AC09817C9F0319690819923D1F70A
:104C0000882399F0D80111961C9211971296ED9174
:104C1000FC9113971082C701DF91CF911F910F91E3
:104C2000FF90EF90DF900895FA01EF0121968181C6
:104C3000882341F40EC0B8010E94B12221968881D8
:104C4000882339F08D15B9F77E010894E11CF11C19
:104C5000E2CFDD20B9F6F8CFFA01D2CFEF92FF9282
:104C60000F931F93CF93DF937C018B01DB01119690
:104C70001C9211971296ED91FC9113971082FC01F2
:104C80008081882351F08232C9F0F70102C082325C
:104C9000A9F0319680818823D1F7D80111961C9212
:104CA00011971296ED91FC9113971082C701DF9135
:104CB000CF911F910F91FF90EF900895EF012196F2
:104CC0008181882341F4E9CFB8010E94B122219665
:104CD0008881882311F38232B9F77E010894E11CA0
:104CE000F11CC701DF91CF911F910F91FF90EF90C1
:104CF00008959C0140E050E060E271EA87E090E0B6
:104D00000E94DD28215030402093C400832F8F70F3
:104D10008093C50008958FB7F8948FBF20E08091ED
:104D20008E0190918F01892B09F421E0822F089543
:104D30001F920F920FB60F9211240F900FBE0F907B
:104D40001F9018951F920F920FB60F9211242F9358
:104D50003F934F935F936F937F938F939F93AF9303
:104D6000BF93EF93FF938FB7F8948FBF80918E011D
:104D700090918F01892BB1F48091C1008F7D809338
:104D8000C100FF91EF91BF91AF919F918F917F9162
:104D90006F915F914F913F912F910F900FBE0F90A8
:104DA0001F9018958AE891E00E94FC208093C6002D
:104DB000E8CFCF93DF93EC018FB7F8948FBF80914A
:104DC000980190919901892B21F480E0DF91CF9196
:104DD000089584E991E00E94FC20888381E0DF91BE
:104DE000CF9108951F920F920FB60F9211242F9317
:104DF0003F934F935F936F937F938F939F93AF9363
:104E0000BF93EF93FF938091C60064E971E00E9425
:104E1000BC20FF91EF91BF91AF919F918F917F91B6
:104E20006F915F914F913F912F910F900FBE0F9017
:104E30001F9018950F931F93CF93DF93AC01EB0155
:104E40008FB7F8948FBF809190019091910120913C
:104E50008E0130918F01821B930B86179707C0F04C
:104E60006115710579F08A01F80181918F016AE875
:104E700071E00E94BC202197B9F78091C100806247
:104E80008093C10081E0DF91CF911F910F91089530
:104E900080E0DF91CF911F910F910895EF92FF92E3
:104EA0000F931F93CF93DF937C01DC0111969C91AC
:104EB0008FB7F8948FBF092F10E0809190019091E7
:104EC000910120918E0130918F01821B930B8017ED
:104ED000910710F10115110591F0C0E0D0E0D70164
:104EE0001296ED91FC911397EC0FFD1F80816AE8FB
:104EF00071E00E94BC202196C017D10784F38091F5
:104F0000C10080628093C10081E0DF91CF911F9149
:104F10000F91FF90EF90089580E0DF91CF911F9166
:104F20000F91FF90EF9008956AE871E00E94BC2015
:104F3000882331F08091C10080628093C10081E0BC
:104F40000895CF93DF93EC010E9454292FB7F89472
:104F50002FBF209190013091910140918E0150918D
:104F60008F01241B350B28173907C0F0FE018491EF
:104F7000882349F48091C10080628093C10081E060
:104F8000DF91CF91089521966AE871E00E94BC20DC
:104F9000FE0184912196882369F3F6CF80E0DF91AA
:104FA000CF910895CF93DF93EC01DC010D900020A9
:104FB000E9F71197A81BB90B8FB7F8948FBF8091B1
:104FC00090019091910120918E0130918F01821B6F
:104FD000930B8A179B0730F411C021966AE871E0A1
:104FE0000E94BC2088818823C1F78091C100806223
:104FF0008093C10081E0DF91CF91089580E0DF913F
:10500000CF910895CF93DF93EC018FB7F8948FBFC2
:105010008091980190919901892B21F480E0DF9192
:10502000CF91089584E991E00E94FC208A3021F01C
:10503000BE010E94B122F2CF81E0DF91CF910895AD
:105040008AE891E00E94B12084E991E00E94B120B9
:1050500083E38093C4001092C50088E98093C10067
:1050600086E08093C20008959C01F999FECF32BD7D
:1050700021BD60BDFA9AF99A08959C01F999FECF75
:1050800032BD21BDF89A80B50895DC01FA0120E017
:1050900030E0F999FECFCD01820F931F92BD81BD03
:1050A000F89A80B581932F5F3F4F2617370714F486
:1050B000882379F710820895AC01F999FECF52BD8B
:1050C00041BDF89A20B5F999FECF4F5F5F4F52BDB1
:1050D00041BDF89A40B530E0942F80E0282B392B61
:1050E000C9010895DC01FA0120E030E04191F9990D
:1050F000FECFCD01820F931F92BD81BD40BDFA9AB4
:10510000F99A2F5F3F4F2617370714F4442371F79E
:1051100008959C01F999FECF32BD21BD60BDFA9A78
:10512000F99AF999FECF2F5F3F4F32BD21BD70BD77
:10513000FA9AF99A08958AEA8093A30608958091CD
:10514000A3068A3A29F08AEA8093A30680E00895AC
:1051500081E00895629FD001739FF001829FE00D6E
:10516000F11D649FE00DF11D929FF00D839FF00DE6
:10517000749FF00D659FF00D9927729FB00DE11D92
:10518000F91F639FB00DE11DF91FBD01CF0111246F
:105190000895AA1BBB1B51E107C0AA1FBB1FA6177E
:1051A000B70710F0A61BB70B881F991F5A95A9F7D0
:1051B00080959095BC01CD010895A1E21A2EAA1BFD
:1051C000BB1BFD010DC0AA1FBB1FEE1FFF1FA217B7
:1051D000B307E407F50720F0A21BB30BE40BF50BB4
:1051E000661F771F881F991F1A9469F7609570953D
:1051F000809590959B01AC01BD01CF01089597FB6F
:10520000092E05260ED057FD04D0D7DF0AD0001C8A
:1052100038F450954095309521953F4F4F4F5F4F53
:105220000895F6F790958095709561957F4F8F4F13
:105230009F4F0895FC0188279927E89421912032F7
:10524000E9F3293010F02E30C8F32B3241F02D3223
:1052500039F4689404C00E94162A820F911D21918E
:1052600020532A30C0F31EF4909581959F4F0895E6
:10527000FB01DC018D9181341CF08B350CF4805ED8
:10528000659161341CF06B350CF4605E861B611116
:1052900089F3990B0895FB01DC018D91059080192C
:1052A0000110D9F3990B0895FC0105900020E9F74E
:1052B000809590958E0F9F1F0895FB01DC01415052
:1052C000504048F005900D920020C9F701C01D9292
:1052D00041505040E0F70895FB0155915523A9F046
:1052E000BF01DC014D9145174111E1F759F4CD01A2
:1052F0000590002049F04D9140154111C9F3FB0183
:105300004111EFCF81E090E00197089544EA56E023
:105310000E949A290895FB01DC014150504048F059
:1053200001900D920020C9F701C01D9241505040DC
:10533000E0F70895FA01A191B081009719F4109750
:10534000E1F0CD01DC01CD010D90002011F4C00190
:1053500013C0FB012191222319F02015D9F7F3CFB7
:10536000FB012191201519F41E92119606C02223EB
:10537000C1F70D900020A1F7D001FA01A193B083ED
:105380000895FB019F01E8944230C4F04532B4F423
:105390004A3029F497FB1EF4909581959F4F642F16
:1053A00077270E94C928805D8A330CF0895D81933C
:1053B000CB010097A1F716F45DE251931082C90169
:1053C0000C941E2AFA01CF93FF93EF93223044F1FD
:1053D000253234F5C22FE894CA3049F497FB3EF4E5
:1053E00090958095709561957F4F8F4F9F4F2C2F93
:1053F000332744275527FF93EF930E94DD28EF9131
:10540000FF91605D6A330CF0695D6193B901CA0177
:10541000605070408040904051F716F4CDE2C19347
:1054200010828F919F91CF910C941E2A7AE0979FC2
:10543000902D879F802D910D11240895DC01FC0192
:10544000672F71917723E1F7329704C07C916D93B8
:1054500070836291AE17BF07C8F30895F894FFCF29
:10546000200A0D006D6F62696C6564617461006192
:1054700070692E7468696E67737065616B2E636FF7
:105480006D0000746F6E797A2E64796E646E732E7F
:105490006F72670037333533003401001B5B4B00FC
:1054A0002800BC01000003E9011000F501200006FE
:1054B00002A00027021000C802A000D9020A007A48
:1054C00003F00000002000C10300C80007040A0028
:1054D000D0041400DB0400000000000064001F057D
:1054E00000000000000050008705000000000000E0
:0E54F0006400DB0500000000000064003F06C1
:00000001FF
