:100000000C9478030C9495030C9495030C946C2D2C
:100010000C9495030C943E2E0C94EB140C945F2ED0
:100020000C9495030C9495030C9495030C947D14F7
:100030000C9495030C9495030C948B2D0C949503C0
:100040000C9495030C9495030C94F8350C94A835F6
:100050000C949E350C9495030C9495030C94950385
:100060000C9495030C949503AA1E881EA11E991E3C
:10007000DB1ECA1EC21DBD1EFC1EF21DFD1D141E70
:10008000071E771EC21D561E4E1EC21DC21D1D1EFE
:10009000C21DC21D3F1F281FC31FA51F981FB41FCD
:1000A000891F737461636B20636F6C6C6973696F14
:1000B0006E21004552524F520A004F4B0A00574CD6
:1000C0004D2074696D656F7574002D3E4E6F726DB5
:1000D000616C002D3E48696768002D3E4C6F7700CB
:1000E0005A0A00430049006964007443616C4F661A
:1000F000667365740077647443616C006261744375
:10010000616C00776C6D54696D656F757400726514
:10011000626F6F740041504E006369707173656E59
:10012000640069707365727665720073616D706CDE
:1001300065496E74657276616C006C6F67496E74A8
:10014000657276616C00656D7074790066756C6CB3
:10015000007468696E67737065616B006F6E006F25
:1001600066660050494E006E6F74696679006C6F68
:1001700077006869676800726973696E6700756EF9
:100180007265636F676E697A656420636F6D6D6118
:100190006E64006565777269746500454556616CEB
:1001A000004545416464720065657265616400657F
:1001B0007874656E6400736D7300757074696D6535
:1001C0000043757254696D650074696D6500545320
:1001D0005F574B0054535F506F72740054535F412C
:1001E0006464720054535F456E0049505F506F72F3
:1001F000740049505F416464720064697374616E95
:1002000063650050617373776400557365720067AE
:1002100065740077726974656B657900706F7274CC
:100220000061646472657373007365740074736550
:100230007400746F0073746174757300223A220045
:10024000223A22007B00223A002020002C713A0042
:100250002C723A005F5F002C543A002C56633A002F
:100260002C56623A002C553A002C002C73743A003C
:100270003733353300686F6C6F6772616D00000053
:100280006170692E7468696E67737065616B2E6347
:100290006F6D00444437545653435A45484B5A4CAB
:1002A00041515000746F6E797A2E64796E646E736A
:1002B0002E6F7267000D000D0A003A003A003A00F6
:1002C0007368757474696E6720646F776E2E2E2E56
:1002D000005461646A3A20000102040810200052B0
:1002E000454320554E524541440052454320524516
:1002F00041440053544F20554E53454E54005354DF
:100300004F2053454E5400414C4C00DE02DF02EAC0
:1003100002F302FE020703457865436D643A00412B
:10032000542B435245473F00534D532073656E6431
:10033000206572726F7200534D532073656E7400A6
:1003400073656E64696E6720534D5300476F742068
:10035000434D47522E005265676973746572656438
:100360002E0041542B434950484541443D31004102
:10037000542B4349505153454E443D0041542B4367
:100380004D47463D310050494E2072656164792EDB
:100390000041544530003E2043656C6C205265613D
:1003A0006479203C003E2044697361626C696E6729
:1003B0002043656C6C203C003E20456E61626C6998
:1003C0006E672043656C6C203C0021212054696DD0
:1003D000656F75742021210041542B434D47533DD7
:1003E000220041542B434D47523D0041542B43437F
:1003F0004C4B3F0041542B434D47443D0041542B4F
:100400004353510041542B4342430073656E7420A3
:100410004374726C2D5A006E6F2047505253006E19
:100420006F74207265676973746572656400415406
:100430002B43474154543F0041542B4349505345AB
:100440004E440041542B43495053485554004154A5
:100450002B43494943520041542B434946535200D0
:10046000222C22002C220041542B435354543D2271
:10047000002200222C220041542B43495053544166
:1004800052543D22544350222C220041542B4349C4
:100490005041434B0041542B434950434C4F53452B
:1004A0000041542B43495053544154555300434C3D
:1004B0004F5345204F4B00434C4F53454400434F4F
:1004C0004E4E454354204641494C00434F4E4E4505
:1004D0004354204F4B0043616C6C2052656164793A
:1004E000004552524F52004E4F524D414C20504FFA
:1004F00057455220444F574E004F4B00524459002D
:1005000053454E44204641494C0053454E44204FEC
:100510004B0053485554204F4B00534D53205265C8
:1005200061647900554E4445522D564F4C54414715
:100530004520504F57455220444F574E00AE04B708
:1005400004BE04CB04D604E104E704F904FC04006F
:10055000050A0512051A0524054342430043434C8E
:100560004B004346554E00434741545400434950C5
:1005700041434B00434D474C00434D475200434DD0
:10058000475300434D5449004350494E00435245A0
:100590004700435351005044500059055D05620522
:1005A00067056D05740579057E05830588058D054C
:1005B00092059605434F4E4E454354204F4B0049FC
:1005C0005020434F4E464947004950204750525310
:1005D00041435400495020494E495449414C004937
:1005E00050205354415254004950205354415455C3
:1005F0005300504450204445414354005345525603
:100600004552204C495354454E494E47005443509F
:1006100020434C4F5345440054435020434C4F53C8
:10062000494E470054435020434F4E4E4543544992
:100630004E470055445020434C4F534544005544C9
:100640005020434C4F53494E470055445020434F90
:100650004E4E454354494E4700B405BF05C905D425
:1006600005DF05E805F205FC050D0618062406332E
:10067000063E064A064441544120414343455054F6
:100680003A0053544154453A2000756E7265633AFE
:1006900000444541435400756E7265633A005265EB
:1006A0006164792100556E646572766F6C74616760
:1006B000652100506F776572656420446F776E2105
:1006C000004661696C656400436C6F736564004348
:1006D0006F6E6E656374204641494C00436F6E6EC9
:1006E000656374204F4B002B4950442C000D0A00C9
:1006F00011241FBECFEFD8E0DEBFCDBF11E0A0E0D8
:10070000B1E0E4E8F5E702C005900D92A438B10726
:10071000D9F716E0A4E8B1E001C01D92A53FB107EA
:10072000E1F70E9497030C94C03A0C9400002F92BA
:100730003F924F925F926F927F928F929F92AF9271
:10074000BF92CF92DF92EF92FF920F931F93DF93AE
:10075000CF9300D000D00F92CDB7DEB72DE088E167
:1007600090E00FB6F894A895809360000FBE209398
:1007700060000E942F110E9418160E9471170E949B
:10078000111A0E94B71A0E94851B0E94F82D0E9420
:10079000CD2E0E94472C0E9490120E94661C0E943F
:1007A0000A210E9432250E94A5040E948C39789467
:1007B0002E010894411C511C98E1292E312C18C09F
:1007C0000E94EC160E94A2170E944E190E942D1A38
:1007D0000E94D11A0E94A3260E94C4120E9487245C
:1007E0000E949C1D0E9498060E94BE04882359F412
:1007F0000E949039882321F782EA90E00E947C12BF
:100800000E94F514DDCF0E942E14882389F70E94E0
:1008100083137B018C010E94D70FA0E0B0E0BC01E4
:10082000CD012CE330E040E050E00E94D639E616DE
:10083000F7060807190708F073C00E94FE1380919D
:100840007A008F7780937A00809164008F6E809316
:1008500064002FE320937E0083E080937F0015B82F
:1008600018B81BB80E94BE0F7C01C2010E946F1312
:1008700069807A808B809C805701CC24DD24F6949B
:10088000E79400E010E0E60CF71C081D191DC801F4
:10089000B701A60195010E941C3A2F5F3F4F4F4FB1
:1008A0005F4FCA01B901A60195010E94D6396619A8
:1008B000770988099909603020E0720721E08207F2
:1008C00020E092074CF18FEF9FEF0E942C15809152
:1008D00064008071809364008DE00FB6F894A89551
:1008E000209260000FBE809360000E9471170E94EA
:1008F000111A0E94B71A0E94851B0E94F82D0E94AF
:10090000CD2E0E9490120E94661C0E940A210E9415
:1009100032250E94CD046CCF97FD0AC0CB01D5CF04
:100920000E94C804882309F088CF0E94F51460CF84
:1009300080E090E0CACF882321F482E08093860192
:10094000089581E0809386010895109285011092A8
:10095000840110920001109201018FEF9FEF90939C
:1009600093018093920189E48093980110928C0105
:100970008FEF8093990180939A01089590E0809180
:1009800085018B3011F0892F089591E0892F08950A
:1009900080910101811181E0089581E080938501BA
:1009A00008958091850108959C0141E08D3294075E
:1009B00010F02CE231E084E690E0AC01249FC0010D
:1009C000259F900D349F900D112467E871E00E94DF
:1009D0009413089588EC90E067E871E00E94941306
:1009E00088E0809385010895FF920F931F93CF9322
:1009F000DF938C01DC0111962C91222309F43FC076
:100A0000C0E0D0E0FF24F3940EC010928C0165E0AA
:100A100071E00E94072FF80121812196822F90E03A
:100A2000C817D90764F5D8011296ED91FC91139778
:100A3000EC0FFD1F80818D3011F08A3031F78091ED
:100A40000601882351F3F0928C01813021F7E09167
:100A50000701F0910801E081EB35B9F0ED3531F493
:100A60001092840185E091E00E94002FD801119638
:100A70002C912196822F90E0C817D907A4F2DF911C
:100A8000CF911F910F91FF900895F092840185E01E
:100A900091E00E94002FF8012181BFCF0E94C91B65
:100AA00010928C0185E091E00E94002F1092840149
:100AB00084EF94E00E94502480E00E947D240895F9
:100AC0000F931F93DF93CF9300D000D0CDB7DEB745
:100AD0000E94C2208F3F910509F010F590E064E973
:100AE00071E08E010F5F1F4FA8010E94E92FC8011E
:100AF0000E94B92040E020919401309195018091AD
:100B00009601909197012817390769F0842F0F906B
:100B10000F900F900F90CF91DF911F910F9108953B
:100B20008FEF90E0DCCF41E0F1CFCF92DF92EF92F8
:100B3000FF920F931F93DF93CF93CDB7DEB7A897A4
:100B40000FB6F894DEBF0FBECDBF0E94C2204E97F5
:100B500008F466C0FE013A968FE1DF011D928A9586
:100B6000E9F78EE189831A82FC83EB8380919201FD
:100B700090919301BFEF8F3F9B0709F453C060E052
:100B800071E00E9420198C01FC0180819181892BE8
:100B900009F0ABC06E010894C11CD11C87E5B601F9
:100BA0000E94072FF8018281938161E040E0960165
:100BB0000E94923284E5B6010E94072FD801149654
:100BC0008C9190E061E040E096010E9492328BE3CC
:100BD000B6010E94072F20919201309193012F5F5F
:100BE0003F4F30939301209392018091010190E057
:100BF000281739070CF072C010E0C6010E94BC2013
:100C0000812FA8960FB6F894DEBF0FBECDBFCF914F
:100C1000DF911F910F91FF90EF90DF90CF9008959B
:100C200010E0EECF6E010894C11CD11CC6010E94D9
:100C3000002F85EE90E0B6010E94742F0E94DC0F19
:100C400061E040E096010E94923286E5B6010E9482
:100C5000072F8AE090E061E040E096010E94923226
:100C600082E4B6010E94072F0E94D81961E040E09B
:100C700096010E94923282E5B6010E94072F0E94DF
:100C8000E71B90E061E040E096010E94923281E52E
:100C9000B6010E94072F0E94F91B90E061E040E03E
:100CA00096010E949232CE0105960E946F13ED804C
:100CB000FE800F81188580918D0190918E01A09109
:100CC0008F01B0919001E81AF90A0A0B1B0B83EE11
:100CD00090E0B6010E94742FC70174CF80EE90E0BF
:100CE000B6010E94742F11E088CF84E46E0108944D
:100CF000C11CD11CB6010E94072FD8018D919C9177
:100D000061E040E096010E94923248CF80918401D8
:100D1000813051F088EC90E067E871E00E94941314
:100D200088E080938501089585E08093850108958A
:100D3000AF92BF92CF92DF92EF92FF920F931F93E9
:100D4000DF93CF93CDB7DEB72E970FB6F894DEBF03
:100D50000FBECDBF90918501892F82508630C0F1A2
:100D6000953009F441C09630E8F0983009F4C0C0DD
:100D7000993008F056C0963009F47CC1973009F4D8
:100D800070C12E960FB6F894DEBF0FBECDBFCF91C7
:100D9000DF911F910F91FF90EF90DF90CF90BF9068
:100DA000AF900895923009F4B9C0933008F44CC064
:100DB000933009F42AC1943021F780918601813063
:100DC00009F48EC18230E9F685E080938501D9CFA0
:100DD00087E891E00E94D813882309F07BC09091A6
:100DE0008501953009F0BFCF80918C01882349F2AD
:100DF00010928C0189E091E00E94002F8091060101
:100E0000882309F079C10E942E14882309F09EC11D
:100E100080910A01882309F42AC186E08093850124
:100E2000B0CF993009F408C19A3009F0AACF87E809
:100E300091E00E94D813882309F4A3CF399A4198EE
:100E40008BE0809385019DCF992309F44AC09130AE
:100E500009F097CF399A419A0E94BE0F5C010E9417
:100E6000B90F7C0187E891E00E946F13B501769578
:100E7000679580E090E02091870130918801409152
:100E8000890150918A01620F731F841F951F00E032
:100E900010E0A80197010E941C3ACC24DD246A15B9
:100EA0007B058C059D0510F40E944E050E94CD0F18
:100EB00024E630E0AC01429FC001439F900D529F59
:100EC000900D112467E871E00E94941382E08093F2
:100ED000850157CF8EEB90E00E947C120E94EA04BD
:100EE0007ECF0E949113882309F4DBC081E0B6C055
:100EF00087E891E00E94D813882309F442CF80E06C
:100F00000E9474240E94CD1B88EC90E067E871E099
:100F10000E94941389E08093850133CF0E94431986
:100F2000882309F42ECF0E94251A882309F429CF9B
:100F30000E94C91A882309F424CF8E01065F1F4F2F
:100F4000C8010E946F1380910101882309F007C135
:100F50001E821D82ADE8B1E0F80185E001900D929E
:100F60008150E1F70E946B1A89870E945B1B98876A
:100F70008F83CE01059660E071E00E94ED188F81AD
:100F800098856AE070E00E94F5398B010E94C80FD5
:100F90007C010E94C30F6C010E151F0508F4F2C0FE
:100FA0001092990100919901F0909801112707FD85
:100FB00010950E94BD1090E0081719070CF4EAC0C4
:100FC00028E4F22E809198018F1509F408C159E4A4
:100FD000F51609F468C08CE4F81609F436C148E443
:100FE000F41609F427C1F092980159E4F51609F4B2
:100FF00060C011E00E944D24882329F4112309F4D4
:10100000F4C00E944E0583E029C00E945E2488231C
:1010100009F4B7CE109286018FEF9FEF9093930162
:101020008093920185E995E06BE974E00E94552474
:1010300084E080938501A5CE0E94D01B882339F0DF
:1010400087E891E00E94D813882309F49ACE82E3BE
:1010500090E067E871E00E9494138AE08093850134
:1010600090CE809186018150823008F08ACE0E9415
:10107000860687CE0E945E24882309F482CE1092D1
:10108000860189E091E064E971E00E94DD3080E64C
:1010900095E06BE974E00E94552487E08093850118
:1010A00070CE8BE0DBCF8AEC90E00E947C12F09255
:1010B0009801F0909A01F7FC11C000919901112755
:1010C00007FD10950E94B8102F2D332727FD30956E
:1010D000280F311D021713070CF08BCF10E08ACFB9
:1010E00010920001109201018091990180939A0160
:1010F00085E08093850145CE85E091E08E010F5F0C
:101100001F4FB8010E94DD30C80169E071E00E9404
:10111000AB0A182F85E091E00E94002F80910A0110
:101120008823B9F480918401813009F06CCE1123B9
:1011300009F058C003EB10E089E091E00E94002F15
:10114000C80169E071E00E94742F5DCE0E94EA043C
:1011500018CE8AE069E071E00E94072F54CE8A859C
:101160009B85AC85BD8520918D0130918E0140918C
:101170008F0150919001821B930BA40BB50B9E83A2
:101180008D83E8CE80179107D0F184E68093990192
:10119000082F0ACF00919901112707FD10950E9491
:1011A000C21090E0801791070CF03FC08091980129
:1011B000883409F44FC08C3409F006CF00919901AE
:1011C000112707FD10950E94C21090E00596801728
:1011D000910714F489E4F82E80919801F5CE80935C
:1011E000980167CF0AEB10E0A7CF82E390E067E8B1
:1011F00071E00E9494138AE080938501C2CDB7010B
:10120000601B710B80E090E024E630E040E050E0AD
:101210000E94D639EC18FD08970140E050E00E948A
:101220001C3A20939901022FBFCE9CE4F92E8091A5
:101230009801CACE83ED90E00E947C1210E089E410
:10124000F81211E0F0929801D5CE8AED90E00E945C
:101250007C12F4CF00919901112707FD10950E948F
:10126000BD1090E00597081719070CF4B3CFB4CF61
:10127000CF92DF92EF92FF920F931F938C016B013D
:101280007A0182E2BA010E94072FC801B7010E94C9
:10129000742F8CE392E0B7010E94742FC701F6010E
:1012A000099582E2B7010E94072F1F910F91FF90CD
:1012B000EF90DF90CF900895CF92DF92EF92FF9260
:1012C0000F931F938C016B017A0182E2BA010E9495
:1012D000072FC801B7010E94742F80E492E0B70184
:1012E0000E94742FC601B7010E94721682E2B701F4
:1012F0000E94072F1F910F91FF90EF90DF90CF90EA
:1013000008950F931F938C010E94002F84E492E0B4
:10131000B8010E94742F1F910F910895CF92DF9210
:10132000EF92FF920F931F938C016B017A0182E27F
:10133000BA010E94072FC801B7010E94742F86E4EA
:1013400092E0B7010E94742FC60161E040E097016E
:101350000E9492321F910F91FF90EF90DF90CF90FB
:101360000895EF92FF920F931F93DF93CF9300D0D6
:10137000CDB7DEB78C017B010E9470311A821982D1
:10138000C801B701AE014F5F5F4F98010E9413344F
:1013900089819A810F900F90CF91DF911F910F91CA
:1013A000FF90EF900895EF92FF920F931F93DF93BA
:1013B000CF9300D000D00F92CDB7DEB77C010E9452
:1013C000002F8E010F5F1F4FC8010E946F13C801CD
:1013D000B7010E9472168BE692E0B7010E94742F4B
:1013E0000E94FC1B62E040E097010E9492320E9442
:1013F000FC1B0E94001C882309F072C089E692E061
:10140000B7010E94742F0E94D10490E061E040E097
:1014100097010E94923285E692E0B7010E94742FF4
:101420000E945B1B63E041E097010E94923280E6DC
:1014300092E0B7010E94742F0E94D81961E042E047
:1014400097010E9492328BE592E0B7010E94742FBF
:101450000E94081C61E043E097010E94923287E5F8
:1014600092E0B7010E94742F0E94251A882381F50B
:1014700084E592E0B7010E94742F80E592E0B70105
:101480000E94742F0E94E71B90E061E040E097010A
:101490000E9492328CE492E0B7010E94742F0E9465
:1014A000F91B90E062E040E097010E94923289E4EB
:1014B00092E0B7010E94742F0F900F900F900F9041
:1014C0000F90CF91DF911F910F91FF90EF900895B2
:1014D0000E946B1A61E040E097010E949232CDCFEA
:1014E0008EE2B7010E94072F0E94B52062E040E023
:1014F00097010E94923282CFCF92DF92EF92FF92B9
:101500000F931F938C016B017A01CA010E94002F77
:1015100084E492E0B7010E94742F82E2B7010E9436
:10152000072FC801B7010E94742F86E492E0B7012B
:101530000E94742FC60161E040E097010E94923240
:101540008DE7B7010E94072F1F910F91FF90EF9039
:10155000DF90CF900895CF92DF92EF92FF920F939A
:101560001F93DF93CF93CDB7DEB76E970FB6F89486
:10157000DEBF0FBECDBFFC016B0181E0898380819E
:101580009181A281B3818A839B83AC83BD8382E0F6
:10159000E82EF12CEC0EFD1E8E010A5F1F4FC701D5
:1015A000B8010E94D234C80165E372E00E9498300D
:1015B000882381F11F861E86198A188AC701B801FF
:1015C0000E94D234C80162E372E00E9498308823FE
:1015D00009F070C0C6010E94D3092E853F85888915
:1015E00099892817390709F471C0CE010E960E9417
:1015F000101C7981872F6E960FB6F894DEBF0FBE50
:10160000CDBFCF91DF911F910F91FF90EF90DF90B1
:10161000CF900895C8016DE272E00E94983088234F
:1016200039F1C7010E9470311E8A1F8A188E198EE7
:10163000C701BE016F5F7F4FAE014A5E5F4F9701EA
:101640000E9494332E893F89488D598D2A873B8784
:101650004C875D877981772369F221153105410532
:10166000510541F2CE010A960E94B9157981C2CF87
:10167000C80169E272E00E949830882349F1C701ED
:10168000B8010E94D234C80167EE70E00E94983021
:10169000882309F4ABC0C701BE016F5F7F4F0E9472
:1016A000B1097981772309F4A5CF90E00E941D103C
:1016B0007981A0CFC701BE01625F7F4F0E94D23403
:1016C00089CF19828EE791E00E947C12798192CFB6
:1016D000C8016FE072E00E949830882309F4A4C02A
:1016E000C701B8010E94D234C80163E671E00E94CC
:1016F0009830882309F00AC1C80167EE70E00E94A3
:101700009830882309F067C1C8016AEE70E00E9432
:101710009830882309F06EC1C80165EF70E00E941F
:101720009830882309F0A4C1C8016CEF70E00E94D2
:101730009830882309F0C7C1C80163E071E00E94B6
:101740009830882309F01FC2C8016EE071E00E9442
:101750009830882309F03BC2C80165E171E00E941E
:101760009830882309F05BC2C80169E171E00E94EA
:101770009830882309F087C2C8016AEF71E00E949F
:101780009830882309F09EC2C80162E271E00E948D
:101790009830882309F082C2C8016BE271E00E9490
:1017A0009830882309F062C3C8016AE371E00E949F
:1017B0009830882309F001C3C80161E571E00E94F7
:1017C0009830882309F026C3C80167E671E00E94BB
:1017D0009830882309F0FBC2C80169EC71E00E94CF
:1017E0009830882309F0ADC270E004CFC8016AEEDA
:1017F00070E00E949830882309F07AC0C80165EF34
:1018000070E00E949830882309F4D0C0C701BE015F
:101810006F5F7F4F0E94B1097981772309F4EACE87
:101820000E9413117981E6CEC80167E671E00E943B
:101830009830882351F1C701B8010E94D234C80101
:101840006CE571E00E949830882309F0CEC0C80191
:101850006FE571E00E949830882309F0EAC0C80162
:101860006EE671E00E949830882309F4EBC0C7014E
:10187000BE016F5F7F4F0E94B1097981772309F420
:10188000B9CE0E9407117981B5CEC80166EB71E02F
:101890000E949830882309F449C08E01025F1F4FCF
:1018A000C701B8010E94D23488899E85891B863081
:1018B00008F49ACFC8010E9409308B3209F094CF06
:1018C000C701BE016E5E7F4F40E050E00E942335AD
:1018D0008A899B896C897D898617970709F4F6CEDA
:1018E000A6010E942B2FC8010E94101C798182CE74
:1018F000C701BE016F5F7F4F0E94B10979817723D5
:1019000009F478CE0E941110798174CEC6010E942C
:10191000810983E691E067E470E1A6010E9438093D
:101920008DE7B6010E94072F798164CEC8016EE071
:1019300071E00E949830882309F080C0C8016FEAE6
:1019400071E00E949830882309F0B3C0C80168EAAA
:1019500071E00E949830882309F4C0C0C701BE011D
:101960006F5F7F4F0E94B1098C017981772309F461
:1019700041CEC6010E94810981EA91E0B801A60129
:101980000E948E098CE2B6010E94072FC8010E94B6
:101990009437682F8BE991E070E0A6010E948E09D0
:1019A0008DE7B6010E94072F798124CEC8016CEF24
:1019B00070E00E949830882339F1C701BE016F5F43
:1019C0007F4F0E94B1097981772309F413CE0E94D9
:1019D0000D1179810FCE0E94DC0FBC0187EE90E0E3
:1019E000A6010E947C0A798105CE81E00E94F51053
:1019F000798100CE0E94D20FBC018AEE90E0A60150
:101A00000E947C0A7981F6CDC80163E071E00E94F2
:101A100098308823C1F1C701BE016F5F7F4F0E94DC
:101A2000B1097981772309F4E5CD0E940B10798102
:101A3000E1CD80E00E94F5107981DCCD0E94F514A3
:101A40007981D8CDC80162E771E00E94983088237F
:101A500009F467C0C701BE016F5F7F4F0E94B109E3
:101A60007981772309F4C6CD0E9401117981C2CD15
:101A70000E94CC10682F85EF90E070E0A6010E94D4
:101A80007C0A7981B7CDC8016EE071E00E94983080
:101A9000882309F45CC0C701BE016F5F7F4F0E94BD
:101AA000B1097981772309F4A5CD0E9417107981B6
:101AB000A1CDC701BE016F5F7F4F0E94B1090E9497
:101AC000D404798197CD0E94C710682F8CEF90E0E5
:101AD00070E0A6010E947C0A79818CCDC80163E97F
:101AE00071E00E949830882309F4EBCDC7016E01A4
:101AF0000894C11CD11CB6010E94B1098C017981E6
:101B0000772309F477CDC701B6010E94B109682F88
:101B10007981772309F46ECDC8010E948B377981D2
:101B200069CDC80167E771E00E949830882309F405
:101B30005BCEC701BE016F5F7F4F0E94B109798103
:101B4000772309F457CD0E94FB10798153CDC8014A
:101B500065E171E00E9498308823F9F4C80169E1D9
:101B600071E00E9498308823E1F1C701BE016F5FE8
:101B70007F4F0E94B1097981772309F43BCD0E9400
:101B8000E910798137CD0E94CD0FBC0183E091E04F
:101B9000A6010E947C0A79812DCDC701B801A70159
:101BA0000E942335C8010E947510C701B801A70122
:101BB0000E942335C8010E946D10C701B801A7011A
:101BC0000E942335C8010E946510798113CD0E94BF
:101BD000D70FBC018EE091E0A6010E947C0A7981BA
:101BE00009CDC80162E271E00E9498308823A9F112
:101BF000C701B8010E94D234C701BE016F5F7F4F99
:101C00000E94B1097C017981772309F4F3CCC801E2
:101C10000E944D10C7010E94E10F7981EBCCC601F3
:101C20000E94810985E191E061E470E1A6010E94D2
:101C300038098CE2B6010E94072F8AE092E06BE33C
:101C400070E1A6010E9438098CE2B6010E94072FBC
:101C500083E092E065E370E160CEC8016BE271E081
:101C60000E949830882309F442C0C701BE016F5F0B
:101C70007F4F0E94B1097981772309F4BBCC0E9480
:101C8000F90F7981B7CC0E94A210682F89E191E009
:101C900070E0A6010E947C0A7981ACCCC6010E944A
:101CA000810982EF91E063E270E1A6010E943809A8
:101CB0008CE2B6010E94072F0E94AA0FBC018AEE97
:101CC00091E06BCEC6010E9481090E94C80FBC0141
:101CD00086E491E0A6010E948E098CE2B6010E9482
:101CE000072F0E94C30FBC018CE491E056CEC801BF
:101CF0006AE371E00E949830882371F0C701BE0149
:101D00006F5F7F4F0E94B1097981772309F472CC0C
:101D10000E94F30F79816ECCC80166E471E00E94E5
:101D200098308823A1F1C701BE016F5F7F4F0E94E9
:101D3000B1097981772309F45DCC0E94051079817E
:101D400059CCC6010E9481098E01065E1F4FC80151
:101D50000E946F1381EC91E0B801A6010E945C091A
:101D60008CE2B6010E94072F0E9483136A8F7B8F3B
:101D70008C8F9D8F1E8E8AEB91E0B801A6010E9488
:101D80005C098DE7B6010E94072F798133CCC80129
:101D90006CE471E00E949830882309F471C0C70197
:101DA000BE016F5F7F4F0E94B1097981772309F4EB
:101DB00021CC0E94FF0F79811DCC0E94B90FBC017C
:101DC0008AE391E0A6010E947C0A798113CCC601C6
:101DD0000E9481090E94C210682F8EE691E070E097
:101DE000A6010E948E098CE2B6010E94072F0E9474
:101DF000BD10682F82E791E070E0A6010E948E0975
:101E00008CE2B6010E94072F0E94B810682F87E766
:101E100091E0C2CDC6010E9481090E949610682FF0
:101E200084EE91E070E0A6010E948E098CE2B6017A
:101E30000E94072F8CED91E06FE270E1A6010E94F5
:101E400038098CE2B6010E94072F0E94B40FBC0132
:101E500084ED91E0A6010E948E098CE2B6010E94F9
:101E6000072F8EEC91E069E270E157CD0E94BE0F22
:101E7000BC018BE291E0A6010E947C0A7981BACB79
:101E8000C80161E571E00E949830882309F4ACCC68
:101E9000C701B8010E94D234C8016CE571E00E940C
:101EA00098308823F9F4C8016FE571E00E949830FA
:101EB000882391F5C80161E272E00E94983088237E
:101EC000B1F0C701B8010E94D2342E813F818885CC
:101ED00099852817390709F4F9CBC8010E945D10CC
:101EE000798188CB81E00E94E310798183CBC8019E
:101EF0006CE172E00E949830882399F0C701BE011E
:101F00006F5F7F4F0E94B1097981772309F472CB0B
:101F10000E94ED0F79816ECB80E00E94E310798101
:101F200069CBC80163E172E00E949830882309F40C
:101F30005BCCC701B8010E94D2342E813F818885D5
:101F400099852817390709F4C1CBC8010E9455109B
:101F5000798150CB85EF90E00E94A63708958FE1FC
:101F600090E00E94A637089582EA90E00E94A6378A
:101F700008958AE190E00E94A637089588E190E0F4
:101F80000E94A637089583E290E00E94A637089544
:101F900081E290E00E94A637089585E190E00E94DA
:101FA000A637089581E190E00E94A637089587E062
:101FB00090E00E94A637089581E090E00E94A63745
:101FC0000895BC0185EF90E00E943B380895BC0164
:101FD0008FE190E00E943B380895BC0182EA90E0D6
:101FE0000E943B380895BC018AE190E00E943B3892
:101FF0000895BC0188E190E00E943B380895BC013F
:1020000083E290E00E943B380895BC0181E290E0B9
:102010000E943B380895BC0185E190E00E943B3866
:102020000895BC0181E190E00E943B380895BC0115
:1020300087E090E00E943B380895BC0181E090E089
:102040000E943B380895BC0189EB90E00E94DE3786
:102050000895BC0184EA90E00E94DE370895BC0137
:102060008AE790E00E94DE370895BC0184E690E0A4
:102070000E94DE370895BC0180E590E00E94DE37C3
:102080000895BC0188E290E00E94DE370895BC010B
:1020900089E090E00E94DE370895AC0189EB90E082
:1020A0006CE370E00E9411380895AC0184EA90E07E
:1020B00064E170E00E9411380895AC018AE790E075
:1020C00068E270E00E9411380895AC0184E690E067
:1020D00064E170E00E9411380895AC0180E590E061
:1020E00064E170E00E9411380895AC0188E290E04C
:1020F00068E270E00E9411380895AC0189E090E038
:1021000068E070E00E941138089588EB90E00E942A
:102110009437811181E008958EE190E00E94943718
:1021200008958DE190E00E949437089589E790E04A
:102130000E94943790E0813011F0892F089591E04A
:10214000892F089588E790E00E94943708958CE1E4
:1021500090E00E949437089587E190E00E949437C0
:1021600090E0813011F0892F089591E0892F089532
:1021700087E290E00E949437089586E290E00E9402
:102180009437089585E290E00E949437089584E1A1
:1021900090E00E949437089583E190E00E94943784
:1021A0000895682F88EB90E00E948B370895682F80
:1021B0008EE190E00E948B370895682F8DE190E0CA
:1021C0000E948B370895682F89E790E00E948B3733
:1021D0000895682F88E790E00E948B370895682F54
:1021E0008CE190E00E948B370895682F87E190E0A2
:1021F0000E948B370895682F87E290E00E948B370A
:102200000895682F86E290E00E948B370895682F2A
:1022100085E290E00E948B370895682F84E190E07A
:102220000E948B370895682F83E190E00E948B37DE
:10223000089584E690E00E949C37089580E590E040
:102240000E949C37089583E090E00E94BC37089577
:10225000AB01BC0183E090E00E94F6370895EF9255
:10226000FF920F931F93DF93CF93CDB7DEB7E19724
:102270000FB6F894DEBF0FBECDBF80E090E00E94A5
:1022800094378F3F79F0882369F0E1960FB6F89480
:10229000DEBF0FBECDBFCF91DF911F910F91FF9099
:1022A000EF900895FE01399689E2DF011D928A952B
:1022B000E9F788E289831A82FC83EB8381E090E06E
:1022C00062E070E00E943B3883E090E040E050E044
:1022D00060E070E00E94F63787E090E060EA75E029
:1022E0000E943B388E010F5F1F4FC8010E94002FD4
:1022F00080E792E0B8010E94742F85E0E82EF12C6F
:10230000EC0EFD1EC801B7010E94DD3089E090E0AF
:1023100068E070E0A7010E94113888E790E060E073
:102320000E948B3781E190E065E471E00E943B38C8
:1023300083E190E06FE50E948B3784E190E062E6F4
:102340000E948B3785E190E06CE370E00E943B389F
:1023500081E290E062E271E00E943B3883E290E02B
:102360006EE170E00E943B3886E290E06AE50E94F0
:102370008B3785E290E06DE20E948B3787E290E038
:1023800062E00E948B3787E190E060E00E948B372B
:10239000C8010E94002F85E792E0B8010E94742FC7
:1023A000C801B7010E94DD3088E290E068E270E089
:1023B000A7010E941138C8010E94002F8EE792E009
:1023C000B8010E94742FC801B7010E94DD3080E57A
:1023D00090E064E170E0A7010E941138C8010E94FA
:1023E000002F8FE792E0B8010E94742FC801B70157
:1023F0000E94DD3084E690E064E170E0A7010E9475
:10240000113888E190E068E572E00E943B388AE18B
:1024100090E068E077E00E943B3889E790E060E078
:102420000E948B37C8010E94002F80E892E0B8011B
:102430000E94742FC801B7010E94DD308AE790E046
:1024400068E270E0A7010E94113882EA90E060E53E
:1024500070E00E943B38C8010E94002F83E992E09F
:10246000B8010E94742FC801B7010E94DD3084EAD0
:1024700090E064E170E0A7010E9411388DE190E0E6
:1024800061E00E948B378EE190E064EB0E948B3715
:102490008FE190E06FEF7FE30E943B3888EB90E0A4
:1024A00060E00E948B37C8010E94002F84EA92E00E
:1024B000B8010E94742FC801B7010E94DD3089EB7A
:1024C00090E06CE370E0A7010E94113885EF90E086
:1024D00068EB7BE00E943B3880E090E061E00E9486
:1024E0008B37D3CEBC0181E00E949D2B81E067EB4E
:1024F00072E00E94E72B0895BC0181E00E94E72B67
:1025000081E067EB72E00E94E72B0895BC0181E057
:102510000E94C72B81E067EB72E00E94E72B0895D1
:1025200081E061E043E00E941D2C81E00E943D2B90
:1025300081E067EB72E00E94E72B80E090E067EEBD
:1025400072E00E94941308950F931F93DF93CF932B
:1025500000D000D0CDB7DEB78E010F5F1F4FB8019E
:102560000E94DD3081E0B8010E949D2B81E067EB85
:1025700072E00E94E72B0F900F900F900F90CF9179
:10258000DF911F910F9108950F931F93DF93CF93C6
:10259000CDB7DEB7C955D0400FB6F894DEBF0FBE39
:1025A000CDBF0E94692DFC018FB7F8948FBF848145
:1025B0009581892BE9F587EE92E00E94D813882354
:1025C00061F4C75ADF4F0FB6F894DEBF0FBECDBF20
:1025D000CF91DF911F910F910895FE01399681E50A
:1025E000DF011D928A95E9F780E58D831E82F887C9
:1025F000EF838E010B5F1F4FC8010E94D30981E05A
:1026000065EB72E00E94E72B81E0B8010E946D2C1F
:1026100081E067EB72E00E94E72B8091060188233E
:1026200051F584E690E067EE72E00E949413C9CF02
:10263000CF010E943E318D3049F18F37A1F065E026
:1026400071E00E94072F81E065EB72E00E94E72BAA
:1026500081E065E071E00E946D2C81E06DE071E049
:102660000E94C72BA8CF80910601815065E071E0E0
:102670000E941E2FE8CF81E065E071E00E946D2C82
:1026800081E06DE071E00E94C72BCBCF81E067EB6A
:1026900072E00E94E72B85E091E08E010F5F1F4FF3
:1026A000B8010E94DD30C80169E071E00E94AB0A08
:1026B00080910A01882329F485E091E00E94002F8F
:1026C000C2CF89E091E00E94A41289E091E00E94CB
:1026D000002FF2CF9093FE028093FD020895FC013B
:1026E0002FB7F8948091EF029091F002A091F1023F
:1026F000B091F20280839183A283B3838091F3022D
:1027000084832FBF08958FB7F8942091F4023091FD
:10271000F5024091F6025091F7028FBFB901CA014C
:1027200008958091FC0208950F931F93CF93DF9338
:10273000EC01FB018FB7F8940091EF021091F002C9
:102740002091F1023091F2024091F3028FBF008399
:10275000118322833383CE0164E670E00E94093A3C
:10276000480F4483443650F0445644830F5F1F4F54
:102770002F4F3F4F0083118322833383CE0164E6C2
:1027800070E00E94093A882777FD8095982F208174
:10279000318142815381260F371F481F591F2083E3
:1027A000318342835383DF91CF911F910F9108951D
:1027B000FC018FB7F8942091EF023091F002409124
:1027C000F1025091F2026091F3028FBF80819181FA
:1027D000A281B38182179307A407B50760F082171F
:1027E0009307A407B50719F020E0822F089520E091
:1027F0008481681708F021E0822F0895EF92FF92FC
:102800000F931F938FB7F8942091EF023091F0024D
:102810004091F1025091F202E090F802F090F9023A
:102820000091FA021091FB022E0D3F1D401F511F17
:102830002093EF023093F0024093F1025093F202A2
:102840001092F8021092F9021092FA021092FB0212
:102850008FBF1F910F91FF90EF9008958091EE022E
:102860000895FC01608171818281938120E831E5C6
:1028700041E050E00E941C3ACA01B90127E030E073
:1028800040E050E00E941C3A862F0895FC016081D0
:1028900071818281938120E13EE040E050E00E941E
:1028A0001C3ACA01B90128E130E040E050E00E9442
:1028B0001C3A862F0895FC01608171818281938189
:1028C0002CE330E040E050E00E941C3ACA01B9011C
:1028D0002CE330E040E050E00E941C3A862F08953F
:1028E000FC0160817181828193812CE330E040E0C2
:1028F00050E00E941C3A862F08951F920F920FB647
:102900000F9211242F933F934F935F936F937F9375
:102910008F939F93AF93BF93EF93FF938091EC02BC
:102920009091ED0201969093ED028093EC028091DC
:10293000EC029091ED02C09768F01092ED021092B7
:10294000EC028091F3028F5F8093F3028091F30297
:102950008436C0F4E091FD02F091FE02309709F058
:102960000995FF91EF91BF91AF919F918F917F91C9
:102970006F915F914F913F912F910F900FBE0F90EC
:102980001F9018951092F3028091EF029091F0023F
:10299000A091F102B091F2020196A11DB11D8093A8
:1029A000EF029093F002A093F102B093F2028091B3
:1029B000F4029091F502A091F602B091F70201960F
:1029C000A11DB11D8093F4029093F502A093F6022D
:1029D000B093F702BFCF1F920F920FB60F92112440
:1029E0000F900FBE0F901F9018958091EE028111ED
:1029F000089581E08093EE022FB7F8946091EF0282
:102A00007091F0028091F1029091F2023091F30204
:102A10002FBF685F7F4F8F4F9F4F2091F8023091FB
:102A2000F9024091FA025091FB02620F731F841F5A
:102A3000951F0E94281180EC92E00E947C1229E2EE
:102A400088E190E00FB6F894A895809360000FBEDF
:102A500020936000A8950895EF92FF920F931F9323
:102A60007C0100E010E00E94CC1090E0A0E0B0E01B
:102A7000BC01CD01A80197010E94D63924E630E0BF
:102A800040E050E00E941C3AA901232B09F433C016
:102A900068E170E04830510508F05CC044305105F1
:102AA00008F45CC084E090E028E2481B590B0FB6A4
:102AB000F894A895609360000FBE20936000809109
:102AC000600080648093600083B7817F846083BFEF
:102AD000F89483B7816083BF85B7806685BF8F7D9B
:102AE00085BF7894889583B78E7F83BF789441158E
:102AF000510509F0CFCFF8948091EF029091F00248
:102B0000A091F102B091F2028E0D9F1DA01FB11F86
:102B10008093EF029093F002A093F102B093F2023F
:102B20008091F4029091F502A091F602B091F70223
:102B3000E80EF91E0A1F1B1FE092F402F092F50244
:102B40000093F6021093F70278941F910F91FF9073
:102B5000EF90089588E090E029E2A7CF4130510539
:102B600021F082E090E02FE0A0CF81E090E02EE025
:102B70009CCFEF92FF920F931F93DF93CF93CDB72C
:102B8000DEB769970FB6F894DEBF0FBECDBFFC016C
:102B90006FB7F8942091EF023091F0024091F1026A
:102BA0005091F20280819181A281B381821B930BAB
:102BB000A40BB50B8093F8029093F902A093FA024C
:102BC000B093FB026FBFFE01359685E1DF011D92D8
:102BD0008A95E9F784E189831A82FC83EB837E017D
:102BE0000894E11CF11CC7010E94002F81ED92E0C6
:102BF000B7010E94742F6091F8027091F9028091E0
:102C0000FA029091FB0241E020E087010E94E2314C
:102C1000C7010E94A41269960FB6F894DEBF0FBEDA
:102C2000CDBFCF91DF911F910F91FF90EF9008954D
:102C30001092ED021092EC020E9423116093EF02B9
:102C40007093F0028093F1029093F2021092F302DB
:102C500060E070E080E090E00E9428111092F402A1
:102C60001092F5021092F6021092F7021092F802FA
:102C70001092F9021092FA021092FB021092EE02E8
:102C80008091EF029091F002A091F102B091F202D6
:102C90001092FC020297A105B10518F481E080931F
:102CA000FC021092FE021092FD0280918100887F4A
:102CB00082608093810080918100877E886080930C
:102CC000810080ED90E090938900809388001092BD
:102CD000850010928400B19A80916F008260809389
:102CE0006F000895EF92FF920F931F937C018B0169
:102CF000FC01608171818281938120E831E541E0AE
:102D000050E00E941C3ACA01B90127E030E040E0DF
:102D100050E00E941C3A862F90E061E040E098016C
:102D20000E9492328EEB92E0B8010E94742FF7015C
:102D3000608171818281938120E13EE040E050E03A
:102D40000E941C3ACA01B90128E130E040E050E09D
:102D50000E941C3A862F90E062E040E098010E94B9
:102D600092328CEB92E0B8010E94742FF7016081DF
:102D70007181828193812CE330E040E050E00E9439
:102D80001C3ACA01B9012CE330E040E050E00E9457
:102D90001C3A862F90E062E040E098010E94923257
:102DA0008AEB92E0B8010E94742FF7016081718173
:102DB000828193812CE330E040E050E00E941C3A95
:102DC000862F90E062E040E098010E9492321F91CD
:102DD0000F91FF90EF9008956F927F928F929F9244
:102DE000AF92BF92CF92DF92EF92FF920F931F9319
:102DF0008091EE02882369F01F910F91FF90EF9070
:102E0000DF90CF90BF90AF909F908F907F906F900A
:102E10000895A8958FB7F8946090F4027090F50229
:102E20008090F6029090F7028FBF0E94D70F5C014E
:102E30000E94B90FA0E0B0E07C018D01EE0CFF1CF8
:102E4000001F111FE80EF91E0A1F1B1FCC24DD24D2
:102E5000C601B5012CE330E040E050E00E94D639D5
:102E6000E60EF71E081F191FE614F70408051905DA
:102E700018F68091EE02882309F0BECF81E080939E
:102E8000EE022FB7F8946091EF027091F0028091FA
:102E9000F1029091F2023091F3022FBF685F7F4FF1
:102EA0008F4F9F4F2091F8023091F9024091FA0222
:102EB0005091FB02620F731F841F951F0E942811FF
:102EC00080EC92E00E947C1229E288E190E00FB64B
:102ED000F894A895809360000FBE20936000A89599
:102EE0008BCFEAE7F0E08081887F846080838081F7
:102EF000806880831092FF020895582F863088F0F2
:102F0000282F30E06295660F660F607C652B4111BB
:102F10006062F901EE0FFF1FEE5FFC4F418360839B
:102F20000895282F30E0F901E852FD4FE49197B160
:102F30008E2F8095892387B980917E00E82BE093BE
:102F40007E00E0CF8091FF02813059F0823009F09D
:102F5000089580917A0084FFFBCF83E08093FF0285
:102F6000089580917A0084FFF3CF809100038093CD
:102F70007C0080910103882371F080917B00806246
:102F800080937B0080917A00806480937A0082E055
:102F90008093FF02089580917B008F7D80937B005A
:102FA000F1CFE82F8091FF02882319F5F0E0EE0FB2
:102FB000FF1FEE5FFC4F918180819093010380930E
:102FC000000380937C00992371F480917B008F7DB6
:102FD00080937B0080917A00806480937A0081E006
:102FE0008093FF02089580917B00806280937B0034
:102FF000F1CF80E00895FC018091FF02833011F051
:1030000080E0089580917A00806180937A008091B9
:103010000103882351F48091780090917900918385
:1030200080831092FF0281E008958091790090E002
:10303000918380831092FF0281E00895DB012C913F
:1030400030E0220F331F1396ED91FC911497E20F9D
:10305000F31F918380834C91242F30E012965C9172
:103060001297852F90E001972817390754F01C928A
:1030700011968C911197851718F48F5F11968C9388
:1030800008954F5F4C93F4CFFC0181818823A1F018
:103090008081882371F0815090E0880F991F038010
:1030A000F481E02DE80FF91F0190F081E02DCF01B0
:1030B000089582818150F0CFE0E0F0E0CF010895E3
:1030C0005F926F927F928F929F92AF92BF92CF92B8
:1030D000DF92EF92FF920F931F93CF93DF936C01D8
:1030E000562EBA01E90138018FEF9FEFDA018D9377
:1030F0009C9319821882F80111821082D6011196D0
:103100008C911197882309F450C0EC91EE2309F4B7
:103110005CC04E2F4150852C99248114910409F4F0
:1031200058C0EE24FF24870120E030E0F601A380A0
:10313000B48008C0F601428141502F5F3F4F2815EF
:10314000390544F5E42FF0E0EE0FFF1FEA0DFB1DFB
:103150000190F081E02DDB018D919C911197E81792
:10316000F90710F4ED93FC93888199818E179F07DE
:1031700010F4F983E883CF01A0E0B0E0E80EF91E77
:103180000A1F1B1F4423B1F241502F5F3F4F2815E8
:103190003905C4F2252D30E040E050E0C801B70108
:1031A0000E941C3AD3012D933C93DF91CF911F9144
:1031B0000F91FF90EF90DF90CF90BF90AF909F90D6
:1031C0008F907F906F905F90089512964C91415030
:1031D000A2CFEE24FF248701DDCFCF93DF93DB0165
:1031E0002C9130E0A901440F551F440F551F420F89
:1031F000531F1396ED91FC911497E40FF51FEC010A
:1032000085E0099001928150E1F74C91242F30E044
:1032100012965C911297852F90E001972817390735
:103220006CF44F5F4C9311968C911197851718F49D
:103230008F5F11968C93DF91CF9108951C92F3CFFD
:10324000482FFB0191818917B0F48081282F30E04D
:10325000291B3109240F311D37FD11C0C901880F09
:10326000991F880F991F820F931F63817481680FC4
:10327000791FCB01089560E070E0CB010895828151
:10328000280F311DEBCF90E0809112018A3008F0B9
:1032900091E0892F0895809129030895DF92EF929C
:1032A000FF920F931F93DF93CF93CDB7DEB728978D
:1032B0000FB6F894DEBF0FBECDBFD090280321E03B
:1032C000D21619F1D21688F082E0D81639F1289674
:1032D0000FB6F894DEBF0FBECDBFCF91DF911F9127
:1032E0000F91FF90EF90DF9008958AE293E00E94A3
:1032F000D813882361F38AE090E06AE273E00E94C9
:10330000941381E080932803E2CF80E00E94D117DC
:103310008823E9F282E080932803D9CFCE01019679
:103320000E94FB17882399F2E980FA8000E010E000
:103330000E94C71090E0A0E0B0E0BC01CD01A80160
:1033400097010E94D63924E630E040E050E00E9428
:103350001C3ADA01C90161E171E00E941E188091F6
:1033600012018A3018F410922803B1CF81E191E064
:103370006AE0AE014D5F5F4F9E012B5F3F4F8E01B4
:10338000095F1F4F0E9460188D819E8121E0893462
:10339000920720F481E080932903E5CF875A91407A
:1033A00018F4D0922903DFCF83E080932903DBCF89
:1033B0000F931F93DF93CF9300D000D000D0CDB7F1
:1033C000DEB71A821982809112018A3070F081E191
:1033D00091E06AE0AE014D5F5F4F9E012B5F3F4F72
:1033E0008E010F5F1F4F0E94601869817A8180E013
:1033F00090E027E234E040E050E00E94D63928EE29
:1034000033E040E050E00E943E3AC90126960FB6F4
:10341000F894DEBF0FBECDBFCF91DF911F910F910A
:103420000895109228031092290382E090E06AE246
:1034300073E00E949413109211011092120180E027
:1034400061E040E00E947D17089590E080911701AF
:103450008A3008F091E0892F0895DF93CF9300D050
:10346000CDB7DEB7809143038130C9F0813038F0A9
:10347000823011F10F900F90CF91DF91089584E485
:1034800093E00E94D8138823A9F38AE090E064E4D3
:1034900073E00E94941381E080934303EBCF88E0B4
:1034A0000E94D117882331F382E0809343030F9069
:1034B0000F90CF91DF910895CE0101960E94FB17E6
:1034C0008823C1F289819A8166E171E00E941E1809
:1034D00010924303CFCFEF92FF920F931F93DF938E
:1034E000CF9300D000D000D0CDB7DEB780911701C8
:1034F0008A3080F420E030E0C90126960FB6F894B7
:10350000DEBF0FBECDBFCF91DF911F910F91FF9016
:10351000EF9008951A82198286E191E06AE0AE0187
:103520004D5F5F4F9E012B5F3F4F8E010F5F1F4F1F
:103530000E946018E980FA8000E010E00E94D20F3B
:10354000AA2797FDA095BA2FE81AF90A0A0B1B0BB8
:10355000C801B70127E234E040E050E00E94D639CC
:1035600028EE33E040E050E00E943E3AC5CF109292
:10357000430382E090E064E473E00E9494131092AD
:1035800016011092170188E063E040E00E947D1769
:10359000089590E080912001853008F091E0892F16
:1035A00008956F927F928F929F92AF92BF92CF9227
:1035B000DF92EF92FF920F931F93DF93CF93CDB7DC
:1035C000DEB729970FB6F894DEBF0FBECDBF7E01E0
:1035D0000894E11CF11C36E0C32ED12CCC0EDD1E6C
:1035E00022E0822E912C8C0E9D1E94E0692E712C6F
:1035F0006C0E7D1E83E0A82EB12CAC0EBD1EC70143
:103600000E94DF35882381F089818D3011F580910A
:103610001C01853019F18BE191E00E94002FC70158
:103620000E94DF35882381F729960FB6F894DEBF14
:103630000FBECDBFCF91DF911F910F91FF90EF9003
:10364000DF90CF90BF90AF909F908F907F906F90C2
:1036500008956BE171E00E94072FD1CFE0911D0129
:10366000F0911E0180818235B1F68BE191E061E03D
:1036700070E0A6010E94C0301A821D821C821B824B
:10368000C601B401A301950100E010E00E940933D6
:103690008A81882309F4BFCF80916403882321F0B5
:1036A000815080936403B7CF8C819D816FE171E07D
:1036B0000E941E18B0CF0F931F93DF93CF9300D0BB
:1036C00000D000D0CDB7DEB71A82198280912001D8
:1036D000853070F08FE191E065E0AE014D5F5F4FA6
:1036E0009E012B5F3F4F8E010F5F1F4F0E9460189E
:1036F00089819A8126960FB6F894DEBF0FBECDBFA2
:10370000CF91DF911F910F91089581E00E9426379C
:1037100080E895E20E947F3510921F0110922001EF
:1037200085E0809364030895E82FF0E0EE0FFF1F1B
:10373000E55FFC4F25913491C901089591E0909384
:103740005F0480936004089591E090936A048093ED
:103750006B04089591E09093680480936904089540
:1037600021E020936104A2E6B4E0FC0186E0019030
:103770000D928150E1F7089580936D0460936E047B
:103780005093700440936F04089581E08093720415
:10379000089581E0809336040895109236040895C8
:1037A00090E080913404833009F091E0892F0895EE
:1037B00080916804882319F490E0892F089590E09F
:1037C000809171048730C9F791E0892F0895809125
:1037D0006904089590916904913031F080E095304A
:1037E00009F0089581E0089581E0089582E694E06B
:1037F000089580916B0408958091340490E00895B9
:1038000020E04C9711F0822F089521E0822F089537
:1038100080916F0490917004089580916E040895D2
:10382000FC0162817381808191814CE251E00E94B0
:103830002B2F0895FC0181E080936C0462817381D9
:103840008081918144E351E00E942B2F08950F93D2
:103850001F938C0187E39CE10E946C258FE080938D
:103860007104C8010E9435261F910F91089580931D
:103870007104813009F008950E947C21089580919F
:1038800034048350823018F090E0892F089580919D
:103890002D018823C9F784E494E00E9444378823EB
:1038A00099F30E94A82091E09827EFCF0F931F93E0
:1038B0008C0187E39CE10E946C258FE0809371046A
:1038C000C8010E941D261F910F9108950E943B2E52
:1038D00063E044E00E94E12A85E0809342048EE99F
:1038E0009BE10E94992584EA9BE10E949E2588EB3A
:1038F0009CE10E94A8258AE19CE10E94AD2580EB15
:103900009BE10E94B2258CEB9BE10E94B7250E94AF
:103910000A2184E494E00E943F378CE291E00E9407
:10392000002F80E391E00E94002F10923604109245
:103930005F04109260041092610410926904109266
:103940006A0410926B041092340480EE9EE267E3E6
:1039500074E00E9494131092680410926C04109208
:103960006D0410926E041092700410926F0408950A
:10397000CF93DF93EC0184E494E00E944C378823DA
:1039800029F4CE0164E474E00E945637DF91CF91B0
:1039900008950F931F93DF93CF9300D000D0CDB73E
:1039A000DEB78E010F5F1F4FB8010E94DD30E5E1E9
:1039B000F3E065917491C8010E949830882369F5FD
:1039C000E3E1F3E065917491C8010E949830882387
:1039D00031F5E1E1F3E065917491C8010E949830FE
:1039E0008823F9F4EFE0F3E065917491C8010E9437
:1039F00098308823C1F4EDE0F3E065917491C8013B
:103A00000E949830882389F40F900F900F900F90A8
:103A1000CF91DF911F910F91089585E0F5CF84E05C
:103A2000F3CF83E0F1CF82E0EFCF81E0EDCFCF9213
:103A3000DF92EF92FF920F931F93DF93CF9300D00B
:103A400000D0CDB7DEB7CB017A01690121E0209328
:103A500059048E010F5F1F4FB8010E94DD30E5E170
:103A6000F3E065917491C8010E949830882309F0B1
:103A700047C0E3E1F3E065917491C8010E9498307A
:103A8000882309F03FC0E1E1F3E065917491C8013A
:103A90000E949830882309F037C0EFE0F3E0659189
:103AA0007491C8010E949830882381F5EDE0F3E01D
:103AB00065917491C8010E949830882349F58093DC
:103AC000430484E291E00E94002FC70164E271E0A8
:103AD0000E94522F88E291E00E94002FC60168E206
:103AE00071E00E94522F0F900F900F900F90CF9186
:103AF000DF911F910F91FF90EF90DF90CF9008958D
:103B000085E0DDCF84E0DBCF83E0D9CF82E0D7CF83
:103B100081E0D5CF8AEA9BE10E94A3251092680438
:103B200087E39CE10E946C258FE0809371048FE114
:103B300093E00E9435260895EF92FF920F931F9312
:103B4000DF93CF93CDB7DEB7C755D0400FB6F8940B
:103B5000DEBF0FBECDBF909134048091350498171D
:103B600011F4933039F580EE9EE267E374E00E9431
:103B700094138091340480933504E82FF0E0ED3104
:103B8000F10580F00E94F514C95ADF4F0FB6F89482
:103B9000DEBF0FBECDBFCF91DF911F910F91FF9080
:103BA000EF900895EC5CFF4FEE0FFF1F0590F4912E
:103BB000E02D09940E942E14882319F0809134047A
:103BC000DCCF87E394E00E94D8138823B9F38AEC12
:103BD00093E00E947C12809134040E94EF100E94B6
:103BE000F514ECCF80917104873071F684E094E095
:103BF0000E94271C8AE080933404809171048730EE
:103C000019F60E948A1D8FE080933404BDCF809105
:103C10007104873009F0B8CF82E693E00E94271C38
:103C200089E080933404B0CF80917104873009F02B
:103C3000ABCF84E080933404A7CF809171048730A8
:103C400009F0A2CF8CE493E00E947C12E09057042C
:103C5000F0905804FE0139968BE0DF011D928A95A1
:103C6000E9F78AE08D831E82F887EF838E010B5F70
:103C70001F4FC8010E94002F84EF93E0B8010E94FB
:103C8000742FC70161E040E098010E949232C801A0
:103C90000E94561C86E18093340476CF8CE394E036
:103CA0000E94D813882309F46FCFABCF80916804AA
:103CB000882309F469CF80917104873009F064CFBB
:103CC00080916904813009F4ACC1853009F4A9C13F
:103CD00080913604882309F4ACCF80E180933404CA
:103CE00088EC90E06CE374E00E9494134DCF8091D7
:103CF0006C04882309F448CF86E893E00E947C1284
:103D00008CE793E00E94271C88E0809334043CCF2A
:103D10000E94A0210E949320843009F035CF0E9498
:103D20004F251092690410926B0482E08093340452
:103D30002BCF80913604882309F426CF10923404C7
:103D400023CF0E945225882309F01ECF83E0809361
:103D500034041ACF809136048823C1F30E9452257F
:103D6000882309F066CF88EB93E00E947C120E94C2
:103D70004B2585E08093340407CF80917104873010
:103D800009F002CF10926C048DE0809334041092FD
:103D90004104FACE0E945225823009F0F5CE86E920
:103DA00093E00E947C1281E993E00E94271C87E047
:103DB00080933404E9CE80913604882309F4F3C05B
:103DC00080916904813019F0853009F01ACF809113
:103DD0002D01882309F0F4C084E494E00E94443764
:103DE000882309F43AC10E94A820882309F46EC1EF
:103DF0008CE180933404C8CE80917104873009F03F
:103E0000C3CEFE01749681E1DF011D928A95E9F728
:103E100080E18D831E82F887EF838E010B5F1F4F39
:103E2000C8010E94002F8FE693E0B8010E94742F12
:103E30000E94A210882309F047C180E3B8010E94C4
:103E4000072FC8010E94561C8CE0809334049CCE3E
:103E500080917204882309F497CE80E493E00E9455
:103E60007C1280E391E00E94262680E391E00E948C
:103E7000002F0E94C12588E18093340485CE809173
:103E80007104873009F080CE8091430481508230E4
:103E900008F0CFCE00912A0110912B01C80167E1F3
:103EA00073E00E94973A0817190709F0C2CE80E321
:103EB00091E00E94002F8CE291E00E94002F87E1A8
:103EC00093E00E94593ABC0188E291E08E010F5FB5
:103ED0001F4FA8010E94C030C80160E371E00E943A
:103EE000AB0A882309F4A5CE80913101882309F417
:103EF000A0CE80912D01882309F09BCE8CE291E029
:103F00000E94002F84E291E06CE271E00E94522F47
:103F100090CE0E94A0210E94A820882309F489CE77
:103F200080913604882309F02FCE0E94A4202CCE45
:103F300080917104873009F027CE84E094E00E94DC
:103F4000271C8BE1809334041FCE8091710487304D
:103F500009F01ACE10926A048DEF93E00E94271C9C
:103F60008AE18093340410CE80917104873009F087
:103F70000BCE80E797E16AE574E00E94941384E039
:103F80008093340401CE80917104873009F45DC0C0
:103F9000853009F0F9CD88E293E00E947C1284E03C
:103FA00080933404F1CD80E00E9474240E94A42008
:103FB00081E08093340485EA93E00E947C12E4CD92
:103FC0001092720485EC9BE10E94BC25FE01B5961F
:103FD00083E3DF011D928A95E9F782E38D831E82D8
:103FE000F887EF838E010B5F1F4FC8010E94002FDF
:103FF00088ED93E0B8010E94742F8CE291E0B80143
:104000000E94522F82E2B8010E94072FC8010E942D
:10401000561C8CE291E00E94002F87E180933404CB
:10402000B3CD86E593E00E947C1288EE93E06AE5CA
:1040300074E00E94941310926A048DEF93E00E9442
:10404000271C8BE0809334049FCD87E393E00E948C
:104050007C1284E08093340497CD84E494E00E9441
:1040600073377C019093580480935704109259043D
:1040700088E291E00E94002F87E19DE10E94942553
:10408000FE0139968BE0DF011D928A95E9F78AE0FF
:104090008D831E82F887EF838E010B5F1F4FC8014F
:1040A0000E94002F82EE93E0B8010E94742FC70196
:1040B00061E040E098010E949232C8010E94561CC3
:1040C00083E18093340460CD81E3B8CE8AE594E047
:1040D0000E94D813882309F457CD109261048BEE07
:1040E00093E00E94271C89E1809334044DCD809396
:1040F000A704E091A804F091A904309709F009956C
:1041000008958093AB04089581E08093AC040895F2
:104110008093AA04089581E08093AD04089581E01E
:104120008093AE0408958091A7040895009759F0F4
:1041300090939D0480939C0470939F0460939E04CD
:1041400082E08093A604089583E08093A6040895F6
:1041500080919404882339F48091A604882309F47B
:10416000089581E0089581E008958091940490E09D
:1041700008950E942B2608950E94262608950E94E5
:10418000302608950E943E260895FF920F931F93B4
:104190008C01F62E8FE691E20E946C258FE08093D1
:1041A000A504F0929404C8010E9435261F910F9136
:1041B000FF9008958F929F92AF92BF92CF92DF921D
:1041C000EF92FF920F931F937C016B015A014901FB
:1041D00008E311E0C8010E94002FC701B8010E9446
:1041E000522FD0929B04C0929A04C5010E947B2555
:1041F0009092A9048092A80481E08093A6041F9164
:104200000F91FF90EF90DF90CF90BF90AF909F9075
:104210008F90089588E391E00E94002F10929B04F4
:1042200010929A0410929D0410929C0410929F0484
:1042300010929E048FE08093A50484E08093A704ED
:104240001092A9041092A8048EE08093AA04109200
:10425000AB041092AC04109294041092A6048CE764
:1042600091E20E948A2508951F93182F8091A60439
:104270008230B1F01093A704E091A804F091A90452
:10428000309711F0812F0995143021F41092A90470
:104290001092A804109294041092A6041F910895FD
:1042A000E0919E04F0919F04309721F380E00995FE
:1042B000E1CF88E890E20E9471258EE08093AA0405
:1042C0008FE691E20E946C258FE08093A5048DE03B
:1042D0008093940481EA94E00E94352608958093A7
:1042E000A504813009F00895809194048823D9F7BA
:1042F00084E00E94342108958091940481110895EE
:104300008091A604823099F084E08093A704E09124
:10431000A804F091A904309709F009951092A90416
:104320001092A804109294041092A6040895E091AB
:104330009E04F0919F04309739F380E00995E4CF13
:104340000F931F93DF93CF93CDB7DEB7CB54D040FD
:104350000FB6F894DEBF0FBECDBFFE01359687E4E1
:10436000DF011D928A95E9F786E489831A82FC832E
:10437000EB8380919404873009F4B5C0883088F0CD
:104380008B3009F4BBC08C3050F18D3009F4D3C0B0
:104390008D3008F496C08E3009F441C10E94F514A6
:1043A00012C0833041F08430D0F1853009F4F5C07B
:1043B000863008F04AC08091A504873009F487C090
:1043C000853009F452C0C55BDF4F0FB6F894DEBFED
:1043D0000FBECDBFCF91DF911F910F91089589300E
:1043E00009F491C08A3008F45FC09091A5049A3016
:1043F00029F08091AE04882309F4F6C001E0E09131
:104400009E04F0919F04309731F0802F099510920F
:104410009F0410929E04002341F181E027C0813067
:1044200009F4C3C0823028F18091A504873041F699
:104430008091AB04882309F04AC087E194E00E9490
:104440007C1284E00E943421BECF80EA94E00E9476
:10445000D813882351F48091A504833009F4E7C070
:10446000853019F0823009F0AECF84E00E9434210B
:10447000AACF8091A704813009F4C5C0843009F027
:10448000A2CF0091A604013009F09DCF80E00E94E8
:1044900077200E948A1D84EF91E060EA74E00E9418
:1044A0009413009394048FCF8091AD04882309F076
:1044B00097C08091A5048530C1F2813009F083CF87
:1044C000D4CF8091A504853051F08B3099F40E94AF
:1044D000592179CF8091A604833009F0B4C084E0DB
:1044E0000E94342170CF8091A504873009F4B5C0B3
:1044F0008530A9F3813009F066CFF1CF8091A50412
:104500008823B1F7ECCFE0919C04F0919D040995CC
:10451000882309F458CF0E94C1258BE094E00E94C3
:104520007C128CED95E060EA74E00E9494138AE0BE
:104530008093940448CF0091AA040E3009F4B9CFB7
:104540000A3041F20B3008F076C0063009F4A3C0FF
:10455000093009F478C08091A604823009F4CBC0F8
:10456000833009F4BDC0813009F02DCF043009F447
:104570007EC1053008F0DEC0013009F464C00130AE
:1045800008F469C1023009F451C1033009F412C1C1
:10459000109294041092A60416CF8091AC04882344
:1045A00009F095CF8091A5040BCF80EA94E00E949A
:1045B000D813882309F059CF0E94D81B882309F407
:1045C00002CF0E94EA1B882309F459C081E890E2D7
:1045D0000E948F258EE294E062E00E94C520F3CE17
:1045E00089E080939404EFCE993059F0953049F0EA
:1045F000913039F080EA94E00E94D813882309F4BE
:10460000E2CE00E0FCCE8091A604823019F0833027
:1046100009F0D9CE0E9477200E945921D4CE85E995
:1046200094E00E94D813882309F4CDCE50CF81E0C6
:104630000E943421C8CE0D3009F44CCF0E30D1F198
:104640000C3009F088CF84E690E065E974E00E94C0
:1046500094138EE080939404B6CE1092AD048BE850
:1046600090E20E94BC251092AE048FE890E20E9476
:10467000852588E394E068E00E94C520A4CE8FE100
:1046800094E00E947C1288E391E00E94002F84E075
:104690000E94342198CE8FE691E20E946C258FE033
:1046A0008093A5048CE08093940483E494E00E94BA
:1046B000352689CE88E890E20E9471258EE08093AD
:1046C000AA048FE691E20E946C258FE08093A504F6
:1046D0008DE08093940481EA94E00E94352673CEA5
:1046E0000630A0F4013008F0C0CE85E994E06BE01C
:1046F0000E94C52068CE063098F4013008F0B5CE8F
:104700008BE894E067E00E94C5205DCE083009F494
:10471000ACCE0B3009F4A9CE073009F039CFE5CF84
:10472000083009F4A2CE0B3009F49FCE073009F00F
:104730002FCFE6CF073009F48EC0083008F0A5C0AF
:10474000053009F025CF8E010F5F1F4FC8010E9471
:10475000002F87E794E0B8010E94742F88E391E06E
:10476000B8010E94522F83E794E0B8010E94742F91
:1047700080919A0490919B0461E040E098010E942E
:10478000923281E794E0B8010E94742F8CED95E09D
:1047900060EA74E00E9494138FE691E20E946C2517
:1047A0008FE08093A50486E080939404C8010E9462
:1047B0001D2609CE8E010F5F1F4FC8010E94002FDA
:1047C00087E694E0B8010E94742FC8010E9441104E
:1047D00082E2B8010E94072F0E941E11882321F453
:1047E0000E9419118823A1F084E694E0B8010E9488
:1047F000742FC8010E943B1080E694E0B8010E942B
:10480000742FC8010E94351082E2B8010E94072F60
:104810008FE691E20E946C258FE08093A50483E0EF
:1048200080939404C8010E941D26CDCD84E890E2B7
:104830000E9476251092AC048FE691E20E946C25CE
:104840008FE08093A50485E08093940487E594E04D
:104850000E943526B8CD81E08093A704E091A8049A
:10486000F091A904309709F493CE099591CE8FE683
:1048700091E20E946C258FE08093A504009394043C
:104880008EE494E00E9435269ECD083009F45BCF7B
:104890000B3009F07DCE57CF08958091AF04089575
:1048A0009093B1048093B00408959093B3048093DF
:1048B000B2047093B5046093B40408950E949320E9
:1048C000813019F020E0822F089520E08091B20419
:1048D0009091B304892BB9F721E0822F08950E94AB
:1048E00085108093AF0408951092AF04882309F4D3
:1048F000089580E00E94D110089591E09093AF0454
:10490000882309F4089581E00E94D11008950F933F
:104910001F93DF93CF93CDB7DEB7C154D0400FB60E
:10492000F894DEBF0FBECDBF8091B604823009F48B
:104930005CC0833070F0843009F46EC0843008F0BD
:104940004BC00E9493208230D9F584E08093B60456
:1049500037C0882399F50E949320813009F467C0FD
:10496000843071F58091AF04882351F187EB94E096
:104970000E94D813882321F1FE0135968DE3DF01D3
:104980001D928A95E9F78CE389831A82FC83EB8375
:104990008E010F5F1F4FC8010E9423100E94AA0FB3
:1049A000BC014091B0045091B104C8012CE434E240
:1049B0000E94DA2081E08093B60402C0813021F1A8
:1049C000CF5BDF4F0FB6F894DEBF0FBECDBFCF91E8
:1049D000DF911F910F910895853091F70E949320E8
:1049E000843071F71092B604EBCF0E94932081308F
:1049F000C9F3843029F788EC90E067EB74E00E94FB
:104A000094131092B604DCCF0E9493208823C1F641
:104A100082E08093B604D4CF0E949320823081F24A
:104A20001092B3041092B2041092B604C9CF8091D0
:104A3000AF04882389F08091B2049091B304009769
:104A400009F4BECF6091B4047091B5040E94962021
:104A500083E08093B604B4CF0E94A42085E08093C5
:104A6000B604AECF0E9485108093AF041092B104BB
:104A70001092B0041092B3041092B2041092B504D4
:104A80001092B4041092B60488EE93E067EB74E0E1
:104A90000E949413089581E08093A50508951092D3
:104AA000A50508958091A605823091F0833050F0DD
:104AB000833061F0843041F48091A505882351F45E
:104AC00084E008958130C1F380E0089583E0089583
:104AD00082E0089581E008959093B6058093B5052E
:104AE00008959093B8058093B70508959093BA05FB
:104AF0008093B90508959093BC058093BB050895F4
:104B00009093BE058093BD0508959093C005809352
:104B1000BF0508959093C2058093C10508959093B1
:104B2000C4058093C30508959093C6058093C50579
:104B300008959093C8058093C70508959093CA057A
:104B40008093C90508959093CC058093CB05089573
:104B50009093CE058093CD0508959093D0058093D2
:104B6000CF0508959093D2058093D1050895909331
:104B7000D4058093D30508959093D6058093D505E9
:104B8000089580E06AE10E948C2B08951F93CF93D3
:104B9000DF93FC0114911123B9F0EC012196612FF0
:104BA00062956F706A30B0F0695C80E00E948C2B77
:104BB000612F6F706A3060F0695C80E00E948C2B1E
:104BC000FE011491112351F7DF91CF911F910895A8
:104BD000605DF3CF605DE9CF1F93CF93DF93FC015E
:104BE0001081112331F1EC010FC0695C80E00E945B
:104BF0008C2B612F6F706A30A8F0695C80E00E9496
:104C00008C2B18811123A9F02196612F62956F706A
:104C10006A3058F7605D80E00E948C2B612F6F70C6
:104C20006A3058F7605D80E00E948C2B1881112358
:104C300059F7DF91CF911F910895BC0180E00E9448
:104C40006D2C80E06DE00E948C2B0895BC0180E00B
:104C50000E946D2C0895BC0180E00E949D2B089558
:104C6000BC0180E00E94E72B0895BC0180E00E9417
:104C7000E72B80E06DE00E948C2B089580E00E947D
:104C8000722B0895EF92FF920F931F93DF93CF93B0
:104C900000D00F92CDB7DEB78C017B01BE016F5FF4
:104CA0007F4FAE014E5F5F4F98010E9413348981A0
:104CB000882361F4F70110820F900F900F90CF912D
:104CC000DF911F910F91FF90EF9008958A81F70176
:104CD0008083C8010E941B30EFCFEF92FF920F93A9
:104CE0001F93DF93CF9300D000D0CDB7DEB78C01F8
:104CF0007E010894E11CF11CB701A8010E94233534
:104D00006B817C8189819A8140E451E00E942B2F44
:104D1000C801B701A8010E9423356B817C8189817C
:104D20009A8144E451E00E942B2F82E08093AF05EA
:104D30000F900F900F900F90CF91DF911F910F91D7
:104D4000FF90EF9008952F923F924F925F926F9253
:104D50007F928F929F92AF92BF92DF92EF92FF92DB
:104D60000F931F93DF93CF93CDB7DEB7A5970FB601
:104D7000F894DEBF0FBECDBF8FB7F8948FBFE09120
:104D8000A705F091A805D480DD2009F458C038E0CB
:104D9000A32EB12CAC0EBD1E22E0222E312C2C0EE7
:104DA0003D1E4E010894811C911C96E0692E712CC9
:104DB0006C0E7D1E80E1482E512C4C0E5D1E2DC0C8
:104DC0009D3009F4BEC09A3029F48091AE058D3033
:104DD00009F48BC0192F892F6CE371E00E94072F13
:104DE00080913D01E82FF0E0E230F10574F0E090B1
:104DF0003E01F0903F01D7018C9111969C918E332A
:104E000009F4C0C08B3209F4CCC01093AE05DA941B
:104E1000B1F0E091A705F091A805CF010E943E31C5
:104E2000982F8091AF05813081F1813048F2823036
:104E300009F44CC0192F1093AE05DA9451F7809104
:104E4000A605813009F4F7C0813008F45EC08230D5
:104E500009F404C1843009F465C0A5960FB6F8942E
:104E6000DEBF0FBECDBFCF91DF911F910F91FF909D
:104E7000EF90DF90BF90AF909F908F907F906F905A
:104E80005F904F903F902F900895192F892F6CE3DA
:104E900071E00E94072F80913D0190E02091B005C4
:104EA0003091B1058217930708F4AFCFE091BB05AD
:104EB000F091BC05309719F08CE391E009958CE3F3
:104EC00091E00E94002F1092AF059FCF9D3079F0A6
:104ED0009A3021F48091AE058D3039F0192F892F49
:104EE0006CE371E00E94072F90CF1AE08ECF809183
:104EF000B2058550823008F48BC08CE391E00E94AB
:104F0000002F1092AF051DE080CF8091A50588236A
:104F100009F4A3CF8FE08093F406559A81E0809343
:104F2000A6059BCF89EA95E00E94D813882309F44F
:104F300094CF8FE08093F406559A81E08093A60584
:104F40008CCF80913D018823B9F000913E011091F2
:104F50003F01D8019C919B3209F4C8C0892F80532E
:104F60008A3008F092C0E091B905F091BA05309707
:104F700019F08CE391E009958CE391E00E94002FF9
:104F80001DE043CF903209F040CFE091D505F0917C
:104F9000D605309709F009958CE391E00E94002F27
:104FA00034CF993409F031CFEE0DFF1D3197808158
:104FB0008A3309F02ACFC70167EE76E00E94973A5C
:104FC000E816F90609F021CF8CE391E065E070E086
:104FD000A5010E94C03019821B821A82C501B4014A
:104FE000A10195010E9413348981882309F40DCF12
:104FF000C5010E9409308A3309F007CF8A819B815D
:105000009093B1058093B00581E08093AF05C4CF44
:10501000E091C505F091C605309709F46ECF8091F7
:10502000B3059091B40560E471E044E451E02CE3F1
:1050300031E0099562CF8091F4068830E1F0863046
:1050400009F4C1C08D3009F008CF55988091A505AD
:10505000882309F043C11092A605FFCE8091A505D3
:10506000882309F0FACE8FE08093F406559A81E008
:105070008093A605F2CE55988091A505882309F462
:10508000A8C082E08093A605E8CE933509F4BFC09E
:10509000943409F4A8C08CE391E0B5010E94DD309E
:1050A000C5016DE375E04EE050E00E9490318093C1
:1050B000F406863009F403C1873008F076C08230E8
:1050C00009F402C1833008F0D0C0813021F488ECAB
:1050D00096E00E947C12E091B505F091B6053097FC
:1050E00009F44ACF8091F406099546CF8CE391E00C
:1050F000B5010E94DD308BE26AE3A5019E01245FC9
:105100003F4F85010E947634CE010C966AE975E026
:105110004DE050E00E9490318093B205863009F452
:10512000A3C1873008F0ABC0823009F405C18330D9
:1051300008F0EFC0882309F49FC1813009F01CCF2B
:10514000C501B20140E050E00E9423358E010C5EA3
:105150001F4FC201B8010E944226C201BE016B5E10
:105160007F4F0E944226C201BE016A5E7F4F0E94AD
:105170004226C201BE01695E7F4F0E944226C201E3
:10518000BE01685E7F4F0E944226C201BE01675E7B
:105190007F4F0E944226E091D105F091D2053097D1
:1051A00009F4EACEC8010995E7CE893009F462C056
:1051B0008A3008F04CC0883009F08DCF8EE996E037
:1051C0000E947C1288CF55988091A505882309F408
:1051D00042CF88EC90E069EA75E00E94941384E085
:1051E0008093A6053ACEC80165E776E00E94973A1B
:1051F0000817190709F04FCFE091BF05F091C005DE
:10520000309709F4B9CE80E090E00995B5CEC80199
:1052100062E876E00E94973A0817190709F03BCF39
:105220008CE391E067E070E0A5010E94C030C50109
:1052300069E576E04EE050E00E949031E091B705DC
:10524000F091B805309709F497CE099595CE8D3039
:1052500009F43FC08E3009F03ECF87E996E00E9406
:105260007C12C5010E94721236CF833019F185304D
:1052700009F031CF81EC96E00E947C122CCF8A306D
:1052800009F4C9C08B30A0F5883009F4A3C0893077
:1052900009F072CEC501B20140E050E00E94233512
:1052A000E091CF05F091D005309709F465CEC201A9
:1052B000099562CE8CED96E00E947C120CCF83EBB8
:1052C00096E00E947C1207CF8FEC96E00E947C1241
:1052D00002CF85EA96E00E947C12FDCE80EE9EE22F
:1052E00069EA75E00E94941384E08093A605B5CD29
:1052F0008C3009F41AC18C3008F401C18D3009F0EA
:105300003BCE8AE896E00E947C12C5010E94721290
:1053100033CE843009F447C0853038F1C5010E948E
:105320007031C501B40143EB55E095010E9413347F
:10533000C5010E946D2620CEC5010E947031C501B5
:10534000B401A30120E030E00E9413348981882356
:1053500009F412CEE091C705F091C805309709F421
:105360000BCE8E819F81099507CEC5010E947031B9
:10537000C501B401A30120E030E00E94133489810B
:10538000882309F4F9CDE091C305F091C405309765
:1053900009F4F2CD20E08E819F81892B09F021E074
:1053A000822F0995E9CDC5010E947031C501B40174
:1053B000AE01465E5F4F95010E9494338981882338
:1053C00009F4DACDC5010E9409308C3209F4C1C05C
:1053D0001982D2CDC501B201A5010E942335C501B4
:1053E0000E9409308C3209F0C7CDC5010E941B30E4
:1053F000C501B401A30120E030E00E94133489818B
:10540000882309F4B9CDE091CD05F091CE05309710
:1054100009F0A7CFB1CDC5010E947031C501B4011B
:10542000A30195010E9413348981882309F4A4CD36
:10543000C5010E9409308C3209F09ECDC5010E9441
:105440001B30C501B401A30120E030E00E941334F9
:105450008981882309F490CDE091CB05F091CC05AA
:10546000309709F07ECF88CD1092B4051092B30525
:10547000C5010E946D2680CDC5010E947031C50115
:10548000B401A10195010E9413348981882309F494
:1054900073CDC5010E9409308C3209F06DCDC50174
:1054A0000E941B30C501B401AE014C5F5F4F9501F6
:1054B0000E9413348981882309F45ECDC5010E94BE
:1054C00009308C3209F058CDC5010E941B30C5014E
:1054D000B401A30120E030E00E94133489818823C5
:1054E00009F44ACDE091D305F091D405309709F441
:1054F00043CD4E815F818A816C8109953DCDC50187
:105500000E947031C501B401A30120E030E00E9487
:1055100013348981882309F42FCDE091C905F091D6
:10552000CA05309709F01DCF27CDC5010E94703103
:10553000C50161E976E00E947030882309F41CCD32
:10554000E091C105F091C205309709F415CD099598
:1055500013CDC5010E941B308981882309F40CCD2D
:10556000C501B401AE01425E5F4F95010E949433C4
:105570008981882309F400CDC5010E9409308C324D
:1055800009F026CFC5010E941B308981882309F4C8
:10559000F3CCC501B401AE014E5D5F4F20E030E0B9
:1055A0000E9494338981882309F4E6CCE091BD05FB
:1055B000F091BE05309709F4DFCCCE014A960995EB
:1055C000DBCC9093A8058093A70555985D98109221
:1055D000A5051092A6058FE08093F4061092AE0503
:1055E0001092AF051092B6051092B5051092B8054D
:1055F0001092B7051092BA051092B9051092BC0529
:105600001092BB051092BE051092BD051092C00508
:105610001092BF051092C2051092C1051092C405E8
:105620001092C3051092C6051092C5051092C805C8
:105630001092C7051092CA051092C9051092CC05A8
:105640001092CB051092CE051092CD051092D00588
:105650001092CF051092D2051092D1051092D40568
:105660001092D3051092D6051092D50580E00E94C5
:105670001D2C80E00E943D2B08959AE0899FF00147
:105680001124E952FA4F81E0808311820895282F76
:1056900030E0F901EE0FFF1FEE0FFF1FEE0FFF1FAF
:1056A000220F331FE20FF31FE952FA4F10820895C1
:1056B0009AE0899FF0011124E952FA4F81818823F1
:1056C00019F020E0822F08958FB7F8948FBF20E063
:1056D0000084F185E02D84819581892B99F721E063
:1056E000822F0895282F30E0F901EE0FFF1FEE0FF3
:1056F000FF1FEE0FFF1F220F331FE20FF31FE952B0
:10570000FA4F0084F185E02D2681378184819581CF
:10571000281B390BC9010895262F9AE0899FF001B3
:105720001124E952FA4F8081882309F40895608595
:105730007185822F0E94FE300895EF92FF920F93A1
:105740001F93CF93DF93DB019AE0899FF00111242F
:10575000E952FA4F8081882399F0E084F184CD9159
:10576000DC91119712960D911C911397C017D107D8
:1057700039F08991B7010E94FE30C017D107C9F7EF
:10578000DF91CF911F910F91FF90EF9008950F93AC
:105790001F93CF93DF93DB019AE0899FF0011124DF
:1057A000E952FA4F8081882369F0008511858C9138
:1057B000882341F0EB01B8010E94FE3089812196D7
:1057C0008823C9F7DF91CF911F910F9108950F930F
:1057D0001F93CF93DF93EB019AE0899FF00111248F
:1057E000E952FA4F8081882311F480E017C00085C8
:1057F0001185CB010E94593A2FB7F8942FBFF801B9
:105800002681378144815581241B350B28173907A0
:1058100060F3FE018491882331F481E0DF91CF9120
:105820001F910F9108952196B8010E94FE30FE014C
:1058300084912196882389F3F7CFCF92DF92EF925C
:10584000FF920F931F939AE0899F7001112487EDB7
:1058500095E0E80EF91E74E0C72ED12CCE0CDF1CAB
:10586000862F642F41E021E086010E944D38C60159
:105870000E94D438F7011082808591850E94F33010
:105880001F910F91FF90EF90DF90CF900895E7ED7B
:10589000F5E021E030E048E451E01082C9010197D1
:1058A00049F4518740873A962F5F3F4F1082C901D4
:1058B0000197B9F3019741F022303105A4F388EA4A
:1058C0009CE20E946A13089582E591E091878087A7
:1058D00088EA9CE20E946A130895CF92DF92EF92C9
:1058E000FF920F931F93DF93CF9300D000D0CDB7DB
:1058F000DEB7182FCB01BE016F5F7F4F0E94DD30F6
:105900008AE0189FF0011124E952FA4F8081882320
:1059100091F0C084D18409811A81EB80FC800E153E
:105920001F0549F0F80181918F01B6010E94FE30F8
:10593000E016F106B9F70F900F900F900F90CF91EE
:10594000DF911F910F91FF90EF90DF90CF9008951E
:105950008091D705882379F08091D805813009F4AA
:1059600058C08130E0F0823031F48BED95E00E9438
:10597000D4381092D8058091E105882379F0809180
:10598000E205813009F45CC0813030F1823031F4BD
:1059900085EE95E00E94D4381092E20508958FB705
:1059A000F8948FBFE091DF05F091E0058481958147
:1059B000892B09F38BED95E00E94EC388091DF058F
:1059C0009091E0050E943E318093D90581E080935B
:1059D000DA058093D805CFCF8FB7F8948FBFE091C9
:1059E000E905F091EA0584819581892BB9F285EE6C
:1059F00095E00E94EC388091E9059091EA050E94BB
:105A00003E318093E30581E08093E4058093E205D5
:105A100008958091D90580FD2AC08BED95E00E9404
:105A2000EC388091DA05883081F18091DA058F5F5A
:105A30008093DA058091D90586958093D9059BCF0F
:105A40008091E30580FD18C085EE95E00E94EC385A
:105A50008091E4058830A9F08091E4058F5F809300
:105A6000E4058091E30586958093E30508958BED29
:105A700095E00E94D438D5CF85EE95E00E94D438C9
:105A8000E7CF82E08093E205089582E08093D80515
:105A900072CF8091B306882351F41092B40680919E
:105AA0006B00806180936B0081E08093B306089562
:105AB0008091B306882361F080916E008D7F809382
:105AC0006E0080916B008F7E80936B001092B30606
:105AD00008958CE591E008951F920F920FB60F92F2
