:100000000C9478030C9495030C9495030C946A2D2E
:100010000C9495030C943C2E0C94EB140C945D2ED4
:100020000C9495030C9495030C9495030C947D14F7
:100030000C9495030C9495030C94892D0C949503C2
:100040000C9495030C9495030C94F6350C94A635FA
:100050000C949C350C9495030C9495030C94950387
:100060000C9495030C949503AA1E881EA11E991E3C
:10007000DB1ECA1EC21DBD1EFC1EF21DFD1D141E70
:10008000071E771EC21D561E4E1EC21DC21D1D1EFE
:10009000C21DC21D3F1F281FC31FA51F981FB41FCD
:1000A000891F737461636B20636F6C6C6973696F14
:1000B0006E21004552524F520A004F4B0A00574CD6
:1000C0004D2074696D656F7574002D3E4E6F726DB5
:1000D000616C002D3E48696768002D3E4C6F7700CB
:1000E0005A0A00430049006964007443616C4F661A
:1000F000667365740077647443616C006261744375
:10010000616C00776C6D54696D656F757400726514
:10011000626F6F740041504E006369707173656E59
:10012000640069707365727665720073616D706CDE
:1001300065496E74657276616C006C6F67496E74A8
:10014000657276616C00656D7074790066756C6CB3
:10015000007468696E67737065616B006F6E006F25
:1001600066660050494E006E6F74696679006C6F68
:1001700077006869676800726973696E6700756EF9
:100180007265636F676E697A656420636F6D6D6118
:100190006E64006565777269746500454556616CEB
:1001A000004545416464720065657265616400657F
:1001B0007874656E6400736D7300757074696D6535
:1001C0000043757254696D650074696D6500545320
:1001D0005F574B0054535F506F72740054535F412C
:1001E0006464720054535F456E0049505F506F72F3
:1001F000740049505F416464720064697374616E95
:1002000063650050617373776400557365720067AE
:1002100065740077726974656B657900706F7274CC
:100220000061646472657373007365740074736550
:100230007400746F0073746174757300223A220045
:10024000223A22007B00223A002020002C713A0042
:100250002C723A005F5F002C543A002C56633A002F
:100260002C56623A002C553A002C002C73743A003C
:100270003733353300686F6C6F6772616D00000053
:100280006170692E7468696E67737065616B2E6347
:100290006F6D00444437545653435A45484B5A4CAB
:1002A00041515000746F6E797A2E64796E646E736A
:1002B0002E6F7267000D000D0A003A003A003A00F6
:1002C0007368757474696E6720646F776E2E2E2E56
:1002D000005461646A3A20000102040810200052B0
:1002E000454320554E524541440052454320524516
:1002F00041440053544F20554E53454E54005354DF
:100300004F2053454E5400414C4C00DE02DF02EAC0
:1003100002F302FE020703457865436D643A00412B
:10032000542B435245473F00534D532073656E6431
:10033000206572726F7200534D532073656E7400A6
:1003400073656E64696E6720534D5300476F742068
:10035000434D47522E005265676973746572656438
:100360002E0041542B434950484541443D31004102
:10037000542B4349505153454E443D0041542B4367
:100380004D47463D310050494E2072656164792EDB
:100390000041544530003E2043656C6C205265613D
:1003A0006479203C003E2044697361626C696E6729
:1003B0002043656C6C203C003E20456E61626C6998
:1003C0006E672043656C6C203C0021212054696DD0
:1003D000656F75742021210041542B434D47533DD7
:1003E000220041542B434D47523D0041542B43437F
:1003F0004C4B3F0041542B434D47443D0041542B4F
:100400004353510041542B4342430073656E7420A3
:100410004374726C2D5A006E6F2047505253006E19
:100420006F74207265676973746572656400415406
:100430002B43474154543F0041542B4349505345AB
:100440004E440041542B43495053485554004154A5
:100450002B43494943520041542B434946535200D0
:10046000222C22002C220041542B435354543D2271
:10047000002200222C220041542B43495053544166
:1004800052543D22544350222C220041542B4349C4
:100490005041434B0041542B434950434C4F53452B
:1004A0000041542B43495053544154555300434C3D
:1004B0004F5345204F4B00434C4F53454400434F4F
:1004C0004E4E454354204641494C00434F4E4E4505
:1004D0004354204F4B0043616C6C2052656164793A
:1004E000004552524F52004E4F524D414C20504FFA
:1004F00057455220444F574E004F4B00524459002D
:1005000053454E44204641494C0053454E44204FEC
:100510004B0053485554204F4B00534D53205265C8
:1005200061647900554E4445522D564F4C54414715
:100530004520504F57455220444F574E00AE04B708
:1005400004BE04CB04D604E104E704F904FC04006F
:10055000050A0512051A0524054342430043434C8E
:100560004B004346554E00434741545400434950C5
:1005700041434B00434D474C00434D475200434DD0
:10058000475300434D5449004350494E00435245A0
:100590004700435351005044500059055D05620522
:1005A00067056D05740579057E05830588058D054C
:1005B00092059605434F4E4E454354204F4B0049FC
:1005C0005020434F4E464947004950204750525310
:1005D00041435400495020494E495449414C004937
:1005E00050205354415254004950205354415455C3
:1005F0005300504450204445414354005345525603
:100600004552204C495354454E494E47005443509F
:1006100020434C4F5345440054435020434C4F53C8
:10062000494E470054435020434F4E4E4543544992
:100630004E470055445020434C4F534544005544C9
:100640005020434C4F53494E470055445020434F90
:100650004E4E454354494E4700B405BF05C905D425
:1006600005DF05E805F205FC050D0618062406332E
:10067000063E064A064441544120414343455054F6
:100680003A0053544154453A2000756E7265633AFE
:1006900000444541435400756E7265633A005265EB
:1006A0006164792100556E646572766F6C74616760
:1006B000652100506F776572656420446F776E2105
:1006C000004661696C656400436C6F736564004348
:1006D0006F6E6E656374204641494C00436F6E6EC9
:1006E000656374204F4B002B4950442C000D0A00C9
:1006F00011241FBECFEFD8E0DEBFCDBF11E0A0E0D8
:10070000B1E0E0E8F5E702C005900D92A438B1072A
:10071000D9F716E0A4E8B1E001C01D92A13EB107EF
:10072000E1F70E9497030C94BE3A0C9400002F92BC
:100730003F924F925F926F927F928F929F92AF9271
:10074000BF92CF92DF92EF92FF920F931F93DF93AE
:10075000CF9300D000D00F92CDB7DEB72DE088E167
:1007600090E00FB6F894A895809360000FBE209398
:1007700060000E942F110E9418160E9471170E949B
:10078000111A0E94B71A0E94851B0E94F62D0E9422
:10079000CB2E0E94452C0E9490120E94661C0E9443
:1007A0000A210E9430250E94A5040E948A3978946B
:1007B0002E010894411C511C98E1292E312C18C09F
:1007C0000E94EC160E94A2170E944E190E942D1A38
:1007D0000E94D11A0E94A1260E94C4120E9487245E
:1007E0000E949C1D0E9498060E94BE04882359F412
:1007F0000E948E39882321F782EA90E00E947C12C1
:100800000E94F514DDCF0E942E14882389F70E94E0
:1008100083137B018C010E94D70FA0E0B0E0BC01E4
:10082000CD012CE330E040E050E00E94D439E616E0
:10083000F7060807190708F073C00E94FE1380919D
:100840007A008F7780937A00809164008F6E809316
:1008500064002FE320937E0083E080937F0015B82F
:1008600018B81BB80E94BE0F7C01C2010E946F1312
:1008700069807A808B809C805701CC24DD24F6949B
:10088000E79400E010E0E60CF71C081D191DC801F4
:10089000B701A60195010E941A3A2F5F3F4F4F4FB3
:1008A0005F4FCA01B901A60195010E94D4396619AA
:1008B000770988099909603020E0720721E08207F2
:1008C00020E092074CF18FEF9FEF0E942C15809152
:1008D00064008071809364008DE00FB6F894A89551
:1008E000209260000FBE809360000E9471170E94EA
:1008F000111A0E94B71A0E94851B0E94F62D0E94B1
:10090000CB2E0E9490120E94661C0E940A210E9417
:1009100030250E94CD046CCF97FD0AC0CB01D5CF06
:100920000E94C804882309F088CF0E94F51460CF84
:1009300080E090E0CACF882321F482E08093860192
:10094000089581E0809386010895109285011092A8
:10095000840110920001109201018FEF9FEF90939C
:1009600093018093920189E48093980110928C0105
:100970008FEF8093990180939A01089590E0809180
:1009800085018B3011F0892F089591E0892F08950A
:1009900080910101811181E0089581E080938501BA
:1009A00008958091850108959C0141E08D3294075E
:1009B00010F02CE231E084E690E0AC01249FC0010D
:1009C000259F900D349F900D112467E871E00E94DF
:1009D0009413089588EC90E067E871E00E94941306
:1009E00088E0809385010895FF920F931F93CF9322
:1009F000DF938C01DC0111962C91222309F43FC076
:100A0000C0E0D0E0FF24F3940EC010928C0165E0AA
:100A100071E00E94052FF80121812196822F90E03C
:100A2000C817D90764F5D8011296ED91FC91139778
:100A3000EC0FFD1F80818D3011F08A3031F78091ED
:100A40000601882351F3F0928C01813021F7E09167
:100A50000701F0910801E081EB35B9F0ED3531F493
:100A60001092840185E091E00E94FE2ED80111963B
:100A70002C912196822F90E0C817D907A4F2DF911C
:100A8000CF911F910F91FF900895F092840185E01E
:100A900091E00E94FE2EF8012181BFCF0E94C91B68
:100AA00010928C0185E091E00E94FE2E109284014C
:100AB00084EF94E00E94502480E00E947D240895F9
:100AC0000F931F93DF93CF9300D000D0CDB7DEB745
:100AD0000E94C2208F3F910509F010F590E064E973
:100AE00071E08E010F5F1F4FA8010E94E72FC80120
:100AF0000E94B92040E020919401309195018091AD
:100B00009601909197012817390769F0842F0F906B
:100B10000F900F900F90CF91DF911F910F9108953B
:100B20008FEF90E0DCCF41E0F1CFCF92DF92EF92F8
:100B3000FF920F931F93DF93CF93CDB7DEB7A897A4
:100B40000FB6F894DEBF0FBECDBF0E94C2204E97F5
:100B500008F466C0FE013A968FE1DF011D928A9586
:100B6000E9F78EE189831A82FC83EB8380919201FD
:100B700090919301BFEF8F3F9B0709F453C060E052
:100B800071E00E9420198C01FC0180819181892BE8
:100B900009F0ABC06E010894C11CD11C87E5B601F9
:100BA0000E94052FF8018281938161E040E0960167
:100BB0000E94903284E5B6010E94052FD801149658
:100BC0008C9190E061E040E096010E9490328BE3CE
:100BD000B6010E94052F20919201309193012F5F61
:100BE0003F4F30939301209392018091010190E057
:100BF000281739070CF072C010E0C6010E94BC2013
:100C0000812FA8960FB6F894DEBF0FBECDBFCF914F
:100C1000DF911F910F91FF90EF90DF90CF9008959B
:100C200010E0EECF6E010894C11CD11CC6010E94D9
:100C3000FE2E85EE90E0B6010E94722F0E94DC0F1E
:100C400061E040E096010E94903286E5B6010E9484
:100C5000052F8AE090E061E040E096010E9490322A
:100C600082E4B6010E94052F0E94D81961E040E09D
:100C700096010E94903282E5B6010E94052F0E94E3
:100C8000E71B90E061E040E096010E94903281E530
:100C9000B6010E94052F0E94F91B90E061E040E040
:100CA00096010E949032CE0105960E946F13ED804E
:100CB000FE800F81188580918D0190918E01A09109
:100CC0008F01B0919001E81AF90A0A0B1B0B83EE11
:100CD00090E0B6010E94722FC70174CF80EE90E0C1
:100CE000B6010E94722F11E088CF84E46E0108944F
:100CF000C11CD11CB6010E94052FD8018D919C9179
:100D000061E040E096010E94903248CF80918401DA
:100D1000813051F088EC90E067E871E00E94941314
:100D200088E080938501089585E08093850108958A
:100D3000AF92BF92CF92DF92EF92FF920F931F93E9
:100D4000DF93CF93CDB7DEB72E970FB6F894DEBF03
:100D50000FBECDBF90918501892F82508630C0F1A2
:100D6000953009F441C09630E8F0983009F4C0C0DD
:100D7000993008F056C0963009F47CC1973009F4D8
:100D800070C12E960FB6F894DEBF0FBECDBFCF91C7
:100D9000DF911F910F91FF90EF90DF90CF90BF9068
:100DA000AF900895923009F4B9C0933008F44CC064
:100DB000933009F42AC1943021F780918601813063
:100DC00009F48EC18230E9F685E080938501D9CFA0
:100DD00087E891E00E94D813882309F07BC09091A6
:100DE0008501953009F0BFCF80918C01882349F2AD
:100DF00010928C0189E091E00E94FE2E8091060104
:100E0000882309F079C10E942E14882309F09EC11D
:100E100080910A01882309F42AC186E08093850124
:100E2000B0CF993009F408C19A3009F0AACF87E809
:100E300091E00E94D813882309F4A3CF399A4198EE
:100E40008BE0809385019DCF992309F44AC09130AE
:100E500009F097CF399A419A0E94BE0F5C010E9417
:100E6000B90F7C0187E891E00E946F13B501769578
:100E7000679580E090E02091870130918801409152
:100E8000890150918A01620F731F841F951F00E032
:100E900010E0A80197010E941A3ACC24DD246A15BB
:100EA0007B058C059D0510F40E944E050E94CD0F18
:100EB00024E630E0AC01429FC001439F900D529F59
:100EC000900D112467E871E00E94941382E08093F2
:100ED000850157CF8EEB90E00E947C120E94EA04BD
:100EE0007ECF0E949113882309F4DBC081E0B6C055
:100EF00087E891E00E94D813882309F442CF80E06C
:100F00000E9474240E94CD1B88EC90E067E871E099
:100F10000E94941389E08093850133CF0E94431986
:100F2000882309F42ECF0E94251A882309F429CF9B
:100F30000E94C91A882309F424CF8E01065F1F4F2F
:100F4000C8010E946F1380910101882309F007C135
:100F50001E821D82ADE8B1E0F80185E001900D929E
:100F60008150E1F70E946B1A89870E945B1B98876A
:100F70008F83CE01059660E071E00E94ED188F81AD
:100F800098856AE070E00E94F3398B010E94C80FD7
:100F90007C010E94C30F6C010E151F0508F4F2C0FE
:100FA0001092990100919901F0909801112707FD85
:100FB00010950E94BD1090E0081719070CF4EAC0C4
:100FC00028E4F22E809198018F1509F408C159E4A4
:100FD000F51609F468C08CE4F81609F436C148E443
:100FE000F41609F427C1F092980159E4F51609F4B2
:100FF00060C011E00E944D24882329F4112309F4D4
:10100000F4C00E944E0583E029C00E945E2488231C
:1010100009F4B7CE109286018FEF9FEF9093930162
:101020008093920185E995E06BE974E00E94552474
:1010300084E080938501A5CE0E94D01B882339F0DF
:1010400087E891E00E94D813882309F49ACE82E3BE
:1010500090E067E871E00E9494138AE08093850134
:1010600090CE809186018150823008F08ACE0E9415
:10107000860687CE0E945E24882309F482CE1092D1
:10108000860189E091E064E971E00E94DB3080E64E
:1010900095E06BE974E00E94552487E08093850118
:1010A00070CE8BE0DBCF8AEC90E00E947C12F09255
:1010B0009801F0909A01F7FC11C000919901112755
:1010C00007FD10950E94B8102F2D332727FD30956E
:1010D000280F311D021713070CF08BCF10E08ACFB9
:1010E00010920001109201018091990180939A0160
:1010F00085E08093850145CE85E091E08E010F5F0C
:101100001F4FB8010E94DB30C80169E071E00E9406
:10111000AB0A182F85E091E00E94FE2E80910A0113
:101120008823B9F480918401813009F06CCE1123B9
:1011300009F058C003EB10E089E091E00E94FE2E18
:10114000C80169E071E00E94722F5DCE0E94EA043E
:1011500018CE8AE069E071E00E94052F54CE8A859E
:101160009B85AC85BD8520918D0130918E0140918C
:101170008F0150919001821B930BA40BB50B9E83A2
:101180008D83E8CE80179107D0F184E68093990192
:10119000082F0ACF00919901112707FD10950E9491
:1011A000C21090E0801791070CF03FC08091980129
:1011B000883409F44FC08C3409F006CF00919901AE
:1011C000112707FD10950E94C21090E00596801728
:1011D000910714F489E4F82E80919801F5CE80935C
:1011E000980167CF0AEB10E0A7CF82E390E067E8B1
:1011F00071E00E9494138AE080938501C2CDB7010B
:10120000601B710B80E090E024E630E040E050E0AD
:101210000E94D439EC18FD08970140E050E00E948C
:101220001A3A20939901022FBFCE9CE4F92E8091A7
:101230009801CACE83ED90E00E947C1210E089E410
:10124000F81211E0F0929801D5CE8AED90E00E945C
:101250007C12F4CF00919901112707FD10950E948F
:10126000BD1090E00597081719070CF4B3CFB4CF61
:10127000CF92DF92EF92FF920F931F938C016B013D
:101280007A0182E2BA010E94052FC801B7010E94CB
:10129000722F8CE392E0B7010E94722FC701F60112
:1012A000099582E2B7010E94052F1F910F91FF90CF
:1012B000EF90DF90CF900895CF92DF92EF92FF9260
:1012C0000F931F938C016B017A0182E2BA010E9495
:1012D000052FC801B7010E94722F80E492E0B70188
:1012E0000E94722FC601B7010E94721682E2B701F6
:1012F0000E94052F1F910F91FF90EF90DF90CF90EC
:1013000008950F931F938C010E94FE2E84E492E0B7
:10131000B8010E94722F1F910F910895CF92DF9212
:10132000EF92FF920F931F938C016B017A0182E27F
:10133000BA010E94052FC801B7010E94722F86E4EE
:1013400092E0B7010E94722FC60161E040E0970170
:101350000E9490321F910F91FF90EF90DF90CF90FD
:101360000895EF92FF920F931F93DF93CF9300D0D6
:10137000CDB7DEB78C017B010E946E311A821982D3
:10138000C801B701AE014F5F5F4F98010E94113451
:1013900089819A810F900F90CF91DF911F910F91CA
:1013A000FF90EF900895EF92FF920F931F93DF93BA
:1013B000CF9300D000D00F92CDB7DEB77C010E9452
:1013C000FE2E8E010F5F1F4FC8010E946F13C801D0
:1013D000B7010E9472168BE692E0B7010E94722F4D
:1013E0000E94FC1B62E040E097010E9490320E9444
:1013F000FC1B0E94001C882309F072C089E692E061
:10140000B7010E94722F0E94D10490E061E040E099
:1014100097010E94903285E692E0B7010E94722FF8
:101420000E945B1B63E041E097010E94903280E6DE
:1014300092E0B7010E94722F0E94D81961E042E049
:1014400097010E9490328BE592E0B7010E94722FC3
:101450000E94081C61E043E097010E94903287E5FA
:1014600092E0B7010E94722F0E94251A882381F50D
:1014700084E592E0B7010E94722F80E592E0B70107
:101480000E94722F0E94E71B90E061E040E097010C
:101490000E9490328CE492E0B7010E94722F0E9469
:1014A000F91B90E062E040E097010E94903289E4ED
:1014B00092E0B7010E94722F0F900F900F900F9043
:1014C0000F90CF91DF911F910F91FF90EF900895B2
:1014D0000E946B1A61E040E097010E949032CDCFEC
:1014E0008EE2B7010E94052F0E94B52062E040E025
:1014F00097010E94903282CFCF92DF92EF92FF92BB
:101500000F931F938C016B017A01CA010E94FE2E7A
:1015100084E492E0B7010E94722F82E2B7010E9438
:10152000052FC801B7010E94722F86E492E0B7012F
:101530000E94722FC60161E040E097010E94903244
:101540008DE7B7010E94052F1F910F91FF90EF903B
:10155000DF90CF900895CF92DF92EF92FF920F939A
:101560001F93DF93CF93CDB7DEB76E970FB6F89486
:10157000DEBF0FBECDBFFC016B0181E0898380819E
:101580009181A281B3818A839B83AC83BD8382E0F6
:10159000E82EF12CEC0EFD1E8E010A5F1F4FC701D5
:1015A000B8010E94D034C80165E372E00E94963011
:1015B000882381F11F861E86198A188AC701B801FF
:1015C0000E94D034C80162E372E00E949630882302
:1015D00009F070C0C6010E94D3092E853F85888915
:1015E00099892817390709F471C0CE010E960E9417
:1015F000101C7981872F6E960FB6F894DEBF0FBE50
:10160000CDBFCF91DF911F910F91FF90EF90DF90B1
:10161000CF900895C8016DE272E00E949630882351
:1016200039F1C7010E946E311E8A1F8A188E198EE9
:10163000C701BE016F5F7F4FAE014A5E5F4F9701EA
:101640000E9492332E893F89488D598D2A873B8786
:101650004C875D877981772369F221153105410532
:10166000510541F2CE010A960E94B9157981C2CF87
:10167000C80169E272E00E949630882349F1C701EF
:10168000B8010E94D034C80167EE70E00E94963025
:10169000882309F4ABC0C701BE016F5F7F4F0E9472
:1016A000B1097981772309F4A5CF90E00E941D103C
:1016B0007981A0CFC701BE01625F7F4F0E94D03405
:1016C00089CF19828EE791E00E947C12798192CFB6
:1016D000C8016FE072E00E949630882309F4A4C02C
:1016E000C701B8010E94D034C80163E671E00E94CE
:1016F0009630882309F00AC1C80167EE70E00E94A5
:101700009630882309F067C1C8016AEE70E00E9434
:101710009630882309F06EC1C80165EF70E00E9421
:101720009630882309F0A4C1C8016CEF70E00E94D4
:101730009630882309F0C7C1C80163E071E00E94B8
:101740009630882309F01FC2C8016EE071E00E9444
:101750009630882309F03BC2C80165E171E00E9420
:101760009630882309F05BC2C80169E171E00E94EC
:101770009630882309F087C2C8016AEF71E00E94A1
:101780009630882309F09EC2C80162E271E00E948F
:101790009630882309F082C2C8016BE271E00E9492
:1017A0009630882309F062C3C8016AE371E00E94A1
:1017B0009630882309F001C3C80161E571E00E94F9
:1017C0009630882309F026C3C80167E671E00E94BD
:1017D0009630882309F0FBC2C80169EC71E00E94D1
:1017E0009630882309F0ADC270E004CFC8016AEEDC
:1017F00070E00E949630882309F07AC0C80165EF36
:1018000070E00E949630882309F4D0C0C701BE0161
:101810006F5F7F4F0E94B1097981772309F4EACE87
:101820000E9413117981E6CEC80167E671E00E943B
:101830009630882351F1C701B8010E94D034C80105
:101840006CE571E00E949630882309F0CEC0C80193
:101850006FE571E00E949630882309F0EAC0C80164
:101860006EE671E00E949630882309F4EBC0C70150
:10187000BE016F5F7F4F0E94B1097981772309F420
:10188000B9CE0E9407117981B5CEC80166EB71E02F
:101890000E949630882309F449C08E01025F1F4FD1
:1018A000C701B8010E94D03488899E85891B863083
:1018B00008F49ACFC8010E9407308B3209F094CF08
:1018C000C701BE016E5E7F4F40E050E00E942135AF
:1018D0008A899B896C897D898617970709F4F6CEDA
:1018E000A6010E94292FC8010E94101C798182CE76
:1018F000C701BE016F5F7F4F0E94B10979817723D5
:1019000009F478CE0E941110798174CEC6010E942C
:10191000810983E691E067E470E1A6010E9438093D
:101920008DE7B6010E94052F798164CEC8016EE073
:1019300071E00E949630882309F080C0C8016FEAE8
:1019400071E00E949630882309F0B3C0C80168EAAC
:1019500071E00E949630882309F4C0C0C701BE011F
:101960006F5F7F4F0E94B1098C017981772309F461
:1019700041CEC6010E94810981EA91E0B801A60129
:101980000E948E098CE2B6010E94052FC8010E94B8
:101990009237682F8BE991E070E0A6010E948E09D2
:1019A0008DE7B6010E94052F798124CEC8016CEF26
:1019B00070E00E949630882339F1C701BE016F5F45
:1019C0007F4F0E94B1097981772309F413CE0E94D9
:1019D0000D1179810FCE0E94DC0FBC0187EE90E0E3
:1019E000A6010E947C0A798105CE81E00E94F51053
:1019F000798100CE0E94D20FBC018AEE90E0A60150
:101A00000E947C0A7981F6CDC80163E071E00E94F2
:101A100096308823C1F1C701BE016F5F7F4F0E94DE
:101A2000B1097981772309F4E5CD0E940B10798102
:101A3000E1CD80E00E94F5107981DCCD0E94F514A3
:101A40007981D8CDC80162E771E00E949630882381
:101A500009F467C0C701BE016F5F7F4F0E94B109E3
:101A60007981772309F4C6CD0E9401117981C2CD15
:101A70000E94CC10682F85EF90E070E0A6010E94D4
:101A80007C0A7981B7CDC8016EE071E00E94963082
:101A9000882309F45CC0C701BE016F5F7F4F0E94BD
:101AA000B1097981772309F4A5CD0E9417107981B6
:101AB000A1CDC701BE016F5F7F4F0E94B1090E9497
:101AC000D404798197CD0E94C710682F8CEF90E0E5
:101AD00070E0A6010E947C0A79818CCDC80163E97F
:101AE00071E00E949630882309F4EBCDC7016E01A6
:101AF0000894C11CD11CB6010E94B1098C017981E6
:101B0000772309F477CDC701B6010E94B109682F88
:101B10007981772309F46ECDC8010E9489377981D4
:101B200069CDC80167E771E00E949630882309F407
:101B30005BCEC701BE016F5F7F4F0E94B109798103
:101B4000772309F457CD0E94FB10798153CDC8014A
:101B500065E171E00E9496308823F9F4C80169E1DB
:101B600071E00E9496308823E1F1C701BE016F5FEA
:101B70007F4F0E94B1097981772309F43BCD0E9400
:101B8000E910798137CD0E94CD0FBC0183E091E04F
:101B9000A6010E947C0A79812DCDC701B801A70159
:101BA0000E942135C8010E947510C701B801A70124
:101BB0000E942135C8010E946D10C701B801A7011C
:101BC0000E942135C8010E946510798113CD0E94C1
:101BD000D70FBC018EE091E0A6010E947C0A7981BA
:101BE00009CDC80162E271E00E9496308823A9F114
:101BF000C701B8010E94D034C701BE016F5F7F4F9B
:101C00000E94B1097C017981772309F4F3CCC801E2
:101C10000E944D10C7010E94E10F7981EBCCC601F3
:101C20000E94810985E191E061E470E1A6010E94D2
:101C300038098CE2B6010E94052F8AE092E06BE33E
:101C400070E1A6010E9438098CE2B6010E94052FBE
:101C500083E092E065E370E160CEC8016BE271E081
:101C60000E949630882309F442C0C701BE016F5F0D
:101C70007F4F0E94B1097981772309F4BBCC0E9480
:101C8000F90F7981B7CC0E94A210682F89E191E009
:101C900070E0A6010E947C0A7981ACCCC6010E944A
:101CA000810982EF91E063E270E1A6010E943809A8
:101CB0008CE2B6010E94052F0E94AA0FBC018AEE99
:101CC00091E06BCEC6010E9481090E94C80FBC0141
:101CD00086E491E0A6010E948E098CE2B6010E9482
:101CE000052F0E94C30FBC018CE491E056CEC801C1
:101CF0006AE371E00E949630882371F0C701BE014B
:101D00006F5F7F4F0E94B1097981772309F472CC0C
:101D10000E94F30F79816ECCC80166E471E00E94E5
:101D200096308823A1F1C701BE016F5F7F4F0E94EB
:101D3000B1097981772309F45DCC0E94051079817E
:101D400059CCC6010E9481098E01065E1F4FC80151
:101D50000E946F1381EC91E0B801A6010E945C091A
:101D60008CE2B6010E94052F0E9483136A8F7B8F3D
:101D70008C8F9D8F1E8E8AEB91E0B801A6010E9488
:101D80005C098DE7B6010E94052F798133CCC8012B
:101D90006CE471E00E949630882309F471C0C70199
:101DA000BE016F5F7F4F0E94B1097981772309F4EB
:101DB00021CC0E94FF0F79811DCC0E94B90FBC017C
:101DC0008AE391E0A6010E947C0A798113CCC601C6
:101DD0000E9481090E94C210682F8EE691E070E097
:101DE000A6010E948E098CE2B6010E94052F0E9476
:101DF000BD10682F82E791E070E0A6010E948E0975
:101E00008CE2B6010E94052F0E94B810682F87E768
:101E100091E0C2CDC6010E9481090E949610682FF0
:101E200084EE91E070E0A6010E948E098CE2B6017A
:101E30000E94052F8CED91E06FE270E1A6010E94F7
:101E400038098CE2B6010E94052F0E94B40FBC0134
:101E500084ED91E0A6010E948E098CE2B6010E94F9
:101E6000052F8EEC91E069E270E157CD0E94BE0F24
:101E7000BC018BE291E0A6010E947C0A7981BACB79
:101E8000C80161E571E00E949630882309F4ACCC6A
:101E9000C701B8010E94D034C8016CE571E00E940E
:101EA00096308823F9F4C8016FE571E00E949630FE
:101EB000882391F5C80161E272E00E949630882380
:101EC000B1F0C701B8010E94D0342E813F818885CE
:101ED00099852817390709F4F9CBC8010E945D10CC
:101EE000798188CB81E00E94E310798183CBC8019E
:101EF0006CE172E00E949630882399F0C701BE0120
:101F00006F5F7F4F0E94B1097981772309F472CB0B
:101F10000E94ED0F79816ECB80E00E94E310798101
:101F200069CBC80163E172E00E949630882309F40E
:101F30005BCCC701B8010E94D0342E813F818885D7
:101F400099852817390709F4C1CBC8010E9455109B
:101F5000798150CB89ED90E00E94A43708958FE1FC
:101F600090E00E94A437089582EA90E00E94A4378E
:101F700008958AE190E00E94A437089588E190E0F6
:101F80000E94A437089583E290E00E94A437089548
:101F900081E290E00E94A437089585E190E00E94DC
:101FA000A437089581E190E00E94A437089587E066
:101FB00090E00E94A437089581E090E00E94A43749
:101FC0000895BC0189ED90E00E9439380895BC0164
:101FD0008FE190E00E9439380895BC0182EA90E0D8
:101FE0000E9439380895BC018AE190E00E94393896
:101FF0000895BC0188E190E00E9439380895BC0141
:1020000083E290E00E9439380895BC0181E290E0BB
:102010000E9439380895BC0185E190E00E9439386A
:102020000895BC0181E190E00E9439380895BC0117
:1020300087E090E00E9439380895BC0181E090E08B
:102040000E9439380895BC0189EB90E00E94DC378A
:102050000895BC0184EA90E00E94DC370895BC0139
:102060008AE790E00E94DC370895BC0184E690E0A6
:102070000E94DC370895BC0180E590E00E94DC37C7
:102080000895BC0188E290E00E94DC370895BC010D
:1020900089E090E00E94DC370895AC0189EB90E084
:1020A00060E270E00E940F380895AC0184EA90E08D
:1020B00064E170E00E940F380895AC018AE790E077
:1020C00068E270E00E940F380895AC0184E690E069
:1020D00064E170E00E940F380895AC0180E590E063
:1020E00064E170E00E940F380895AC0188E290E04E
:1020F00068E270E00E940F380895AC0189E090E03A
:1021000068E070E00E940F38089588EB90E00E942C
:102110009237811181E008958EE190E00E9492371C
:1021200008958DE190E00E949237089589E790E04C
:102130000E94923790E0813011F0892F089591E04C
:10214000892F089588E790E00E94923708958CE1E6
:1021500090E00E949237089587E190E00E949237C4
:1021600090E0813011F0892F089591E0892F089532
:1021700087E290E00E949237089586E290E00E9404
:102180009237089585E290E00E949237089584E1A5
:1021900090E00E949237089583E190E00E94923788
:1021A0000895682F88EB90E00E9489370895682F82
:1021B0008EE190E00E9489370895682F8DE190E0CC
:1021C0000E9489370895682F89E790E00E94893737
:1021D0000895682F88E790E00E9489370895682F56
:1021E0008CE190E00E9489370895682F87E190E0A4
:1021F0000E9489370895682F87E290E00E9489370E
:102200000895682F86E290E00E9489370895682F2C
:1022100085E290E00E9489370895682F84E190E07C
:102220000E9489370895682F83E190E00E948937E2
:10223000089584E690E00E949A37089580E590E042
:102240000E949A37089583E090E00E94BA3708957B
:10225000AB01BC0183E090E00E94F4370895EF9257
:10226000FF920F931F93DF93CF93CDB7DEB7E19724
:102270000FB6F894DEBF0FBECDBF80E090E00E94A5
:1022800092378F3F79F0882369F0E1960FB6F89482
:10229000DEBF0FBECDBFCF91DF911F910F91FF9099
:1022A000EF900895FE01399689E2DF011D928A952B
:1022B000E9F788E289831A82FC83EB8381E090E06E
:1022C00062E070E00E94393883E090E040E050E046
:1022D00060E070E00E94F43787E090E060EA75E02B
:1022E0000E9439388E010F5F1F4FC8010E94FE2ED9
:1022F00080E792E0B8010E94722F85E0E82EF12C71
:10230000EC0EFD1EC801B7010E94DB3089E090E0B1
:1023100068E070E0A7010E940F3888E790E060E075
:102320000E94893781E190E065E471E00E943938CC
:1023300083E190E06FE50E94893784E190E062E6F6
:102340000E94893785E190E06CE370E00E943938A3
:1023500081E290E062E271E00E94393883E290E02D
:102360006EE170E00E94393886E290E06AE50E94F2
:10237000893785E290E06DE20E94893787E290E03C
:1023800062E00E94893787E190E060E00E9489372F
:10239000C8010E94FE2E85E792E0B8010E94722FCC
:1023A000C801B7010E94DB3088E290E068E270E08B
:1023B000A7010E940F38C8010E94FE2E8EE792E00E
:1023C000B8010E94722FC801B7010E94DB3080E57E
:1023D00090E064E170E0A7010E940F38C8010E94FC
:1023E000FE2E8FE792E0B8010E94722FC801B7015C
:1023F0000E94DB3084E690E064E170E0A7010E9477
:102400000F3888E190E068E572E00E9439388AE18F
:1024100090E068E077E00E94393889E790E060E07A
:102420000E948937C8010E94FE2E80E892E0B80120
:102430000E94722FC801B7010E94DB308AE790E04A
:1024400068E270E0A7010E940F3882EA90E060E540
:1024500070E00E943938C8010E94FE2E83E992E0A4
:10246000B8010E94722FC801B7010E94DB3084EAD4
:1024700090E064E170E0A7010E940F388DE190E0E8
:1024800061E00E9489378EE190E064EB0E94893719
:102490008FE190E06FEF7FE30E94393888EB90E0A6
:1024A00060E00E948937C8010E94FE2E84EA92E013
:1024B000B8010E94722FC801B7010E94DB3089EB7E
:1024C00090E060E270E0A7010E940F3889ED90E093
:1024D00068EB7BE00E94393880E090E061E00E9488
:1024E0008937D3CEBC0181E00E949B2B81E067EB52
:1024F00072E00E94E52B0895BC0181E00E94E52B6B
:1025000081E067EB72E00E94E52B0895BC0181E059
:102510000E94C52B81E067EB72E00E94E52B0895D5
:1025200081E061E043E00E941B2C81E00E943B2B94
:1025300081E067EB72E00E94E52B80E090E063EDC4
:1025400072E00E94941308950F931F93DF93CF932B
:1025500000D000D0CDB7DEB78E010F5F1F4FB8019E
:102560000E94DB3081E0B8010E949B2B81E067EB89
:1025700072E00E94E52B0F900F900F900F90CF917B
:10258000DF911F910F9108950F931F93DF93CF93C6
:10259000CDB7DEB7C955D0400FB6F894DEBF0FBE39
:1025A000CDBF0E94672DFC018FB7F8948FBF848147
:1025B0009581892BE9F583ED92E00E94D813882359
:1025C00061F4C75ADF4F0FB6F894DEBF0FBECDBF20
:1025D000CF91DF911F910F910895FE01399681E50A
:1025E000DF011D928A95E9F780E58D831E82F887C9
:1025F000EF838E010B5F1F4FC8010E94D30981E05A
:1026000065EB72E00E94E52B81E0B8010E946B2C23
:1026100081E067EB72E00E94E52B80910601882340
:1026200051F584E690E063ED72E00E949413C9CF07
:10263000CF010E943C318D3049F18F37A1F065E028
:1026400071E00E94052F81E065EB72E00E94E52BAE
:1026500081E065E071E00E946B2C81E06DE071E04B
:102660000E94C52BA8CF80910601815065E071E0E2
:102670000E941C2FE8CF81E065E071E00E946B2C86
:1026800081E06DE071E00E94C52BCBCF81E067EB6C
:1026900072E00E94E52B85E091E08E010F5F1F4FF5
:1026A000B8010E94DB30C80169E071E00E94AB0A0A
:1026B00080910A01882329F485E091E00E94FE2E92
:1026C000C2CF89E091E00E94A41289E091E00E94CB
:1026D000FE2EF2CF9093EA028093E9020895FC0166
:1026E0002FB7F8948091DB029091DC02A091DD027B
:1026F000B091DE0280839183A283B3838091DF0255
:1027000084832FBF08958FB7F8942091E002309111
:10271000E1024091E2025091E3028FBFB901CA0188
:1027200008958091E80208950F931F93CF93DF934C
:10273000EC01FB018FB7F8940091DB021091DC02F1
:102740002091DD023091DE024091DF028FBF0083D5
:10275000118322833383CE0164E670E00E94073A3E
:10276000480F4483443650F0445644830F5F1F4F54
:102770002F4F3F4F0083118322833383CE0164E6C2
:1027800070E00E94073A882777FD8095982F208176
:10279000318142815381260F371F481F591F2083E3
:1027A000318342835383DF91CF911F910F9108951D
:1027B000FC018FB7F8942091DB023091DC0240914C
:1027C000DD025091DE026091DF028FBF8081918136
:1027D000A281B38182179307A407B50760F082171F
:1027E0009307A407B50719F020E0822F089520E091
:1027F0008481681708F021E0822F0895EF92FF92FC
:102800000F931F938FB7F8942091DB023091DC0275
:102810004091DD025091DE02E090E402F090E5028A
:102820000091E6021091E7022E0D3F1D401F511F3F
:102830002093DB023093DC024093DD025093DE02F2
:102840001092E4021092E5021092E6021092E70262
:102850008FBF1F910F91FF90EF9008958091DA0242
:102860000895FC01608171818281938120E831E5C6
:1028700041E050E00E941A3ACA01B90127E030E075
:1028800040E050E00E941A3A862F0895FC016081D2
:1028900071818281938120E13EE040E050E00E941E
:1028A0001A3ACA01B90128E130E040E050E00E9444
:1028B0001A3A862F0895FC0160817181828193818B
:1028C0002CE330E040E050E00E941A3ACA01B9011E
:1028D0002CE330E040E050E00E941A3A862F089541
:1028E000FC0160817181828193812CE330E040E0C2
:1028F00050E00E941A3A862F08951F920F920FB649
:102900000F9211242F933F934F935F936F937F9375
:102910008F939F93AF93BF93EF93FF938091D802D0
:102920009091D90201969093D9028093D802809118
:10293000D8029091D902C09768F01092D9021092F3
:10294000D8028091DF028F5F8093DF028091DF02E7
:102950008436C0F4E091E902F091EA02309709F080
:102960000995FF91EF91BF91AF919F918F917F91C9
:102970006F915F914F913F912F910F900FBE0F90EC
:102980001F9018951092DF028091DB029091DC027B
:10299000A091DD02B091DE020196A11DB11D8093D0
:1029A000DB029093DC02A093DD02B093DE02809103
:1029B000E0029091E102A091E202B091E30201965F
:1029C000A11DB11D8093E0029093E102A093E20269
:1029D000B093E302BFCF1F920F920FB60F92112454
:1029E0000F900FBE0F901F9018958091DA02811101
:1029F000089581E08093DA022FB7F8946091DB02AA
:102A00007091DC028091DD029091DE023091DF0254
:102A10002FBF685F7F4F8F4F9F4F2091E40230910F
:102A2000E5024091E6025091E702620F731F841F96
:102A3000951F0E94281180EC92E00E947C1229E2EE
:102A400088E190E00FB6F894A895809360000FBEDF
:102A500020936000A8950895EF92FF920F931F9323
:102A60007C0100E010E00E94CC1090E0A0E0B0E01B
:102A7000BC01CD01A80197010E94D43924E630E0C1
:102A800040E050E00E941A3AA901232B09F433C018
:102A900068E170E04830510508F05CC044305105F1
:102AA00008F45CC084E090E028E2481B590B0FB6A4
:102AB000F894A895609360000FBE20936000809109
:102AC000600080648093600083B7817F846083BFEF
:102AD000F89483B7816083BF85B7806685BF8F7D9B
:102AE00085BF7894889583B78E7F83BF789441158E
:102AF000510509F0CFCFF8948091DB029091DC0270
:102B0000A091DD02B091DE028E0D9F1DA01FB11FAE
:102B10008093DB029093DC02A093DD02B093DE028F
:102B20008091E0029091E102A091E202B091E30273
:102B3000E80EF91E0A1F1B1FE092E002F092E1026C
:102B40000093E2021093E30278941F910F91FF909B
:102B5000EF90089588E090E029E2A7CF4130510539
:102B600021F082E090E02FE0A0CF81E090E02EE025
:102B70009CCFEF92FF920F931F93DF93CF93CDB72C
:102B8000DEB769970FB6F894DEBF0FBECDBFFC016C
:102B90006FB7F8942091DB023091DC024091DD02A6
:102BA0005091DE0280819181A281B381821B930BBF
:102BB000A40BB50B8093E4029093E502A093E60288
:102BC000B093E7026FBFFE01359685E1DF011D92EC
:102BD0008A95E9F784E189831A82FC83EB837E017D
:102BE0000894E11CF11CC7010E94FE2E81ED92E0C9
:102BF000B7010E94722F6091E4027091E50280910A
:102C0000E6029091E70241E020E087010E94E03176
:102C1000C7010E94A41269960FB6F894DEBF0FBEDA
:102C2000CDBFCF91DF911F910F91FF90EF9008954D
:102C30001092D9021092D8020E9423116093DB02F5
:102C40007093DC028093DD029093DE021092DF022B
:102C500060E070E080E090E00E9428111092E002B5
:102C60001092E1021092E2021092E3021092E4024A
:102C70001092E5021092E6021092E7021092DA0238
:102C80008091DB029091DC02A091DD02B091DE0226
:102C90001092E8020297A105B10518F481E0809333
:102CA000E8021092EA021092E90280918100887F86
:102CB00082608093810080918100877E886080930C
:102CC000810080ED90E090938900809388001092BD
:102CD000850010928400B19A80916F008260809389
:102CE0006F000895EF92FF920F931F937C018B0169
:102CF000FC01608171818281938120E831E541E0AE
:102D000050E00E941A3ACA01B90127E030E040E0E1
:102D100050E00E941A3A862F90E061E040E098016E
:102D20000E9490328EEB92E0B8010E94722FF70160
:102D3000608171818281938120E13EE040E050E03A
:102D40000E941A3ACA01B90128E130E040E050E09F
:102D50000E941A3A862F90E062E040E098010E94BB
:102D600090328CEB92E0B8010E94722FF7016081E3
:102D70007181828193812CE330E040E050E00E9439
:102D80001A3ACA01B9012CE330E040E050E00E9459
:102D90001A3A862F90E062E040E098010E9490325B
:102DA0008AEB92E0B8010E94722FF7016081718175
:102DB000828193812CE330E040E050E00E941A3A97
:102DC000862F90E062E040E098010E9490321F91CF
:102DD0000F91FF90EF9008956F927F928F929F9244
:102DE000AF92BF92CF92DF92EF92FF920F931F9319
:102DF0008091DA02882369F01F910F91FF90EF9084
:102E0000DF90CF90BF90AF909F908F907F906F900A
:102E10000895A8958FB7F8946090E0027090E10251
:102E20008090E2029090E3028FBF0E94D70F5C0176
:102E30000E94B90FA0E0B0E07C018D01EE0CFF1CF8
:102E4000001F111FE80EF91E0A1F1B1FCC24DD24D2
:102E5000C601B5012CE330E040E050E00E94D439D7
:102E6000E60EF71E081F191FE614F70408051905DA
:102E700018F68091DA02882309F0BECF81E08093B2
:102E8000DA022FB7F8946091DB027091DC02809136
:102E9000DD029091DE023091DF022FBF685F7F4F2D
:102EA0008F4F9F4F2091E4023091E5024091E6025E
:102EB0005091E702620F731F841F951F0E94281113
:102EC00080EC92E00E947C1229E288E190E00FB64B
:102ED000F894A895809360000FBE20936000A89599
:102EE0008BCFEAE7F0E08081887F846080838081F7
:102EF000806880831092EB020895582F863088F006
:102F0000282F30E06295660F660F607C652B4111BB
:102F10006062F901EE0FFF1FE251FD4F41836083B4
:102F20000895282F30E0F901E852FD4FE49197B160
:102F30008E2F8095892387B980917E00E82BE093BE
:102F40007E00E0CF8091EB02813059F0823009F0B1
:102F5000089580917A0084FFFBCF83E08093EB0299
:102F6000089580917A0084FFF3CF8091EC028093E2
:102F70007C008091ED02882371F080917B0080625B
:102F800080937B0080917A00806480937A0082E055
:102F90008093EB02089580917B008F7D80937B006E
:102FA000F1CFE82F8091EB02882319F5F0E0EE0FC6
:102FB000FF1FE251FD4F918180819093ED0280933C
:102FC000EC0280937C00992371F480917B008F7DCB
:102FD00080937B0080917A00806480937A0081E006
:102FE0008093EB02089580917B00806280937B0048
:102FF000F1CF80E00895FC018091EB02833011F065
:1030000080E0089580917A00806180937A008091B9
:10301000ED02882351F4809178009091790091839A
:1030200080831092EB0281E008958091790090E016
:10303000918380831092EB0281E00895DB012C9153
:1030400030E0220F331F1396ED91FC911497E20F9D
:10305000F31F918380834C91242F30E012965C9172
:103060001297852F90E001972817390754F01C928A
:1030700011968C911197851718F48F5F11968C9388
:1030800008954F5F4C93F4CFFC0181818823A1F018
:103090008081882371F0815090E0880F991F038010
:1030A000F481E02DE80FF91F0190F081E02DCF01B0
:1030B000089582818150F0CFE0E0F0E0CF010895E3
:1030C0005F926F927F928F929F92AF92BF92CF92B8
:1030D000DF92EF92FF920F931F93CF93DF936C01D8
:1030E000562EBA01E90138018FEF9FEFDA018D9377
:1030F0009C9319821882F80111821082D6011196D0
:103100008C911197882309F450C0EC91EE2309F4B7
:103110005CC04E2F4150852C99248114910409F4F0
:1031200058C0EE24FF24870120E030E0F601A380A0
:10313000B48008C0F601428141502F5F3F4F2815EF
:10314000390544F5E42FF0E0EE0FFF1FEA0DFB1DFB
:103150000190F081E02DDB018D919C911197E81792
:10316000F90710F4ED93FC93888199818E179F07DE
:1031700010F4F983E883CF01A0E0B0E0E80EF91E77
:103180000A1F1B1F4423B1F241502F5F3F4F2815E8
:103190003905C4F2252D30E040E050E0C801B70108
:1031A0000E941A3AD3012D933C93DF91CF911F9146
:1031B0000F91FF90EF90DF90CF90BF90AF909F90D6
:1031C0008F907F906F905F90089512964C91415030
:1031D000A2CFEE24FF248701DDCFCF93DF93DB0165
:1031E0002C9130E0A901440F551F440F551F420F89
:1031F000531F1396ED91FC911497E40FF51FEC010A
:1032000085E0099001928150E1F74C91242F30E044
:1032100012965C911297852F90E001972817390735
:103220006CF44F5F4C9311968C911197851718F49D
:103230008F5F11968C93DF91CF9108951C92F3CFFD
:10324000482FFB0191818917B0F48081282F30E04D
:10325000291B3109240F311D37FD11C0C901880F09
:10326000991F880F991F820F931F63817481680FC4
:10327000791FCB01089560E070E0CB010895828151
:10328000280F311DEBCF90E0809112018A3008F0B9
:1032900091E0892F0895809115030895DF92EF92B0
:1032A000FF920F931F93DF93CF93CDB7DEB728978D
:1032B0000FB6F894DEBF0FBECDBFD090140321E04F
:1032C000D21619F1D21688F082E0D81639F1289674
:1032D0000FB6F894DEBF0FBECDBFCF91DF911F9127
:1032E0000F91FF90EF90DF90089586E193E00E94A8
:1032F000D813882361F38AE090E066E173E00E94CE
:10330000941381E080931403E2CF80E00E94D117F0
:103310008823E9F282E080931403D9CFCE0101968D
:103320000E94FB17882399F2E980FA8000E010E000
:103330000E94C71090E0A0E0B0E0BC01CD01A80160
:1033400097010E94D43924E630E040E050E00E942A
:103350001A3ADA01C90161E171E00E941E188091F8
:1033600012018A3018F410921403B1CF81E191E078
:103370006AE0AE014D5F5F4F9E012B5F3F4F8E01B4
:10338000095F1F4F0E9460188D819E8121E0893462
:10339000920720F481E080931503E5CF875A91408E
:1033A00018F4D0921503DFCF83E080931503DBCFB1
:1033B0000F931F93DF93CF9300D000D000D0CDB7F1
:1033C000DEB71A821982809112018A3070F081E191
:1033D00091E06AE0AE014D5F5F4F9E012B5F3F4F72
:1033E0008E010F5F1F4F0E94601869817A8180E013
:1033F00090E027E234E040E050E00E94D43928EE2B
:1034000033E040E050E00E943C3AC90126960FB6F6
:10341000F894DEBF0FBECDBFCF91DF911F910F910A
:103420000895109214031092150382E090E066E173
:1034300073E00E949413109211011092120180E027
:1034400061E040E00E947D17089590E080911701AF
:103450008A3008F091E0892F0895DF93CF9300D050
:10346000CDB7DEB780912F038130C9F0813038F0BD
:10347000823011F10F900F90CF91DF91089580E38A
:1034800093E00E94D8138823A9F38AE090E060E3D8
:1034900073E00E94941381E080932F03EBCF88E0C8
:1034A0000E94D117882331F382E080932F030F907D
:1034B0000F90CF91DF910895CE0101960E94FB17E6
:1034C0008823C1F289819A8166E171E00E941E1809
:1034D00010922F03CFCFEF92FF920F931F93DF93A2
:1034E000CF9300D000D000D0CDB7DEB780911701C8
:1034F0008A3080F420E030E0C90126960FB6F894B7
:10350000DEBF0FBECDBFCF91DF911F910F91FF9016
:10351000EF9008951A82198286E191E06AE0AE0187
:103520004D5F5F4F9E012B5F3F4F8E010F5F1F4F1F
:103530000E946018E980FA8000E010E00E94D20F3B
:10354000AA2797FDA095BA2FE81AF90A0A0B1B0BB8
:10355000C801B70127E234E040E050E00E94D439CE
:1035600028EE33E040E050E00E943C3AC5CF109294
:103570002F0382E090E060E373E00E9494131092C6
:1035800016011092170188E063E040E00E947D1769
:10359000089590E080912001853008F091E0892F16
:1035A00008956F927F928F929F92AF92BF92CF9227
:1035B000DF92EF92FF920F931F93DF93CF93CDB7DC
:1035C000DEB729970FB6F894DEBF0FBECDBF7E01E0
:1035D0000894E11CF11C36E0C32ED12CCC0EDD1E6C
:1035E00022E0822E912C8C0E9D1E94E0692E712C6F
:1035F0006C0E7D1E83E0A82EB12CAC0EBD1EC70143
:103600000E94DD35882381F089818D3011F580910C
:103610001C01853019F18BE191E00E94FE2EC7015B
:103620000E94DD35882381F729960FB6F894DEBF16
:103630000FBECDBFCF91DF911F910F91FF90EF9003
:10364000DF90CF90BF90AF909F908F907F906F90C2
:1036500008956BE171E00E94052FD1CFE0911D012B
:10366000F0911E0180818235B1F68BE191E061E03D
:1036700070E0A6010E94BE301A821D821C821B824D
:10368000C601B401A301950100E010E00E940733D8
:103690008A81882309F4BFCF80915003882321F0C9
:1036A000815080935003B7CF8C819D816FE171E091
:1036B0000E941E18B0CF0F931F93DF93CF9300D0BB
:1036C00000D000D0CDB7DEB71A82198280912001D8
:1036D000853070F08FE191E065E0AE014D5F5F4FA6
:1036E0009E012B5F3F4F8E010F5F1F4F0E9460189E
:1036F00089819A8126960FB6F894DEBF0FBECDBFA2
:10370000CF91DF911F910F91089581E00E9424379E
:1037100080E895E20E947D3510921F0110922001F1
:1037200085E0809350030895E82FF0E0EE0FFF1F2F
:10373000E55FFC4F25913491C901089591E0909384
:103740004B0480934C04089591E090935604809329
:103750005704089591E0909354048093550408957C
:1037600021E020934D04AEE4B4E0FC0186E001903A
:103770000D928150E1F708958093590460935A04A3
:1037800050935C0440935B04089581E080935E0451
:10379000089581E0809322040895109222040895F0
:1037A00090E080912004833009F091E0892F089502
:1037B00080915404882319F490E0892F089590E0B3
:1037C00080915D048730C9F791E0892F0895809139
:1037D0005504089590915504913031F080E0953072
:1037E00009F0089581E0089581E008958EE494E061
:1037F00008958091570408958091200490E00895E1
:1038000020E04C9711F0822F089521E0822F089537
:1038100080915B0490915C04089580915A0408950E
:10382000FC0162817381808191814CE251E00E94B0
:10383000292F0895FC0181E08093580462817381EF
:103840008081918144E351E00E94292F08950F93D4
:103850001F938C0187E39CE10E946A258FE080938F
:103860005D04C8010E9433261F910F910895809333
:103870005D04813009F008950E947C2108958091B3
:1038800020048350823018F090E0892F08958091B1
:103890002D018823C9F780E394E00E9442378823F2
:1038A00099F30E94A82091E09827EFCF0F931F93E0
:1038B0008C0187E39CE10E946A258FE080935D0480
:1038C000C8010E941B261F910F9108950E94392E56
:1038D00063E044E00E94DF2A85E080932E048EE9B5
:1038E0009BE10E94972584EA9BE10E949C2588EB3E
:1038F0009CE10E94A6258AE19CE10E94AB2580EB19
:103900009BE10E94B0258CEB9BE10E94B5250E94B3
:103910000A2180E394E00E943D378CE291E00E940E
:10392000FE2E80E391E00E94FE2E1092220410925F
:103930004B0410924C0410924D04109255041092B6
:103940005604109257041092200480EE9EE263E227
:1039500074E00E9494131092540410925804109230
:10396000590410925A0410925C0410925B0408955A
:10397000CF93DF93EC0180E394E00E944A378823E1
:1039800029F4CE0160E374E00E945437DF91CF91B7
:1039900008950F931F93DF93CF9300D000D0CDB73E
:1039A000DEB78E010F5F1F4FB8010E94DB30E5E1EB
:1039B000F3E065917491C8010E949630882369F5FF
:1039C000E3E1F3E065917491C8010E949630882389
:1039D00031F5E1E1F3E065917491C8010E94963000
:1039E0008823F9F4EFE0F3E065917491C8010E9437
:1039F00096308823C1F4EDE0F3E065917491C8013D
:103A00000E949630882389F40F900F900F900F90AA
:103A1000CF91DF911F910F91089585E0F5CF84E05C
:103A2000F3CF83E0F1CF82E0EFCF81E0EDCFCF9213
:103A3000DF92EF92FF920F931F93DF93CF9300D00B
:103A400000D0CDB7DEB7CB017A01690121E0209328
:103A500045048E010F5F1F4FB8010E94DB30E5E186
:103A6000F3E065917491C8010E949630882309F0B3
:103A700047C0E3E1F3E065917491C8010E9496307C
:103A8000882309F03FC0E1E1F3E065917491C8013A
:103A90000E949630882309F037C0EFE0F3E065918B
:103AA0007491C8010E949630882381F5EDE0F3E01F
:103AB00065917491C8010E949630882349F58093DE
:103AC0002F0484E291E00E94FE2EC70164E271E0BF
:103AD0000E94502F88E291E00E94FE2EC60168E20B
:103AE00071E00E94502F0F900F900F900F90CF9188
:103AF000DF911F910F91FF90EF90DF90CF9008958D
:103B000085E0DDCF84E0DBCF83E0D9CF82E0D7CF83
:103B100081E0D5CF8AEA9BE10E94A125109254044E
:103B200087E39CE10E946A258FE080935D048FE12A
:103B300093E00E9433260895EF92FF920F931F9314
:103B4000DF93CF93CDB7DEB7C755D0400FB6F8940B
:103B5000DEBF0FBECDBF9091200480912104981745
:103B600011F4933039F580EE9EE263E274E00E9436
:103B700094138091200480932104E82FF0E0ED312C
:103B8000F10580F00E94F514C95ADF4F0FB6F89482
:103B9000DEBF0FBECDBFCF91DF911F910F91FF9080
:103BA000EF900895EC5CFF4FEE0FFF1F0590F4912E
:103BB000E02D09940E942E14882319F0809120048E
:103BC000DCCF83E294E00E94D8138823B9F38AEC17
:103BD00093E00E947C12809120040E94EF100E94CA
:103BE000F514ECCF80915D04873071F684E094E0A9
:103BF0000E94271C8AE08093200480915D04873016
:103C000019F60E948A1D8FE080932004BDCF809119
:103C10005D04873009F0B8CF82E693E00E94271C4C
:103C200089E080932004B0CF80915D04873009F053
:103C3000ABCF84E080932004A7CF80915D048730D0
:103C400009F0A2CF8CE493E00E947C12E090430440
:103C5000F0904404FE0139968BE0DF011D928A95B5
:103C6000E9F78AE08D831E82F887EF838E010B5F70
:103C70001F4FC8010E94FE2E84EF93E0B8010E94FE
:103C8000722FC70161E040E098010E949032C801A4
:103C90000E94561C86E18093200476CF88E294E04F
:103CA0000E94D813882309F46FCFABCF80915404BE
:103CB000882309F469CF80915D04873009F064CFCF
:103CC00080915504813009F4ACC1853009F4A9C153
:103CD00080912204882309F4ACCF80E180932004F2
:103CE00088EC90E068E274E00E9494134DCF8091DC
:103CF0005804882309F448CF86E893E00E947C1298
:103D00008CE793E00E94271C88E0809320043CCF3E
:103D10000E94A0210E949320843009F035CF0E9498
:103D20004D25109255041092570482E08093200490
:103D30002BCF80912204882309F426CF10922004EF
:103D400023CF0E945025882309F01ECF83E0809363
:103D500020041ACF809122048823C1F30E945025A9
:103D6000882309F066CF88EB93E00E947C120E94C2
:103D7000492585E08093200407CF80915D0487303A
:103D800009F002CF109258048DE080932004109225
:103D90002D04FACE0E945025823009F0F5CE86E936
:103DA00093E00E947C1281E993E00E94271C87E047
:103DB00080932004E9CE80912204882309F4F3C083
:103DC00080915504813019F0853009F01ACF809127
:103DD0002D01882309F0F4C080E394E00E9442376B
:103DE000882309F43AC10E94A820882309F46EC1EF
:103DF0008CE180932004C8CE80915D04873009F067
:103E0000C3CEFE01749681E1DF011D928A95E9F728
:103E100080E18D831E82F887EF838E010B5F1F4F39
:103E2000C8010E94FE2E8FE693E0B8010E94722F17
:103E30000E94A210882309F047C180E3B8010E94C4
:103E4000052FC8010E94561C8CE0809320049CCE54
:103E500080915E04882309F497CE80E493E00E9469
:103E60007C1280E391E00E94242680E391E00E948E
:103E7000FE2E0E94BF2588E18093200485CE80918C
:103E80005D04873009F080CE80912F04815082300C
:103E900008F0CFCE00912A0110912B01C80167E1F3
:103EA00073E00E94953A0817190709F0C2CE80E323
:103EB00091E00E94FE2E8CE291E00E94FE2E87E1AE
:103EC00093E00E94573ABC0188E291E08E010F5FB7
:103ED0001F4FA8010E94BE30C80160E371E00E943C
:103EE000AB0A882309F4A5CE80913101882309F417
:103EF000A0CE80912D01882309F09BCE8CE291E029
:103F00000E94FE2E84E291E06CE271E00E94502F4C
:103F100090CE0E94A0210E94A820882309F489CE77
:103F200080912204882309F02FCE0E94A4202CCE59
:103F300080915D04873009F027CE84E094E00E94F0
:103F4000271C8BE1809320041FCE80915D04873075
:103F500009F01ACE109256048DEF93E00E94271CB0
:103F60008AE18093200410CE80915D04873009F0AF
:103F70000BCE80E797E166E474E00E94941384E03E
:103F80008093200401CE80915D04873009F45DC0E8
:103F9000853009F0F9CD88E293E00E947C1284E03C
:103FA00080932004F1CD80E00E9474240E94A4201C
:103FB00081E08093200485EA93E00E947C12E4CDA6
:103FC00010925E0485EC9BE10E94BA25FE01B59635
:103FD00083E3DF011D928A95E9F782E38D831E82D8
:103FE000F887EF838E010B5F1F4FC8010E94FE2EE2
:103FF00088ED93E0B8010E94722F8CE291E0B80145
:104000000E94502F82E2B8010E94052FC8010E9431
:10401000561C8CE291E00E94FE2E87E180932004E2
:10402000B3CD86E593E00E947C1288EE93E066E4CF
:1040300074E00E949413109256048DEF93E00E9456
:10404000271C8BE0809320049FCD87E393E00E94A0
:104050007C1284E08093200497CD80E394E00E945A
:1040600071377C019093440480934304109245047B
:1040700088E291E00E94FE2E87E19DE10E94922558
:10408000FE0139968BE0DF011D928A95E9F78AE0FF
:104090008D831E82F887EF838E010B5F1F4FC8014F
:1040A0000E94FE2E82EE93E0B8010E94722FC7019B
:1040B00061E040E098010E949032C8010E94561CC5
:1040C00083E18093200460CD81E3B8CE86E494E060
:1040D0000E94D813882309F457CD10924D048BEE1B
:1040E00093E00E94271C89E1809320044DCD8093AA
:1040F0009304E0919404F0919504309709F00995A8
:10410000089580939704089581E08093980408951A
:1041100080939604089581E080939904089581E046
:1041200080939A040895809193040895009759F01C
:10413000909389048093880470938B0460938A041D
:1041400082E080939204089583E08093920408951E
:1041500080918004882339F480919204882309F4A3
:10416000089581E0089581E008958091800490E0B1
:1041700008950E94292608950E94242608950E94E9
:104180002E2608950E943C260895FF920F931F93B8
:104190008C01F62E8FE691E20E946A258FE08093D3
:1041A0009104F0928004C8010E9433261F910F9160
:1041B000FF9008958F929F92AF92BF92CF92DF921D
:1041C000EF92FF920F931F937C016B015A014901FB
:1041D00008E311E0C8010E94FE2EC701B8010E9449
:1041E000502FD0928704C0928604C5010E94792581
:1041F000909295048092940481E0809392041F91A0
:104200000F91FF90EF90DF90CF90BF90AF909F9075
:104210008F90089588E391E00E94FE2E109287040B
:1042200010928604109289041092880410928B04D4
:1042300010928A048FE08093910484E08093930429
:1042400010929504109294048EE08093960410923C
:1042500097041092980410928004109292048CE7B4
:1042600091E20E94882508951F93182F809192044F
:104270008230B1F010939304E0919404F09195048E
:10428000309711F0812F0995143021F41092950484
:104290001092940410928004109292041F91089539
:1042A000E0918A04F0918B04309721F380E0099526
:1042B000E1CF88E890E20E946F258EE0809396041B
:1042C0008FE691E20E946A258FE0809391048DE051
:1042D0008093800481EA94E00E94332608958093BD
:1042E0009104813009F00895809180048823D9F7E2
:1042F00084E00E9434210895809180048111089502
:1043000080919204823099F084E080939304E0914C
:104310009404F0919504309709F009951092950452
:104320001092940410928004109292040895E091E7
:104330008A04F0918B04309739F380E00995E4CF3B
:104340000F931F93DF93CF93CDB7DEB7CB54D040FD
:104350000FB6F894DEBF0FBECDBFFE01359687E4E1
:10436000DF011D928A95E9F786E489831A82FC832E
:10437000EB8380918004873009F4B5C0883088F0E1
:104380008B3009F4BBC08C3050F18D3009F4D3C0B0
:104390008D3008F496C08E3009F441C10E94F514A6
:1043A00012C0833041F08430D0F1853009F4F5C07B
:1043B000863008F04AC080919104873009F487C0A4
:1043C000853009F452C0C55BDF4F0FB6F894DEBFED
:1043D0000FBECDBFCF91DF911F910F91089589300E
:1043E00009F491C08A3008F45FC0909191049A302A
:1043F00029F080919A04882309F4F6C001E0E09145
:104400008A04F0918B04309731F0802F0995109237
:104410008B0410928A04002341F181E027C081308F
:1044200009F4C3C0823028F180919104873041F6AD
:1044300080919704882309F04AC087E194E00E94A4
:104440007C1284E00E943421BECF8CE894E00E946C
:10445000D813882351F480919104833009F4E7C084
:10446000853019F0823009F0AECF84E00E9434210B
:10447000AACF80919304813009F4C5C0843009F03B
:10448000A2CF00919204013009F09DCF80E00E94FC
:1044900077200E948A1D84EF91E06CE874E00E940E
:1044A0009413009380048FCF80919904882309F09E
:1044B00097C0809191048530C1F2813009F083CF9B
:1044C000D4CF80919104853051F08B3099F40E94C3
:1044D000592179CF80919204833009F0B4C084E0EF
:1044E0000E94342170CF80919104873009F4B5C0C7
:1044F0008530A9F3813009F066CFF1CF8091910426
:104500008823B1F7ECCFE0918804F09189040995F4
:10451000882309F458CF0E94BF258BE094E00E94C5
:104520007C128CED95E06CE874E00E9494138AE0B4
:104530008093800448CF009196040E3009F4B9CFDF
:104540000A3041F20B3008F076C0063009F4A3C0FF
:10455000093009F478C080919204823009F4CBC00C
:10456000833009F4BDC0813009F02DCF043009F447
:104570007EC1053008F0DEC0013009F464C00130AE
:1045800008F469C1023009F451C1033009F412C1C1
:10459000109280041092920416CF80919804882380
:1045A00009F095CF809191040BCF8CE894E00E94A4
:1045B000D813882309F059CF0E94D81B882309F407
:1045C00002CF0E94EA1B882309F459C081E890E2D7
:1045D0000E948D258EE294E062E00E94C520F3CE19
:1045E00089E080938004EFCE993059F0953049F0FE
:1045F000913039F08CE894E00E94D813882309F4B4
:10460000E2CE00E0FCCE80919204823019F083303B
:1046100009F0D9CE0E9477200E945921D4CE81E89A
:1046200094E00E94D813882309F4CDCE50CF81E0C6
:104630000E943421C8CE0D3009F44CCF0E30D1F198
:104640000C3009F088CF84E690E061E874E00E94C5
:1046500094138EE080938004B6CE109299048BE878
:1046600090E20E94BA2510929A048FE890E20E948C
:10467000832588E394E068E00E94C520A4CE8FE102
:1046800094E00E947C1288E391E00E94FE2E84E078
:104690000E94342198CE8FE691E20E946A258FE035
:1046A000809391048CE08093800483E494E00E94E2
:1046B000332689CE88E890E20E946F258EE08093B1
:1046C00096048FE691E20E946A258FE08093910420
:1046D0008DE08093800481EA94E00E94332673CEBB
:1046E0000630A0F4013008F0C0CE85E994E06BE01C
:1046F0000E94C52068CE063098F4013008F0B5CE8F
:104700008BE894E067E00E94C5205DCE083009F494
:10471000ACCE0B3009F4A9CE073009F039CFE5CF84
:10472000083009F4A2CE0B3009F49FCE073009F00F
:104730002FCFE6CF073009F48EC0083008F0A5C0AF
:10474000053009F025CF8E010F5F1F4FC8010E9471
:10475000FE2E87E794E0B8010E94722F88E391E073
:10476000B8010E94502F83E794E0B8010E94722F95
:10477000809186049091870461E040E098010E9456
:10478000903281E794E0B8010E94722F8CED95E0A1
:104790006CE874E00E9494138FE691E20E946A250F
:1047A0008FE08093910486E080938004C8010E948A
:1047B0001B2609CE8E010F5F1F4FC8010E94FE2EDF
:1047C00087E694E0B8010E94722FC8010E94411050
:1047D00082E2B8010E94052F0E941E11882321F455
:1047E0000E9419118823A1F084E694E0B8010E9488
:1047F000722FC8010E943B1080E694E0B8010E942D
:10480000722FC8010E94351082E2B8010E94052F64
:104810008FE691E20E946A258FE08093910483E005
:1048200080938004C8010E941B26CDCD84E890E2CD
:104830000E947425109298048FE691E20E946A25E6
:104840008FE08093910485E08093800487E594E075
:104850000E943326B8CD81E080939304E0919404C4
:10486000F0919504309709F493CE099591CE8FE697
:1048700091E20E946A258FE0809391040093800466
:104880008EE494E00E9433269ECD083009F45BCF7D
:104890000B3009F07DCE57CF089580919B04089589
:1048A00090939D0480939C04089590939F0480931B
:1048B0009E047093A1046093A00408950E94932025
:1048C000813019F020E0822F089520E080919E042D
:1048D00090919F04892BB9F721E0822F08950E94BF
:1048E000851080939B04089510929B04882309F4FB
:1048F000089580E00E94D110089591E090939B0468
:10490000882309F4089581E00E94D11008950F933F
:104910001F93DF93CF93CDB7DEB7AD970FB6F89463
:10492000DEBF0FBECDBF8091A204823009F45BC010
:10493000833070F0843009F46DC0843008F04AC0D0
:104940000E9493208230D9F584E08093A20437C07E
:10495000882399F50E949320813009F466C0843041
:1049600071F580919B04882351F183EA94E00E94C1
:10497000D813882321F1FE01359689E2DF011D92CB
:104980008A95E9F788E289831A82FC83EB838E019A
:104990000F5F1F4FC8010E9423100E94AA0FBC0185
:1049A00040919C0450919D04C8012CE434E20E9483
:1049B000DA2081E08093A20402C0813019F1AD9623
:1049C0000FB6F894DEBF0FBECDBFCF91DF911F9120
:1049D0000F910895853099F70E949320843079F7DC
:1049E0001092A204ECCF0E9493208130C9F384304E
:1049F00031F788EC90E063EA74E00E94941310921F
:104A0000A204DDCF0E9493208823C9F682E0809320
:104A1000A204D5CF0E949320823089F210929F0485
:104A200010929E041092A204CACF80919B04882306
:104A300089F080919E0490919F04009709F4BFCF64
:104A40006091A0047091A1040E94962083E080935D
:104A5000A204B5CF0E94A42085E08093A204AFCF2A
:104A60000E94851080939B0410929D0410929C04D8
:104A700010929F0410929E041092A1041092A00420
:104A80001092A20488EE93E063EA74E00E9494130B
:104A9000089581E0809391050895109291050895FD
:104AA00080919205823091F0833050F0833061F034
:104AB000843041F480919105882351F484E0089575
:104AC0008130C1F380E0089583E0089582E0089585
:104AD00081E008959093A2058093A1050895909395
:104AE000A4058093A30508959093A6058093A5053A
:104AF00008959093A8058093A70508959093AA051B
:104B00008093A90508959093AC058093AB05089513
:104B10009093AE058093AD0508959093B005809372
:104B2000AF0508959093B2058093B10508959093D1
:104B3000B4058093B30508959093B6058093B505A9
:104B400008959093B8058093B70508959093BA059A
:104B50008093B90508959093BC058093BB05089593
:104B60009093BE058093BD0508959093C0058093F2
:104B7000BF0508959093C2058093C105089580E014
:104B80006AE10E948A2B08951F93CF93DF93FC0163
:104B900014911123B9F0EC012196612F62956F7089
:104BA0006A30B0F0695C80E00E948A2B612F6F70E0
:104BB0006A3060F0695C80E00E948A2BFE011491EB
:104BC000112351F7DF91CF911F910895605DF3CFCD
:104BD000605DE9CF1F93CF93DF93FC011081112318
:104BE00031F1EC010FC0695C80E00E948A2B612FDB
:104BF0006F706A30A8F0695C80E00E948A2B18818F
:104C00001123A9F02196612F62956F706A3058F7D1
:104C1000605D80E00E948A2B612F6F706A3058F7C8
:104C2000605D80E00E948A2B1881112359F7DF9183
:104C3000CF911F910895BC0180E00E946B2C80E011
:104C40006DE00E948A2B0895BC0180E00E946B2CCD
:104C50000895BC0180E00E949B2B0895BC0180E078
:104C60000E94E52B0895BC0180E00E94E52B80E0C6
:104C70006DE00E948A2B089580E00E94702B0895B9
:104C8000EF92FF920F931F93DF93CF9300D00F9279
:104C9000CDB7DEB78C017B01BE016F5F7F4FAE01E8
:104CA0004E5F5F4F98010E9411348981882361F41F
:104CB000F70110820F900F900F90CF91DF911F910D
:104CC0000F91FF90EF9008958A81F7018083C801CA
:104CD0000E941930EFCFEF92FF920F931F93DF9353
:104CE000CF9300D000D0CDB7DEB78C017E01089401
:104CF000E11CF11CB701A8010E9421356B817C8168
:104D000089819A8140E451E00E94292FC801B701AE
:104D1000A8010E9421356B817C8189819A8144E4BC
:104D200051E00E94292F82E080939B050F900F9005
:104D30000F900F90CF91DF911F910F91FF90EF9007
:104D400008952F923F924F925F926F927F928F922F
:104D50009F92AF92BF92DF92EF92FF920F931F93B9
:104D6000DF93CF93CDB7DEB7A5970FB6F894DEBF2C
:104D70000FBECDBF8FB7F8948FBFE0919305F09130
:104D80009405D480DD2009F458C038E0A32EB12C5E
:104D9000AC0EBD1E22E0222E312C2C0E3D1E4E01EB
:104DA0000894811C911C96E0692E712C6C0E7D1E5E
:104DB00080E1482E512C4C0E5D1E2DC09D3009F413
:104DC000BEC09A3029F480919A058D3009F48BC0C9
:104DD000192F892F6CE371E00E94052F80913D010E
:104DE000E82FF0E0E230F10574F0E0903E01F09041
:104DF0003F01D7018C9111969C918E3309F4C0C06C
:104E00008B3209F4CCC010939A05DA94B1F0E0919A
:104E10009305F0919405CF010E943C31982F809129
:104E20009B05813081F1813048F2823009F44CC019
:104E3000192F10939A05DA9451F7809192058130D9
:104E400009F4F7C0813008F45EC0823009F404C16F
:104E5000843009F465C0A5960FB6F894DEBF0FBE86
:104E6000CDBFCF91DF911F910F91FF90EF90DF9019
:104E7000BF90AF909F908F907F906F905F904F907A
:104E80003F902F900895192F892F6CE371E00E94B5
:104E9000052F80913D0190E020919C0530919D056A
:104EA0008217930708F4AFCFE091A705F091A8050A
:104EB000309719F08CE391E009958CE391E00E9422
:104EC000FE2E10929B059FCF9D3079F09A3021F4F1
:104ED00080919A058D3039F0192F892F6CE371E09C
:104EE0000E94052F90CF1AE08ECF80919E058550AD
:104EF000823008F48BC08CE391E00E94FE2E109269
:104F00009B051DE080CF80919105882309F4A3CFF4
:104F10008FE08093E006559A81E0809392059BCFC5
:104F200085E995E00E94D813882309F494CF8FE097
:104F30008093E006559A81E0809392058CCF809112
:104F40003D018823B9F000913E0110913F01D80145
:104F50009C919B3209F4C8C0892F80538A3008F095
:104F600092C0E091A505F091A605309719F08CE369
:104F700091E009958CE391E00E94FE2E1DE043CF65
:104F8000903209F040CFE091C105F091C205309711
:104F900009F009958CE391E00E94FE2E34CF9934FC
:104FA00009F031CFEE0DFF1D319780818A3309F072
:104FB0002ACFC70167EE76E00E94953AE816F90617
:104FC00009F021CF8CE391E065E070E0A5010E943B
:104FD000BE3019821B821A82C501B401A10195015C
:104FE0000E9411348981882309F40DCFC5010E94E4
:104FF00007308A3309F007CF8A819B8190939D0502
:1050000080939C0581E080939B05C4CFE091B1051E
:10501000F091B205309709F46ECF80919F05909181
:10502000A00560E471E044E451E02CE331E009952F
:1050300062CF8091E0068830E1F0863009F4C1C08B
:105040008D3009F008CF559880919105882309F09B
:1050500043C110929205FFCE80919105882309F0FB
:10506000FACE8FE08093E006559A81E08093920516
:10507000F2CE559880919105882309F4A8C082E06A
:1050800080939205E8CE933509F4BFC0943409F4B7
:10509000A8C08CE391E0B5010E94DB30C5016DE34F
:1050A00075E04EE050E00E948E318093E00686303D
:1050B00009F403C1873008F076C0823009F402C1D8
:1050C000833008F0D0C0813021F488EC96E00E9453
:1050D0007C12E091A105F091A205309709F44ACF26
:1050E0008091E006099546CF8CE391E0B5010E94DE
:1050F000DB308BE26AE3A5019E01245F3F4F85010F
:105100000E947434CE010C966AE975E04DE050E0DF
:105110000E948E3180939E05863009F4A3C18730AA
:1051200008F0ABC0823009F405C1833008F0EFC04D
:10513000882309F49FC1813009F01CCFC501B20159
:1051400040E050E00E9421358E010C5E1F4FC201ED
:10515000B8010E944026C201BE016B5E7F4F0E94D3
:105160004026C201BE016A5E7F4F0E944026C201F6
:10517000BE01695E7F4F0E944026C201BE01685E8B
:105180007F4F0E944026C201BE01675E7F4F0E9492
:105190004026E091BD05F091BE05309709F4EACEB6
:1051A000C8010995E7CE893009F462C08A3008F059
:1051B0004CC0883009F08DCF8EE996E00E947C12B9
:1051C00088CF559880919105882309F442CF88ECC7
:1051D00090E065E975E00E94941384E08093920565
:1051E0003ACEC80165E776E00E94953A081719079C
:1051F00009F04FCFE091AB05F091AC05309709F481
:10520000B9CE80E090E00995B5CEC80162E876E0BD
:105210000E94953A0817190709F03BCF8CE391E0FB
:1052200067E070E0A5010E94BE30C50169E576E047
:105230004EE050E00E948E31E091A305F091A4056C
:10524000309709F497CE099595CE8D3009F43FC07B
:105250008E3009F03ECF87E996E00E947C12C501AE
:105260000E94721236CF833019F1853009F031CFA8
:1052700081EC96E00E947C122CCF8A3009F4C9C0E0
:105280008B30A0F5883009F4A3C0893009F072CEC4
:10529000C501B20140E050E00E942135E091BB051C
:1052A000F091BC05309709F465CEC201099562CE34
:1052B0008CED96E00E947C120CCF83EB96E00E946E
:1052C0007C1207CF8FEC96E00E947C1202CF85EA19
:1052D00096E00E947C12FDCE80EE9EE265E975E0CC
:1052E0000E94941384E080939205B5CD8C3009F42C
:1052F0001AC18C3008F401C18D3009F03BCE8AE828
:1053000096E00E947C12C5010E94721233CE843056
:1053100009F447C0853038F1C5010E946E31C501DE
:10532000B4014FE955E095010E941134C5010E9476
:105330006B2620CEC5010E946E31C501B401A301C8
:1053400020E030E00E9411348981882309F412CED4
:10535000E091B305F091B405309709F40BCE8E813E
:105360009F81099507CEC5010E946E31C501B40128
:10537000A30120E030E00E9411348981882309F4E0
:10538000F9CDE091AF05F091B005309709F4F2CD79
:1053900020E08E819F81892B09F021E0822F0995E1
:1053A000E9CDC5010E946E31C501B401AE01465E72
:1053B0005F4F95010E9492338981882309F4DACDE9
:1053C000C5010E9407308C3209F4C1C01982D2CDC8
:1053D000C501B201A5010E942135C5010E94073017
:1053E0008C3209F0C7CDC5010E941930C501B40146
:1053F000A30120E030E00E9411348981882309F460
:10540000B9CDE091B905F091BA05309709F0A7CF71
:10541000B1CDC5010E946E31C501B401A301950152
:105420000E9411348981882309F4A4CDC5010E940A
:1054300007308C3209F09ECDC5010E941930C5019C
:10544000B401A30120E030E00E9411348981882357
:1054500009F490CDE091B705F091B805309709F0C7
:105460007ECF88CD1092A00510929F05C5010E94A5
:105470006B2680CDC5010E946E31C501B401A1012A
:1054800095010E9411348981882309F473CDC501E7
:105490000E9407308C3209F06DCDC5010E94193091
:1054A000C501B401AE014C5F5F4F95010E941134FC
:1054B0008981882309F45ECDC5010E9407308C32B2
:1054C00009F058CDC5010E941930C501B401A301EE
:1054D00020E030E00E9411348981882309F44ACD0C
:1054E000E091BF05F091C005309709F443CD4E819E
:1054F0005F818A816C8109953DCDC5010E946E3125
:10550000C501B401A30120E030E00E94113489817B
:10551000882309F42FCDE091B505F091B6053097B9
:1055200009F01DCF27CDC5010E946E31C50161E98B
:1055300076E00E946E30882309F41CCDE091AD0521
:10554000F091AE05309709F415CD099513CDC5013D
:105550000E9419308981882309F40CCDC501B4015A
:10556000AE01425E5F4F95010E949233898188238C
:1055700009F400CDC5010E9407308C3209F026CF16
:10558000C5010E9419308981882309F4F3CCC50133
:10559000B401AE014E5D5F4F20E030E00E949233D7
:1055A0008981882309F4E6CCE091A905F091AA0548
:1055B000309709F4DFCCCE014A960995DBCC909365
:1055C00094058093930555985D98109291051092DB
:1055D00092058FE08093E00610929A0510929B0549
:1055E0001092A2051092A1051092A4051092A30595
:1055F0001092A6051092A5051092A8051092A70575
:105600001092AA051092A9051092AC051092AB0554
:105610001092AE051092AD051092B0051092AF0534
:105620001092B2051092B1051092B4051092B30514
:105630001092B6051092B5051092B8051092B705F4
:105640001092BA051092B9051092BC051092BB05D4
:105650001092BE051092BD051092C0051092BF05B4
:105660001092C2051092C10580E00E941B2C80E0C0
:105670000E943B2B08959AE0899FF0011124ED537D
:10568000FA4F81E0808311820895282F30E0F901DC
:10569000EE0FFF1FEE0FFF1FEE0FFF1F220F331F36
:1056A000E20FF31FED53FA4F108208959AE0899F9D
:1056B000F0011124ED53FA4F8181882319F020E085
:1056C000822F08958FB7F8948FBF20E00084F18572
:1056D000E02D84819581892B99F721E0822F08950F
:1056E000282F30E0F901EE0FFF1FEE0FFF1FEE0F26
:1056F000FF1F220F331FE20FF31FED53FA4F0084F9
:10570000F185E02D2681378184819581281B390B15
:10571000C9010895262F9AE0899FF0011124ED53C5
:10572000FA4F8081882309F4089560857185822F5E
:105730000E94FC300895EF92FF920F931F93CF9336
:10574000DF93DB019AE0899FF0011124ED53FA4FBA
:105750008081882399F0E084F184CD91DC911197C8
:1057600012960D911C911397C017D10739F08991AA
:10577000B7010E94FC30C017D107C9F7DF91CF9164
:105780001F910F91FF90EF9008950F931F93CF9368
:10579000DF93DB019AE0899FF0011124ED53FA4F6A
:1057A0008081882369F0008511858C91882341F0E0
:1057B000EB01B8010E94FC30898121968823C9F74A
:1057C000DF91CF911F910F9108950F931F93CF9366
:1057D000DF93EB019AE0899FF0011124ED53FA4F1A
:1057E0008081882311F480E017C000851185CB01EA
:1057F0000E94573A2FB7F8942FBFF80126813781BE
:1058000044815581241B350B2817390760F3FE01AD
:105810008491882331F481E0DF91CF911F910F9122
:1058200008952196B8010E94FC30FE0184912196D2
:10583000882389F3F7CFCF92DF92EF92FF920F93F5
:105840001F939AE0899F7001112483EC95E0E80E84
:10585000F91E74E0C72ED12CCE0CDF1C862F642FCE
:1058600041E021E086010E944B38C6010E94D238F7
:10587000F7011082808591850E94F1301F910F9170
:10588000FF90EF90DF90CF900895E3ECF5E021E0FA
:1058900030E048E451E01082C901019749F4518792
:1058A00040873A962F5F3F4F1082C9010197B9F3A5
:1058B000019741F022303105A4F386EA9CE20E9470
:1058C0006A13089582E591E09187808786EA9CE2D9
:1058D0000E946A130895CF92DF92EF92FF920F9386
:1058E0001F93DF93CF9300D000D0CDB7DEB7182F32
:1058F000CB01BE016F5F7F4F0E94DB308AE0189FB3
:10590000F0011124ED53FA4F8081882391F0C08477
:10591000D18409811A81EB80FC800E151F0549F0A6
:10592000F80181918F01B6010E94FC30E016F1066A
:10593000B9F70F900F900F900F90CF91DF911F91BB
:105940000F91FF90EF90DF90CF9008958091C30565
:10595000882379F08091C405813009F458C08130E2
:10596000E0F0823031F487EC95E00E94D23810925A
:10597000C4058091CD05882379F08091CE058130D2
:1059800009F45CC0813030F1823031F481ED95E072
:105990000E94D2381092CE0508958FB7F8948FBF29
:1059A000E091CB05F091CC0584819581892B09F399
:1059B00087EC95E00E94EA388091CB059091CC0568
:1059C0000E943C318093C50581E08093C605809399
:1059D000C405CFCF8FB7F8948FBFE091D505F09174
:1059E000D60584819581892BB9F281ED95E00E94DD
:1059F000EA388091D5059091D6050E943C3180937C
:105A0000CF0581E08093D0058093CE0508958091E5
:105A1000C50580FD2AC087EC95E00E94EA38809198
:105A2000C605883081F18091C6058F5F8093C605D9
:105A30008091C50586958093C5059BCF8091CF0544
:105A400080FD18C081ED95E00E94EA388091D00574
:105A50008830A9F08091D0058F5F8093D005809128
:105A6000CF0586958093CF05089587EC95E00E9439
:105A7000D238D5CF81ED95E00E94D238E7CF82E0D1
:105A80008093CE05089582E08093C40572CF809103
:105A90009F06882351F41092A00680916B008061CC
:105AA00080936B0081E080939F06089580919F060C
:105AB000882361F080916E008D7F80936E008091CD
:105AC0006B008F7E80936B0010929F0608958CE58B
:105AD00091E008951F920F920FB60F9211248F93A9
