:100000000C94D1080C94ED080C94ED080C94ED08B8
:100010000C94ED080C94ED080C94ED080C94ED088C
:100020000C94ED080C9427280C9424390C94E9388E
:100030000C9420250C94ED080C94ED080C94ED081C
:100040000C94ED080C94ED080C94ED080C94ED085C
:100050000C94ED080C945D280C94ED080C94ED08BC
:100060000C94ED080C94ED080C94ED080C94ED083C
:100070000C94ED080C94ED080C94ED080C94ED082C
:100080000C9498240C94ED080C94ED080C94ED0855
:100090000C94ED080C94ED080C94ED080C94ED080C
:1000A0000C94ED080C94ED080C94ED0873746163E6
:1000B0006B20636F6C6C6973696F6E2100120110A5
:1000C0000102000008EB034B2001000102DC0109E2
:1000D000023E00020100C0320904000001020201D8
:1000E000000524001001042402060524060001076F
:1000F0000582030800FF09040100020A000000074E
:100100000504021000050705830210000504030919
:100110000418034400650061006E00200043006184
:10012000006D0065007200610000002E034C005558
:10013000004600410020005500530042002D0052AF
:10014000005300320033003200200041006400619F
:1001500000700074006500720000000D0A0000527B
:10016000454320554E524541440052454320524597
:1001700041440053544F20554E53454E5400535460
:100180004F2053454E5400414C4C005E015F016AC4
:100190000173017E018701457865436D643A004132
:1001A000542B435245473F00534D532073656E64B3
:1001B000206572726F7200534D532073656E740028
:1001C00073656E64696E6720534D5300476F7420EA
:1001D000434D47522E0052656769737465726564BA
:1001E0002E0041542B434950484541443D31004184
:1001F000542B4349505153454E443D0041542B43E9
:100200004D47463D310050494E2072656164792E5C
:100210000041544530003E2043656C6C20526561BE
:100220006479203C003E2044697361626C696E67AA
:100230002043656C6C203C003E20456E61626C6919
:100240006E672043656C6C203C0021212054696D51
:10025000656F75742021210041542B434D47533D58
:10026000220041542B434D47523D0041542B434300
:100270004C4B3F0041542B434D47443D0041542BD0
:100280004353510041542B4342430073656E742025
:100290004374726C2D5A006E6F2047505253006E9B
:1002A0006F74207265676973746572656400415488
:1002B0002B43474154543F0041542B43495053452D
:1002C0004E440041542B4349505348555400415427
:1002D0002B43494943520041542B43494653520052
:1002E000222C22002C220041542B435354543D22F3
:1002F000002200222C220041542B434950535441E8
:1003000052543D22544350222C220041542B434945
:100310005041434B0041542B434950434C4F5345AC
:100320000041542B434950535441545553000D0A36
:10033000000D006964007443616C4F6666736574F8
:10034000007574634F666673657400776C6D5469ED
:100350006D656F7574007265626F6F740041504E09
:10036000006369707173656E64006970736572769D
:100370006572006C6F67496E74657276616C0050CF
:10038000494E006F6E006F666600756E7265636F32
:10039000676E697A656420636F6D6D616E64006578
:1003A00065777269746500454556616C0045454145
:1003B0006464720065657265616400736D73006EDC
:1003C0006F7469667900757074696D650043757244
:1003D00054696D650074696D650049505F506F72B6
:1003E000740049505F4164647200506173737764B4
:1003F000005573657200676574007365740064610D
:100400007461006C636400746F007374617475735D
:1004100000223A2200223A22007B00223A002020C9
:10042000002C543A002C703A002C6D3A002C713A92
:10043000002C723A002C56633A002C73743A006414
:100440006F6E65004552524F520A004F4B0A0057DB
:100450004C442074696D656F7574005A0A00490038
:10046000706F776572696E6720646F776E00202009
:100470002000513A0025202000423A00543A002042
:1004800020006173206F66200020200000151C1CD6
:1004900083AA5050013C1E080240002A2A0D78020F
:1004A0000A111D2335414B4B423A271B0809030211
:1004B0000A111D2335414B4B423A271B0809030003
:1004C0000153756E4D6F6E5475655765645468754C
:1004D000467269536174007368757474696E67203D
:1004E000646F776E2E2E2E005461646A3A200043AA
:1004F0004C4F5345204F4B00434C4F534544004312
:100500004F4E4E454354204641494C00434F4E4EBA
:10051000454354204F4B0043616C6C20526561642D
:1005200079004552524F52004E4F524D414C20508F
:100530004F57455220444F574E004F4B005244599D
:100540000053454E44204641494C0053454E4420FB
:100550004F4B0053485554204F4B00534D5320529E
:100560006561647900554E4445522D564F4C5441B7
:10057000474520504F57455220444F574E00EF04F7
:10058000F804FF040C051705220528053A053D056A
:1005900041054B0553055B05650543424300434355
:1005A0004C4B004346554E00434741545400434989
:1005B0005041434B00434D474C00434D475200438D
:1005C0004D475300434D5449004350494E00435258
:1005D00045470043535100504450009A059E05A3DF
:1005E00005A805AE05B505BA05BF05C405C905CE04
:1005F00005D305D705434F4E4E454354204F4B007E
:10060000495020434F4E46494700495020475052D9
:100610005341435400495020494E495449414C00EC
:10062000495020535441525400495020535441548E
:1006300055530050445020444541435400534552C3
:10064000564552204C495354454E494E4700544359
:100650005020434C4F5345440054435020434C4F8B
:1006600053494E470054435020434F4E4E45435448
:10067000494E470055445020434C4F534544005584
:10068000445020434C4F53494E470055445020435B
:100690004F4E4E454354494E4700F50500060A06A5
:1006A00015062006290633063D064E065906650640
:1006B00074067F068B064441544120414343455014
:1006C000543A0053544154453A2000756E726563A4
:1006D0003A00444541435400756E7265633A0052D6
:1006E000656164792100556E646572766F6C746122
:1006F00067652100506F776572656420446F776E7F
:1007000021004661696C656400436C6F7365640029
:10071000436F6E6E656374204641494C00436F6EB3
:100720006E656374204F4B002B4950442C003733C7
:10073000353300686F6C6F6772616D000000746F15
:100740006E797A2E64796E646E732E6F726700FF15
:10075000FFFFF0F0CF3CF38A20063031031818C7B2
:10076000FFBFFC31031818C7FFBFFC31011818C0C8
:10077000C606300403E1FF726C4788F107207E0350
:10078000F017023C4788F11B267FC3E010020000EF
:100790000603C0407E0C0E7080C3180C3100E73099
:1007A00007E6003C40000C7C008FE019C7011830C0
:1007B0003183021C7040FE0407C00F007E039C0CB6
:1007C0003030C0E701F803803E01CC6E19B07CC028
:1007D000F303CE1F9FE61E1CFFA0088C663198C64F
:1007E000318C63086308610C208218C318C318C6D3
:1007F000318C623188C4620010235BE38D91000C60
:100800000300C030FFFFF0C0300C0300C0F560FFF4
:10081000F0F0020C1020C1020C1020C1020C1020BC
:10082000C1001F07F1C7306E0F80F01E03C0780FA4
:1008300001E03C0EC19C71FC1F0008CFFF8C6318C7
:10084000C6318C63181F0FF987607C0600C018073B
:1008500001C0F0781C0600803007FFFFE03F0FF377
:1008600087606C0C0180707C0F801801803C0780D1
:10087000D873FC1F000180700E03C0D81B06618C6A
:10088000218C33067FFFFE0300600C01803FCFF90F
:1008900080300600DE1FE70E00E00C01803007818B
:1008A000F873FC1F000F07F9C33074018033C7FED3
:1008B000F0DC1F01E03C06C1DC71FC1F00FFFFFC07
:1008C000010060180200C030060180300401803051
:1008D00006018030001F07F1C730660CC18C61FC37
:1008E0003F8E3B01E03C0780D831FC1F001F07F121
:1008F000C7706C0780F01E0761EFFC7980300581BE
:100900009873FC1E00F00003C0F0000F56000007B3
:1009100001E0F83C0F00E007C00F003C00F001FFD1
:10092000FFFF000000FFFFFF000E007801F007C08E
:100930000F00701E0F03C0F008001F1FEE1B03C046
:10094000C0300C060381C0E0300C030000000C0333
:100950000000FE000FFE00F03E07003C380030C1F2
:10096000E0660FD9D861C3C3070F1C1C3C6060F15F
:100970008183C6061B1838EE71E718FDF871E7C0D1
:10098000E00001E00001FFC001FC0003C003C00360
:10099000C007E0066006600E700C300C301C381882
:1009A000181FF83FFC301C300C700E60066006FF0C
:1009B000C7FF3019806C03601B00D80CFFC7FF30E5
:1009C0000D803C01E00F007806FFF7FE0007E03FD6
:1009D000F0E0738066006C0030006000C0018003AE
:1009E00000060006006C00DC031E0E1FF80FC0FF9F
:1009F00083FF8C07300EC01B007C00F003C00F008B
:100A00003C00F003C01F006C03B01CFFE3FF00FFBD
:100A1000FFFFC00C00C00C00C00C00FFEFFEC00CBC
:100A200000C00C00C00C00FFFFFFFFFFFF00600CC8
:100A30000180300600FFDFFB00600C018030060003
:100A4000C0180007F01FFC3C1E70066003E000C0E9
:100A500000C000C07FC07FC003C0036003600730D8
:100A60000F3C1F1FFB07E1C01E00F007803C01E0A8
:100A70000F007803FFFFFFF007803C01E00F0078D4
:100A800003C01E00C0FFFFFFFFF00180C0603018F0
:100A90000C06030180C0603C1E0F07C77F1F00C00B
:100AA0003B01CC0E3070C3831C0CE03380DE03DCD2
:100AB0000E383060C1C3038C06301CC03B0060C0E0
:100AC000300C0300C0300C0300C0300C0300C030F9
:100AD0000C0300FFFFF0E007E007F00FF00FD00F6E
:100AE000D81BD81BD81BCC33CC33CC33C663C663DE
:100AF000C663C3C3C3C3C3C3C183E01F00FC07E015
:100B00003D81EE0F3079C3C61E18F0E7833C1DE02F
:100B10006F01F80FC03E01C003E00FFC0F07860015
:100B2000C60033001B00078003C001E000F000781E
:100B3000003600330018C018783C1FFC03F800FF93
:100B40008FFEC06C03C03C03C03C07FFEFFCC00C31
:100B500000C00C00C00C00C00C0003E00FFC0F072D
:100B60008600C60033001B00078003C001E000F0D0
:100B70000078003600330198C0FC783C1FFF03F971
:100B8000800040FFC3FFCC03B006C01B006C01B067
:100B90000CFFE3FFCC03B006C01B006C01B006C025
:100BA0001B00700FE07FC3839C07600D8006001E52
:100BB000003F803FC00F8007C00F003E00DE0E3FA9
:100BC000F03F80FFFFFF0600600600600600600641
:100BD0000060060060060060060060060060C01E3F
:100BE00000F007803C01E00F007803C01E00F00712
:100BF000803C01E00F80EE0E3FE07C006006C01DEF
:100C0000C031806301C70306060C1C1C301860311C
:100C1000C073006600DC01F001E003C00700E030B3
:100C20001D80E0760781D81E06707C18C1B0E30CE9
:100C3000C38C330C38C6306718C198670661D81D5D
:100C400083603C0D80F03E03C0700F01C0180700A8
:100C5000700E6038E060E1C0C301CC01F801E00330
:100C60008007801F003300E70386060E1C0E700C01
:100C7000C01C6006700E301C38181C380C300E700A
:100C8000066003C003C001800180018001800180F3
:100C9000018001800180FFFFFFC00E00E00E0060B8
:100CA00007007007003003803803801801C01C0063
:100CB000FFFFFFC0FFCCCCCCCCCCCCCCCCCCCFF08D
:100CC0008181020604081810206040818102060418
:100CD000FF3333333333333333333FF00C0E058676
:100CE000C321198C83C180FFFEE38C303F07F8E1FC
:100CF000CC0C00C01C3FCF8CC0CC0CE3C7EF3C70C9
:100D0000C00C00C00C00C00CF8DFCF0EE07C03C0AC
:100D10003C03C03C03E06F0EDFCCF81F0FE71B83E2
:100D2000C0300C0300C038371CFE1F0000600C01EF
:100D30008030063CCFFB8FE0F80F01E03C0780F8E5
:100D40003B8F3F63CC1F07F1C7703C07FFFFFE00DE
:100D5000C01C0DC31FE1F03BD8C67FEC6318C63141
:100D60008C63001E67FDC7F07C0780F01E03C07C0B
:100D70001DC79FB1E600C03E0E7FC7E0C0300C0328
:100D800000C033CDFBC7E0F03C0F03C0F03C0F03C5
:100D9000C0F030F03FFFFFF0330003333333333321
:100DA00033333FE0C0180300600C018330C630CC01
:100DB0001B83F0770C618E30E60CC1D818FFFFFF63
:100DC000FFF0CF1F6FDFFC78FC183C0C1E060F03F2
:100DD000078183C0C1E060F03078183C0C18CF3731
:100DE000EF1F83C0F03C0F03C0F03C0F03C0C01FD7
:100DF00007F1C7707C0780F01E03C07C1DC71FC1B0
:100E0000F0CF8DFCF0EE06C03C03C03C03C03E07B3
:100E1000F0EFFCCF8C00C00C00C0001E67FDC7F0D7
:100E20007C0780F01E03C07C1DC79FF1E600C01840
:100E3000030060CF7F38C30C30C30C30C03E1FEEC0
:100E40001B00C03C07F03E01F03E1DFE3E00631952
:100E5000FFB18C6318C631E7C0F03C0F03C0F03C13
:100E60000F03C0F07E3DFB3CC0E0660660670C30BF
:100E7000C30C3981981981F00F00E00E00C1C1B098
:100E8000E1D870CC2C6636319B18CD98646C163640
:100E90000F1A078F038380C1C060EE18C60CC1F023
:100EA0001C0180781B0330C7306606E06C0D833868
:100EB000630C630E60CC1B03603C0700E01803006A
:100EC000E0780E00FFFFF0180C070381C0603018B7
:100ED0000E03FFFFC019CC6318C631998618C631BE
:100EE0008C631C60FFFFFFFFFFFCC718C6318C63DB
:100EF0000C33318C6318C67300703E09E41F038005
:100F000000000000060001000002120803EF0500C7
:100F100006060801F00A000D100D00F124000B1464
:100F20000D01EF400014111501F06B000E111001BE
:100F3000F0890002060501F08B0005170802EF9A00
:100F40000005170801EFA90007070901EFB0000A23
:100F50000B0E02F6BE0002060702FFC000060208E2
:100F600001F9C20002020602FFC30007120700EFE8
:100F7000D3000B110D01F0EB0005110D03F0F6008D
:100F80000B110D01F00E010B110D01F026010B11DB
:100F90000D01F03E010B110D01F056010B110D0179
:100FA000F06E010B110D01F086010B110D01F09E89
:100FB000010B110D01F0B601020D0602F4BA010297
:100FC000100602F5BE010C0C0E01F5D0010C060E48
:100FD00001F8D9010C0C0E01F5EB010A120D02EF1C
:100FE000020216151801EF3C0210121000EF600209
:100FF0000D121002EF7E020F121101EFA0020E126D
:101000001102EFC0020C120F02EFDB020B120E02F4
:10101000EFF40210121201EF18030D121102EF3655
:101020000302120702EF3B0309120D01EF50030EFA
:10103000121002EF70030A120E02EF87031012144F
:1010400002EFAB030D121202EFC90311121301EFED
:10105000F0030C121002EF0B0411131301EF340410
:101060000E121102EF54040E121001EF74040C1250
:101070000F01EF8F040D121102EFAD040F120F00DC
:10108000EFCF0416121600EF01050F121000EF2328
:101090000510121000EF47050D120F01EF65050452
:1010A000170702EF710507120700EF810504170704
:1010B00001EF8D0509090B01F098050F010F0004E0
:1010C0009A0505040601EF9D050C0D0D01F4B1050F
:1010D0000C120D01EFCC050A0D0C01F4DD050B120D
:1010E0000D01EFF6050B0D0D01F4080605120701C1
:1010F000EF14060B120D01F42D060A120D01EF4438
:101100000602120502EF490604170600EF55060B0A
:10111000120C01EF6E0602120501EF7306110D139A
:1011200001F48F060A0D0D01F4A0060B0D0D01F45C
:10113000B2060C110D01F4CC060B110D01F4E406FE
:10114000060D0801F4EE060A0D0C01F4FF06051069
:101150000701F109070A0D0D01F41A070C0D0C0027
:10116000F42E07110D1100F44A070B0D0B00F45C6F
:10117000070B120B00F475070A0D0C01F486070526
:10118000170801EF950702170602EF9B07051708DE
:1011900002EFAA070A050C01F64F07000F207E1D7B
:1011A000EF0611241FBECFEFDAE0DEBFCDBF11E0A6
:1011B000A0E0B1E0E4ECFBE702C005900D92A63898
:1011C000B107D9F717E0A6E8B1E001C01D92A93335
:1011D000B107E1F72FD00C94E03D0C9400002DE016
:1011E00088E190E00FB6F894A895809360000FBE58
:1011F000209360000E94682F0E946B260E94C628E0
:101200000E94A5270E94A513FDD40E94C6110E942A
:10121000C0120E94641C0E9482220E941E230E940F
:1012200046230E94BF310E9455300E94E73C89D07E
:101230000C947018EF92FF920F931F93D0DF789465
:101240000E94EB3C882331F48CEA90E00E94FD126E
:101250000E946F250E94B2250E9407320E94EE2F45
:101260000E94CB290E940A13C2D00E94261210D2DB
:101270000E94AB220E94DE180E94C31C0E94A01F85
:101280000E9477188823E1F20E943A248823C1F64D
:101290000E946F237B018C010E94C02EA0E0B0E071
:1012A000BC01CD012CE330E040E050E00E94F63C70
:1012B0006E157F058007910718F60E946F25C0CF35
:1012C000DA01923049F0933061F09130F9F4EDEBAE
:1012D000F0E022E130E01EC0EFECF0E02EE330E081
:1012E00019C0813049F0813018F0823079F408C09B
:1012F000EDE0F1E0849107C0E1E1F1E0849103C009
:10130000EBE2F1E08491282F30E004C0E0E0F0E06F
:1013100020E030E0ED93FC93C901089580912C0208
:10132000089581E080932C02089510922C02089574
:10133000089584E191E00C943A3C84E191E00C94AE
:10134000133C80E091E00E9422318AE091E00E940B
:1013500022310C94CC380F931F93CF93DF93FC0171
:10136000C081D1810281138105C089916AE071E059
:101370000E942D31C017D10771F08FB7F8948FBF3D
:1013800020910E0130910F01809110019091110177
:101390002817390751F7DF91CF911F910F910895C9
:1013A000CF93DF93EC01FE01449121964423A1F0F9
:1013B0008FB7F8948FBF20910E0130910F0180916B
:1013C0001001909111012817390769F3842F6AE001
:1013D00071E00E942D31E7CFDF91CF910895BBDFFF
:1013E0008BE591E0DDCFDCDF8BE591E0D9CF1F937A
:1013F0008FB7F8948FBF209104013091050180913F
:101400000601909107012817390751F084E191E016
:101410000E94683B97FD04C060E071E00E942D319E
:101420008FB7F89420910E0130910F018FBF2115D5
:10143000310561F1809115018F708093E9008091F1
:10144000E80080FF23C0C9012031310510F08FE092
:1014500090E0182F19C08FB7F8948FBFE091120158
:10146000F091130180910A0190910B01E80FF91F8F
:1014700084E191E060810E94EE3B1150882331F4B9
:101480008AE091E00E946C31112329F784E191E018
:101490000E94D73B0E94543B1F9108950F931F93C6
:1014A000DF93CF9300D000D0CDB7DEB78E010F5FB2
:1014B0001F4FB8010E94D636C8014DDF0F900F9024
:1014C0000F900F90CF91DF911F910F9108950F937F
:1014D0001F93DF93CF9300D000D0CDB7DEB7FC01D0
:1014E00001900020E9F73197E81BF90BE80FF91F8D
:1014F000BF018E010F5F1F4FA8010E941A36C8015D
:101500002ADF0F900F900F900F90CF91DF911F91D6
:101510000F910895E82FF0E0EE0FFF1FE557FE4F03
:1015200025913491C901089591E090932703809308
:101530002803089591E09093320380933303089534
:1015400091E09093300380933103089521E020933C
:101550002903AAE2B3E0FC0186E001900D928150DC
:10156000E1F7089580933503609336035093380371
:1015700040933703089581E080933A03089581E012
:101580008093FE0208951092FE02089590E08091EB
:10159000FC02833009F091E0892F08958091300397
:1015A000882319F480E090E0089590E08091390359
:1015B000873009F091E081E09827892F0895809184
:1015C0003103089520913103213019F481E090E036
:1015D000089580E090E0253011F481E090E00895D6
:1015E0008091330308958091FC0290E0089520E0FB
:1015F0004C9709F421E0822F089580913703909150
:1016000038030895809136030895FC0181E08093AA
:10161000340362817381808191814FE351E00C94A6
:1016200097350F931F938C0182E39BE00E94022960
:101630008FE080933903C8010E9464291F910F91A4
:10164000089580EA9AE00E943429109230038FE9CD
:1016500091E0E7CF109232038DE792E0E2CF84E889
:1016600092E0DFCF80933903813009F4D9C3089524
:101670000F931F938C0182E39BE00E9402298FE06D
:1016800080933903C8010E9455291F910F91089535
:10169000EF92FF920F931F93DF93CF93CDB7DEB7F7
:1016A000E7970FB6F894DEBF0FBECDBF9091FC0256
:1016B0008091FD029817B1F49330A1F00E943A2472
:1016C0008823D1F48FEF92E00E94D0238823A1F0E9
:1016D0008AE492E092D78091FC020E94362F0E9409
:1016E0006F250AC080E596E46FEF72E00E947D23CB
:1016F0008091FC028093FD028091FC028C3009F401
:101700006AC18D3058F5853009F411C1863098F4DE
:10171000823009F46BC0833038F4882309F449C05F
:10172000813009F060C255C0833009F466C084304E
:1017300009F059C26AC0893009F457C18A3038F4B7
:10174000873009F401C1883009F04DC217C18A30D1
:1017500009F453C18B3009F046C281C1873109F4C5
:10176000FAC1883198F4803109F46FC1813138F4BD
:101770008D3009F4F6C08F3009F035C244C1833191
:1017800009F473C1863109F02EC29CC18A3109F473
:101790000AC28B3138F4883109F4F1C1893109F07A
:1017A00022C2FAC18B3109F405C28C3109F01BC287
:1017B0000CC28091FE028823F1F00E94E628882363
:1017C00009F007C288E392E018D70E94DF2885E07D
:1017D00001C28DD310D3843009F007C20E94E328E0
:1017E000109231031092330382E0F4C10E94E62884
:1017F000882309F0FAC183E0EDC18091FE028823BD
:1018000009F4F3C11092FC02F0C18091FE0288231A
:1018100009F483C0D7DE882309F41EC18091380102
:10182000882371F110923A038BEB9AE00E944D29C4
:10183000FE01359683E3DF011D928A95E9F782E385
:1018400089831A82FC83EB838E010F5F1F4FC801CF
:101850000E944B3588E592E0B8010E94D43587E3B9
:1018600091E0B8010E94AE3582E2B8010E94523583
:10187000C801FEDE87E391E00E944B3587E1AAC1F3
:101880008CE093E00E94DE308823A1F58CE093E0A9
:101890000E940A317C019093200380931F031092D1
:1018A000210383E391E00E944B3589E99EE00E9489
:1018B0002529FE0135968BE0DF011D928A95E9F717
:1018C0008AE089831A82FC83EB838E010F5F1F4FAE
:1018D000C8010E944B3582E692E0B8010E94D435DF
:1018E000C70161E040E098010E947433C801C0DE86
:1018F00083E170C1A2D2882311F08CE16BC182E236
:1019000093E00E94D023882309F46FC11092290329
:101910008BE692E086DE89E15DC180E086D57CD2EF
:1019200081E08093FC0285E292E067D65EC10E946E
:10193000E628823009F059C186E192E05ED681E165
:1019400092E06FDE87E046C180913903873009F06D
:101950004CC1109234038DE08093FC021092090375
:1019600044C180913403882309F43FC186E092E0AA
:1019700044D68CEF91E055DE88E02CC1809139038C
:10198000873009F032C1FE01359681E1DF011D92F9
:101990008A95E9F780E189831A82FC83EB838E01C3
:1019A0000F5F1F4FC8010E944B358FEE91E0B801C9
:1019B0000E94D4350E94202F882311F480E301C0B7
:1019C00081E38E010F5F1F4FB8010E945235C8019D
:1019D0004FDE8CE0FFC080913903873009F005C1EC
:1019E00082EE91E01EDE89E0F5C0809139038730F8
:1019F00021F435DE8AE08093FC0280913903873040
:101A000009F0F3C029C0CADD882309F4EEC0DADD8D
:101A1000882361F086ED91E0F0D588EE93E062E2F4
:101A200073E00E947D2316DE8BE0D4C08091FE021D
:101A3000882309F4CEC080E18093FC0288EC90E01A
:101A400064E073E00E947D23D0C084E093E00E94B4
:101A5000D023882309F4C9C0F4DD8FE0BBC0809196
:101A60003903873009F0C1C0B4C080913903873091
:101A700009F0BBC08CEC91E0C0D5E0901F03F09062
:101A80002003FE0135968BE0DF011D928A95E9F770
:101A90008AE089831A82FC83EB838E010F5F1F4FDC
:101AA000C8010E944B3584E792E0B8010E94D4350A
:101AB000C70161E040E098010E947433C801D8DD9D
:101AC00086E188C080913903873009F08EC080910B
:101AD0000B038150823008F07CC0009135011091D9
:101AE0003601C80167E971E00E94B73D0817190780
:101AF00009F06FC08BE391E00E944B3587E391E0E2
:101B00000E944B3587E991E00E94793DBC0183E357
:101B100091E08E010F5F1F4FA8010E94BB36C801E4
:101B20006BE371E0B2D7882309F453C080913C0184
:101B3000882309F44EC080913801882309F049C0F8
:101B400087E391E00E944B358FE291E067E371E01B
:101B50000E94AE353EC080913A03882309F445C007
:101B600080EC91E04AD58BE391E00E945B298BE306
:101B700091E00E944B350E94522988E12BC0809150
:101B80003903873019F487EB91E004C0853069F59B
:101B900088EA91E032D51DC080913903873029F55C
:101BA00059DD8AE117C0809139038730F1F457DDA0
:101BB0008BE110C0809139038730B9F480E797E159
:101BC00062E273E00E947D2304C091D136D1882364
:101BD00021F484E08093FC0208C08091FE028823F7
:101BE00021F41AD102C00E946F25E7960FB6F8942F
:101BF000DEBF0FBECDBFCF91DF911F910F91FF9040
:101C0000EF9008950E94242861E045E00E94892D0C
:101C100085E080930A0384E99AE00E942A298AE9F0
:101C20009AE00E942F2983E59EE00E94392985E0F1
:101C30009BE00E943E2986EA9AE00E94432982EBBB
:101C40009AE00E944829A2D38CE093E00E94D93008
:101C500087E391E00E944B358BE391E00E944B3586
:101C60001092FE021092270310922803109229036B
:101C70001092310310923203109233031092FC023F
:101C800080E596E46FEF72E00E947D2310923003AE
:101C900010923403109235031092360310923803D9
:101CA000109237030895CF93DF93EC018CE093E01B
:101CB0000E94E630882329F4CE016CE073E00E9494
:101CC000EE30DF91CF910895DF92EF92FF920F9364
:101CD0001F93DF93CF9300D000D0CDB7DEB78E0136
:101CE0000F5F1F4FB8010E94D63625E0E22E94E028
:101CF000F92ED02E012F8E2D0DDCBC018D2D902FB5
:101D00000E949236882339F48F2D81508F3F21F025
:101D1000EF2CF82EF0CFFE2C8F2D0F900F900F9000
:101D20000F90CF91DF911F910F91FF90EF90DF9077
:101D30000895CF92DF92EF92FF920F931F93CB0102
:101D40007A01690121E020932103BEDF80930B0318
:101D50000FE211E0C8010E944B35C701B8010E9493
:101D6000AE3503E311E0C8010E944B35C601B8014E
:101D70000E94AE351F910F91FF90EF90DF90CF90B2
:101D8000089510925C0310926E03089580936F0380
:101D9000E0917003F0917103309709F0099508956F
:101DA0001F93182F80916E03823041F4E0916603F7
:101DB000F0916703309711F080E00995812FE6DFFD
:101DC000143021F41092710310927003DADF1F9126
:101DD000089580937303089581E0809374030895B8
:101DE00080937203089581E080937503089581E0E4
:101DF00080937603089580916F030895009759F0BA
:101E00009093650380936403709367036093660304
:101E100082E080936E03089583E080936E030895BB
:101E200080915C03882311F484E0BACF08958093F5
:101E30006D03813009F4F4CF089580915C03882309
:101E400031F420E030E080916E03882311F021E02E
:101E500030E0822F089580915C0390E008950C9407
:101E60005E2908950C945B2908950C9468290895BF
:101E700084E690E06DE573E00E947D238EE0809320
:101E80005C030895FF920F931F938C01F62E87E158
:101E90009FE00E9402298FE080936D03F0925C0323
:101EA000C8010E9464291F910F91FF900895FF922D
:101EB0000F931F938C01F62E87E19FE00E94022969
:101EC0008FE080936D03F0925C03C8010E94552956
:101ED0001F910F91FF90089580EF9EE00E940729C7
:101EE0008EE08093720381E293E06DE0CBCF0F939D
:101EF0001F93DF93CF93CDB7DEB7CB54D0400FB64F
:101F0000F894DEBF0FBECDBFFE01359687E4DF013A
:101F10001D928A95E9F786E489831A82FC83EB8314
:101F200080915C03873009F4E1C0883098F48330F5
:101F300009F473C0843038F4813009F443C082302E
:101F400008F05EC01DC0853009F46CC0863008F012
:101F500074C063C08B3009F4DFC08C3038F4893032
:101F600009F485C08A3008F099C07AC08D3009F430
:101F7000E2C08D3008F4D6C08E3009F0C9C1C0C1AE
:101F800080916F03813021F0843009F0C3C109C012
:101F900080916E03823019F0833009F0BBC1F6DE08
:101FA000B5C100916E03013009F0B4C180E0EEDEEE
:101FB00048DB84EF91E068E673E00E947D230093A4
:101FC0005C03A8C188E693E00E94D023882309F02F
:101FD00094C1E4DA882309F49DC1F4DA882341F03E
:101FE00089EE9EE00E9420298EEA92E062E092C093
:101FF0008FE992E002D383E491E00E944B357DC1EA
:1020000080916D038730A9F480917303882309F0D0
:102010007DC187E992E0F1D270C180916D03873074
:1020200041F474C180917403882309F06FC18091D9
:102030006D03853009F06EC160C188E693E00E94AF
:10204000D023882309F059C180916D03833009F4AE
:10205000BAC0853009F451C1823009F05BC14DC16D
:1020600080917503882309F442C189E014C0E0918E
:102070006403F09165030995882309F44BC10E941C
:1020800052298BE892E0B9D28CED95E068E673E0D6
:102090000E947D238AE080935C033CC190916D0394
:1020A0009A3089F080917603882369F4993069F039
:1020B000953059F0913049F088E693E00E94D023A2
:1020C000882319F427C101E001C000E0E091660314
:1020D000F0916703309731F0802F099510926703D4
:1020E00010926603002309F408C16DC080916D034E
:1020F000873009F0FEC01092750383EF9EE00E94C6
:102100004D291092760387EF9EE00E94162988EBF6
:1021100092E068E0B7DEFEC080916D03882309F08D
:10212000E8C0EBC080916D03853009F4E6C08B30C8
:1021300009F0E1C0EBC0809172038E3009F4D7C082
:102140008A3099F08B3028F4863059F0893091F438
:102150003CC08D3051F08E3009F4D8C08C3051F431
:1021600034C083EC92E06CE0D5CF80916E03833075
:1021700061F5C3C090916E03923009F498C093301A
:1021800009F4A4C0913009F0C5C0843009F45EC0E0
:10219000853050F48130C9F08130A8F08230B9F038
:1021A000833009F0A2C01DC0873069F0883020F468
:1021B000853009F09AC04EC0883009F44BC08B308E
:1021C00009F093C047C081E099C052DEA3C08CEEF5
:1021D0009EE00E940C291092740387ED92E065E066
:1021E00099CF8E010F5F1F4FC8010E944B3587EEBC
:1021F00092E0B8010E94D435C8010E94EE2E82E21E
:10220000B8010E9452350E94452F882321F40E9474
:10221000422F8823B9F084EE92E08E010F5F1F4FAA
:10222000B8010E94D435C8010E94EA2E80EE92E0E7
:10223000B8010E94D435C8010E94E62E82E2B8019E
:102240000E945235CE01019663E02FC08EEC92E0E1
:1022500064E060CF8E010F5F1F4FC8010E944B35B5
:1022600087EF92E0B8010E94D43583E491E0B80191
:102270000E94AE3583EF92E0B8010E94D435809180
:1022800062039091630361E040E098010E9474331F
:1022900081EF92E0B8010E94D4358CED95E068E6BC
:1022A00073E00E947D23C80166E001DE33C0863002
:1022B00018F4813010F506C08830F9F08B30E9F061
:1022C000873099F48BE093E067E024CF863018F4F0
:1022D000813098F406C0883081F08B3071F08730FF
:1022E00021F485E193E06BE015CF4BDD13C08091C5
:1022F0006D03853011F0813069F484E051DD0AC04E
:102300008DE593E00E94D023882321F0E5DD02C013
:102310000E946F25C55BDF4F0FB6F894DEBF0FBE7E
:10232000CDBFCF91DF911F910F9108958F929F9212
:10233000AF92BF92CF92DF92EF92FF920F931F93D3
:102340007C016B015A01490103E411E0C8010E94BC
:102350004B35C701B8010E94AE35D0926303C092DD
:102360006203C5010E94112990927103809270034B
:1023700081E080936E031F910F91FF90EF90DF90AB
:10238000CF90BF90AF909F908F90089583E491E09D
:102390000E944B3510926303109262031092650302
:1023A0001092640310926703109266038FE080938B
:1023B0006D0384E080936F03109271031092700399
:1023C0008EE0809372031092730310927403D9DC31
:1023D00080E19FE00C941B29089580917703089574
:1023E0009093790380937803089590937B0380936F
:1023F0007A0370937D0360937C030895FCDC813045
:1024000019F080E090E0089520E080917A039091A7
:102410007B03892B09F021E081E02827822F089592
:102420000E94142F809377030895109277038823D6
:1024300019F080E00C94262F089591E09093770393
:10244000882319F081E00C94262F08950F931F9391
:10245000DF93CF93CDB7DEB7AD970FB6F894DEBF5D
:102460000FBECDBF80917E03823009F460C08330FF
:1024700030F4882371F0813009F077C053C0843084
:1024800009F466C0843008F45EC0853009F06DC080
:1024900067C0B1DC813021F0843009F066C017C01C
:1024A00080917703882371F080917A0390917B0368
:1024B000009709F45AC060917C0370917D039EDC03
:1024C00083E002C0A9DC85E080937E034EC080914A
:1024D0007703882309F449C08FE793E00E94D02353
:1024E000882309F442C0FE01359689E2DF011D927E
:1024F0008A95E9F788E289831A82FC83EB838E014F
:102500000F5F1F4FC8010E94E22E0E94B12EBC0136
:102510004091780350917903C8012CEE31E106DF38
:1025200081E0D2CF68DC882301F582E0CDCF63DC87
:102530008130C9F08430C9F488EC90E06FE773E033
:102540000E947D2310C057DC823079F484E0BCCF38
:1025500052DC823051F010927B0310927A0303C058
:102560004ADC843011F410927E03AD960FB6F894D5
:10257000DEBF0FBECDBFCF91DF911F910F910895A8
:102580004FDF109279031092780310927B03109220
:102590007A0310927D0310927C0310927E0388EEE2
:1025A00093E06FE773E00C947D230C948E090895FB
:1025B000CF93DF93EC01F9DF882319F0CE010E945D
:1025C000EF09DF91CF9108950F931F93DF93CF937E
:1025D00000D000D0CDB7DEB78E010F5F1F4FB8011E
:1025E0000E94D636C801E4DF0F900F900F900F9035
:1025F000CF91DF911F910F910895CF93DF93EC015D
:102600000E948E09882319F0CE010E94F309DF9100
:10261000CF9108950F931F93DF93CF93CDB7DEB77C
:10262000C555D0400FB6F894DEBF0FBECDBF8FB7F3
:10263000F8948FBF8091040190910501892B09F4D2
:1026400041C080E091E00E946C318D3019F08F37ED
:1026500049F520C08EE293E00E94D0098FE491E01A
:102660008E010F5F1F4FB8010E94D636C80163E587
:1026700071E00BD280915401882339F083E591E019
:10268000A3DF83E591E00E944B358FE491E00E9447
:102690004B350CC08091500181506FE471E00E9475
:1026A000693504C06FE471E00E94523581E393E024
:1026B0000E94D0098FE491E00E944E0A87E491E0E5
:1026C0000E94670A72DF8823A1F18DEA93E00E94DD
:1026D000D023882371F1FE01359681E5DF011D923B
:1026E0008A95E9F780E589831A82FC83EB838E0162
:1026F0000F5F1F4FC80114D181E393E00E94D009FE
:10270000C8010E944E0A8EE293E00E94D009809197
:102710005001882341F08FE491E00E944E0A87E443
:1027200091E00E94670A84E690E06DEA73E00E94FF
:102730007D23CB5ADF4F0FB6F894DEBF0FBECDBF5F
:10274000CF91DF911F910F91089580E090E06DEAA5
:1027500073E00C947D23EF92FF920F931F93DF930E
:10276000CF9300D000D0CDB7DEB78C017B010E94A3
:10277000663219821A821B821C82C801B701AE011F
:102780004F5F5F4F98010E94EA3369817A818B81A4
:102790009C810F900F900F900F90CF91DF911F9120
:1027A0000F91FF90EF900895BC018CE20C9452358C
:1027B000BC018DE70C945235CF92DF92EF92FF92DD
:1027C0000F931F938C016B017A0182E2BA010E9480
:1027D0005235C801B7010E94D43581E194E0B701B8
:1027E0000E94D435C701F601099582E2B7010E9423
:1027F00052351F910F91FF90EF90DF90CF90089589
:10280000CF92DF92EF92FF920F931F938C016B0197
:102810007A0182E2BA010E945235C801B7010E94D2
:10282000D43585E194E0B7010E94D435C60160E05B
:10283000A7010E942A2582E2B7010E9452351F910A
:102840000F91FF90EF90DF90CF9008950F931F931B
:102850008C010E944B3589E194E0B8010E94D43587
:102860001F910F910895CF92DF92EF92FF920F93F5
:102870001F938C016B017A0182E2BA010E945235EA
:10288000C801B7010E94D4358BE194E0B7010E94E2
:10289000D435C60161E040E097010E9474331F9176
:1028A0000F91FF90EF90DF90CF900895CF92DF923D
:1028B000EF92FF920F931F938C016B017A01CA0173
:1028C000C5DFC801B601A701CEDFC70171DF1F91C7
:1028D0000F91FF90EF90DF90CF900895EF92FF92CD
:1028E0000F931F93DF93CF9300D0CDB7DEB78C014A
:1028F0007B010E9466321A821982C801B701AE01BB
:102900004F5F5F4F98010E94563489819A810F90E2
:102910000F90CF91DF911F910F91FF90EF9008954D
:10292000EF92FF920F931F93DF93CF93CDB7DEB754
:1029300027970FB6F894DEBF0FBECDBF7C010E9473
:102940004B358E010D5F1F4FC8010E945B23C801EC
:1029500060E0A7010E942A258AE394E0B7010E9463
:10296000D4350E94F30A62E040E097010E9474337C
:102970000E94F30A0E94F70A882351F08EE2B70101
:102980000E94523568DA62E040E097010E94743399
:102990008CE2B7010E945235B2D390E061E040E092
:1029A00097010E94743385E394E0B7010E94D43507
:1029B0000E94FD0A61E043E097010E94743381E3C5
:1029C00094E0B7010E94D4350E94DF0A90E061E0F4
:1029D00040E097010E9474338DE294E0B7010E94B9
:1029E000D4350E94F00A90E062E040E097010E9436
:1029F000743389E294E0B7010E94D4350E94A82282
:102A000090E061E040E097010E94743385E294E039
:102A1000B7010E94D4350E94A52290E061E040E019
:102A200097010E94743381E294E0B7010E94D4358B
:102A3000CE010196BE016E5F7F4F0E943D248981C9
:102A400090E061E040E097010E9474338DE2B701AD
:102A50000E9452358A8190E061E040E097010E9437
:102A600074330E9446248EE194E0B7010E94D4356D
:102A700027960FB6F894DEBF0FBECDBFCF91DF9182
:102A80001F910F91FF90EF900895CF92DF92EF92F8
:102A9000FF920F931F93DF93CF93CDB7DEB76A9763
:102AA0000FB6F894DEBF0FBECDBFFC017B0181E005
:102AB000898380819181A281B3818A839B83AC8346
:102AC000BD8392E0C92ED12CCC0EDD1E8E010A5F93
:102AD0001F4FC601B8010E94BA34C8016AE074E011
:102AE0000E9492368823C1F01B8A1A8A1D8A1C8A8A
:102AF000C601B8010E94BA34C80167E074E00E94C0
:102B00009236882331F0C601BE016E5E7F4F0E946F
:102B1000BA34C70105DFCCC2C80163E074E00E948B
:102B200092368823D9F0C601BE016F5F7F4FD6DE93
:102B3000982F8981882319F0892F0E942E2FCE018A
:102B40000296BE016F5F7F4FC9DE982F898188236F
:102B500009F4AEC2892F0E942A2FAAC2C8016EEFC3
:102B600073E00E9492368823A1F1C6018E010F5FA7
:102B70001F4FB801B3DEF82E8981882309F498C26B
:102B8000C601B801E8DD6A877B878C879D878981CC
:102B9000882309F48DC2C601B801DDDD6E877F8709
:102BA000888B998B8981882309F482C28F2DBE017D
:102BB000665F7F4FA9D68E859F85A889B9890097C2
:102BC000A105B10509F474C2CE010E960E940C262F
:102BD0006FC2C8016AEF73E00E949236882309F43D
:102BE000EBC0C601B8010E94BA34C80163E373E0C8
:102BF0000E949236882379F0C601BE016F5F7F4F35
:102C00006DDE982F8981882309F452C2892F90E0C4
:102C10000E94DE2E4DC2C80166E373E00E94923628
:102C2000882371F0C601BE016F5F7F4F57DE9C01A4
:102C30008981882309F43CC2C9010E94D62E38C27A
:102C4000C80161E473E00E949236882371F0C601E6
:102C5000BE016F5F7F4F42DE982F8981882309F480
:102C600027C2892F0E943E2F23C2C8016BE473E064
:102C70000E949236882371F0C601BE016F5F7F4FBC
:102C80002DDE9C018981882309F412C2C9010E94AA
:102C9000D22E0EC2C80166E573E00E9492368823E8
:102CA00071F0C601BE016F5F7F4F18DE9C01898104
:102CB000882309F4FDC1C9010E94DA2EF9C1C801B7
:102CC0006DE573E00E9492369801F02EE32E882382
:102CD00011F18E010E5F1F4FC801622F732FA801E3
:102CE0000E9433358F2D9E2D0E94082FC8016F2D15
:102CF0007E2DA8010E9433358F2D9E2D0E94022F1C
:102D0000C8016F2D7E2DA8010E9433358F2D9E2D79
:102D10000E94FC2ECDC1802F932F61E673E00E94AC
:102D20009236882379F0CE010296BE016F5F7F4F05
:102D3000D5DD982F8981882309F4BAC1892F0E9493
:102D4000322FB6C1802F9E2D6AE673E00E94923624
:102D50008823D1F08E010E5F1F4FC8016F2D7E2D8D
:102D60000E94BA34C801BE016F5F7F4FB7DD8C018E
:102D70008981882309F49CC18F2D9E2D0E94F62EF7
:102D8000C8010E94C62E94C1802F9E2D63E773E078
:102D90000E949236882309F433C1CE010296BE0107
:102DA0006F5F7F4F9BDD9C018981882309F480C17F
:102DB000C9010E94CE2E7CC1C80166EF73E00E945B
:102DC0009236882309F4D1C0C601B8010E94BA34F2
:102DD000C8016FE773E00E949236882339F0C7017B
:102DE00035DD8FE793E062EF7EE264C0C80163E304
:102DF00073E00E949236882331F00E94C32EBC01FA
:102E000083E393E08BC0C80166E373E00E949236CF
:102E1000882331F00E94BD2EBC0186E393E07EC082
:102E2000C80161E473E00E949236882349F00E9451
:102E3000232F682F772767FD709581E493E06EC09C
:102E4000C8016BE473E00E949236882331F00E943F
:102E5000BA2EBC018BE493E061C08E010A5F1F4F64
:102E6000C80166E573E00E949236882331F00E9423
:102E7000C02EBC0186E593E051C0C8016DE573E04A
:102E80000E9492368823C9F0C701E0DC8DE593E00B
:102E90006EEE7EE2A70190DCC70186DC81EF93E055
:102EA0006AEE7EE2A70188DCC7017EDC8AEE93E051
:102EB00066EE7EE2A70180DCD2C0C80161E673E065
:102EC0000E949236882339F00E94202F682F81E6D5
:102ED00093E070E023C0C8016AE673E00E94923676
:102EE000882381F0C701B2DC82EE93E062EE7EE2DD
:102EF000A70162DCC70158DC0E94B12EBC018AED3B
:102F000093E0ABC0C80163E773E00E949236882368
:102F100041F00E94B72EBC0183E793E0A701C6DC15
:102F2000C7C0C80165ED73E00E949236882309F49A
:102F300067C0C7018BDC8E010A5E1F4FC8010E946B
:102F40005B238DEC93E0B801A7015ADCC7012CDCB0
:102F50000E946F236E8B7F8B888F998F1A8E86ECE1
:102F600093E0B801A7014CDC7AC0C8016FEB73E0B5
:102F70000E9492368823C1F0C601B8010E94BA347B
:102F8000C80163E873E00E949236882311F081E063
:102F900008C0C80166E873E00E949236882381F178
:102FA00080E00E943A2F84C0C8016BEB73E00E945E
:102FB0009236882339F18E010E5E1F4FC601B8018B
:102FC0000E94BA348C899A89891B8630C8F0C8015E
:102FD0000E940E368B32A1F4C601BE016A5E7F4F9D
:102FE00040E050E00E9433358E899F89688D798D4D
:102FF0008617970709F45CC0A7010E94973558C04F
:10300000198256C0C80166E573E00E949236882393
:1030100019F00E946F254CC0C80164EB73E00E9458
:1030200092368823F9F0C601BE016F5F7F4F56DCF0
:103030008C018981882309F43BC0C70107DC8DEA34
:1030400093E0B801A7010FDCC701AEDBC8010E9405
:10305000EB2D682F87EA93E070E0A70104DCC7013D
:10306000A7DB26C0C8016FE973E00E94923688236F
:10307000D9F082E0C82ED12CCC0EDD1EC6017E0117
:103080000894E11CF11CB70129DC8C01898188239B
:1030900079F0C601B70122DC682F8981882341F0CD
:1030A000C8010E94E22D04C019828AE893E0A5DAE3
:1030B00089816A960FB6F894DEBF0FBECDBFCF915F
:1030C000DF911F910F91FF90EF90DF90CF900895C7
:1030D000882311F482E001C081E0809356040895B2
:1030E000109255041092540410926104089590E0D7
:1030F00080915504813009F491E0892F08958091E1
:103100005504089586E990E06CE574E00E947D2303
:1031100080E694E072DA88E0809355040895809107
:103120005404813021F485E0809355040895EACF5A
:10313000FF920F931F93CF93DF938C01C0E0D0E0F9
:10314000FF24F3942FC0D8011296ED91FC911397B0
:10315000EC0FFD1F80818D3011F08A30E1F48091F9
:1031600050018823F1F0F09261048130D1F4E091B4
:103170005101F0915201E081EB3519F0ED3589F400
:1031800003C0F092540402C0109254048FE491E002
:103190000E944B3506C0109261046FE471E00E94FA
:1031A00052352196F801818190E0C817D9075CF269
:1031B000DF91CF911F910F91FF900895AF92BF9231
:1031C000CF92DF92EF92FF920F931F93DF93CF93F3
:1031D00000D000D00F92CDB7DEB780915504825059
:1031E000863050F48CE594E00E94D023882321F0AF
:1031F0008FE494E002DA86DF80915504853009F48B
:1032000079C0863098F4823009F451C0833038F4A4
:10321000882309F43DC1813009F03DC11AC08330D3
:1032200009F452C0843009F036C15BC0883009F41B
:10323000C6C0893038F4863009F4A6C0873009F05A
:103240002AC1B5C0893009F4CDC08A3009F023C144
:10325000DBC087E594E00E94D023882309F41BC1DA
:1032600082E694E00E945B230E94BF0A10926104F0
:103270008FE491E00E944B351092540488E998E164
:10328000AFD880E0DAD882E0809355040E94BA2E4D
:1032900024E630E0AC01429FC001439F900D529F55
:1032A000900D11246CE574E00E947D23F4C095D844
:1032B000882311F083E0EDC082E390E06CE574E0D8
:1032C0000E947D238AE0E5C099D8882309F4E3C0F1
:1032D000109256048DE89AE168E678E186D884E099
:1032E000D8C080915604813019F0823009F0D3C0E3
:1032F00085E0CFC080916104882309F4CCC010928E
:10330000610483E591E00E944B3580915001882350
:1033100079F18FE491E08E010F5F1F4FB8010E9499
:10332000D636C80163E571E0B0DB182F8FE491E079
:103330000E944B35809154018823A9F48091540454
:103340008130B1F4112319F404E414E002C00BE459
:1033500014E083E591E00E944B35C80163E571E01C
:103360000E94D43505C08AE063E571E00E945235C1
:103370000E943A24882311F0C5DE8DC0809154014B
:103380008823D9F086E085C039D8882309F483C022
:103390001092560483E591E067E674E00E94D63609
:1033A0008BE59AE168E678E120D887E072C08091E9
:1033B00056048150823008F06EC0B1DE6CC08CE5DE
:1033C00094E00E94D023882309F465C080E02DD8C2
:1033D0000E94C30A88EE93E06CE574E00E947D23AE
:1033E00089E057C00E94C60A882339F08CE594E032
:1033F0000E94D023882309F44EC08AE080935504AC
:103400008FE394E0FAD847C00E940A240E94B72EA6
:103410007C01CE0101960E945B235701CC24DD2460
:10342000F694E79400E010E089819A81AB81BC8139
:10343000E80EF91E0A1F1B1FC801B701A60195015E
:103440000E943C3D2F5F3F4F4F4F5F4FCA01B90174
:10345000A60195010E94F63C7B018C016093570404
:10346000709358048093590490935A040E94B42E88
:10347000A0E0B0E08E0D9F1DA01FB11F80935704E8
:1034800090935804A0935904B0935A0410925B048B
:1034900081E0809355040F900F900F900F900F9044
:1034A000CF91DF911F910F91FF90EF90DF90CF9020
:1034B000BF90AF9008950F931F93DF93CF9300D0E9
:1034C00000D0CDB7DEB70E94350F8F3F910511F0C8
:1034D00008F08FEF90E067E674E08E010F5F1F4FFA
:1034E000A8010E94EE35C8010E942F0F40E02091F4
:1034F0006704309168048091690490916A042817E8
:10350000390709F441E0842F0F900F900F900F902E
:10351000CF91DF911F910F910895CF92DF92EF929B
:10352000FF920F931F93DF93CF93CDB7DEB7E29750
:103530000FB6F894DEBF0FBECDBF0E94350F88973F
:1035400010F480E0A3C0FE013A9689E2DF011D92EB
:103550008A95E9F788E289831A82FC83EB838E01DE
:103560000F5F1F4FC8010E944B358EE594E0B801F4
:103570000E94D4350E94C32E61E040E098010E9471
:10358000743386E5B8010E9452358AE090E061E02C
:1035900040E098010E94743382E4B8010E945235E1
:1035A0000E94FD0A61E040E098010E94743382E5C8
:1035B000B8010E9452350E94DF0A90E061E040E0CD
:1035C00098010E94743381E5B8010E9452350E942F
:1035D000F00A90E061E040E098010E9474338DE4CD
:1035E000B8010E945235B4D7882311F480E301C09A
:1035F00081E38E010F5F1F4FB8010E94523580E5B5
:10360000B8010E945235A1D7882311F480E301C08C
:1036100081E36E010894C11CD11CB6010E94523591
:1036200084E5B6010E9452350E94283061E040E0F6
:1036300096010E947433CE0105960E945B23ED80B3
:10364000FE800F8118858091620490916304A0919F
:103650006404B0916504E81AF90A0A0B1B0B83E4B1
:10366000B6010E945235C70161E040E096010E9418
:1036700074338BE3B6010E9452358BE594E0B601BA
:103680000E94D435C6010E94320F81E0E2960FB647
:10369000F894DEBF0FBECDBFCF91DF911F910F9188
:1036A000FF90EF90DF90CF90089540919504409364
:1036B0009604423009F44EC0433030F4442381F084
:1036C000413009F0F1C028C0443009F4C4C044308E
:1036D00008F49AC0453009F0E7C020E030E0F2C0BD
:1036E000109299041092980410929B0410929A04DC
:1036F00080EE91E090939D0480939C048EE190E095
:1037000090939F0480939E0480EE97E09093A10491
:103710008093A00481E0C6C010929904109298048E
:103720008EE190E090939B0480939A0480EE91E068
:1037300090939D0480939C0482E291E090939F0477
:1037400080939E048FEF9FEF9093A1048093A00439
:1037500082E0A8C0809197048130D9F0813020F0B8
:10376000823009F0A1C032C08AE590E090939904BC
:103770008093980488E290E090939B0480939A044D
:1037800088E090E090939D0480939C0480EF90E00B
:1037900014C08AE590E0909399048093980480E1A6
:1037A00091E090939B0480939A048CE291E0909333
:1037B0009D0480939C0488E090E090939F04809304
:1037C0009E041092A1041092A0046EC08EE791E0B6
:1037D000909399048093980488E290E090939B04DE
:1037E00080939A0488E090E090939D0480939C04D9
:1037F00080EF90E090939F0480939E041092A10428
:103800001092A00483E04EC082E690E09093990469
:103810008093980487E390E090939B0480939A04AC
:103820008CE191E090939D0480939C048091B80476
:103830009091B9040F9790939F0480939E048FEF0B
:103840009FEF9093A1048093A0048091AE0418167A
:1038500044F584E027C082E690E090939904809339
:1038600098042091B8043091B904285D3F4F3093FB
:103870009B0420939A04285230408CE191E090936D
:103880009D0480939C0488EE90E0821B930B9093A0
:103890009F0480939E048FE190E09093A104809315
:1038A000A00485E08093950480919504841719F015
:1038B0001092970405C0809197048F5F80939704BE
:1038C00028E934E0C9010895109294048EEF8093A2
:1038D000AF041092B4041092B5041092B604109282
:1038E000B7041092BA041092BB041092BC04109258
:1038F000BD041092BF041092BE041092C004109236
:10390000C1041092C2040895FB01482F85360CF0C3
:1039100044E64093AE0414161CF068EE70E018C044
:10392000842F992787FD909524E630E0281B390BDA
:1039300089ED90E0BC01269FC001279F900D369F26
:10394000900D112464E670E00E94153D615F7F4F89
:103950007093B9046093B804443614F084E001C055
:1039600083E0809395048EEF8093AF0480819181F2
:10397000A281B3818093B0049093B104A093B20468
:10398000B093B3040895809194048823B1F4109205
:103990009504109297048FEF8093AE0488EE90E028
:1039A0009093B9048093B80485E59BE1BCD286EE80
:1039B0009CE1BED281E080939404CAD5882319F09B
:1039C0000E941D2F02C00E941A2FB7C27F928F92B1
:1039D0009F92AF92BF92CF92DF92EF92FF920F939E
:1039E0001F93DF93CF93CDB7DEB72A970FB6F89426
:1039F000DEBF0FBECDBF0E94EB2F782E882319F4B7
:103A0000CC24DD2403C00E9428306C010E94020BEC
:103A1000B82E0E94F00AA82E9BD5982E96D5882EF7
:103A2000CE01019648D629813A814B815C818091F3
:103A3000BA049091BB04A091BC04B091BD042817B6
:103A400039074A075B0709F445C02093BA0430934D
:103A5000BB044093BC045093BD0480E491E0909378
:103A6000A3048093A20485E090E09093A504809342
:103A7000A40487E591E00E944B35E980FA800B8130
:103A80001C8181ECE81688EAF80680E0080780E0EF
:103A90001807B8F00E94232F992787FD9095A92F2A
:103AA000B92FBC01CD0120E13EE040E050E00E9492
:103AB000F63CE60EF71E081F191FE982FA820B83F7
:103AC0001C83CE01019661E047E551E0C3D789E848
:103AD00094E052C19091AE048091AF04981709F41C
:103AE0005BC09093AF048CED90E09093A30480931F
:103AF000A20487E591E00E944B358091AE0487FDDA
:103B00002AC00091B8041091B904085D1F4F1093AA
:103B1000A5040093A404085210408F304CF40E9476
:103B2000EA360E94ED360D5D1F4F081B110902C0D9
:103B30000E5C1F4F1093A5040093A4048091AE0463
:103B4000992787FD909561E040E027E531E00E94EC
:103B5000743385E207C084E990E09093A5048093D4
:103B6000A4048FE367E571E00E94523587E591E098
:103B700066EA74E00E94D6368091AE048F301CF461
:103B80008FEF9FEF6BC18FE190E09093AD04809336
:103B9000AC048FEF9FEF2FC1E090B004F090B10420
:103BA0000091B2041091B3048091B4049091B504D3
:103BB000A091B604B091B704E816F9060A071B07EE
:103BC00009F45DC0E092B404F092B5040093B60429
:103BD0001093B704EE82FF82088719870E94232F73
:103BE000992787FD9095A92FB92FBC01CD0120E120
:103BF0003EE040E050E00E94F63CE60EF71E081F53
:103C0000191FEE82FF82088719871A8688E790E0DD
:103C10009093A3048093A2040E94EA360E94ED369A
:103C200020E431E0281B31093093A5042093A4043B
:103C300087E591E00E944B3582E894E067E571E00A
:103C40000E94D435CE01069661E047E551E002D7E7
:103C50008FE794E067E571E00E94D43587E591E055
:103C600066EA74E00E94D6368FEF9FEF9093AD0422
:103C70008093AC041092AB041092AA04C0C080914F
:103C8000BE049091BF04C816D90619F1D092BF04A2
:103C9000C092BE04772009F4E8C01092A3041092E9
:103CA000A20485E090E09093A5048093A40487E5A6
:103CB00091E00E944B358CE794E067E571E00E944B
:103CC000D435C60161E040E027E531E00E9474335D
:103CD00057C08091C004B81631F1B092C004BB2027
:103CE00009F4C3C08BE490E09093A3048093A204F2
:103CF00085E090E09093A5048093A40487E591E08B
:103D00000E944B3589E794E067E571E00E94D43565
:103D10008B2D90E061E040E027E531E00E947433B4
:103D200085E794E029C08091C104A81691F1A09282
:103D3000C104AA2009F499C08AEF90E09093A304EB
:103D40008093A20485E090E09093A5048093A4045E
:103D500087E591E00E944B3582E794E067E571E0EA
:103D60000E94D4358A2D90E061E040E027E531E003
:103D70000E9474338EE694E067E571E00E94D435CA
:103D800087E591E066EA74E00E94D63680EE97E01F
:103D90006DCF8091C2049816A9F19092C2048AEA6C
:103DA00090E09093A3048093A20485E090E0909328
:103DB000A5048093A40487E591E00E944B359920E7
:103DC00031F08DE467E571E00E94523506C08EE661
:103DD00094E067E571E00E94D43587E591E066EAFA
:103DE00074E00E94D63680EE97E09093AD04809305
:103DF000AC0480E098EF9093AB048093AA0422EA8D
:103E000034E035C08091C304881679F18092C304F0
:103E100083EC90E09093A3048093A20485E090E06B
:103E20009093A5048093A40487E591E00E944B350C
:103E3000882031F080E567E571E00E94523506C0C8
:103E40008EE694E067E571E00E94D43587E591E065
:103E500066EA74E00E94D63680EE97E09093AD0457
:103E60008093AC048FE190E0C6CF20E030E0C90140
:103E70002A960FB6F894DEBF0FBECDBFCF91DF916B
:103E80001F910F91FF90EF90DF90CF90BF90AF9078
:103E90009F908F907F9008958EBD0DB407FEFDCF4B
:103EA00008950AC00DB407FEFDCF9EBD0DB407FEF8
:103EB000FDCF8EBD615070406115710599F70DB44D
:103EC00007FEFDCF0895FC0107C084918EBD0DB49F
:103ED00007FEFDCF319661506623B9F708959091A2
:103EE000E3049A3010F02E9A0895992399F0809166
:103EF000E204893058F48091E2048F5F8093E204F9
:103F00008091E204891739F42E9808952E9A109220
:103F1000E20408952E9808952F988EBD0DB407FEE3
:103F2000FDCF2F9A08959093CB048093CA040895EF
:103F30009093D3048093D20408958093E30408956A
:103F40002F923F924F925F926F927F928F929F92A9
:103F5000AF92BF92CF92DF92EF92FF920F931F9397
:103F6000DF93CF93CDB7DEB72D970FB6F894DEBFB2
:103F70000FBECDBF8091C404843009F4A1C0853048
:103F800050F48130E9F0813098F0823089F183304B
:103F900009F09FC242C0863009F4ADC0863008F4F3
:103FA0009EC0873009F43BC1883009F092C26EC1CF
:103FB000889884E190E065EC74E09FD381E087C24B
:103FC00085EC94E0EDD3882309F483C2889A1AE142
:103FD000812F8A95F1F70E9462321A95F1F781E0FC
:103FE0009BDF82E090E065EC74E087D382E06FC2F3
:103FF00085EC94E0D5D3882309F46BC289EB8CDF80
:104000008FEF4ADF83E848DF87E546DF8EE190E007
:1040100065EC74E072D383E05AC285EC94E0C0D3BF
:10402000882309F456C283EB77DF80E835DF80E030
:1040300033DF86E031DF86E02FDF86EB6DDF85E260
:104040002BDF80EB69DF88E627DF8CEC65DF85E01E
:1040500023DF81EB61DF8CE894E066E034DF80EC05
:104060005BDF82E994E066E02EDF84EB55DF88E9D0
:1040700094E067E028DF80EE4FDF8FE994E062E2B2
:1040800022DF8AE349DF85E507DF86E345DF80EC51
:1040900003DF85E341DF80E0FFDE84E43DDF80E095
:1040A000FBDE82E0F9DE86E337DF80EAF5DE81E1E0
:1040B00033DF8FE090E065EC74E01FD384E007C24B
:1040C00085EC94E06DD3882309F403C289E224DFF0
:1040D00085E090E065EC74E010D385E0F8C185ECF4
:1040E00094E05ED3882309F4F4C10E9464328AE12B
:1040F0008A95F1F7EBC1E091CA04F091CB043097B7
:1041000009F455C009958C01009709F450C00E942C
:1041100062328AE18A95F1F78AE2FEDED8018D915A
:104120009C9161E070E0BDDEF80180819181248185
:104130003581820F931F019761E070E0B2DE8BE260
:10414000EBDED80112968D919C91139761E070E09F
:10415000A8DEF8018281938126813781820F931F27
:10416000019761E070E09DDE8CE2D6DED801189602
:104170008D919C9119979093D1048093D0041696B9
:104180006D917C91179780E090E014962D913C9171
:10419000159740E050E00E94F63C6093CC04709389
:1041A000CD048093CE049093CF0487E090C1E0913A
:1041B000D204F091D304309709F48BC109958C0196
:1041C000009709F486C10E9462328AE18A95F1F76C
:1041D000F801808191819093D5048093D4048281E9
:1041E00093819093D7048093D60484819581909392
:1041F000D9048093D804868197819093DB048093BF
:10420000DA04808591859093DF048093DE048285B3
:1042100093859093E1048093E00488E058C1209155
:10422000CC043091CD044091CE045091CF042D3276
:10423000F1E03F07F0E04F07F0E05F0720F02CE2ED
:1042400031E040E050E079018091D0049091D104B8
:10425000B90127DE00E010E08091CC049091CD04FC
:10426000A091CE04B091CF048E199F09A00BB10B81
:104270008093CC049093CD04A093CE04B093CF044C
:104280000097A105B10509F024C11EC16091DC04AD
:104290007091DD046C5F7F4FFB018491645070402E
:1042A000AB014E5F5F4FFA0125913491A091D80484
:1042B000B091D904AC91A81B87E0A89F600111249C
:1042C000C20ED31EFB01259134913A832983695F85
:1042D0007F4FFB0104916F5F7F4FFB01F491FB83E4
:1042E00068507040CB010E94ED36F82EF601A59083
:1042F000B49022E030E0C20ED31EF601F491FC83AC
:104300000894C11CD11CF60154900894C11CD11C06
:10431000F601F491FD830894C11CD11CF601649050
:104320000894C11CD11CF60114918AE2F5DD80913C
:10433000D4049091D50461E070E0B3DDFD81CF2E0F
:10434000DD248091D4049091D50401978C0D9D1D9E
:1043500061E070E0A6DD8BE2DFDD8091D604909114
:10436000D70461E070E09DDD8091D6049091D70480
:1043700001978F0D911D61E070E093DD8CE2CCDD43
:10438000212E332427FC3094112707FD1095C101FD
:10439000801B910B61F08C9DB0018D9D700D9C9DDB
:1043A000700D11248091E0049091E1047ADD9090E9
:1043B000E0048090E1042091DE042E833091DF043C
:1043C0003F8300E010E07724EE24452C5524462D51
:1043D000552747FD5095598748879C81892F90E044
:1043E0009B878A87FD80AC81FA1AF6183BC01614A9
:1043F0002CF4892D982D6885798553DD1D861C86C2
:104400001DC090E087709070892B41F4E981FA819A
:10441000EA0DFB1D0894A11CB11CE490E7FE03C04B
:104420008E819F8102C0892D982D61E070E039DD79
:10443000EE0CEC85FD853196FD87EC878C85870D2C
:104440002C853D854A855B8524173507D4F25C8130
:10445000750EFF2029F0892D982D6F2D70E021DD3C
:104460000F5F1F4F041515050CF4C1CFAB818A2FC8
:10447000992787FD9095821993098419950951F020
:104480008C9DB0018D9D700D9C9D700D1124892D0A
:10449000982D07DD8091D4049091D5048C0D9D1D3D
:1044A0009093D5048093D4048091D8049091D9043A
:1044B00001969093D9048093D8042091DA04309126
:1044C000DB048217930729F40E94643286E080930C
:1044D000C4042D960FB6F894DEBF0FBECDBFCF91AA
:1044E000DF911F910F91FF90EF90DF90CF90BF90E1
:1044F000AF909F908F907F906F905F904F903F9084
:104500002F9008952E9A269A889A809A2F9A279A01
:1045100080E190E00E944D321092E2048AE08093A4
:10452000E3048FE69FE1B7D01092CB041092CA0447
:104530001092D3041092D2041092C4040E94EA365E
:104540009093DD048093DC0408958091E60408953F
:104550008091E7040895DF93CF9300D0CDB7DEB705
:104560008CEE94E01DD18823F9F085E090E06CEEAC
:1045700074E0C3D08091E8049091E904089758F062
:104580001092E6048091EA049091EB04029718F0EF
:1045900081E08093E6041092E9041092E8041092FE
:1045A000EB041092EA0414C08091E8049091E904AD
:1045B00001969093E9048093E8047C9909C0809166
:1045C000EA049091EB0401969093EB048093EA0443
:1045D0008091F804813089F0813018F0823049F5FB
:1045E00016C081EF94E0DCD0882319F182E390E0DB
:1045F00061EF74E082D081E007C086EF94E00E9412
:104600001D328823B1F082E08093F80412C0CE01FD
:1046100001960E942F32882361F01092E70489816D
:104620009A81885C914018F081E08093E7041092B1
:10463000F8040F900F90CF91DF9108951092E60447
:104640001092E7041092E9041092E8041092EB042F
:104650001092EA041092E5041092E40484988C9A73
:1046600085E063E040E026EF34E00E94CB3185E056
:1046700090E06CEE74E041D082E390E061EF74E092
:104680003CD01092F8041092E70408958F9A879A0C
:1046900086988E9A089520910A05223058F4E22FC8
:1046A000F0E0EE0FFF1FE55FFA4F918380832F5FED
:1046B00020930A050895FC012FB7F8948091FC041B
:1046C0009091FD04A091FE04B091FF04808391833A
:1046D000A283B3838091000584832FBF08958FB791
:1046E000F894209101053091020540910305509105
:1046F00004058FBFB901CA010895CF92DF92EF92EE
:10470000FF920F931F93DF93CF9300D000D00F92AF
:10471000CDB7DEB76C017B01CE010196CCDF0981FC
:104720001A812B813C81F70100831183228333831B
:10473000C60164E670E00E94293D9D81980F948334
:10474000943650F0945694830F5F1F4F2F4F3F4F76
:104750000083118322833383C60164E670E00E94E4
:10476000293D882777FD8095982FF7012081318199
:1047700042815381260F371F481F591F20833183E1
:10478000428353830F900F900F900F900F90CF9113
:10479000DF911F910F91FF90EF90DF90CF900895E0
:1047A0000F931F93DF93CF9300D000D00F92CDB71C
:1047B000DEB78C01CE0101967EDF29813A814B81E3
:1047C0005C81F80180819181A281B3818217930776
:1047D000A407B50718F481E090E012C02817390744
:1047E0004A075B0719F080E090E00AC020E030E063
:1047F0009D81F8018481981710F021E030E0C90113
:104800000F900F900F900F900F90CF91DF911F910D
:104810000F910895EF92FF920F931F938FB7F89423
:104820002091FC043091FD044091FE045091FF045E
:10483000E0900505F0900605009107051091080528
:104840002E0D3F1D401F511F2093FC043093FD048B
:104850004093FE045093FF04109205051092060544
:1048600010920705109208058FBF1F910F91FF90BE
:10487000EF9008958091FB040895FC01DB01809185
:1048800010058083809111058C9308958FEF80939C
:104890001005109211050895FC01608171818281DB
:1048A000938120E831E541E050E00E943C3DCA019F
:1048B000B90127E030E040E050E00E943C3D862F07
:1048C0000895FC01608171818281938120E13EE045
:1048D00040E050E00E943C3DCA01B90128E130E0CF
:1048E00040E050E00E943C3D862F0895FC0160812D
:1048F0007181828193812CE330E040E050E00E949E
:104900003C3DCA01B9012CE330E040E050E00E9498
:104910003C3D862F0895FC016081718182819381E5
:104920002CE330E040E050E00E943C3D862F0895AB
:104930001F920F920FB60F9211240F931F932F9374
:104940003F934F935F936F937F938F939F93AF9317
:10495000BF93CF93DF93EF93FF938091F9049091EE
:10496000FA0401969093FA048093F90480910F055C
:104970008F3F29F080910F058F5F80930F05809105
:10498000F9049091FA04C097A8F11092FA041092D9
:10499000F904809100058F5F8093000580910005E8
:1049A000843640F1109200058091FC049091FD0442
:1049B000A091FE04B091FF040196A11DB11D80934A
:1049C000FC049093FD04A093FE04B093FF04809137
:1049D000010590910205A0910305B091040501968F
:1049E000A11DB11D8093010590930205A0930305BD
:1049F000B09304050BE015E0C0E0D0E006C0D8019C
:104A0000ED91FD918D010995219680910A0590E027
:104A1000C817D907A4F3FF91EF91DF91CF91BF9110
:104A2000AF919F918F917F916F915F914F913F9146
:104A30002F911F910F910F900FBE0F901F901895FF
:104A40001F920F920FB60F9211240F900FBE0F906E
:104A50001F9018950F931F93CF93DF938C01EA015A
:104A6000662369F019DF93E0899FC00111248F53F9
:104A70009B4F63E0AE010E94B43580E208C00CDFBA
:104A800090E061E040E09E010E9474338CE2BE0140
:104A90000E945235C80115DF90E062E040E09E01BF
:104AA0000E9474338AE3BE010E945235C8011EDFA2
:104AB00090E062E040E09E010E9474338AE3BE0110
:104AC0000E945235C80127DF90E062E040E09E017D
:104AD0000E947433DF91CF911F910F910895DF935E
:104AE000CF9300D000D00F92CDB7DEB78091FB04FA
:104AF000882381F581E08093FB04CE010196DBDD04
:104B000069817A818B819C81685F7F4F8F4F9F4F36
:104B10002091050530910605409107055091080543
:104B2000620F731F841F951F69837A838B839C8315
:104B30000E944B2F87ED94E00E94FD1229E288E14C
:104B400090E00FB6F894A895809360000FBE209374
:104B50006000A8950F900F900F900F900F90CF913D
:104B6000DF9108956F927F928F929F92AF92BF9242
:104B7000CF92DF92EF92FF920F931F938FB7F8942B
:104B800090910F0510920F058FBF80911105891725
:104B900018F49093110506C080911005981710F431
:104BA000909310058091FB04882349F5A89597DD23
:104BB0003B014C010E94C02E5C010E94B72EA0E078
:104BC000B0E07C018D01EE0CFF1C001F111FE80EF0
:104BD000F91E0A1F1B1FCC24DD24C601B5012CE3DE
:104BE00030E040E050E00E94F63CE60EF71E081F61
:104BF000191FE614F7040805190508F470DF1F9162
:104C00000F91FF90EF90DF90CF90BF90AF909F906B
:104C10008F907F906F900895EF92FF920F931F9364
:104C2000DF93CF93CDB7DEB769970FB6F894DEBFA9
:104C30000FBECDBFFC016FB7F8942091FC043091FA
:104C4000FD044091FE045091FF0480819181A28176
:104C5000B381821B930BA40BB50B80930505909336
:104C60000605A0930705B09308056FBFFE013596B2
:104C700085E1DF011D928A95E9F784E189831A8233
:104C8000FC83EB837E010894E11CF11CC7010E94A8
:104C90004B3588EE94E0B7010E94D435609105054C
:104CA00070910605809107059091080541E020E08C
:104CB00087010E94CC32C7010E94E41269960FB6A8
:104CC000F894DEBF0FBECDBFCF91DF911F910F9142
:104CD000FF90EF9008951092FA041092F904109248
:104CE0000F05D4DD0E94482F6093FC047093FD04EF
:104CF0008093FE049093FF041092000560E070E042
:104D000080E090E00E944B2F109201051092020566
:104D100010920305109204051092050510920605E5
:104D200010920705109208051092FB048091FC0474
:104D30009091FD04A091FE04B091FF04109209052A
:104D40000297A105B10518F481E08093090510923E
:104D50000A0580919100887F826080939100809104
:104D60009100877E88608093910080ED90E0909321
:104D70009900809398001092950010929400C19A27
:104D80008091710082608093710008959AE0899FFC
:104D9000F0011124EE5EFA4F81E0808311820895C4
:104DA000282F30E0F90153E0EE0FFF1F5A95E1F78D
:104DB000220F331FE20FF31FEE5EFA4F0084F185DE
:104DC000E02D2681378184819581281B390BC9010B
:104DD0000895262F9AE0899FF0011124EE5EFA4F84
:104DE0008081882329F060857185822F0C942D3174
:104DF0000895EF92FF920F931F93CF93DF93DB0100
:104E00009AE0899FF0011124EE5EFA4F8081882399
:104E100089F0E084F184CD91DC91119712960D9187
:104E20001C91139704C08991B7010E942D31C017BE
:104E3000D107C9F7DF91CF911F910F91FF90EF90AC
:104E40000895EF92FF920F931F93CF93DF93F62E67
:104E5000E72E9AE0899FF0011124EE5EFA4F8081DF
:104E6000882311F100851185862F972F0E94793DA7
:104E70002FB7F8942FBFF8012681378144815581DF
:104E8000241B350B2817390778F08F2D9E2DFC0138
:104E9000EF01FE0184912196882311F481E005C081
:104EA000B8010E942D31F5CF80E0DF91CF911F91A5
:104EB0000F91FF90EF900895EF92FF921F93DF9371
:104EC000CF9300D000D0CDB7DEB7182FCB017E0135
:104ED0000894E11CF11CB7010E94D636812FB7015E
:104EE00088DF0F900F900F900F90CF91DF911F915F
:104EF000FF90EF900895CF92DF92EF92FF920F9381
:104F00001F939AE0899F7001112482E195E0E80ED9
:104F1000F91E74E0C72ED12CCE0CDF1C862F642F17
:104F200041E021E086010E946530C6010E94A83060
:104F3000F7011082808591850E9422311F910F9187
:104F4000FF90EF90DF90CF900895109212058BE5BF
:104F500091E090931B0580931A0510921C0585E63D
:104F600091E0909325058093240580EC97E293CB04
:104F7000882319F0CB010C94A830CB010C94BF30DE
:104F80000F931F93CF93DF93C2E1D5E002E011E0CE
:104F900088818823B1F189818130D9F0813018F07E
:104FA000823079F528C08FB7F8948FBFE885F985EE
:104FB00084819581892B29F1BE016C5F7F4F80E050
:104FC000D7DF888599850E946C318A831B8319837A
:104FD00018C08A81BE016C5F7F4F8170C9DF8B81F1
:104FE000883011F409830DC08B818F5F8B838A8198
:104FF00086958A8306C0BE016C5F7F4F81E0B8DF73
:1050000019822A9685E0C632D80709F0C1CFDF9110
:10501000CF911F910F91089583B190E024E0969570
:1050200087952A95E1F7817008958091EE05882390
:1050300051F41092EF0580916B00806180936B00BA
:1050400081E08093EE0508958FE691E008951F9228
:105050000F920FB60F9211242F933F934F935F93AC
:105060006F937F938F939F93AF93BF93EF93FF9330
:10507000D3DF882389F4A99A80916E00826080939F
:105080006E0016BC88E687BD80916B008F7E809392
:105090006B0081E08093EF05FF91EF91BF91AF919D
:1050A0009F918F917F916F915F914F913F912F9140
:1050B0000F900FBE0F901F9018951F920F920FB672
:1050C0000F9211241F932F933F934F935F936F93EE
:1050D0007F938F939F93AF93BF93EF93FF93109121
:1050E000EF051230B1F0133051F1113009F03CC02E
:1050F00093DF882341F41092F0051093F10580EDC1
:1051000087BD82E015C080916E008D7F80936E0018
:1051100026C082DF882339F08091F0059091F10557
:10512000892B8093F0058091F105803821F483E08C
:105130008093EF0519C0880F8093F10515C06CDFCF
:10514000882331F08091F0056FE671E00E942D31E7
:1051500080916E008D7F80936E001092EF0580919C
:105160006B00806180936B00FF91EF91BF91AF91D5
:105170009F918F917F916F915F914F913F912F916F
:105180001F910F900FBE0F901F9018958FE691E022
:105190000E94223124982C9A82E084BD85BD80ED46
:1051A00087BD16BCA99AE8E6F0E080818160808323
:1051B0001092EE053ACF819A08958198089581E082
:1051C0008093EB0608951092EB0608958091EC060B
:1051D000823051F0833018F4813041F409C08330BB
:1051E00079F0843019F404C082E0089580E00895D5
:1051F0008091EB06882311F484E0089581E00895FE
:1052000083E008959093FC068093FB0608959093A5
:10521000FE068093FD060895909300078093FF0695
:1052200008959093020780930107089590930607CD
:1052300080930507089590930807809307070895C2
:1052400090930A0780930907089590930C07809321
:105250000B07089590930E0780930D070895909380
:10526000100780930F0708959093120780931107FA
:105270000895909314078093130708959093160749
:105280008093150708959093180780931707089542
:1052900090931A0780931907089590931C078093A1
:1052A0001B07089580E06AE194CDBC0180E004DE34
:1052B00080E06DE08ECDBC0180E0FECDBC0180E0E1
:1052C00098CDBC0180E0BDCDFCDF80E06DE081CDFC
:1052D00080E066CDEF92FF920F931F93DF93CF9301
:1052E00000D00F92CDB7DEB78C017B01BE016F5F9E
:1052F0007F4FAE014E5F5F4F98010E945634898107
:10530000882339F08A81F7018083C8010E94203602
:1053100002C0F70110820F900F900F90CF91DF9194
:105320001F910F91FF90EF900895EF92FF920F93CE
:105330001F93DF93CF9300D000D0CDB7DEB78C01A1
:105340007E010894E11CF11CB701A8010E943335CD
:105350006B817C8189819A814DE751E00E9497356C
:10536000C801B701A8010E9433356B817C81898116
:105370009A8141E851E00E94973582E08093F506DA
:105380000F900F900F900F90CF91DF911F910F9181
:10539000FF90EF9008952F923F924F925F926F92FD
:1053A0007F928F929F92AF92BF92CF92DF92EF92B5
:1053B000FF920F931F93DF93CF93CDB7DEB76F9715
:1053C0000FB6F894DEBF0FBECDBF8FB7F8948FBF76
:1053D000E091ED06F091EE06848040E1A42EB12C20
:1053E000AC0EBD1E36E0632E712C6C0E7D1E6E0160
:1053F0000894C11CD11C28E0E22EF12CEC0EFD1EFD
:105400009CE0292E312C2C0E3D1E84E1482E512C7F
:105410004C0E5D1E15C38091ED069091EE065CD793
:10542000982E8091F506813009F4C2C2813020F0B7
:10543000823009F002C3D5C28DE0981609F054C23B
:1054400080917A01882309F447C300917B01109170
:105450007C01D8019C919B3209F0B2C189E791E0AF
:10546000B7010E94D6368BE26AE3A701910187015A
:105470000E94E834C1016BED75E04DE050E00E9400
:1054800081328093F806863009F413C1873090F496
:10549000823009F490C0833030F4882309F18130E0
:1054A00009F01AC361C0843009F4B3C0853008F034
:1054B000F6C093C08A3009F430C18B3038F488309C
:1054C00009F4FEC0893009F007C318C18C3009F413
:1054D00060C18C3008F446C18D3009F0FDC268C14E
:1054E000C701F4D7C701B601AE014E5F5F4F970108
:1054F0000E9456348981882309F4EEC2C7010E94B4
:105500000E368C3209F0E8C2C7010E942036C7016E
:10551000B601AE014C5F5F4F97010E9456348981FE
:10552000882309F4D9C2C7010E940E368C3209F0D3
:10553000D3C2C7010E942036C701B601A30120E0F3
:1055400030E00E9456348981882309F4C5C2E09175
:105550001907F0911A07309709F4BEC24E815F8196
:105560008A816C810995B8C2C701B50140E050E05D
:105570000E943335C501B201ADDEC501BE016B5ECF
:105580007F4FA8DEC501BE016A5E7F4FA3DEC50165
:10559000BE01695E7F4F9EDEC501BE01685E7F4F22
:1055A00099DEC501BE01675E7F4F94DEE09117076B
:1055B000F09118076FC0C70189D7C701B601A301D1
:1055C00020E030E00E9456348981882309F484C2A7
:1055D000E0910D07F0910E07D6C0C70177D7C7013C
:1055E000B601A30120E030E00E945634898188236F
:1055F00009F472C2E0910907F0910A07309709F4A3
:105600006BC220E08E819F81892B09F021E0822FDF
:1056100069C1C7015BD7C701B601A20197010E940A
:10562000EA338981882351F0C7010E940E368C32FB
:1056300021F4C7010E94203601C019828981882384
:1056400041F0C701B601AE01485E5F4F97010E946D
:10565000EA338981882351F0C7010E940E368C32CB
:1056600021F4C7010E94203601C019828981882354
:1056700049F0C701B601AE01445E5F4F20E030E063
:105680000E94EA338981882309F426C2E091030746
:10569000F0910407309709F41FC2C201D1C0C701BD
:1056A00015D7C701B60149EF56E097010E9456345D
:1056B00004C01092FA061092F906C70136DE0CC239
:1056C000C701B501A7010E943335C7010E940E36FC
:1056D0008C3209F001C2C7010E942036C701B60111
:1056E000A30120E030E00E9456348981882309F428
:1056F000F3C1E0911307F091140745C0C701B5014C
:1057000040E050E00E943335E0911507F091160714
:10571000309709F4E1C1C50193C0C701D7D6C701CD
:10572000B601A30197010E9456348981882309F4A8
:10573000D3C1C7010E940E368C3209F0CDC1C7011A
:105740000E942036C701B601A30120E030E00E948C
:1057500056348981882309F4BFC1E0911107F09183
:10576000120711C0C701B2D6C701B601A30120E0DC
:1057700030E00E9456348981882309F4ADC1E0915C
:105780000F07F0911007309709F4A6C18E819F8111
:1057900057C0C7019BD6C70162ED76E00E9469360B
:1057A000882309F499C1E0910707F0910807C2C066
:1057B0008BEC96E00E94FD12C7010E94D8128CC1AA
:1057C000892F80538A3050F4E091FF06F091000752
:1057D000309709F481C189E791E032C09335E9F44B
:1057E000C80163EC76E00E94B73D0817190751F530
:1057F00089E791E067E070E0A7010E94BB36C7012E
:105800006AE976E04EE050E07CD6E091FD06F0914A
:10581000FE06309709F066C05FC1943499F4C80160
:1058200066EB76E00E94B73D0817190759F4E0913E
:105830000507F0910607309709F44EC180E090E02B
:1058400009954AC189E791E0B7010E94D636C701A0
:105850006EE775E04EE050E054D680932C0786301A
:1058600041F1873060F48230C9F0833018F4813020
:1058700081F519C0833079F0853059F517C089302A
:10588000A9F08A3018F4883021F519C08D30A1F0C4
:105890008E30F9F417C08DE197E002C080E197E007
:1058A0000E94FD1216C089E097E0FACF82E097E0EF
:1058B000F7CF84EF96E0F4CF86EE96E0F1CF8FED50
:1058C00096E0EECF88ED96E00E94FD12C7010E949F
:1058D000D812E091FB06F091FC06309709F4FCC069
:1058E00080912C070995F8C0BAE09B1629F48091A5
:1058F000F4068D3009F4A1C0892D69E771E00E949A
:10590000523580917A01E82FF0E0E230F1050CF495
:1059100094C000917B0110917C01D8018C9111966B
:105920009C918E3361F4903209F087C0E0911B079F
:10593000F0911C07309709F4CFC00995CDC08B3288
:1059400009F07BC0993409F078C0E00FF11F31975E
:1059500080818A3309F071C0C80168E277E00E9453
:10596000B73D0817190709F068C089E791E065E0BD
:1059700070E0A5010E94BB3619821F821E82C501FC
:10598000B601A301950192D78981882309F455C0F6
:10599000C5010E940E368A3309F04FC08E819F8167
:1059A0009093F7068093F60681E08093F50694C005
:1059B000892D69E771E00E94523580917A0190E06B
:1059C0002091F6063091F70682179307B0F1E09127
:1059D0000107F09102073097E9F089E791E0099516
:1059E00019C0BDE09B16E9F48091F806855082301D
:1059F00088F4E0910B07F0910C07309759F08091F3
:105A0000F9069091FA066DE771E041E851E029E767
:105A100031E0099589E791E00E944B351092F50637
:105A20000CC0EAE09E1621F48091F4068D3029F036
:105A3000892D69E771E00E9452359092F4068A94AC
:105A4000882009F0E8CC8091EC06813059F0813053
:105A500030F0823071F1843009F042C02FC0809163
:105A6000EB0630C080912C07883039F4A6DB80919A
:105A7000EB06882349F082E02CC0863041F49DDBA0
:105A80008091EB06882391F088EC90E009C08D307E
:105A900039F593DB8091EB06882341F080EE9EE29E
:105AA0006FEE76E00E947D2384E013C01092EC0636
:105AB00017C08091EB06882399F406C08FEE96E01C
:105AC0000E94D023882361F08FE080932C0773DB42
:105AD00081E08093EC0604C089E791E0DCD7ADCF8C
